{
  "contractName": "Betl",
  "abi": [
    {
      "constant": true,
      "inputs": [
        {
          "name": "",
          "type": "address"
        }
      ],
      "name": "hostContext",
      "outputs": [
        {
          "name": "nextRoundNumber",
          "type": "uint256"
        },
        {
          "name": "numRoundsSuccess",
          "type": "uint256"
        },
        {
          "name": "numRoundsCancelled",
          "type": "uint256"
        },
        {
          "name": "totalNumBets",
          "type": "uint256"
        },
        {
          "name": "totalPoolSize",
          "type": "uint256"
        }
      ],
      "payable": false,
      "stateMutability": "view",
      "type": "function"
    },
    {
      "constant": false,
      "inputs": [],
      "name": "renounceOwnership",
      "outputs": [],
      "payable": false,
      "stateMutability": "nonpayable",
      "type": "function"
    },
    {
      "constant": true,
      "inputs": [],
      "name": "owner",
      "outputs": [
        {
          "name": "",
          "type": "address"
        }
      ],
      "payable": false,
      "stateMutability": "view",
      "type": "function"
    },
    {
      "constant": true,
      "inputs": [
        {
          "name": "",
          "type": "bytes32"
        }
      ],
      "name": "hostAddresses",
      "outputs": [
        {
          "name": "",
          "type": "address"
        }
      ],
      "payable": false,
      "stateMutability": "view",
      "type": "function"
    },
    {
      "constant": true,
      "inputs": [
        {
          "name": "",
          "type": "address"
        }
      ],
      "name": "hostNames",
      "outputs": [
        {
          "name": "",
          "type": "bytes32"
        }
      ],
      "payable": false,
      "stateMutability": "view",
      "type": "function"
    },
    {
      "constant": false,
      "inputs": [
        {
          "name": "_newOwner",
          "type": "address"
        }
      ],
      "name": "transferOwnership",
      "outputs": [],
      "payable": false,
      "stateMutability": "nonpayable",
      "type": "function"
    },
    {
      "payable": true,
      "stateMutability": "payable",
      "type": "fallback"
    },
    {
      "anonymous": false,
      "inputs": [
        {
          "indexed": true,
          "name": "host",
          "type": "address"
        },
        {
          "indexed": false,
          "name": "roundId",
          "type": "bytes4"
        }
      ],
      "name": "RoundCreated",
      "type": "event"
    },
    {
      "anonymous": false,
      "inputs": [
        {
          "indexed": true,
          "name": "host",
          "type": "address"
        },
        {
          "indexed": false,
          "name": "roundId",
          "type": "bytes4"
        }
      ],
      "name": "RoundFinished",
      "type": "event"
    },
    {
      "anonymous": false,
      "inputs": [
        {
          "indexed": true,
          "name": "host",
          "type": "address"
        },
        {
          "indexed": false,
          "name": "roundId",
          "type": "bytes4"
        }
      ],
      "name": "RoundCancelled",
      "type": "event"
    },
    {
      "anonymous": false,
      "inputs": [
        {
          "indexed": true,
          "name": "previousOwner",
          "type": "address"
        }
      ],
      "name": "OwnershipRenounced",
      "type": "event"
    },
    {
      "anonymous": false,
      "inputs": [
        {
          "indexed": true,
          "name": "previousOwner",
          "type": "address"
        },
        {
          "indexed": true,
          "name": "newOwner",
          "type": "address"
        }
      ],
      "name": "OwnershipTransferred",
      "type": "event"
    },
    {
      "constant": true,
      "inputs": [
        {
          "name": "_host",
          "type": "address"
        }
      ],
      "name": "getNextRoundId",
      "outputs": [
        {
          "name": "",
          "type": "bytes4"
        }
      ],
      "payable": false,
      "stateMutability": "view",
      "type": "function"
    },
    {
      "constant": false,
      "inputs": [
        {
          "name": "_question",
          "type": "bytes32"
        },
        {
          "name": "_outcomes",
          "type": "bytes32[]"
        },
        {
          "name": "_configData",
          "type": "uint256[4]"
        },
        {
          "name": "_payoutTiers",
          "type": "uint256[]"
        }
      ],
      "name": "createRound",
      "outputs": [],
      "payable": true,
      "stateMutability": "payable",
      "type": "function"
    },
    {
      "constant": false,
      "inputs": [
        {
          "name": "_host",
          "type": "address"
        },
        {
          "name": "_roundId",
          "type": "bytes4"
        },
        {
          "name": "_outcomeId",
          "type": "bytes32"
        }
      ],
      "name": "bet",
      "outputs": [],
      "payable": true,
      "stateMutability": "payable",
      "type": "function"
    },
    {
      "constant": false,
      "inputs": [
        {
          "name": "_picks",
          "type": "uint256[]"
        },
        {
          "name": "_roundId",
          "type": "bytes4"
        }
      ],
      "name": "pickWinnerAndEnd",
      "outputs": [],
      "payable": true,
      "stateMutability": "payable",
      "type": "function"
    },
    {
      "constant": false,
      "inputs": [
        {
          "name": "_host",
          "type": "address"
        },
        {
          "name": "_roundId",
          "type": "bytes4"
        }
      ],
      "name": "claimPayout",
      "outputs": [],
      "payable": false,
      "stateMutability": "nonpayable",
      "type": "function"
    },
    {
      "constant": false,
      "inputs": [
        {
          "name": "_host",
          "type": "address"
        },
        {
          "name": "_roundId",
          "type": "bytes4"
        }
      ],
      "name": "claimRefund",
      "outputs": [],
      "payable": false,
      "stateMutability": "nonpayable",
      "type": "function"
    },
    {
      "constant": false,
      "inputs": [
        {
          "name": "_roundId",
          "type": "bytes4"
        }
      ],
      "name": "cancelRound",
      "outputs": [],
      "payable": false,
      "stateMutability": "nonpayable",
      "type": "function"
    },
    {
      "constant": true,
      "inputs": [
        {
          "name": "_host",
          "type": "address"
        },
        {
          "name": "_roundId",
          "type": "bytes4"
        }
      ],
      "name": "getRoundInfo",
      "outputs": [
        {
          "name": "",
          "type": "uint256"
        },
        {
          "name": "",
          "type": "uint256"
        },
        {
          "name": "",
          "type": "uint256"
        },
        {
          "name": "",
          "type": "uint256"
        },
        {
          "name": "",
          "type": "bytes32"
        },
        {
          "name": "",
          "type": "uint256"
        },
        {
          "name": "",
          "type": "uint256"
        },
        {
          "name": "",
          "type": "uint256"
        },
        {
          "name": "",
          "type": "uint256"
        },
        {
          "name": "",
          "type": "uint256"
        }
      ],
      "payable": false,
      "stateMutability": "view",
      "type": "function"
    },
    {
      "constant": true,
      "inputs": [
        {
          "name": "_hostName",
          "type": "bytes32"
        },
        {
          "name": "_roundId",
          "type": "bytes4"
        },
        {
          "name": "_index",
          "type": "uint256"
        }
      ],
      "name": "getRoundOutcomeByName",
      "outputs": [
        {
          "name": "",
          "type": "bytes32"
        }
      ],
      "payable": false,
      "stateMutability": "view",
      "type": "function"
    },
    {
      "constant": true,
      "inputs": [
        {
          "name": "_host",
          "type": "address"
        },
        {
          "name": "_roundId",
          "type": "bytes4"
        },
        {
          "name": "_index",
          "type": "uint256"
        }
      ],
      "name": "getRoundOutcome",
      "outputs": [
        {
          "name": "",
          "type": "bytes32"
        }
      ],
      "payable": false,
      "stateMutability": "view",
      "type": "function"
    },
    {
      "constant": true,
      "inputs": [
        {
          "name": "_hostName",
          "type": "bytes32"
        },
        {
          "name": "_roundId",
          "type": "bytes4"
        },
        {
          "name": "_outcomeHash",
          "type": "bytes32"
        }
      ],
      "name": "getRoundOutcomePoolByName",
      "outputs": [
        {
          "name": "",
          "type": "uint256"
        }
      ],
      "payable": false,
      "stateMutability": "view",
      "type": "function"
    },
    {
      "constant": true,
      "inputs": [
        {
          "name": "_host",
          "type": "address"
        },
        {
          "name": "_roundId",
          "type": "bytes4"
        },
        {
          "name": "_outcomeHash",
          "type": "bytes32"
        }
      ],
      "name": "getRoundOutcomePool",
      "outputs": [
        {
          "name": "",
          "type": "uint256"
        }
      ],
      "payable": false,
      "stateMutability": "view",
      "type": "function"
    },
    {
      "constant": true,
      "inputs": [
        {
          "name": "_hostName",
          "type": "bytes32"
        },
        {
          "name": "_roundId",
          "type": "bytes4"
        },
        {
          "name": "_outcomeHash",
          "type": "bytes32"
        }
      ],
      "name": "getRoundOutcomeNumBetsByName",
      "outputs": [
        {
          "name": "",
          "type": "uint256"
        }
      ],
      "payable": false,
      "stateMutability": "view",
      "type": "function"
    },
    {
      "constant": true,
      "inputs": [
        {
          "name": "_host",
          "type": "address"
        },
        {
          "name": "_roundId",
          "type": "bytes4"
        },
        {
          "name": "_outcomeHash",
          "type": "bytes32"
        }
      ],
      "name": "getRoundOutcomeNumBets",
      "outputs": [
        {
          "name": "",
          "type": "uint256"
        }
      ],
      "payable": false,
      "stateMutability": "view",
      "type": "function"
    },
    {
      "constant": true,
      "inputs": [
        {
          "name": "_hostName",
          "type": "bytes32"
        },
        {
          "name": "_roundId",
          "type": "bytes4"
        },
        {
          "name": "_outcomeHash",
          "type": "bytes32"
        }
      ],
      "name": "getMyRoundOutcomeBetByName",
      "outputs": [
        {
          "name": "",
          "type": "uint256"
        }
      ],
      "payable": false,
      "stateMutability": "view",
      "type": "function"
    },
    {
      "constant": true,
      "inputs": [
        {
          "name": "_host",
          "type": "address"
        },
        {
          "name": "_roundId",
          "type": "bytes4"
        },
        {
          "name": "_outcomeHash",
          "type": "bytes32"
        }
      ],
      "name": "getMyRoundOutcomeBet",
      "outputs": [
        {
          "name": "",
          "type": "uint256"
        }
      ],
      "payable": false,
      "stateMutability": "view",
      "type": "function"
    },
    {
      "constant": true,
      "inputs": [
        {
          "name": "_hostName",
          "type": "bytes32"
        },
        {
          "name": "_roundId",
          "type": "bytes4"
        },
        {
          "name": "_outcomeHash",
          "type": "bytes32"
        }
      ],
      "name": "getRoundOutcomeWinShareByName",
      "outputs": [
        {
          "name": "",
          "type": "uint256"
        }
      ],
      "payable": false,
      "stateMutability": "view",
      "type": "function"
    },
    {
      "constant": true,
      "inputs": [
        {
          "name": "_host",
          "type": "address"
        },
        {
          "name": "_roundId",
          "type": "bytes4"
        },
        {
          "name": "_outcomeHash",
          "type": "bytes32"
        }
      ],
      "name": "getRoundOutcomeWinShare",
      "outputs": [
        {
          "name": "",
          "type": "uint256"
        }
      ],
      "payable": false,
      "stateMutability": "view",
      "type": "function"
    },
    {
      "constant": true,
      "inputs": [
        {
          "name": "_host",
          "type": "address"
        }
      ],
      "name": "getHostStats",
      "outputs": [
        {
          "name": "",
          "type": "uint256"
        },
        {
          "name": "",
          "type": "uint256"
        },
        {
          "name": "",
          "type": "uint256"
        },
        {
          "name": "",
          "type": "uint256"
        }
      ],
      "payable": false,
      "stateMutability": "view",
      "type": "function"
    },
    {
      "constant": false,
      "inputs": [
        {
          "name": "_name",
          "type": "bytes32"
        }
      ],
      "name": "registerRecord",
      "outputs": [],
      "payable": false,
      "stateMutability": "nonpayable",
      "type": "function"
    },
    {
      "constant": false,
      "inputs": [],
      "name": "deleteRecord",
      "outputs": [],
      "payable": false,
      "stateMutability": "nonpayable",
      "type": "function"
    },
    {
      "constant": false,
      "inputs": [
        {
          "name": "_newName",
          "type": "bytes32"
        }
      ],
      "name": "updateRecord",
      "outputs": [],
      "payable": false,
      "stateMutability": "nonpayable",
      "type": "function"
    },
    {
      "constant": false,
      "inputs": [
        {
          "name": "_name",
          "type": "bytes32"
        }
      ],
      "name": "sudoDeleteRecord",
      "outputs": [],
      "payable": false,
      "stateMutability": "nonpayable",
      "type": "function"
    }
  ],
  "bytecode": "0x6080604052336000806101000a81548173ffffffffffffffffffffffffffffffffffffffff021916908373ffffffffffffffffffffffffffffffffffffffff160217905550613793806100536000396000f300608060405260043610610175576000357c0100000000000000000000000000000000000000000000000000000000900463ffffffff16806301186d991461017a57806303437415146101ab5780630d4c0960146102405780631584108b1461029757806317b0421a1461030357806318b052fe146103ca5780632bfcc24e14610446578063326d9a62146104d45780634245ac9d14610562578063471990ba146105f457806365426a981461066757806366d9e7d81461067e5780636f50c44b146106af578063715018a6146106e0578063764ac734146106f75780638baf79a4146107635780638da5cb5b146107c157806397c78536146108185780639dd4527d14610864578063a070f04e146108d5578063ae31274214610934578063bd2d5887146109b0578063ca5af5d914610a2c578063da6295a414610aba578063ef1cbbf714610b26578063f181b9a314610bb4578063f2fde38b14610c34578063f5309ec014610c77578063fe067ee514610ce4575b600080fd5b34801561018657600080fd5b506101a96004803603810190808035600019169060200190929190505050610d60565b005b3480156101b757600080fd5b506101ec600480360381019080803573ffffffffffffffffffffffffffffffffffffffff169060200190929190505050610d74565b60405180827bffffffffffffffffffffffffffffffffffffffffffffffffffffffff19167bffffffffffffffffffffffffffffffffffffffffffffffffffffffff1916815260200191505060405180910390f35b61029560048036038101908080359060200190820180359060200191909192939192939080357bffffffffffffffffffffffffffffffffffffffffffffffffffffffff19169060200190929190505050610e8f565b005b3480156102a357600080fd5b50610301600480360381019080803573ffffffffffffffffffffffffffffffffffffffff16906020019092919080357bffffffffffffffffffffffffffffffffffffffffffffffffffffffff191690602001909291905050506113a3565b005b34801561030f57600080fd5b5061036d600480360381019080803573ffffffffffffffffffffffffffffffffffffffff16906020019092919080357bffffffffffffffffffffffffffffffffffffffffffffffffffffffff191690602001909291905050506115c9565b604051808b81526020018a815260200189815260200188815260200187600019166000191681526020018681526020018581526020018481526020018381526020018281526020019a505050505050505050505060405180910390f35b3480156103d657600080fd5b50610430600480360381019080803560001916906020019092919080357bffffffffffffffffffffffffffffffffffffffffffffffffffffffff191690602001909291908035600019169060200190929190505050611664565b6040518082815260200191505060405180910390f35b34801561045257600080fd5b506104be600480360381019080803573ffffffffffffffffffffffffffffffffffffffff16906020019092919080357bffffffffffffffffffffffffffffffffffffffffffffffffffffffff1916906020019092919080356000191690602001909291905050506117ff565b6040518082815260200191505060405180910390f35b3480156104e057600080fd5b5061054c600480360381019080803573ffffffffffffffffffffffffffffffffffffffff16906020019092919080357bffffffffffffffffffffffffffffffffffffffffffffffffffffffff1916906020019092919080356000191690602001909291905050506118b5565b6040518082815260200191505060405180910390f35b34801561056e57600080fd5b506105d6600480360381019080803573ffffffffffffffffffffffffffffffffffffffff16906020019092919080357bffffffffffffffffffffffffffffffffffffffffffffffffffffffff1916906020019092919080359060200190929190505050611929565b60405180826000191660001916815260200191505060405180910390f35b34801561060057600080fd5b50610635600480360381019080803573ffffffffffffffffffffffffffffffffffffffff16906020019092919050505061197d565b604051808681526020018581526020018481526020018381526020018281526020019550505050505060405180910390f35b34801561067357600080fd5b5061067c6119b3565b005b34801561068a57600080fd5b506106ad6004803603810190808035600019169060200190929190505050611a89565b005b3480156106bb57600080fd5b506106de6004803603810190808035600019169060200190929190505050611b65565b005b3480156106ec57600080fd5b506106f5611c49565b005b34801561070357600080fd5b50610738600480360381019080803573ffffffffffffffffffffffffffffffffffffffff169060200190929190505050611d4b565b6040518085815260200184815260200183815260200182815260200194505050505060405180910390f35b6107bf600480360381019080803560001916906020019092919080359060200190820180359060200191909192939192939080608001909192919290803590602001908201803590602001919091929391929390505050611db8565b005b3480156107cd57600080fd5b506107d6612250565b604051808273ffffffffffffffffffffffffffffffffffffffff1673ffffffffffffffffffffffffffffffffffffffff16815260200191505060405180910390f35b34801561082457600080fd5b5061086260048036038101908080357bffffffffffffffffffffffffffffffffffffffffffffffffffffffff19169060200190929190505050612275565b005b34801561087057600080fd5b50610893600480360381019080803560001916906020019092919050505061247f565b604051808273ffffffffffffffffffffffffffffffffffffffff1673ffffffffffffffffffffffffffffffffffffffff16815260200191505060405180910390f35b3480156108e157600080fd5b50610916600480360381019080803573ffffffffffffffffffffffffffffffffffffffff1690602001909291905050506124b2565b60405180826000191660001916815260200191505060405180910390f35b34801561094057600080fd5b5061099a600480360381019080803560001916906020019092919080357bffffffffffffffffffffffffffffffffffffffffffffffffffffffff1916906020019092919080356000191690602001909291905050506124ca565b6040518082815260200191505060405180910390f35b3480156109bc57600080fd5b50610a16600480360381019080803560001916906020019092919080357bffffffffffffffffffffffffffffffffffffffffffffffffffffffff191690602001909291908035600019169060200190929190505050612665565b6040518082815260200191505060405180910390f35b348015610a3857600080fd5b50610aa4600480360381019080803573ffffffffffffffffffffffffffffffffffffffff16906020019092919080357bffffffffffffffffffffffffffffffffffffffffffffffffffffffff191690602001909291908035600019169060200190929190505050612800565b6040518082815260200191505060405180910390f35b348015610ac657600080fd5b50610b24600480360381019080803573ffffffffffffffffffffffffffffffffffffffff16906020019092919080357bffffffffffffffffffffffffffffffffffffffffffffffffffffffff191690602001909291905050506128b6565b005b348015610b3257600080fd5b50610b9e600480360381019080803573ffffffffffffffffffffffffffffffffffffffff16906020019092919080357bffffffffffffffffffffffffffffffffffffffffffffffffffffffff191690602001909291908035600019169060200190929190505050612a8c565b6040518082815260200191505060405180910390f35b348015610bc057600080fd5b50610c16600480360381019080803560001916906020019092919080357bffffffffffffffffffffffffffffffffffffffffffffffffffffffff1916906020019092919080359060200190929190505050612b45565b60405180826000191660001916815260200191505060405180910390f35b348015610c4057600080fd5b50610c75600480360381019080803573ffffffffffffffffffffffffffffffffffffffff169060200190929190505050612ce0565b005b610ce2600480360381019080803573ffffffffffffffffffffffffffffffffffffffff16906020019092919080357bffffffffffffffffffffffffffffffffffffffffffffffffffffffff191690602001909291908035600019169060200190929190505050612d47565b005b348015610cf057600080fd5b50610d4a600480360381019080803560001916906020019092919080357bffffffffffffffffffffffffffffffffffffffffffffffffffffffff191690602001909291908035600019169060200190929190505050612f3e565b6040518082815260200191505060405180910390f35b610d686119b3565b610d7181611a89565b50565b6000806000600260008573ffffffffffffffffffffffffffffffffffffffff1673ffffffffffffffffffffffffffffffffffffffff1681526020019081526020016000206000015491508382604051602001808373ffffffffffffffffffffffffffffffffffffffff1673ffffffffffffffffffffffffffffffffffffffff166c01000000000000000000000000028152601401828152602001925050506040516020818303038152906040526040518082805190602001908083835b602083101515610e565780518252602082019150602081019050602083039250610e31565b6001836020036101000a038019825116818451168082178552505050505050905001915050604051809103902090508092505050919050565b600080600080600080600080600080610ea8338c6130d9565b995060026006811115610eb757fe5b8a60010160009054906101000a900460ff166006811115610ed457fe5b1480610f07575060036006811115610ee857fe5b8a60010160009054906101000a900460ff166006811115610f0557fe5b145b1515610f1257600080fd5b89600901600001805490508d8d9050141515610f2d57600080fd5b896004015442101515610f3f57600080fd5b610f6d6064610f5f60018d600e01600101546131a790919063ffffffff16565b6131df90919063ffffffff16565b9850888a600e0160010154039750610fac6064610f9e8c600701548d600e01600101546131a790919063ffffffff16565b6131df90919063ffffffff16565b96508688039750600092505b8c8c90508310156110e8578c8c848181101515610fd157fe5b905060200201359150610fe48a846131f5565b90506000821415610ff4576110db565b6064821115151561100457600080fd5b8186019550818a600c0160010160008360001916600019168152602001908152602001600020819055506110546064611046848b6131a790919063ffffffff16565b6131df90919063ffffffff16565b8a600c016000018481548110151561106857fe5b90600052602060002001819055506110a68a6012016000836000191660001916815260200190815260200160002054866132a790919063ffffffff16565b94506110d88a6011016000836000191660001916815260200190815260200160002054856132a790919063ffffffff16565b93505b8280600101935050610fb8565b6064861415156110f757600080fd5b848a600e016000018190555061111634856132a790919063ffffffff16565b8a600e016001018190555089600e0160000154600260003373ffffffffffffffffffffffffffffffffffffffff1673ffffffffffffffffffffffffffffffffffffffff1681526020019081526020016000206003016000828254019250508190555089600e0160010154600260003373ffffffffffffffffffffffffffffffffffffffff1673ffffffffffffffffffffffffffffffffffffffff168152602001908152602001600020600401600082825401925050819055506001600260003373ffffffffffffffffffffffffffffffffffffffff1673ffffffffffffffffffffffffffffffffffffffff1681526020019081526020016000206001016000828254019250508190555060048a60010160006101000a81548160ff0219169083600681111561124157fe5b0217905550428a600301819055506000809054906101000a900473ffffffffffffffffffffffffffffffffffffffff1673ffffffffffffffffffffffffffffffffffffffff166108fc8a9081150290604051600060405180830381858888f193505050501580156112b6573d6000803e3d6000fd5b506000871115611308573373ffffffffffffffffffffffffffffffffffffffff166108fc889081150290604051600060405180830381858888f19350505050158015611306573d6000803e3d6000fd5b505b3373ffffffffffffffffffffffffffffffffffffffff167f4cdf964e6e89934ffc032ff3f5be1525aa747560a07d9e380c8bead358e6febd8c60405180827bffffffffffffffffffffffffffffffffffffffffffffffffffffffff19167bffffffffffffffffffffffffffffffffffffffffffffffffffffffff1916815260200191505060405180910390a250505050505050505050505050565b6000806000806000806113b688886130d9565b9550600460068111156113c557fe5b8660010160009054906101000a900460ff1660068111156113e257fe5b1415156113ee57600080fd5b600093505b85600901600001805490508410156115695761140f86856131f5565b925085600c016001016000846000191660001916815260200190815260200160002054915060008214156114425761155c565b6114cc866010016000856000191660001916815260200190815260200160002060003373ffffffffffffffffffffffffffffffffffffffff1673ffffffffffffffffffffffffffffffffffffffff168152602001908152602001600020548388601101600087600019166000191681526020019081526020016000205489600e01600101546132c3565b9050600081111561154d576114ea81866132a790919063ffffffff16565b94506000866010016000856000191660001916815260200190815260200160002060003373ffffffffffffffffffffffffffffffffffffffff1673ffffffffffffffffffffffffffffffffffffffff168152602001908152602001600020819055505b606482141561155b57611569565b5b83806001019450506113f3565b60008511151561157857600080fd5b3373ffffffffffffffffffffffffffffffffffffffff166108fc869081150290604051600060405180830381858888f193505050501580156115be573d6000803e3d6000fd5b505050505050505050565b60008060008060008060008060008060008c8c6115e68f8f6130d9565b92508260010160009054906101000a900460ff16600681111561160557fe5b8360020154846003015485600401548660080154876009016000018054905088600e016000015489600e01600101548a600601548b600701549c509c509c509c509c509c509c509c509c509c505050509295989b9194979a5092959850565b60008073ffffffffffffffffffffffffffffffffffffffff1660036000866000191660001916815260200190815260200160002060009054906101000a900473ffffffffffffffffffffffffffffffffffffffff1673ffffffffffffffffffffffffffffffffffffffff1614156040805190810160405280601381526020017f484f53545f4e414d455f4e4f545f464f554e44000000000000000000000000008152509015156117af576040517f08c379a00000000000000000000000000000000000000000000000000000000081526004018080602001828103825283818151815260200191508051906020019080838360005b83811015611774578082015181840152602081019050611759565b50505050905090810190601f1680156117a15780820380516001836020036101000a031916815260200191505b509250505060405180910390fd5b506117f660036000866000191660001916815260200190815260200160002060009054906101000a900473ffffffffffffffffffffffffffffffffffffffff168484612800565b90509392505050565b6000600160008573ffffffffffffffffffffffffffffffffffffffff1673ffffffffffffffffffffffffffffffffffffffff1681526020019081526020016000206000847bffffffffffffffffffffffffffffffffffffffffffffffffffffffff19167bffffffffffffffffffffffffffffffffffffffffffffffffffffffff19168152602001908152602001600020601201600083600019166000191681526020019081526020016000205490509392505050565b6000806118c285856130d9565b9050806010016000846000191660001916815260200190815260200160002060003373ffffffffffffffffffffffffffffffffffffffff1673ffffffffffffffffffffffffffffffffffffffff168152602001908152602001600020549150509392505050565b600080848461193887876130d9565b925082600901600001805490508510151561195257600080fd5b826009016000018581548110151561196657fe5b906000526020600020015493505050509392505050565b60026020528060005260406000206000915090508060000154908060010154908060020154908060030154908060040154905085565b6000600460003373ffffffffffffffffffffffffffffffffffffffff1673ffffffffffffffffffffffffffffffffffffffff16815260200190815260200160002054905060007f010000000000000000000000000000000000000000000000000000000000000002816000602081101515611a2a57fe5b1a7f0100000000000000000000000000000000000000000000000000000000000000027effffffffffffffffffffffffffffffffffffffffffffffffffffffffffffff191614151515611a7c57600080fd5b611a86338261335c565b50565b600073ffffffffffffffffffffffffffffffffffffffff1660036000836000191660001916815260200190815260200160002060009054906101000a900473ffffffffffffffffffffffffffffffffffffffff1673ffffffffffffffffffffffffffffffffffffffff16141515611aff57600080fd5b600060010260001916600460003373ffffffffffffffffffffffffffffffffffffffff1673ffffffffffffffffffffffffffffffffffffffff1681526020019081526020016000205460001916141515611b5857600080fd5b611b6233826133e1565b50565b60008060009054906101000a900473ffffffffffffffffffffffffffffffffffffffff1673ffffffffffffffffffffffffffffffffffffffff163373ffffffffffffffffffffffffffffffffffffffff16141515611bc257600080fd5b60036000836000191660001916815260200190815260200160002060009054906101000a900473ffffffffffffffffffffffffffffffffffffffff169050600073ffffffffffffffffffffffffffffffffffffffff168173ffffffffffffffffffffffffffffffffffffffff16141515611c3b57600080fd5b611c45818361335c565b5050565b6000809054906101000a900473ffffffffffffffffffffffffffffffffffffffff1673ffffffffffffffffffffffffffffffffffffffff163373ffffffffffffffffffffffffffffffffffffffff16141515611ca457600080fd5b6000809054906101000a900473ffffffffffffffffffffffffffffffffffffffff1673ffffffffffffffffffffffffffffffffffffffff167ff8df31144d9c2f0f6b59d69b8b98abd5459d07f2742c4df920b25aae33c6482060405160405180910390a260008060006101000a81548173ffffffffffffffffffffffffffffffffffffffff021916908373ffffffffffffffffffffffffffffffffffffffff160217905550565b6000806000806000600260008773ffffffffffffffffffffffffffffffffffffffff1673ffffffffffffffffffffffffffffffffffffffff168152602001908152602001600020905080600101548160020154826003015483600401549450945094509450509193509193565b6000611dc2613635565b611dca61364f565b611dd2613663565b6000806000896000600481101515611de657fe5b60200201351480611e09575042896000600481101515611e0257fe5b6020020135115b1515611e1457600080fd5b603c896001600481101515611e2557fe5b602002013510151515611e3757600080fd5b60028b8b905010158015611e4f5750600a8b8b905011155b1515611e5a57600080fd5b6064896003600481101515611e6b57fe5b602002013511151515611e7d57600080fd5b8a8a90508888905011151515611e9257600080fd5b6002955060408051908101604052808c8c80806020026020016040519081016040528093929190818152602001838360200280828437820191505050505050815260200189898080602002602001604051908101604052809392919081815260200183836020028082843782019150505050505081525094506020604051908101604052808c8c9050604051908082528060200260200182016040528015611f495781602001602082028038833980820191505090505b508152509350604080519081016040528060008152602001348152509250611f7033613487565b809250819350505061018060405190810160405280838152602001876006811115611f9757fe5b8152602001428152602001600081526020018a6001600481101515611fb857fe5b6020020135420181526020018a6002600481101515611fd357fe5b602002013581526020013481526020018a6003600481101515611ff257fe5b602002013581526020018d60001916815260200186815260200185815260200184815250600160003373ffffffffffffffffffffffffffffffffffffffff1673ffffffffffffffffffffffffffffffffffffffff1681526020019081526020016000206000837bffffffffffffffffffffffffffffffffffffffffffffffffffffffff19167bffffffffffffffffffffffffffffffffffffffffffffffffffffffff191681526020019081526020016000206000820151816000015560208201518160010160006101000a81548160ff021916908360068111156120d257fe5b021790555060408201518160020155606082015181600301556080820151816004015560a0820151816005015560c0820151816006015560e08201518160070155610100820151816008019060001916905561012082015181600901600082015181600001908051906020019061214a92919061367d565b5060208201518160020190805190602001906121679291906136d0565b50505061014082015181600c0160008201518160000190805190602001906121909291906136d0565b50505061016082015181600e01600082015181600001556020820151816001015550509050503373ffffffffffffffffffffffffffffffffffffffff167f38200ecf62e44ebceaabbd4292688e3e06ac3bdaf612a0287f9d1d7f0e3e5ad08260405180827bffffffffffffffffffffffffffffffffffffffffffffffffffffffff19167bffffffffffffffffffffffffffffffffffffffffffffffffffffffff1916815260200191505060405180910390a2505050505050505050505050565b6000809054906101000a900473ffffffffffffffffffffffffffffffffffffffff1681565b600061228133836130d9565b90506001600681111561229057fe5b8160010160009054906101000a900460ff1660068111156122ad57fe5b14806122e05750600260068111156122c157fe5b8160010160009054906101000a900460ff1660068111156122de57fe5b145b15156122eb57600080fd5b6005600160003373ffffffffffffffffffffffffffffffffffffffff1673ffffffffffffffffffffffffffffffffffffffff1681526020019081526020016000206000847bffffffffffffffffffffffffffffffffffffffffffffffffffffffff19167bffffffffffffffffffffffffffffffffffffffffffffffffffffffff1916815260200190815260200160002060010160006101000a81548160ff0219169083600681111561239957fe5b02179055506001600260003373ffffffffffffffffffffffffffffffffffffffff1673ffffffffffffffffffffffffffffffffffffffff168152602001908152602001600020600201600082825401925050819055503373ffffffffffffffffffffffffffffffffffffffff167f81a8172348667ad6402f7c3aca080b41512f7d5925c666de439a4473e51fe4b78360405180827bffffffffffffffffffffffffffffffffffffffffffffffffffffffff19167bffffffffffffffffffffffffffffffffffffffffffffffffffffffff1916815260200191505060405180910390a25050565b60036020528060005260406000206000915054906101000a900473ffffffffffffffffffffffffffffffffffffffff1681565b60046020528060005260406000206000915090505481565b60008073ffffffffffffffffffffffffffffffffffffffff1660036000866000191660001916815260200190815260200160002060009054906101000a900473ffffffffffffffffffffffffffffffffffffffff1673ffffffffffffffffffffffffffffffffffffffff1614156040805190810160405280601381526020017f484f53545f4e414d455f4e4f545f464f554e4400000000000000000000000000815250901515612615576040517f08c379a00000000000000000000000000000000000000000000000000000000081526004018080602001828103825283818151815260200191508051906020019080838360005b838110156125da5780820151818401526020810190506125bf565b50505050905090810190601f1680156126075780820380516001836020036101000a031916815260200191505b509250505060405180910390fd5b5061265c60036000866000191660001916815260200190815260200160002060009054906101000a900473ffffffffffffffffffffffffffffffffffffffff168484612a8c565b90509392505050565b60008073ffffffffffffffffffffffffffffffffffffffff1660036000866000191660001916815260200190815260200160002060009054906101000a900473ffffffffffffffffffffffffffffffffffffffff1673ffffffffffffffffffffffffffffffffffffffff1614156040805190810160405280601381526020017f484f53545f4e414d455f4e4f545f464f554e44000000000000000000000000008152509015156127b0576040517f08c379a00000000000000000000000000000000000000000000000000000000081526004018080602001828103825283818151815260200191508051906020019080838360005b8381101561277557808201518184015260208101905061275a565b50505050905090810190601f1680156127a25780820380516001836020036101000a031916815260200191505b509250505060405180910390fd5b506127f760036000866000191660001916815260200190815260200160002060009054906101000a900473ffffffffffffffffffffffffffffffffffffffff1684846118b5565b90509392505050565b6000600160008573ffffffffffffffffffffffffffffffffffffffff1673ffffffffffffffffffffffffffffffffffffffff1681526020019081526020016000206000847bffffffffffffffffffffffffffffffffffffffffffffffffffffffff19167bffffffffffffffffffffffffffffffffffffffffffffffffffffffff19168152602001908152602001600020601101600083600019166000191681526020019081526020016000205490509392505050565b6000806000806128c686866130d9565b9350600560068111156128d557fe5b8460010160009054906101000a900460ff1660068111156128f257fe5b1480612924575060068081111561290557fe5b8460010160009054906101000a900460ff16600681111561292257fe5b145b151561292f57600080fd5b600091505b8360090160000180549050821015612a2e5761295084836131f5565b90506129bf846010016000836000191660001916815260200190815260200160002060003373ffffffffffffffffffffffffffffffffffffffff1673ffffffffffffffffffffffffffffffffffffffff16815260200190815260200160002054846132a790919063ffffffff16565b92506000846010016000836000191660001916815260200190815260200160002060003373ffffffffffffffffffffffffffffffffffffffff1673ffffffffffffffffffffffffffffffffffffffff168152602001908152602001600020819055508180600101925050612934565b600083111515612a3d57600080fd5b3373ffffffffffffffffffffffffffffffffffffffff166108fc849081150290604051600060405180830381858888f19350505050158015612a83573d6000803e3d6000fd5b50505050505050565b6000600160008573ffffffffffffffffffffffffffffffffffffffff1673ffffffffffffffffffffffffffffffffffffffff1681526020019081526020016000206000847bffffffffffffffffffffffffffffffffffffffffffffffffffffffff19167bffffffffffffffffffffffffffffffffffffffffffffffffffffffff19168152602001908152602001600020600c01600101600083600019166000191681526020019081526020016000205490509392505050565b60008073ffffffffffffffffffffffffffffffffffffffff1660036000866000191660001916815260200190815260200160002060009054906101000a900473ffffffffffffffffffffffffffffffffffffffff1673ffffffffffffffffffffffffffffffffffffffff1614156040805190810160405280601381526020017f484f53545f4e414d455f4e4f545f464f554e4400000000000000000000000000815250901515612c90576040517f08c379a00000000000000000000000000000000000000000000000000000000081526004018080602001828103825283818151815260200191508051906020019080838360005b83811015612c55578082015181840152602081019050612c3a565b50505050905090810190601f168015612c825780820380516001836020036101000a031916815260200191505b509250505060405180910390fd5b50612cd760036000866000191660001916815260200190815260200160002060009054906101000a900473ffffffffffffffffffffffffffffffffffffffff168484611929565b90509392505050565b6000809054906101000a900473ffffffffffffffffffffffffffffffffffffffff1673ffffffffffffffffffffffffffffffffffffffff163373ffffffffffffffffffffffffffffffffffffffff16141515612d3b57600080fd5b612d448161353b565b50565b6000612d5384846130d9565b905060026006811115612d6257fe5b8160010160009054906101000a900460ff166006811115612d7f57fe5b141515612d8b57600080fd5b80600501543410151515612d9e57600080fd5b60011515816009016001016000846000191660001916815260200190815260200160002060009054906101000a900460ff161515141515612dde57600080fd5b806004015442101515612df057600080fd5b612e5d34826010016000856000191660001916815260200190815260200160002060003373ffffffffffffffffffffffffffffffffffffffff1673ffffffffffffffffffffffffffffffffffffffff168152602001908152602001600020546132a790919063ffffffff16565b816010016000846000191660001916815260200190815260200160002060003373ffffffffffffffffffffffffffffffffffffffff1673ffffffffffffffffffffffffffffffffffffffff16815260200190815260200160002081905550612eeb348260110160008560001916600019168152602001908152602001600020546132a790919063ffffffff16565b816011016000846000191660001916815260200190815260200160002081905550600181601201600084600019166000191681526020019081526020016000206000828254019250508190555050505050565b60008073ffffffffffffffffffffffffffffffffffffffff1660036000866000191660001916815260200190815260200160002060009054906101000a900473ffffffffffffffffffffffffffffffffffffffff1673ffffffffffffffffffffffffffffffffffffffff1614156040805190810160405280601381526020017f484f53545f4e414d455f4e4f545f464f554e4400000000000000000000000000815250901515613089576040517f08c379a00000000000000000000000000000000000000000000000000000000081526004018080602001828103825283818151815260200191508051906020019080838360005b8381101561304e578082015181840152602081019050613033565b50505050905090810190601f16801561307b5780820380516001836020036101000a031916815260200191505b509250505060405180910390fd5b506130d060036000866000191660001916815260200190815260200160002060009054906101000a900473ffffffffffffffffffffffffffffffffffffffff1684846117ff565b90509392505050565b6000806000600160008673ffffffffffffffffffffffffffffffffffffffff1673ffffffffffffffffffffffffffffffffffffffff1681526020019081526020016000206000857bffffffffffffffffffffffffffffffffffffffffffffffffffffffff19167bffffffffffffffffffffffffffffffffffffffffffffffffffffffff1916815260200190815260200160002091508160010160009054906101000a900460ff169050600781600681111561319057fe5b10151561319c57600080fd5b819250505092915050565b6000808314156131ba57600090506131d9565b81830290508183828115156131cb57fe5b041415156131d557fe5b8090505b92915050565b600081838115156131ec57fe5b04905092915050565b6000826009016000018281548110151561320b57fe5b90600052602060002001546040516020018082600019166000191681526020019150506040516020818303038152906040526040518082805190602001908083835b602083101515613272578051825260208201915060208101905060208303925061324d565b6001836020036101000a0380198251168184511680821785525050505050509050019150506040518091039020905092915050565b600081830190508281101515156132ba57fe5b80905092915050565b60008060008087111561334d576132ee8568056bc75e2d6310000089026131df90919063ffffffff16565b915061334368056bc75e2d631000006133358461332760646133198c8b6131a790919063ffffffff16565b6131df90919063ffffffff16565b6131a790919063ffffffff16565b6131df90919063ffffffff16565b9050809250613352565b600092505b5050949350505050565b60036000826000191660001916815260200190815260200160002060006101000a81549073ffffffffffffffffffffffffffffffffffffffff0219169055600460008373ffffffffffffffffffffffffffffffffffffffff1673ffffffffffffffffffffffffffffffffffffffff168152602001908152602001600020600090555050565b8160036000836000191660001916815260200190815260200160002060006101000a81548173ffffffffffffffffffffffffffffffffffffffff021916908373ffffffffffffffffffffffffffffffffffffffff16021790555080600460008473ffffffffffffffffffffffffffffffffffffffff1673ffffffffffffffffffffffffffffffffffffffff16815260200190815260200160002081600019169055505050565b600080600080600260008673ffffffffffffffffffffffffffffffffffffffff1673ffffffffffffffffffffffffffffffffffffffff1681526020019081526020016000206000015491506134db85610d74565b90506001600260008773ffffffffffffffffffffffffffffffffffffffff1673ffffffffffffffffffffffffffffffffffffffff168152602001908152602001600020600001600082825401925050819055508181935093505050915091565b600073ffffffffffffffffffffffffffffffffffffffff168173ffffffffffffffffffffffffffffffffffffffff161415151561357757600080fd5b8073ffffffffffffffffffffffffffffffffffffffff166000809054906101000a900473ffffffffffffffffffffffffffffffffffffffff1673ffffffffffffffffffffffffffffffffffffffff167f8be0079c531659141344cd1fd0a4f28419497f9722a3daafe3b4186f6b6457e060405160405180910390a3806000806101000a81548173ffffffffffffffffffffffffffffffffffffffff021916908373ffffffffffffffffffffffffffffffffffffffff16021790555050565b604080519081016040528060608152602001606081525090565b602060405190810160405280606081525090565b604080519081016040528060008152602001600081525090565b8280548282559060005260206000209081019282156136bf579160200282015b828111156136be57825182906000191690559160200191906001019061369d565b5b5090506136cc919061371d565b5090565b82805482825590600052602060002090810192821561370c579160200282015b8281111561370b5782518255916020019190600101906136f0565b5b5090506137199190613742565b5090565b61373f91905b8082111561373b576000816000905550600101613723565b5090565b90565b61376491905b80821115613760576000816000905550600101613748565b5090565b905600a165627a7a723058209493c9ff7fa1918a4d2348965f76df034432aeb6d9983f5703ecc06a4e14b5b60029",
  "source": "pragma solidity ^0.4.24;\n\nimport 'openzeppelin-solidity/contracts/ownership/Ownable.sol';\nimport 'openzeppelin-solidity/contracts/math/SafeMath.sol';\n\ncontract Betl is Ownable {\n  using SafeMath for uint;\n\n  uint private constant FEE_PERCENT = 1;\n  uint private constant MIN_TIMEOUT = 1 minutes;\n  uint private constant MODE_WHATEVER = 0;       // usecase for modes?\n  uint private constant MAX_OUTCOMES = 10;\n\n  enum Status {\n    UNDEFINED, // Round doesn't exist\n    SCHEDULED, // Round exists and is scheduled for the future\n    OPEN,\n    CLOSED,\n    FINISHED,\n    CANCELLED,\n    TIMEOUT\n  }\n\n  // Errors\n  string constant HOST_NAME_NOT_FOUND = 'HOST_NAME_NOT_FOUND';\n  string constant HOST_OR_ROUND_NOT_FOUND = 'HOST_OR_ROUND_NOT_FOUND';\n\n  event RoundCreated(address indexed host, bytes4 roundId);\n  event RoundFinished(address indexed host, bytes4 roundId);\n  event RoundCancelled(address indexed host, bytes4 roundId);\n\n  struct Outcomes {\n    bytes32[] outcomes;\n    mapping(bytes32 => bool) lookup;\n    // Specifies payout distributions in case multiple winners are possible\n    // Example: When there are 3 winners, this array can be [60, 30, 10] ==> in percents, must sum to 100.\n    // winnerTiers.length <= numOutcomes\n    uint[] payoutTiers;\n    //bool hasFlexOutcomes;\n  }\n\n  struct Results {\n    uint[] payouts;\n    //    hash(opt) => winShare [0-100]\n    mapping(bytes32 => uint) outcomeWinShares;\n  }\n\n  struct Stats {\n    uint numBets;\n    uint poolSize;\n  }\n\n  struct Round {\n    uint roundNumber;\n    Status status;\n    uint createdAt;\n    uint endedAt;\n    uint timeoutAt;\n    uint minBet;\n    uint hostBonus; // or: add directly to roundstats += hostBonus\n    uint hostFee;\n\n    bytes32 question;\n    Outcomes outcomes;\n    Results results;\n    Stats stats;\n    //    hash(opt) =>         player  => bet\n    mapping(bytes32 => mapping(address => uint)) playerBets;\n    //    hash(opt) => totalBets\n    mapping(bytes32 => uint) outcomePools;\n    mapping(bytes32 => uint) outcomeNumBets;\n  }\n\n  struct HostContext {\n    uint nextRoundNumber; // == numRoundsCreated\n    uint numRoundsSuccess;\n    uint numRoundsCancelled;\n    uint totalNumBets;\n    uint totalPoolSize;\n  }\n\n  //      host    =>  hash(host,id) => Round\n  mapping(address => mapping(bytes4 => Round)) rounds;\n\n  //      host    => stats\n  mapping(address => HostContext) public hostContext;\n\n  //      name   <=> host\n  mapping(bytes32 => address) public hostAddresses;\n  mapping(address => bytes32) public hostNames;\n\n  modifier roundExists(address _host, bytes4 _roundId) {\n    //require(rounds[_host][_roundId].status != Status.UNDEFINED, HOST_OR_ROUND_NOT_FOUND);\n    _;\n  }\n\n  function getRound(address _host, bytes4 _roundId) private view returns (Round storage) {\n    Round storage r = rounds[_host][_roundId];\n    // verify existance of round\n    Status status = r.status;\n    require(uint(status) < 7);\n    return r;\n  }\n\n  // function getRoundId(address _host) public view returns (bytes4) {\n  //   uint nextRoundNumber = getNextRoundNumber(_host);\n  //   require(nextRoundNumber > 0);\n  //   bytes32 hash = keccak256(abi.encodePacked(_host, nextRoundNumber-1));\n  //   return bytes4(hash);\n  // }\n\n  // Frontend needs to fetch roundId of created round.\n  function getNextRoundId(address _host) public view returns (bytes4) {\n    uint nrn = hostContext[_host].nextRoundNumber;\n    bytes32 hash = keccak256(abi.encodePacked(_host, nrn));\n    return bytes4(hash);\n  }\n\n  function generateRoundId(address _host) private returns (uint, bytes4) {\n    uint roundNumber = hostContext[_host].nextRoundNumber;\n    bytes4 roundId = getNextRoundId(_host);\n    hostContext[_host].nextRoundNumber += 1;\n    return (roundNumber, roundId);\n  }\n\n  // ADD/TODO/TOTHINK?:\n  // - modeCode usefulness? e.g. 'winner-takes-it-all', '80-20', '66-33', '66-25-9', '50-25-12.5-6.25-3.125'\n  // configData[ scheduledAt, timeout, minBet, hostShare ]\n  // COSTS: 294518 gas -> @ 5Gwei: 1 dollar\n  function createRound(\n    bytes32 _question,\n    bytes32[] _outcomes,\n    uint[4] _configData, // array of format `[scheduledAt, timeout, minBet, hostFee]`\n    uint[] _payoutTiers\n  )\n    external\n    payable\n  {\n    require(_configData[0] == 0 || _configData[0] > now);\n    require(_configData[1] >= MIN_TIMEOUT);\n    require(_outcomes.length >= 2 && _outcomes.length <= MAX_OUTCOMES);\n    require(_configData[3] <= 100);\n    require(_payoutTiers.length <= _outcomes.length);\n\n    Status status = Status.OPEN;\n\n    Outcomes memory outcomes = Outcomes(\n      _outcomes,                        // outcomes\n      _payoutTiers                      // payout tiers in percent in DESC order\n    );\n\n    Results memory results = Results(\n      new uint[](_outcomes.length)      // payouts\n    );\n\n    Stats memory stats = Stats(\n      0,                                // numBets\n      msg.value                         // poolSize\n    );\n\n    uint roundNumber;\n    bytes4 roundId;\n    (roundNumber, roundId) = generateRoundId(msg.sender);\n\n    rounds[msg.sender][roundId] = Round(\n      roundNumber,\n      status,                           // initial status\n      now,                              // createdAt\n      0,                                // endedAt\n      now + _configData[1],             // timeoutAt\n      _configData[2],                   // minBet\n      msg.value,                        // hostBonus\n      _configData[3],                   // hostFee\n\n      _question,\n      outcomes,\n      results,\n      stats\n    );\n\n    emit RoundCreated(msg.sender, roundId);\n  }\n\n  function bet(address _host, bytes4 _roundId, bytes32 _outcomeId) external payable {\n    Round storage r = getRound(_host, _roundId);\n    require(r.status == Status.OPEN);\n\n    require(msg.value >= r.minBet);\n    require(r.outcomes.lookup[_outcomeId] == true);\n    require(now < r.timeoutAt);\n  \n    r.playerBets[_outcomeId][msg.sender] = r.playerBets[_outcomeId][msg.sender].add(msg.value);\n    r.outcomePools[_outcomeId] = r.outcomePools[_outcomeId].add(msg.value);\n    r.outcomeNumBets[_outcomeId] += 1;\n  } \n\n  function pickWinnerAndEnd(uint[] _picks, bytes4 _roundId) external payable {\n    Round storage r = getRound(msg.sender, _roundId);\n    require(r.status == Status.OPEN || r.status == Status.CLOSED);\n\n    require(_picks.length == r.outcomes.outcomes.length);\n    require(now < r.timeoutAt); // --> cancelInternal when timeoutAt reached? Nahh. move to Closed?\n\n    uint ownerFee = r.stats.poolSize.mul(FEE_PERCENT).div(100);\n    uint remainingPool = r.stats.poolSize - ownerFee;\n    uint hostFee = r.stats.poolSize.mul(r.hostFee).div(100);\n    remainingPool = remainingPool - hostFee;\n\n    uint allShares;\n    uint numBets;\n    uint poolSize;\n\n    for (uint i=0; i<_picks.length; i++) {\n      uint outcomeShare = _picks[i];\n      bytes32 outcomeId = getOutcomeId(r, i);\n\n      if(outcomeShare == 0) continue;\n\n      require(outcomeShare <= 100);\n      allShares += outcomeShare;\n\n      // populate lookup to simplify getter function `getRoundOutcomeWinShare`\n      r.results.outcomeWinShares[outcomeId] = outcomeShare;\n\n      // distribute round pool\n      r.results.payouts[i] = remainingPool.mul(outcomeShare).div(100);\n\n      numBets = numBets.add(r.outcomeNumBets[outcomeId]);\n      poolSize = poolSize.add(r.outcomePools[outcomeId]);\n    }\n    require(allShares == 100);\n\n    r.stats.numBets = numBets;\n    r.stats.poolSize = poolSize.add(msg.value);\n    hostContext[msg.sender].totalNumBets += r.stats.numBets;\n    hostContext[msg.sender].totalPoolSize += r.stats.poolSize;\n    hostContext[msg.sender].numRoundsSuccess += 1;\n    r.status = Status.FINISHED;\n    r.endedAt = now;\n\n    owner.transfer(ownerFee);\n    if (hostFee > 0) msg.sender.transfer(hostFee);\n\n    emit RoundFinished(msg.sender, _roundId);\n  }\n\n  function areValidPicks(uint[] memory _picks) private pure returns (bool) {\n    uint sum;\n    for (uint i=0; i<_picks.length; i++) {\n      sum += _picks[i];\n    }\n    return sum == 100;\n  }\n\n  function getOutcomeId(Round storage _round, uint _outcomeIndex) private view returns (bytes32) {\n    return keccak256(abi.encodePacked(_round.outcomes.outcomes[_outcomeIndex]));\n  }\n\n  function claimPayout(address _host, bytes4 _roundId) external {\n    Round storage r = getRound(_host, _roundId);\n    require(r.status == Status.FINISHED);\n    \n    uint myPayout;\n\n    for (uint i=0; i<r.outcomes.outcomes.length; i++) {\n      bytes32 outcomeId = getOutcomeId(r, i);\n      uint outcomeShare = r.results.outcomeWinShares[outcomeId];\n\n      if (outcomeShare == 0) {\n        continue;\n      }\n   \n      uint myOutcomePayout = getMyPayoutForOutcome(\n          r.playerBets[outcomeId][msg.sender],\n          outcomeShare,\n          r.outcomePools[outcomeId],\n          r.stats.poolSize\n      );\n\n      if (myOutcomePayout > 0) {\n        myPayout = myPayout.add(myOutcomePayout);\n\n        // Reset player bets so that they can't be claimed again\n        r.playerBets[outcomeId][msg.sender] = 0;\n      }\n\n      // Minor optimization that skips iterations in case an outcome got picked as only\n      // winner (outcomeShare == 100 (%)) which is expeceted to be often the case\n      if (outcomeShare == 100) {\n        break;\n      }\n    }\n\n    require(myPayout > 0);\n    msg.sender.transfer(myPayout);\n  }\n\n  function claimRefund(address _host, bytes4 _roundId) external {\n    Round storage r = getRound(_host, _roundId);\n    require(r.status == Status.CANCELLED || r.status == Status.TIMEOUT);\n\n    uint myRefund;\n\n    for(uint i=0; i<r.outcomes.outcomes.length; i++) {\n      bytes32 outcomeId = getOutcomeId(r, i);\n      myRefund = myRefund.add(r.playerBets[outcomeId][msg.sender]);\n      r.playerBets[outcomeId][msg.sender] = 0;\n    }\n\n    require(myRefund > 0);\n    msg.sender.transfer(myRefund);\n  }\n\n  function getMyPayoutForOutcome(uint _myBet, uint _outcomeShare, uint _outcomePool, uint _roundPool) pure private returns (uint) {\n    if (_myBet > 0) {\n      uint myOutcomeShare = (_myBet*1e20).div(_outcomePool);\n\n      uint myOutcomePayout = _roundPool\n          .mul(_outcomeShare)\n          .div(100)\n          .mul(myOutcomeShare)\n          .div(1e20);\n\n      return myOutcomePayout;\n    }\n    return 0;\n  }\n\n  function cancelRound(bytes4 _roundId) external {\n    Round storage r = getRound(msg.sender, _roundId);\n    require(r.status == Status.SCHEDULED || r.status == Status.OPEN);\n\n    rounds[msg.sender][_roundId].status = Status.CANCELLED;\n    hostContext[msg.sender].numRoundsCancelled += 1;\n    emit RoundCancelled(msg.sender, _roundId);\n  }\n\n\n  ///\n  /// Getters used by UI\n  ///\n\n  function getRoundInfo(address _host, bytes4 _roundId)\n    public\n    view\n    roundExists(_host, _roundId)\n    // status, createdAt, endedAt, timeoutAt, question, numOutcomes, numBets, poolSize, hostBonus, hostFee\n    returns (uint, uint, uint, uint, bytes32, uint, uint, uint, uint, uint)\n  {\n    Round storage r = getRound(_host, _roundId);\n   \n    return (\n      uint256(r.status),\n      r.createdAt,\n      r.endedAt,\n      r.timeoutAt,\n      r.question,\n      r.outcomes.outcomes.length,\n      r.stats.numBets,\n      r.stats.poolSize,\n      r.hostBonus,\n      r.hostFee\n    );\n  }\n\n  function getRoundOutcomeByName(bytes32 _hostName, bytes4 _roundId, uint _index) external view returns (bytes32) {\n    require(hostAddresses[_hostName] != address(0), HOST_NAME_NOT_FOUND);\n    return getRoundOutcome(hostAddresses[_hostName], _roundId, _index);\n  }\n  \n  function getRoundOutcome(address _host, bytes4 _roundId, uint _index) public view roundExists(_host, _roundId) returns (bytes32) {\n    Round storage r = getRound(_host, _roundId);\n    require(_index < r.outcomes.outcomes.length);\n    return r.outcomes.outcomes[_index];\n  }\n\n  function getRoundOutcomePoolByName(bytes32 _hostName, bytes4 _roundId, bytes32 _outcomeHash) external view returns (uint) {\n    require(hostAddresses[_hostName] != address(0), HOST_NAME_NOT_FOUND);\n    return getRoundOutcomePool(hostAddresses[_hostName], _roundId, _outcomeHash);\n  }\n  \n  function getRoundOutcomePool(address _host, bytes4 _roundId, bytes32 _outcomeHash) public view returns (uint) {\n    return rounds[_host][_roundId].outcomePools[_outcomeHash];\n  }\n\n  function getRoundOutcomeNumBetsByName(bytes32 _hostName, bytes4 _roundId, bytes32 _outcomeHash) external view returns (uint) {\n    require(hostAddresses[_hostName] != address(0), HOST_NAME_NOT_FOUND);\n    return getRoundOutcomeNumBets(hostAddresses[_hostName], _roundId, _outcomeHash);\n  }\n  \n  function getRoundOutcomeNumBets(address _host, bytes4 _roundId, bytes32 _outcomeHash) public view returns (uint) {\n    return rounds[_host][_roundId].outcomeNumBets[_outcomeHash];\n  }\n\n  function getMyRoundOutcomeBetByName(bytes32 _hostName, bytes4 _roundId, bytes32 _outcomeHash) external view returns (uint) {\n    require(hostAddresses[_hostName] != address(0), HOST_NAME_NOT_FOUND);\n    return getMyRoundOutcomeBet(hostAddresses[_hostName], _roundId, _outcomeHash);\n  }\n  \n  function getMyRoundOutcomeBet(address _host, bytes4 _roundId, bytes32 _outcomeHash) public view returns (uint) {\n    Round storage r = getRound(_host, _roundId);\n    return r.playerBets[_outcomeHash][msg.sender];\n  }\n\n  function getRoundOutcomeWinShareByName(bytes32 _hostName, bytes4 _roundId, bytes32 _outcomeHash) external view returns (uint) {\n    require(hostAddresses[_hostName] != address(0), HOST_NAME_NOT_FOUND);\n    return getRoundOutcomeWinShare(hostAddresses[_hostName], _roundId, _outcomeHash);\n  }\n  \n  function getRoundOutcomeWinShare(address _host, bytes4 _roundId, bytes32 _outcomeHash) public view returns (uint) {\n    return rounds[_host][_roundId].results.outcomeWinShares[_outcomeHash];\n  }\n\n  //                                          numRoundsCreated, numRoundsCancelled, numBets, poolSize\n  function getHostStats (address _host) external view returns (uint, uint, uint, uint) {\n    HostContext storage hc = hostContext[_host];\n    return (\n      hc.numRoundsSuccess,\n      hc.numRoundsCancelled,\n      hc.totalNumBets,\n      hc.totalPoolSize\n    );\n  }\n\n\n  ///\n  /// Management of `Username <-> address` mapping\n  ///\n\n  function registerRecord(bytes32 _name)\n    public\n  {\n    require(hostAddresses[_name] == address(0));\n    require(hostNames[msg.sender] == bytes32(0));\n\n    _setRecord(msg.sender, _name);\n  }\n\n  function deleteRecord()\n    public\n  {\n    bytes32 oldName = hostNames[msg.sender];\n    require(oldName[0] != 0);\n\n    _removeRecord(msg.sender, oldName);\n  }\n\n  function updateRecord(bytes32 _newName)\n    external\n  {\n    deleteRecord();\n    registerRecord(_newName);\n  }\n\n  function sudoDeleteRecord(bytes32 _name)\n    external\n    onlyOwner\n  {\n    address affectedAddress = hostAddresses[_name];\n    require(affectedAddress == address(0));\n\n    _removeRecord(affectedAddress, _name);\n  }\n\n  function _setRecord(\n    address _address,\n    bytes32 _name\n  )\n    private\n  {\n    hostAddresses[_name] = _address;\n    hostNames[_address] = _name;\n  }\n\n  function _removeRecord(\n    address _address,\n    bytes32 _name\n  )\n    private\n  {\n    delete hostAddresses[_name];\n    delete hostNames[_address];\n  }\n\n  function ()\n    external\n    payable\n  {\n    revert(); \n  }\n}",
  "sourcePath": "/home/mo/dev/betl/smart-contract/contracts/Betl.sol",
  "compiler": {
    "name": "solc",
    "version": "0.4.24+commit.e67f0147.Emscripten.clang"
  },
  "schemaVersion": "2.0.0",
  "updatedAt": "2018-07-01T00:07:04.170Z"
}