{
  "contractName": "Betl",
  "abi": [
    {
      "constant": true,
      "inputs": [
        {
          "name": "",
          "type": "address"
        }
      ],
      "name": "hostContext",
      "outputs": [
        {
          "name": "nextRoundNumber",
          "type": "uint256"
        },
        {
          "name": "numRoundsSuccess",
          "type": "uint256"
        },
        {
          "name": "numRoundsCancelled",
          "type": "uint256"
        },
        {
          "name": "totalNumBets",
          "type": "uint256"
        },
        {
          "name": "totalPoolSize",
          "type": "uint256"
        }
      ],
      "payable": false,
      "stateMutability": "view",
      "type": "function"
    },
    {
      "constant": false,
      "inputs": [],
      "name": "renounceOwnership",
      "outputs": [],
      "payable": false,
      "stateMutability": "nonpayable",
      "type": "function"
    },
    {
      "constant": true,
      "inputs": [],
      "name": "owner",
      "outputs": [
        {
          "name": "",
          "type": "address"
        }
      ],
      "payable": false,
      "stateMutability": "view",
      "type": "function"
    },
    {
      "constant": true,
      "inputs": [
        {
          "name": "",
          "type": "bytes32"
        }
      ],
      "name": "hostAddresses",
      "outputs": [
        {
          "name": "",
          "type": "address"
        }
      ],
      "payable": false,
      "stateMutability": "view",
      "type": "function"
    },
    {
      "constant": true,
      "inputs": [
        {
          "name": "",
          "type": "address"
        }
      ],
      "name": "hostNames",
      "outputs": [
        {
          "name": "",
          "type": "bytes32"
        }
      ],
      "payable": false,
      "stateMutability": "view",
      "type": "function"
    },
    {
      "constant": false,
      "inputs": [
        {
          "name": "_newOwner",
          "type": "address"
        }
      ],
      "name": "transferOwnership",
      "outputs": [],
      "payable": false,
      "stateMutability": "nonpayable",
      "type": "function"
    },
    {
      "payable": true,
      "stateMutability": "payable",
      "type": "fallback"
    },
    {
      "anonymous": false,
      "inputs": [
        {
          "indexed": true,
          "name": "host",
          "type": "address"
        },
        {
          "indexed": false,
          "name": "roundId",
          "type": "bytes4"
        }
      ],
      "name": "RoundCreated",
      "type": "event"
    },
    {
      "anonymous": false,
      "inputs": [
        {
          "indexed": true,
          "name": "host",
          "type": "address"
        },
        {
          "indexed": false,
          "name": "roundId",
          "type": "bytes4"
        }
      ],
      "name": "RoundFinished",
      "type": "event"
    },
    {
      "anonymous": false,
      "inputs": [
        {
          "indexed": true,
          "name": "host",
          "type": "address"
        },
        {
          "indexed": false,
          "name": "roundId",
          "type": "bytes4"
        }
      ],
      "name": "RoundCancelled",
      "type": "event"
    },
    {
      "anonymous": false,
      "inputs": [
        {
          "indexed": true,
          "name": "previousOwner",
          "type": "address"
        }
      ],
      "name": "OwnershipRenounced",
      "type": "event"
    },
    {
      "anonymous": false,
      "inputs": [
        {
          "indexed": true,
          "name": "previousOwner",
          "type": "address"
        },
        {
          "indexed": true,
          "name": "newOwner",
          "type": "address"
        }
      ],
      "name": "OwnershipTransferred",
      "type": "event"
    },
    {
      "constant": true,
      "inputs": [
        {
          "name": "_host",
          "type": "address"
        }
      ],
      "name": "getNextRoundNumber",
      "outputs": [
        {
          "name": "",
          "type": "uint256"
        }
      ],
      "payable": false,
      "stateMutability": "view",
      "type": "function"
    },
    {
      "constant": true,
      "inputs": [
        {
          "name": "_host",
          "type": "address"
        },
        {
          "name": "_roundNumber",
          "type": "uint256"
        }
      ],
      "name": "getRoundIdForRoundNumber",
      "outputs": [
        {
          "name": "",
          "type": "bytes4"
        }
      ],
      "payable": false,
      "stateMutability": "pure",
      "type": "function"
    },
    {
      "constant": true,
      "inputs": [
        {
          "name": "_host",
          "type": "address"
        }
      ],
      "name": "getNextRoundId",
      "outputs": [
        {
          "name": "",
          "type": "bytes4"
        }
      ],
      "payable": false,
      "stateMutability": "view",
      "type": "function"
    },
    {
      "constant": false,
      "inputs": [
        {
          "name": "_question",
          "type": "bytes32"
        },
        {
          "name": "_outcomes",
          "type": "bytes32[]"
        },
        {
          "name": "_configData",
          "type": "uint256[4]"
        },
        {
          "name": "_payoutTiers",
          "type": "uint256[]"
        }
      ],
      "name": "createRound",
      "outputs": [],
      "payable": true,
      "stateMutability": "payable",
      "type": "function"
    },
    {
      "constant": false,
      "inputs": [
        {
          "name": "_host",
          "type": "address"
        },
        {
          "name": "_roundId",
          "type": "bytes4"
        },
        {
          "name": "_outcomeIndex",
          "type": "uint256"
        }
      ],
      "name": "bet",
      "outputs": [],
      "payable": true,
      "stateMutability": "payable",
      "type": "function"
    },
    {
      "constant": false,
      "inputs": [
        {
          "name": "_picks",
          "type": "uint256[]"
        },
        {
          "name": "_roundId",
          "type": "bytes4"
        }
      ],
      "name": "pickWinnerAndEnd",
      "outputs": [],
      "payable": true,
      "stateMutability": "payable",
      "type": "function"
    },
    {
      "constant": false,
      "inputs": [
        {
          "name": "_host",
          "type": "address"
        },
        {
          "name": "_roundId",
          "type": "bytes4"
        }
      ],
      "name": "claimPayout",
      "outputs": [],
      "payable": false,
      "stateMutability": "nonpayable",
      "type": "function"
    },
    {
      "constant": false,
      "inputs": [
        {
          "name": "_host",
          "type": "address"
        },
        {
          "name": "_roundId",
          "type": "bytes4"
        }
      ],
      "name": "claimRefund",
      "outputs": [],
      "payable": false,
      "stateMutability": "nonpayable",
      "type": "function"
    },
    {
      "constant": false,
      "inputs": [
        {
          "name": "_roundId",
          "type": "bytes4"
        }
      ],
      "name": "cancelRound",
      "outputs": [],
      "payable": false,
      "stateMutability": "nonpayable",
      "type": "function"
    },
    {
      "constant": true,
      "inputs": [
        {
          "name": "_host",
          "type": "address"
        },
        {
          "name": "_roundId",
          "type": "bytes4"
        }
      ],
      "name": "getRoundInfo",
      "outputs": [
        {
          "name": "",
          "type": "uint256"
        },
        {
          "name": "",
          "type": "uint256"
        },
        {
          "name": "",
          "type": "uint256"
        },
        {
          "name": "",
          "type": "uint256"
        },
        {
          "name": "",
          "type": "bytes32"
        },
        {
          "name": "",
          "type": "uint256"
        },
        {
          "name": "",
          "type": "uint256"
        },
        {
          "name": "",
          "type": "uint256"
        },
        {
          "name": "",
          "type": "uint256"
        },
        {
          "name": "",
          "type": "uint256"
        }
      ],
      "payable": false,
      "stateMutability": "view",
      "type": "function"
    },
    {
      "constant": true,
      "inputs": [
        {
          "name": "_host",
          "type": "address"
        },
        {
          "name": "_roundId",
          "type": "bytes4"
        }
      ],
      "name": "getRoundInfoChanges",
      "outputs": [
        {
          "name": "",
          "type": "uint256"
        },
        {
          "name": "",
          "type": "uint256"
        },
        {
          "name": "",
          "type": "uint256"
        },
        {
          "name": "",
          "type": "uint256"
        }
      ],
      "payable": false,
      "stateMutability": "view",
      "type": "function"
    },
    {
      "constant": true,
      "inputs": [
        {
          "name": "_hostName",
          "type": "bytes32"
        },
        {
          "name": "_roundId",
          "type": "bytes4"
        },
        {
          "name": "_outcomeIndex",
          "type": "uint256"
        }
      ],
      "name": "getRoundOutcomeByName",
      "outputs": [
        {
          "name": "",
          "type": "bytes32"
        }
      ],
      "payable": false,
      "stateMutability": "view",
      "type": "function"
    },
    {
      "constant": true,
      "inputs": [
        {
          "name": "_host",
          "type": "address"
        },
        {
          "name": "_roundId",
          "type": "bytes4"
        },
        {
          "name": "_outcomeIndex",
          "type": "uint256"
        }
      ],
      "name": "getRoundOutcome",
      "outputs": [
        {
          "name": "",
          "type": "bytes32"
        }
      ],
      "payable": false,
      "stateMutability": "view",
      "type": "function"
    },
    {
      "constant": true,
      "inputs": [
        {
          "name": "_hostName",
          "type": "bytes32"
        },
        {
          "name": "_roundId",
          "type": "bytes4"
        },
        {
          "name": "_outcomeIndex",
          "type": "uint256"
        }
      ],
      "name": "getRoundOutcomePoolByName",
      "outputs": [
        {
          "name": "",
          "type": "uint256"
        }
      ],
      "payable": false,
      "stateMutability": "view",
      "type": "function"
    },
    {
      "constant": true,
      "inputs": [
        {
          "name": "_host",
          "type": "address"
        },
        {
          "name": "_roundId",
          "type": "bytes4"
        },
        {
          "name": "_outcomeIndex",
          "type": "uint256"
        }
      ],
      "name": "getRoundOutcomePool",
      "outputs": [
        {
          "name": "",
          "type": "uint256"
        }
      ],
      "payable": false,
      "stateMutability": "view",
      "type": "function"
    },
    {
      "constant": true,
      "inputs": [
        {
          "name": "_hostName",
          "type": "bytes32"
        },
        {
          "name": "_roundId",
          "type": "bytes4"
        },
        {
          "name": "_outcomeIndex",
          "type": "uint256"
        }
      ],
      "name": "getRoundOutcomeNumBetsByName",
      "outputs": [
        {
          "name": "",
          "type": "uint256"
        }
      ],
      "payable": false,
      "stateMutability": "view",
      "type": "function"
    },
    {
      "constant": true,
      "inputs": [
        {
          "name": "_host",
          "type": "address"
        },
        {
          "name": "_roundId",
          "type": "bytes4"
        },
        {
          "name": "_outcomeIndex",
          "type": "uint256"
        }
      ],
      "name": "getRoundOutcomeNumBets",
      "outputs": [
        {
          "name": "",
          "type": "uint256"
        }
      ],
      "payable": false,
      "stateMutability": "view",
      "type": "function"
    },
    {
      "constant": true,
      "inputs": [
        {
          "name": "_hostName",
          "type": "bytes32"
        },
        {
          "name": "_roundId",
          "type": "bytes4"
        },
        {
          "name": "_outcomeIndex",
          "type": "uint256"
        }
      ],
      "name": "getMyRoundOutcomeBetByName",
      "outputs": [
        {
          "name": "",
          "type": "uint256"
        }
      ],
      "payable": false,
      "stateMutability": "view",
      "type": "function"
    },
    {
      "constant": true,
      "inputs": [
        {
          "name": "_host",
          "type": "address"
        },
        {
          "name": "_roundId",
          "type": "bytes4"
        },
        {
          "name": "_outcomeIndex",
          "type": "uint256"
        }
      ],
      "name": "getMyRoundOutcomeBet",
      "outputs": [
        {
          "name": "",
          "type": "uint256"
        }
      ],
      "payable": false,
      "stateMutability": "view",
      "type": "function"
    },
    {
      "constant": true,
      "inputs": [
        {
          "name": "_hostName",
          "type": "bytes32"
        },
        {
          "name": "_roundId",
          "type": "bytes4"
        },
        {
          "name": "_outcomeIndex",
          "type": "uint256"
        }
      ],
      "name": "getRoundOutcomeWinShareByName",
      "outputs": [
        {
          "name": "",
          "type": "uint256"
        }
      ],
      "payable": false,
      "stateMutability": "view",
      "type": "function"
    },
    {
      "constant": true,
      "inputs": [
        {
          "name": "_host",
          "type": "address"
        },
        {
          "name": "_roundId",
          "type": "bytes4"
        },
        {
          "name": "_outcomeIndex",
          "type": "uint256"
        }
      ],
      "name": "getRoundOutcomeWinShare",
      "outputs": [
        {
          "name": "",
          "type": "uint256"
        }
      ],
      "payable": false,
      "stateMutability": "view",
      "type": "function"
    },
    {
      "constant": true,
      "inputs": [
        {
          "name": "_host",
          "type": "address"
        }
      ],
      "name": "getHostStats",
      "outputs": [
        {
          "name": "",
          "type": "uint256"
        },
        {
          "name": "",
          "type": "uint256"
        },
        {
          "name": "",
          "type": "uint256"
        },
        {
          "name": "",
          "type": "uint256"
        }
      ],
      "payable": false,
      "stateMutability": "view",
      "type": "function"
    },
    {
      "constant": false,
      "inputs": [
        {
          "name": "_name",
          "type": "bytes32"
        }
      ],
      "name": "registerRecord",
      "outputs": [],
      "payable": false,
      "stateMutability": "nonpayable",
      "type": "function"
    },
    {
      "constant": false,
      "inputs": [],
      "name": "deleteRecord",
      "outputs": [],
      "payable": false,
      "stateMutability": "nonpayable",
      "type": "function"
    },
    {
      "constant": false,
      "inputs": [
        {
          "name": "_newName",
          "type": "bytes32"
        }
      ],
      "name": "updateRecord",
      "outputs": [],
      "payable": false,
      "stateMutability": "nonpayable",
      "type": "function"
    },
    {
      "constant": false,
      "inputs": [
        {
          "name": "_name",
          "type": "bytes32"
        }
      ],
      "name": "sudoDeleteRecord",
      "outputs": [],
      "payable": false,
      "stateMutability": "nonpayable",
      "type": "function"
    }
  ],
  "bytecode": "0x6080604052336000806101000a81548173ffffffffffffffffffffffffffffffffffffffff021916908373ffffffffffffffffffffffffffffffffffffffff160217905550613925806100536000396000f300608060405260043610610196576000357c0100000000000000000000000000000000000000000000000000000000900463ffffffff16806301186d991461019b57806303437415146101cc57806307be5b6d146102615780630d4c0960146102ca5780631536c9e2146103215780631584108b1461039957806317b0421a146104055780631dd9fe43146104cc5780632b7b0d48146105235780634245ac9d1461059b578063471990ba1461062d57806351fde5ce146106a057806358cefa4c1461071857806365426a98146107a257806366d9e7d8146107b957806369a1ea11146107ea5780636f50c44b14610874578063715018a6146108a5578063764ac734146108bc5780637d51d7e1146109285780638baf79a4146109c75780638da5cb5b14610a255780638f6ae70014610a7c57806397c7853614610af45780639dd4527d14610b40578063a070f04e14610bb1578063b357cae314610c10578063be1075d414610c9a578063da6295a414610d24578063f181b9a314610d90578063f2fde38b14610e10578063f6734bcd14610e53575b600080fd5b3480156101a757600080fd5b506101ca6004803603810190808035600019169060200190929190505050610ee8565b005b3480156101d857600080fd5b5061020d600480360381019080803573ffffffffffffffffffffffffffffffffffffffff169060200190929190505050610efc565b60405180827bffffffffffffffffffffffffffffffffffffffffffffffffffffffff19167bffffffffffffffffffffffffffffffffffffffffffffffffffffffff1916815260200191505060405180910390f35b6102c8600480360381019080803573ffffffffffffffffffffffffffffffffffffffff16906020019092919080357bffffffffffffffffffffffffffffffffffffffffffffffffffffffff1916906020019092919080359060200190929190505050611017565b005b61031f60048036038101908080359060200190820180359060200191909192939192939080357bffffffffffffffffffffffffffffffffffffffffffffffffffffffff19169060200190929190505050611263565b005b34801561032d57600080fd5b50610383600480360381019080803560001916906020019092919080357bffffffffffffffffffffffffffffffffffffffffffffffffffffffff19169060200190929190803590602001909291905050506116ce565b6040518082815260200191505060405180910390f35b3480156103a557600080fd5b50610403600480360381019080803573ffffffffffffffffffffffffffffffffffffffff16906020019092919080357bffffffffffffffffffffffffffffffffffffffffffffffffffffffff19169060200190929190505050611869565b005b34801561041157600080fd5b5061046f600480360381019080803573ffffffffffffffffffffffffffffffffffffffff16906020019092919080357bffffffffffffffffffffffffffffffffffffffffffffffffffffffff19169060200190929190505050611a61565b604051808b81526020018a815260200189815260200188815260200187600019166000191681526020018681526020018581526020018481526020018381526020018281526020019a505050505050505050505060405180910390f35b3480156104d857600080fd5b5061050d600480360381019080803573ffffffffffffffffffffffffffffffffffffffff169060200190929190505050611afc565b6040518082815260200191505060405180910390f35b34801561052f57600080fd5b50610585600480360381019080803560001916906020019092919080357bffffffffffffffffffffffffffffffffffffffffffffffffffffffff1916906020019092919080359060200190929190505050611b48565b6040518082815260200191505060405180910390f35b3480156105a757600080fd5b5061060f600480360381019080803573ffffffffffffffffffffffffffffffffffffffff16906020019092919080357bffffffffffffffffffffffffffffffffffffffffffffffffffffffff1916906020019092919080359060200190929190505050611ce3565b60405180826000191660001916815260200191505060405180910390f35b34801561063957600080fd5b5061066e600480360381019080803573ffffffffffffffffffffffffffffffffffffffff169060200190929190505050611d37565b604051808681526020018581526020018481526020018381526020018281526020019550505050505060405180910390f35b3480156106ac57600080fd5b50610702600480360381019080803560001916906020019092919080357bffffffffffffffffffffffffffffffffffffffffffffffffffffffff1916906020019092919080359060200190929190505050611d6d565b6040518082815260200191505060405180910390f35b34801561072457600080fd5b5061078c600480360381019080803573ffffffffffffffffffffffffffffffffffffffff16906020019092919080357bffffffffffffffffffffffffffffffffffffffffffffffffffffffff1916906020019092919080359060200190929190505050611f08565b6040518082815260200191505060405180910390f35b3480156107ae57600080fd5b506107b7611fb6565b005b3480156107c557600080fd5b506107e8600480360381019080803560001916906020019092919050505061208c565b005b3480156107f657600080fd5b5061085e600480360381019080803573ffffffffffffffffffffffffffffffffffffffff16906020019092919080357bffffffffffffffffffffffffffffffffffffffffffffffffffffffff1916906020019092919080359060200190929190505050612168565b6040518082815260200191505060405180910390f35b34801561088057600080fd5b506108a36004803603810190808035600019169060200190929190505050612219565b005b3480156108b157600080fd5b506108ba6122fd565b005b3480156108c857600080fd5b506108fd600480360381019080803573ffffffffffffffffffffffffffffffffffffffff1690602001909291905050506123ff565b6040518085815260200184815260200183815260200182815260200194505050505060405180910390f35b34801561093457600080fd5b50610973600480360381019080803573ffffffffffffffffffffffffffffffffffffffff1690602001909291908035906020019092919050505061246c565b60405180827bffffffffffffffffffffffffffffffffffffffffffffffffffffffff19167bffffffffffffffffffffffffffffffffffffffffffffffffffffffff1916815260200191505060405180910390f35b610a23600480360381019080803560001916906020019092919080359060200190820180359060200191909192939192939080608001909192919290803590602001908201803590602001919091929391929390505050612540565b005b348015610a3157600080fd5b50610a3a6129d8565b604051808273ffffffffffffffffffffffffffffffffffffffff1673ffffffffffffffffffffffffffffffffffffffff16815260200191505060405180910390f35b348015610a8857600080fd5b50610ade600480360381019080803560001916906020019092919080357bffffffffffffffffffffffffffffffffffffffffffffffffffffffff19169060200190929190803590602001909291905050506129fd565b6040518082815260200191505060405180910390f35b348015610b0057600080fd5b50610b3e60048036038101908080357bffffffffffffffffffffffffffffffffffffffffffffffffffffffff19169060200190929190505050612b98565b005b348015610b4c57600080fd5b50610b6f6004803603810190808035600019169060200190929190505050612da2565b604051808273ffffffffffffffffffffffffffffffffffffffff1673ffffffffffffffffffffffffffffffffffffffff16815260200191505060405180910390f35b348015610bbd57600080fd5b50610bf2600480360381019080803573ffffffffffffffffffffffffffffffffffffffff169060200190929190505050612dd5565b60405180826000191660001916815260200191505060405180910390f35b348015610c1c57600080fd5b50610c84600480360381019080803573ffffffffffffffffffffffffffffffffffffffff16906020019092919080357bffffffffffffffffffffffffffffffffffffffffffffffffffffffff1916906020019092919080359060200190929190505050612ded565b6040518082815260200191505060405180910390f35b348015610ca657600080fd5b50610d0e600480360381019080803573ffffffffffffffffffffffffffffffffffffffff16906020019092919080357bffffffffffffffffffffffffffffffffffffffffffffffffffffffff1916906020019092919080359060200190929190505050612e59565b6040518082815260200191505060405180910390f35b348015610d3057600080fd5b50610d8e600480360381019080803573ffffffffffffffffffffffffffffffffffffffff16906020019092919080357bffffffffffffffffffffffffffffffffffffffffffffffffffffffff19169060200190929190505050612f07565b005b348015610d9c57600080fd5b50610df2600480360381019080803560001916906020019092919080357bffffffffffffffffffffffffffffffffffffffffffffffffffffffff19169060200190929190803590602001909291905050506130bf565b60405180826000191660001916815260200191505060405180910390f35b348015610e1c57600080fd5b50610e51600480360381019080803573ffffffffffffffffffffffffffffffffffffffff16906020019092919050505061325a565b005b348015610e5f57600080fd5b50610ebd600480360381019080803573ffffffffffffffffffffffffffffffffffffffff16906020019092919080357bffffffffffffffffffffffffffffffffffffffffffffffffffffffff191690602001909291905050506132c1565b6040518085815260200184815260200183815260200182815260200194505050505060405180910390f35b610ef0611fb6565b610ef98161208c565b50565b6000806000600260008573ffffffffffffffffffffffffffffffffffffffff1673ffffffffffffffffffffffffffffffffffffffff1681526020019081526020016000206000015491508382604051602001808373ffffffffffffffffffffffffffffffffffffffff1673ffffffffffffffffffffffffffffffffffffffff166c01000000000000000000000000028152601401828152602001925050506040516020818303038152906040526040518082805190602001908083835b602083101515610fde5780518252602082019150602081019050602083039250610fb9565b6001836020036101000a038019825116818451168082178552505050505050905001915050604051809103902090508092505050919050565b6000611023848461331d565b90506002600681111561103257fe5b8160010160009054906101000a900460ff16600681111561104f57fe5b14151561105b57600080fd5b60003411801561106f575080600501543410155b151561107a57600080fd5b600060010260001916816009016000018381548110151561109757fe5b906000526020600020015460001916141515156110b357600080fd5b6000816004015414806110c95750806004015442105b15156110d457600080fd5b6111393482600f01600085815260200190815260200160002060003373ffffffffffffffffffffffffffffffffffffffff1673ffffffffffffffffffffffffffffffffffffffff168152602001908152602001600020546133eb90919063ffffffff16565b81600f01600084815260200190815260200160002060003373ffffffffffffffffffffffffffffffffffffffff1673ffffffffffffffffffffffffffffffffffffffff168152602001908152602001600020819055506111b734826010016000858152602001908152602001600020546133eb90919063ffffffff16565b816010016000848152602001908152602001600020819055506111f96001826011016000858152602001908152602001600020546133eb90919063ffffffff16565b8160110160008481526020019081526020016000208190555061122d600182600d01600001546133eb90919063ffffffff16565b81600d01600001819055506112523482600d01600101546133eb90919063ffffffff16565b81600d016001018190555050505050565b6000806000806000806000611278338961331d565b96506002600681111561128757fe5b8760010160009054906101000a900460ff1660068111156112a457fe5b14806112d75750600360068111156112b857fe5b8760010160009054906101000a900460ff1660068111156112d557fe5b145b15156112e257600080fd5b86600901600001805490508a8a90501415156112fd57600080fd5b86600401544210151561130f57600080fd5b61133d606461132f60018a600d016001015461340790919063ffffffff16565b61343f90919063ffffffff16565b95508587600d016001015403945061137c606461136e89600701548a600d016001015461340790919063ffffffff16565b61343f90919063ffffffff16565b93508385039450600091505b898990508210156114405789898381811015156113a157fe5b90506020020135905060008114156113b857611433565b606481111515156113c857600080fd5b80830192508087600b016001016000848152602001908152602001600020819055506114106064611402838861340790919063ffffffff16565b61343f90919063ffffffff16565b87600b016000018381548110151561142457fe5b90600052602060002001819055505b8180600101925050611388565b60648314151561144f57600080fd5b86600d0160000154600260003373ffffffffffffffffffffffffffffffffffffffff1673ffffffffffffffffffffffffffffffffffffffff1681526020019081526020016000206003016000828254019250508190555086600d0160010154600260003373ffffffffffffffffffffffffffffffffffffffff1673ffffffffffffffffffffffffffffffffffffffff168152602001908152602001600020600401600082825401925050819055506001600260003373ffffffffffffffffffffffffffffffffffffffff1673ffffffffffffffffffffffffffffffffffffffff1681526020019081526020016000206001016000828254019250508190555060048760010160006101000a81548160ff0219169083600681111561156f57fe5b02179055504287600301819055506000809054906101000a900473ffffffffffffffffffffffffffffffffffffffff1673ffffffffffffffffffffffffffffffffffffffff166108fc879081150290604051600060405180830381858888f193505050501580156115e4573d6000803e3d6000fd5b506000841115611636573373ffffffffffffffffffffffffffffffffffffffff166108fc859081150290604051600060405180830381858888f19350505050158015611634573d6000803e3d6000fd5b505b3373ffffffffffffffffffffffffffffffffffffffff167f4cdf964e6e89934ffc032ff3f5be1525aa747560a07d9e380c8bead358e6febd8960405180827bffffffffffffffffffffffffffffffffffffffffffffffffffffffff19167bffffffffffffffffffffffffffffffffffffffffffffffffffffffff1916815260200191505060405180910390a250505050505050505050565b60008073ffffffffffffffffffffffffffffffffffffffff1660036000866000191660001916815260200190815260200160002060009054906101000a900473ffffffffffffffffffffffffffffffffffffffff1673ffffffffffffffffffffffffffffffffffffffff1614156040805190810160405280601381526020017f484f53545f4e414d455f4e4f545f464f554e4400000000000000000000000000815250901515611819576040517f08c379a00000000000000000000000000000000000000000000000000000000081526004018080602001828103825283818151815260200191508051906020019080838360005b838110156117de5780820151818401526020810190506117c3565b50505050905090810190601f16801561180b5780820380516001836020036101000a031916815260200191505b509250505060405180910390fd5b5061186060036000866000191660001916815260200190815260200160002060009054906101000a900473ffffffffffffffffffffffffffffffffffffffff168484612e59565b90509392505050565b600080600080600061187b878761331d565b94506004600681111561188a57fe5b8560010160009054906101000a900460ff1660068111156118a757fe5b1415156118b357600080fd5b600092505b8460090160000180549050831015611a025784600b01600101600084815260200190815260200160002054915060008214156118f3576119f5565b61196d85600f01600085815260200190815260200160002060003373ffffffffffffffffffffffffffffffffffffffff1673ffffffffffffffffffffffffffffffffffffffff16815260200190815260200160002054838760100160008781526020019081526020016000205488600d0160010154613455565b905060008111156119e65761198b81856133eb90919063ffffffff16565b9350600085600f01600085815260200190815260200160002060003373ffffffffffffffffffffffffffffffffffffffff1673ffffffffffffffffffffffffffffffffffffffff168152602001908152602001600020819055505b60648214156119f457611a02565b5b82806001019350506118b8565b600084111515611a1157600080fd5b3373ffffffffffffffffffffffffffffffffffffffff166108fc859081150290604051600060405180830381858888f19350505050158015611a57573d6000803e3d6000fd5b5050505050505050565b60008060008060008060008060008060008c8c611a7e8f8f61331d565b92508260010160009054906101000a900460ff166006811115611a9d57fe5b8360020154846003015485600401548660080154876009016000018054905088600d016000015489600d01600101548a600601548b600701549c509c509c509c509c509c509c509c509c509c505050509295989b9194979a5092959850565b6000600260008373ffffffffffffffffffffffffffffffffffffffff1673ffffffffffffffffffffffffffffffffffffffff168152602001908152602001600020600001549050919050565b60008073ffffffffffffffffffffffffffffffffffffffff1660036000866000191660001916815260200190815260200160002060009054906101000a900473ffffffffffffffffffffffffffffffffffffffff1673ffffffffffffffffffffffffffffffffffffffff1614156040805190810160405280601381526020017f484f53545f4e414d455f4e4f545f464f554e4400000000000000000000000000815250901515611c93576040517f08c379a00000000000000000000000000000000000000000000000000000000081526004018080602001828103825283818151815260200191508051906020019080838360005b83811015611c58578082015181840152602081019050611c3d565b50505050905090810190601f168015611c855780820380516001836020036101000a031916815260200191505b509250505060405180910390fd5b50611cda60036000866000191660001916815260200190815260200160002060009054906101000a900473ffffffffffffffffffffffffffffffffffffffff168484612ded565b90509392505050565b6000808484611cf2878761331d565b9250826009016000018054905085101515611d0c57600080fd5b8260090160000185815481101515611d2057fe5b906000526020600020015493505050509392505050565b60026020528060005260406000206000915090508060000154908060010154908060020154908060030154908060040154905085565b60008073ffffffffffffffffffffffffffffffffffffffff1660036000866000191660001916815260200190815260200160002060009054906101000a900473ffffffffffffffffffffffffffffffffffffffff1673ffffffffffffffffffffffffffffffffffffffff1614156040805190810160405280601381526020017f484f53545f4e414d455f4e4f545f464f554e4400000000000000000000000000815250901515611eb8576040517f08c379a00000000000000000000000000000000000000000000000000000000081526004018080602001828103825283818151815260200191508051906020019080838360005b83811015611e7d578082015181840152602081019050611e62565b50505050905090810190601f168015611eaa5780820380516001836020036101000a031916815260200191505b509250505060405180910390fd5b50611eff60036000866000191660001916815260200190815260200160002060009054906101000a900473ffffffffffffffffffffffffffffffffffffffff168484611f08565b90509392505050565b6000600160008573ffffffffffffffffffffffffffffffffffffffff1673ffffffffffffffffffffffffffffffffffffffff1681526020019081526020016000206000847bffffffffffffffffffffffffffffffffffffffffffffffffffffffff19167bffffffffffffffffffffffffffffffffffffffffffffffffffffffff1916815260200190815260200160002060110160008381526020019081526020016000205490509392505050565b6000600460003373ffffffffffffffffffffffffffffffffffffffff1673ffffffffffffffffffffffffffffffffffffffff16815260200190815260200160002054905060007f01000000000000000000000000000000000000000000000000000000000000000281600060208110151561202d57fe5b1a7f0100000000000000000000000000000000000000000000000000000000000000027effffffffffffffffffffffffffffffffffffffffffffffffffffffffffffff19161415151561207f57600080fd5b61208933826134ee565b50565b600073ffffffffffffffffffffffffffffffffffffffff1660036000836000191660001916815260200190815260200160002060009054906101000a900473ffffffffffffffffffffffffffffffffffffffff1673ffffffffffffffffffffffffffffffffffffffff1614151561210257600080fd5b600060010260001916600460003373ffffffffffffffffffffffffffffffffffffffff1673ffffffffffffffffffffffffffffffffffffffff168152602001908152602001600020546000191614151561215b57600080fd5b6121653382613573565b50565b6000600160008573ffffffffffffffffffffffffffffffffffffffff1673ffffffffffffffffffffffffffffffffffffffff1681526020019081526020016000206000847bffffffffffffffffffffffffffffffffffffffffffffffffffffffff19167bffffffffffffffffffffffffffffffffffffffffffffffffffffffff19168152602001908152602001600020600b0160010160008381526020019081526020016000205490509392505050565b60008060009054906101000a900473ffffffffffffffffffffffffffffffffffffffff1673ffffffffffffffffffffffffffffffffffffffff163373ffffffffffffffffffffffffffffffffffffffff1614151561227657600080fd5b60036000836000191660001916815260200190815260200160002060009054906101000a900473ffffffffffffffffffffffffffffffffffffffff169050600073ffffffffffffffffffffffffffffffffffffffff168173ffffffffffffffffffffffffffffffffffffffff161415156122ef57600080fd5b6122f981836134ee565b5050565b6000809054906101000a900473ffffffffffffffffffffffffffffffffffffffff1673ffffffffffffffffffffffffffffffffffffffff163373ffffffffffffffffffffffffffffffffffffffff1614151561235857600080fd5b6000809054906101000a900473ffffffffffffffffffffffffffffffffffffffff1673ffffffffffffffffffffffffffffffffffffffff167ff8df31144d9c2f0f6b59d69b8b98abd5459d07f2742c4df920b25aae33c6482060405160405180910390a260008060006101000a81548173ffffffffffffffffffffffffffffffffffffffff021916908373ffffffffffffffffffffffffffffffffffffffff160217905550565b6000806000806000600260008773ffffffffffffffffffffffffffffffffffffffff1673ffffffffffffffffffffffffffffffffffffffff168152602001908152602001600020905080600101548160020154826003015483600401549450945094509450509193509193565b6000808383604051602001808373ffffffffffffffffffffffffffffffffffffffff1673ffffffffffffffffffffffffffffffffffffffff166c01000000000000000000000000028152601401828152602001925050506040516020818303038152906040526040518082805190602001908083835b60208310151561250757805182526020820191506020810190506020830392506124e2565b6001836020036101000a038019825116818451168082178552505050505050905001915050604051809103902090508091505092915050565b600061254a6137c7565b6125526137e1565b61255a6137f5565b600080600089600060048110151561256e57fe5b6020020135148061259157504289600060048110151561258a57fe5b6020020135115b151561259c57600080fd5b603c8960016004811015156125ad57fe5b6020020135101515156125bf57600080fd5b60028b8b9050101580156125d75750600a8b8b905011155b15156125e257600080fd5b60648960036004811015156125f357fe5b60200201351115151561260557600080fd5b8a8a9050888890501115151561261a57600080fd5b6002955060408051908101604052808c8c80806020026020016040519081016040528093929190818152602001838360200280828437820191505050505050815260200189898080602002602001604051908101604052809392919081815260200183836020028082843782019150505050505081525094506020604051908101604052808c8c90506040519080825280602002602001820160405280156126d15781602001602082028038833980820191505090505b5081525093506040805190810160405280600081526020013481525092506126f833613619565b80925081935050506101806040519081016040528083815260200187600681111561271f57fe5b8152602001428152602001600081526020018a600160048110151561274057fe5b6020020135420181526020018a600260048110151561275b57fe5b602002013581526020013481526020018a600360048110151561277a57fe5b602002013581526020018d60001916815260200186815260200185815260200184815250600160003373ffffffffffffffffffffffffffffffffffffffff1673ffffffffffffffffffffffffffffffffffffffff1681526020019081526020016000206000837bffffffffffffffffffffffffffffffffffffffffffffffffffffffff19167bffffffffffffffffffffffffffffffffffffffffffffffffffffffff191681526020019081526020016000206000820151816000015560208201518160010160006101000a81548160ff0219169083600681111561285a57fe5b021790555060408201518160020155606082015181600301556080820151816004015560a0820151816005015560c0820151816006015560e0820151816007015561010082015181600801906000191690556101208201518160090160008201518160000190805190602001906128d292919061380f565b5060208201518160010190805190602001906128ef929190613862565b50505061014082015181600b016000820151816000019080519060200190612918929190613862565b50505061016082015181600d01600082015181600001556020820151816001015550509050503373ffffffffffffffffffffffffffffffffffffffff167f38200ecf62e44ebceaabbd4292688e3e06ac3bdaf612a0287f9d1d7f0e3e5ad08260405180827bffffffffffffffffffffffffffffffffffffffffffffffffffffffff19167bffffffffffffffffffffffffffffffffffffffffffffffffffffffff1916815260200191505060405180910390a2505050505050505050505050565b6000809054906101000a900473ffffffffffffffffffffffffffffffffffffffff1681565b60008073ffffffffffffffffffffffffffffffffffffffff1660036000866000191660001916815260200190815260200160002060009054906101000a900473ffffffffffffffffffffffffffffffffffffffff1673ffffffffffffffffffffffffffffffffffffffff1614156040805190810160405280601381526020017f484f53545f4e414d455f4e4f545f464f554e4400000000000000000000000000815250901515612b48576040517f08c379a00000000000000000000000000000000000000000000000000000000081526004018080602001828103825283818151815260200191508051906020019080838360005b83811015612b0d578082015181840152602081019050612af2565b50505050905090810190601f168015612b3a5780820380516001836020036101000a031916815260200191505b509250505060405180910390fd5b50612b8f60036000866000191660001916815260200190815260200160002060009054906101000a900473ffffffffffffffffffffffffffffffffffffffff168484612168565b90509392505050565b6000612ba4338361331d565b905060016006811115612bb357fe5b8160010160009054906101000a900460ff166006811115612bd057fe5b1480612c03575060026006811115612be457fe5b8160010160009054906101000a900460ff166006811115612c0157fe5b145b1515612c0e57600080fd5b6005600160003373ffffffffffffffffffffffffffffffffffffffff1673ffffffffffffffffffffffffffffffffffffffff1681526020019081526020016000206000847bffffffffffffffffffffffffffffffffffffffffffffffffffffffff19167bffffffffffffffffffffffffffffffffffffffffffffffffffffffff1916815260200190815260200160002060010160006101000a81548160ff02191690836006811115612cbc57fe5b02179055506001600260003373ffffffffffffffffffffffffffffffffffffffff1673ffffffffffffffffffffffffffffffffffffffff168152602001908152602001600020600201600082825401925050819055503373ffffffffffffffffffffffffffffffffffffffff167f81a8172348667ad6402f7c3aca080b41512f7d5925c666de439a4473e51fe4b78360405180827bffffffffffffffffffffffffffffffffffffffffffffffffffffffff19167bffffffffffffffffffffffffffffffffffffffffffffffffffffffff1916815260200191505060405180910390a25050565b60036020528060005260406000206000915054906101000a900473ffffffffffffffffffffffffffffffffffffffff1681565b60046020528060005260406000206000915090505481565b600080612dfa858561331d565b905080600f01600084815260200190815260200160002060003373ffffffffffffffffffffffffffffffffffffffff1673ffffffffffffffffffffffffffffffffffffffff168152602001908152602001600020549150509392505050565b6000600160008573ffffffffffffffffffffffffffffffffffffffff1673ffffffffffffffffffffffffffffffffffffffff1681526020019081526020016000206000847bffffffffffffffffffffffffffffffffffffffffffffffffffffffff19167bffffffffffffffffffffffffffffffffffffffffffffffffffffffff1916815260200190815260200160002060100160008381526020019081526020016000205490509392505050565b6000806000612f16858561331d565b925060056006811115612f2557fe5b8360010160009054906101000a900460ff166006811115612f4257fe5b1480612f745750600680811115612f5557fe5b8360010160009054906101000a900460ff166006811115612f7257fe5b145b1515612f7f57600080fd5b600090505b826009016000018054905081101561306257612ffb83600f01600083815260200190815260200160002060003373ffffffffffffffffffffffffffffffffffffffff1673ffffffffffffffffffffffffffffffffffffffff16815260200190815260200160002054836133eb90919063ffffffff16565b9150600083600f01600083815260200190815260200160002060003373ffffffffffffffffffffffffffffffffffffffff1673ffffffffffffffffffffffffffffffffffffffff168152602001908152602001600020819055508080600101915050612f84565b60008211151561307157600080fd5b3373ffffffffffffffffffffffffffffffffffffffff166108fc839081150290604051600060405180830381858888f193505050501580156130b7573d6000803e3d6000fd5b505050505050565b60008073ffffffffffffffffffffffffffffffffffffffff1660036000866000191660001916815260200190815260200160002060009054906101000a900473ffffffffffffffffffffffffffffffffffffffff1673ffffffffffffffffffffffffffffffffffffffff1614156040805190810160405280601381526020017f484f53545f4e414d455f4e4f545f464f554e440000000000000000000000000081525090151561320a576040517f08c379a00000000000000000000000000000000000000000000000000000000081526004018080602001828103825283818151815260200191508051906020019080838360005b838110156131cf5780820151818401526020810190506131b4565b50505050905090810190601f1680156131fc5780820380516001836020036101000a031916815260200191505b509250505060405180910390fd5b5061325160036000866000191660001916815260200190815260200160002060009054906101000a900473ffffffffffffffffffffffffffffffffffffffff168484611ce3565b90509392505050565b6000809054906101000a900473ffffffffffffffffffffffffffffffffffffffff1673ffffffffffffffffffffffffffffffffffffffff163373ffffffffffffffffffffffffffffffffffffffff161415156132b557600080fd5b6132be816136cd565b50565b600080600080600086866132d5898961331d565b92508260010160009054906101000a900460ff1660068111156132f457fe5b836003015484600d016000015485600d0160010154965096509650965050505092959194509250565b6000806000600160008673ffffffffffffffffffffffffffffffffffffffff1673ffffffffffffffffffffffffffffffffffffffff1681526020019081526020016000206000857bffffffffffffffffffffffffffffffffffffffffffffffffffffffff19167bffffffffffffffffffffffffffffffffffffffffffffffffffffffff1916815260200190815260200160002091508160010160009054906101000a900460ff16905060078160068111156133d457fe5b1015156133e057600080fd5b819250505092915050565b600081830190508281101515156133fe57fe5b80905092915050565b60008083141561341a5760009050613439565b818302905081838281151561342b57fe5b0414151561343557fe5b8090505b92915050565b6000818381151561344c57fe5b04905092915050565b6000806000808711156134df576134808568056bc75e2d63100000890261343f90919063ffffffff16565b91506134d568056bc75e2d631000006134c7846134b960646134ab8c8b61340790919063ffffffff16565b61343f90919063ffffffff16565b61340790919063ffffffff16565b61343f90919063ffffffff16565b90508092506134e4565b600092505b5050949350505050565b60036000826000191660001916815260200190815260200160002060006101000a81549073ffffffffffffffffffffffffffffffffffffffff0219169055600460008373ffffffffffffffffffffffffffffffffffffffff1673ffffffffffffffffffffffffffffffffffffffff168152602001908152602001600020600090555050565b8160036000836000191660001916815260200190815260200160002060006101000a81548173ffffffffffffffffffffffffffffffffffffffff021916908373ffffffffffffffffffffffffffffffffffffffff16021790555080600460008473ffffffffffffffffffffffffffffffffffffffff1673ffffffffffffffffffffffffffffffffffffffff16815260200190815260200160002081600019169055505050565b600080600080600260008673ffffffffffffffffffffffffffffffffffffffff1673ffffffffffffffffffffffffffffffffffffffff16815260200190815260200160002060000154915061366d85610efc565b90506001600260008773ffffffffffffffffffffffffffffffffffffffff1673ffffffffffffffffffffffffffffffffffffffff168152602001908152602001600020600001600082825401925050819055508181935093505050915091565b600073ffffffffffffffffffffffffffffffffffffffff168173ffffffffffffffffffffffffffffffffffffffff161415151561370957600080fd5b8073ffffffffffffffffffffffffffffffffffffffff166000809054906101000a900473ffffffffffffffffffffffffffffffffffffffff1673ffffffffffffffffffffffffffffffffffffffff167f8be0079c531659141344cd1fd0a4f28419497f9722a3daafe3b4186f6b6457e060405160405180910390a3806000806101000a81548173ffffffffffffffffffffffffffffffffffffffff021916908373ffffffffffffffffffffffffffffffffffffffff16021790555050565b604080519081016040528060608152602001606081525090565b602060405190810160405280606081525090565b604080519081016040528060008152602001600081525090565b828054828255906000526020600020908101928215613851579160200282015b8281111561385057825182906000191690559160200191906001019061382f565b5b50905061385e91906138af565b5090565b82805482825590600052602060002090810192821561389e579160200282015b8281111561389d578251825591602001919060010190613882565b5b5090506138ab91906138d4565b5090565b6138d191905b808211156138cd5760008160009055506001016138b5565b5090565b90565b6138f691905b808211156138f25760008160009055506001016138da565b5090565b905600a165627a7a7230582008a46e23112d316c07894158088473e3d0c8545de0d66d6ec260f3791e5eb4d90029",
  "source": "pragma solidity ^0.4.24;\n\nimport 'openzeppelin-solidity/contracts/ownership/Ownable.sol';\nimport 'openzeppelin-solidity/contracts/math/SafeMath.sol';\n\ncontract Betl is Ownable {\n  using SafeMath for uint;\n\n  uint private constant FEE_PERCENT = 1;\n  uint private constant MIN_TIMEOUT = 1 minutes;\n  uint private constant MODE_WHATEVER = 0;       // usecase for modes?\n  uint private constant MAX_OUTCOMES = 10;\n\n  enum Status {\n    UNDEFINED, // Round doesn't exist\n    SCHEDULED, // Round exists and is scheduled for the future\n    OPEN,\n    CLOSED,\n    FINISHED,\n    CANCELLED,\n    TIMEOUT\n  }\n\n  // Errors\n  string constant HOST_NAME_NOT_FOUND = 'HOST_NAME_NOT_FOUND';\n  string constant HOST_OR_ROUND_NOT_FOUND = 'HOST_OR_ROUND_NOT_FOUND';\n\n  event RoundCreated(address indexed host, bytes4 roundId);\n  event RoundFinished(address indexed host, bytes4 roundId);\n  event RoundCancelled(address indexed host, bytes4 roundId);\n\n  struct Outcomes {\n    bytes32[] outcomes;\n    // Specifies payout distributions in case multiple winners are possible\n    // Example: When there are 3 winners, this array can be [60, 30, 10] ==> in percents, must sum to 100.\n    // winnerTiers.length <= numOutcomes\n    uint[] payoutTiers;\n    //bool hasFlexOutcomes;\n  }\n\n  struct Results {\n    uint[] payouts;\n    // outcomeIndex => winShare [0-100]\n    mapping(uint => uint) outcomeWinShares;\n  }\n\n  struct Stats {\n    uint numBets;\n    uint poolSize;\n  }\n\n  struct Round {\n    uint roundNumber;\n    Status status;\n    uint createdAt;\n    uint endedAt;\n    uint timeoutAt;\n    uint minBet;\n    uint hostBonus; // or: add directly to roundstats += hostBonus\n    uint hostFee;\n\n    bytes32 question;\n    Outcomes outcomes;\n    Results results;\n    Stats stats;\n    // outcomeIndex =>         player  => bet\n    mapping(uint => mapping(address => uint)) playerBets;\n    // outcomeIndex => totalBets\n    mapping(uint => uint) outcomePools;\n    mapping(uint => uint) outcomeNumBets;\n  }\n\n  struct HostContext {\n    uint nextRoundNumber; // == numRoundsCreated\n    uint numRoundsSuccess;\n    uint numRoundsCancelled;\n    uint totalNumBets;\n    uint totalPoolSize;\n  }\n\n  //      host    =>  hash(host,id) => Round\n  mapping(address => mapping(bytes4 => Round)) rounds;\n\n  //      host    => stats\n  mapping(address => HostContext) public hostContext;\n\n  //      name   <=> host\n  mapping(bytes32 => address) public hostAddresses;\n  mapping(address => bytes32) public hostNames;\n\n  modifier roundExists(address _host, bytes4 _roundId) {\n    //require(rounds[_host][_roundId].status != Status.UNDEFINED, HOST_OR_ROUND_NOT_FOUND);\n    _;\n  }\n\n  function getRound(address _host, bytes4 _roundId) private view returns (Round storage) {\n    Round storage r = rounds[_host][_roundId];\n    // verify existance of round\n    Status status = r.status;\n    require(uint(status) < 7);\n    return r;\n  }\n\n  // Frontend helper\n  function getNextRoundNumber(address _host) external view returns (uint) {\n    return hostContext[_host].nextRoundNumber;\n  }\n  function getRoundIdForRoundNumber(address _host, uint _roundNumber) external pure returns (bytes4) {\n    bytes32 hash = keccak256(abi.encodePacked(_host, _roundNumber));\n    return bytes4(hash);\n  }\n\n  // Frontend needs to fetch roundId of created round.\n  function getNextRoundId(address _host) public view returns (bytes4) {\n    uint nrn = hostContext[_host].nextRoundNumber;\n    bytes32 hash = keccak256(abi.encodePacked(_host, nrn));\n    return bytes4(hash);\n  }\n\n  function generateRoundId(address _host) private returns (uint, bytes4) {\n    uint roundNumber = hostContext[_host].nextRoundNumber;\n    bytes4 roundId = getNextRoundId(_host);\n    hostContext[_host].nextRoundNumber += 1;\n    return (roundNumber, roundId);\n  }\n\n  // ADD/TODO/TOTHINK?:\n  // - modeCode usefulness? e.g. 'winner-takes-it-all', '80-20', '66-33', '66-25-9', '50-25-12.5-6.25-3.125'\n  // configData[ scheduledAt, timeout, minBet, hostShare ]\n  // COSTS: 294518 gas -> @ 5Gwei: 1 dollar\n  function createRound(\n    bytes32 _question,\n    bytes32[] _outcomes,\n    uint[4] _configData, // array of format `[scheduledAt, timeout, minBet, hostFee]`\n    uint[] _payoutTiers\n  )\n    external\n    payable\n  {\n    require(_configData[0] == 0 || _configData[0] > now);\n    require(_configData[1] >= MIN_TIMEOUT);\n    require(_outcomes.length >= 2 && _outcomes.length <= MAX_OUTCOMES);\n    require(_configData[3] <= 100);\n    require(_payoutTiers.length <= _outcomes.length);\n\n    Status status = Status.OPEN;\n\n    Outcomes memory outcomes = Outcomes(\n      _outcomes,                        // outcomes\n      _payoutTiers                      // payout tiers in percent in DESC order\n    );\n\n    Results memory results = Results(\n      new uint[](_outcomes.length)      // payouts\n    );\n\n    Stats memory stats = Stats(\n      0,                                // numBets\n      msg.value                         // poolSize\n    );\n\n    uint roundNumber;\n    bytes4 roundId;\n    (roundNumber, roundId) = generateRoundId(msg.sender);\n\n    rounds[msg.sender][roundId] = Round(\n      roundNumber,\n      status,                           // initial status\n      now,                              // createdAt\n      0,                                // endedAt\n      now + _configData[1],             // timeoutAt\n      _configData[2],                   // minBet\n      msg.value,                        // hostBonus\n      _configData[3],                   // hostFee\n\n      _question,\n      outcomes,\n      results,\n      stats\n    );\n\n    emit RoundCreated(msg.sender, roundId);\n  }\n\n  function bet(address _host, bytes4 _roundId, uint _outcomeIndex) external payable {\n    Round storage r = getRound(_host, _roundId);\n    require(r.status == Status.OPEN);\n\n    require(msg.value > 0 && msg.value >= r.minBet);\n    require(r.outcomes.outcomes[_outcomeIndex] != bytes32(0));\n    require(r.timeoutAt == 0 || now < r.timeoutAt);\n  \n    r.playerBets[_outcomeIndex][msg.sender] = r.playerBets[_outcomeIndex][msg.sender].add(msg.value);\n    r.outcomePools[_outcomeIndex] = r.outcomePools[_outcomeIndex].add(msg.value);\n    r.outcomeNumBets[_outcomeIndex] = r.outcomeNumBets[_outcomeIndex].add(1);\n    r.stats.numBets = r.stats.numBets.add(1);\n    r.stats.poolSize = r.stats.poolSize.add(msg.value);\n  } \n\n  function pickWinnerAndEnd(uint[] _picks, bytes4 _roundId) external payable {\n    Round storage r = getRound(msg.sender, _roundId);\n    require(r.status == Status.OPEN || r.status == Status.CLOSED);\n\n    require(_picks.length == r.outcomes.outcomes.length);\n    require(now < r.timeoutAt); // --> cancelInternal when timeoutAt reached? Nahh. move to Closed?\n\n    uint ownerFee = r.stats.poolSize.mul(FEE_PERCENT).div(100);\n    uint remainingPool = r.stats.poolSize - ownerFee;\n    uint hostFee = r.stats.poolSize.mul(r.hostFee).div(100);\n    remainingPool = remainingPool - hostFee;\n\n    uint allShares;\n\n    for (uint i=0; i<_picks.length; i++) {\n      uint outcomeShare = _picks[i];\n\n      if(outcomeShare == 0) continue;\n\n      require(outcomeShare <= 100);\n      allShares += outcomeShare;\n\n      // populate lookup to simplify getter function `getRoundOutcomeWinShare`\n      r.results.outcomeWinShares[i] = outcomeShare;\n\n      // distribute round pool\n      r.results.payouts[i] = remainingPool.mul(outcomeShare).div(100);\n    }\n    require(allShares == 100);\n\n    hostContext[msg.sender].totalNumBets += r.stats.numBets;\n    hostContext[msg.sender].totalPoolSize += r.stats.poolSize;\n    hostContext[msg.sender].numRoundsSuccess += 1;\n    r.status = Status.FINISHED;\n    r.endedAt = now;\n\n    owner.transfer(ownerFee);\n    if (hostFee > 0) msg.sender.transfer(hostFee);\n\n    emit RoundFinished(msg.sender, _roundId);\n  }\n\n  function areValidPicks(uint[] memory _picks) private pure returns (bool) {\n    uint sum;\n    for (uint i=0; i<_picks.length; i++) {\n      sum += _picks[i];\n    }\n    return sum == 100;\n  }\n\n  function getOutcomeId(Round storage _round, uint _outcomeIndex) private view returns (bytes32) {\n    return keccak256(abi.encodePacked(_round.outcomes.outcomes[_outcomeIndex]));\n  }\n\n  function claimPayout(address _host, bytes4 _roundId) external {\n    Round storage r = getRound(_host, _roundId);\n    require(r.status == Status.FINISHED);\n    \n    uint myPayout;\n\n    for (uint i=0; i<r.outcomes.outcomes.length; i++) {\n      uint outcomeShare = r.results.outcomeWinShares[i];\n\n      if (outcomeShare == 0) {\n        continue;\n      }\n   \n      uint myOutcomePayout = getMyPayoutForOutcome(\n          r.playerBets[i][msg.sender],\n          outcomeShare,\n          r.outcomePools[i],\n          r.stats.poolSize\n      );\n\n      if (myOutcomePayout > 0) {\n        myPayout = myPayout.add(myOutcomePayout);\n\n        // Reset player bets so that they can't be claimed again\n        r.playerBets[i][msg.sender] = 0;\n      }\n\n      // Minor optimization that skips iterations in case an outcome got picked as only\n      // winner (outcomeShare == 100 (%)) which is expeceted to be often the case\n      if (outcomeShare == 100) {\n        break;\n      }\n    }\n\n    require(myPayout > 0);\n    msg.sender.transfer(myPayout);\n  }\n\n  function claimRefund(address _host, bytes4 _roundId) external {\n    Round storage r = getRound(_host, _roundId);\n    require(r.status == Status.CANCELLED || r.status == Status.TIMEOUT);\n\n    uint myRefund;\n\n    for(uint i=0; i<r.outcomes.outcomes.length; i++) {\n      myRefund = myRefund.add(r.playerBets[i][msg.sender]);\n      r.playerBets[i][msg.sender] = 0;\n    }\n\n    require(myRefund > 0);\n    msg.sender.transfer(myRefund);\n  }\n\n  function getMyPayoutForOutcome(uint _myBet, uint _outcomeShare, uint _outcomePool, uint _roundPool) pure private returns (uint) {\n    if (_myBet > 0) {\n      uint myOutcomeShare = (_myBet*1e20).div(_outcomePool);\n\n      uint myOutcomePayout = _roundPool\n          .mul(_outcomeShare)\n          .div(100)\n          .mul(myOutcomeShare)\n          .div(1e20);\n\n      return myOutcomePayout;\n    }\n    return 0;\n  }\n\n  function cancelRound(bytes4 _roundId) external {\n    Round storage r = getRound(msg.sender, _roundId);\n    require(r.status == Status.SCHEDULED || r.status == Status.OPEN);\n\n    rounds[msg.sender][_roundId].status = Status.CANCELLED;\n    hostContext[msg.sender].numRoundsCancelled += 1;\n    emit RoundCancelled(msg.sender, _roundId);\n  }\n\n\n  ///\n  /// Getters used by UI\n  ///\n\n  function getRoundInfo(address _host, bytes4 _roundId)\n    public\n    view\n    roundExists(_host, _roundId)\n    // status, createdAt, endedAt, timeoutAt, question, numOutcomes, numBets, poolSize, hostBonus, hostFee\n    returns (uint, uint, uint, uint, bytes32, uint, uint, uint, uint, uint)\n  {\n    Round storage r = getRound(_host, _roundId);\n   \n    return (\n      uint256(r.status),\n      r.createdAt,\n      r.endedAt,\n      r.timeoutAt,\n      r.question,\n      r.outcomes.outcomes.length,\n      r.stats.numBets,\n      r.stats.poolSize,\n      r.hostBonus,\n      r.hostFee\n    );\n  }\n\n  // Convenience function for the client to only fetch fields that can be\n  // updated in the lifecycle of a Round\n  function getRoundInfoChanges(address _host, bytes4 _roundId) public view roundExists(_host, _roundId)\n    returns (uint, uint, uint, uint)\n  {\n    Round storage r = getRound(_host, _roundId);\n\n    return (\n      uint256(r.status),\n      r.endedAt,\n      r.stats.numBets,\n      r.stats.poolSize\n    );\n  }\n\n  function getRoundOutcomeByName(bytes32 _hostName, bytes4 _roundId, uint _outcomeIndex) external view returns (bytes32) {\n    require(hostAddresses[_hostName] != address(0), HOST_NAME_NOT_FOUND);\n    return getRoundOutcome(hostAddresses[_hostName], _roundId, _outcomeIndex);\n  }\n  \n  function getRoundOutcome(address _host, bytes4 _roundId, uint _outcomeIndex) public view roundExists(_host, _roundId) returns (bytes32) {\n    Round storage r = getRound(_host, _roundId);\n    require(_outcomeIndex < r.outcomes.outcomes.length);\n    return r.outcomes.outcomes[_outcomeIndex];\n  }\n\n  function getRoundOutcomePoolByName(bytes32 _hostName, bytes4 _roundId, uint _outcomeIndex) external view returns (uint) {\n    require(hostAddresses[_hostName] != address(0), HOST_NAME_NOT_FOUND);\n    return getRoundOutcomePool(hostAddresses[_hostName], _roundId, _outcomeIndex);\n  }\n  \n  function getRoundOutcomePool(address _host, bytes4 _roundId, uint _outcomeIndex) public view returns (uint) {\n    return rounds[_host][_roundId].outcomePools[_outcomeIndex];\n  }\n\n  function getRoundOutcomeNumBetsByName(bytes32 _hostName, bytes4 _roundId, uint _outcomeIndex) external view returns (uint) {\n    require(hostAddresses[_hostName] != address(0), HOST_NAME_NOT_FOUND);\n    return getRoundOutcomeNumBets(hostAddresses[_hostName], _roundId, _outcomeIndex);\n  }\n  \n  function getRoundOutcomeNumBets(address _host, bytes4 _roundId, uint _outcomeIndex) public view returns (uint) {\n    return rounds[_host][_roundId].outcomeNumBets[_outcomeIndex];\n  }\n\n  function getMyRoundOutcomeBetByName(bytes32 _hostName, bytes4 _roundId, uint _outcomeIndex) external view returns (uint) {\n    require(hostAddresses[_hostName] != address(0), HOST_NAME_NOT_FOUND);\n    return getMyRoundOutcomeBet(hostAddresses[_hostName], _roundId, _outcomeIndex);\n  }\n  \n  function getMyRoundOutcomeBet(address _host, bytes4 _roundId, uint _outcomeIndex) public view returns (uint) {\n    Round storage r = getRound(_host, _roundId);\n    return r.playerBets[_outcomeIndex][msg.sender];\n  }\n\n  function getRoundOutcomeWinShareByName(bytes32 _hostName, bytes4 _roundId, uint _outcomeIndex) external view returns (uint) {\n    require(hostAddresses[_hostName] != address(0), HOST_NAME_NOT_FOUND);\n    return getRoundOutcomeWinShare(hostAddresses[_hostName], _roundId, _outcomeIndex);\n  }\n  \n  function getRoundOutcomeWinShare(address _host, bytes4 _roundId, uint _outcomeIndex) public view returns (uint) {\n    return rounds[_host][_roundId].results.outcomeWinShares[_outcomeIndex];\n  }\n\n  //                                          numRoundsCreated, numRoundsCancelled, numBets, poolSize\n  function getHostStats (address _host) external view returns (uint, uint, uint, uint) {\n    HostContext storage hc = hostContext[_host];\n    return (\n      hc.numRoundsSuccess,\n      hc.numRoundsCancelled,\n      hc.totalNumBets,\n      hc.totalPoolSize\n    );\n  }\n\n\n  ///\n  /// Management of `Username <-> address` mapping\n  ///\n\n  function registerRecord(bytes32 _name)\n    public\n  {\n    require(hostAddresses[_name] == address(0));\n    require(hostNames[msg.sender] == bytes32(0));\n\n    _setRecord(msg.sender, _name);\n  }\n\n  function deleteRecord()\n    public\n  {\n    bytes32 oldName = hostNames[msg.sender];\n    require(oldName[0] != 0);\n\n    _removeRecord(msg.sender, oldName);\n  }\n\n  function updateRecord(bytes32 _newName)\n    external\n  {\n    deleteRecord();\n    registerRecord(_newName);\n  }\n\n  function sudoDeleteRecord(bytes32 _name)\n    external\n    onlyOwner\n  {\n    address affectedAddress = hostAddresses[_name];\n    require(affectedAddress == address(0));\n\n    _removeRecord(affectedAddress, _name);\n  }\n\n  function _setRecord(\n    address _address,\n    bytes32 _name\n  )\n    private\n  {\n    hostAddresses[_name] = _address;\n    hostNames[_address] = _name;\n  }\n\n  function _removeRecord(\n    address _address,\n    bytes32 _name\n  )\n    private\n  {\n    delete hostAddresses[_name];\n    delete hostNames[_address];\n  }\n\n  function ()\n    external\n    payable\n  {\n    revert(); \n  }\n}",
  "sourcePath": "/home/mo/dev/betl/smart-contract/contracts/Betl.sol",
  "compiler": {
    "name": "solc",
    "version": "0.4.24+commit.e67f0147.Emscripten.clang"
  },
  "schemaVersion": "2.0.0",
  "updatedAt": "2018-07-14T18:44:27.577Z"
}