{
  "contractName": "Betl",
  "abi": [
    {
      "constant": true,
      "inputs": [
        {
          "name": "",
          "type": "address"
        }
      ],
      "name": "hostContext",
      "outputs": [
        {
          "name": "nextRoundId",
          "type": "uint256"
        },
        {
          "name": "numRoundsSuccess",
          "type": "uint256"
        },
        {
          "name": "numRoundsCancelled",
          "type": "uint256"
        },
        {
          "name": "totalNumBets",
          "type": "uint256"
        },
        {
          "name": "totalPoolSize",
          "type": "uint256"
        }
      ],
      "payable": false,
      "stateMutability": "view",
      "type": "function"
    },
    {
      "constant": true,
      "inputs": [],
      "name": "owner",
      "outputs": [
        {
          "name": "",
          "type": "address"
        }
      ],
      "payable": false,
      "stateMutability": "view",
      "type": "function"
    },
    {
      "constant": true,
      "inputs": [
        {
          "name": "",
          "type": "bytes32"
        }
      ],
      "name": "hostAddresses",
      "outputs": [
        {
          "name": "",
          "type": "address"
        }
      ],
      "payable": false,
      "stateMutability": "view",
      "type": "function"
    },
    {
      "constant": true,
      "inputs": [
        {
          "name": "",
          "type": "address"
        }
      ],
      "name": "hostNames",
      "outputs": [
        {
          "name": "",
          "type": "bytes32"
        }
      ],
      "payable": false,
      "stateMutability": "view",
      "type": "function"
    },
    {
      "constant": false,
      "inputs": [
        {
          "name": "newOwner",
          "type": "address"
        }
      ],
      "name": "transferOwnership",
      "outputs": [],
      "payable": false,
      "stateMutability": "nonpayable",
      "type": "function"
    },
    {
      "payable": true,
      "stateMutability": "payable",
      "type": "fallback"
    },
    {
      "anonymous": false,
      "inputs": [
        {
          "indexed": true,
          "name": "host",
          "type": "address"
        },
        {
          "indexed": false,
          "name": "roundId",
          "type": "bytes4"
        }
      ],
      "name": "RoundCreated",
      "type": "event"
    },
    {
      "anonymous": false,
      "inputs": [
        {
          "indexed": true,
          "name": "host",
          "type": "address"
        },
        {
          "indexed": false,
          "name": "roundId",
          "type": "bytes4"
        }
      ],
      "name": "RoundFinished",
      "type": "event"
    },
    {
      "anonymous": false,
      "inputs": [
        {
          "indexed": true,
          "name": "host",
          "type": "address"
        },
        {
          "indexed": false,
          "name": "roundId",
          "type": "bytes4"
        }
      ],
      "name": "RoundCanceled",
      "type": "event"
    },
    {
      "anonymous": false,
      "inputs": [
        {
          "indexed": true,
          "name": "previousOwner",
          "type": "address"
        },
        {
          "indexed": true,
          "name": "newOwner",
          "type": "address"
        }
      ],
      "name": "OwnershipTransferred",
      "type": "event"
    },
    {
      "constant": false,
      "inputs": [
        {
          "name": "_options",
          "type": "bytes32[]"
        },
        {
          "name": "_configData",
          "type": "uint256[]"
        },
        {
          "name": "_payoutTiers",
          "type": "uint256[]"
        }
      ],
      "name": "createRound",
      "outputs": [],
      "payable": true,
      "stateMutability": "payable",
      "type": "function"
    },
    {
      "constant": true,
      "inputs": [
        {
          "name": "_host",
          "type": "address"
        }
      ],
      "name": "getRoundConfigForHost",
      "outputs": [
        {
          "name": "",
          "type": "uint256"
        },
        {
          "name": "",
          "type": "uint256"
        },
        {
          "name": "",
          "type": "uint256"
        },
        {
          "name": "",
          "type": "uint256"
        },
        {
          "name": "",
          "type": "uint256"
        },
        {
          "name": "",
          "type": "bool"
        }
      ],
      "payable": false,
      "stateMutability": "view",
      "type": "function"
    },
    {
      "constant": true,
      "inputs": [
        {
          "name": "_host",
          "type": "address"
        }
      ],
      "name": "getRoundStatsForHost",
      "outputs": [
        {
          "name": "",
          "type": "uint256"
        },
        {
          "name": "",
          "type": "uint256"
        },
        {
          "name": "",
          "type": "uint256"
        }
      ],
      "payable": false,
      "stateMutability": "view",
      "type": "function"
    },
    {
      "constant": true,
      "inputs": [
        {
          "name": "_host",
          "type": "address"
        }
      ],
      "name": "getRoundOptionsForHost",
      "outputs": [
        {
          "name": "",
          "type": "bytes32"
        },
        {
          "name": "",
          "type": "bytes32"
        },
        {
          "name": "",
          "type": "bytes32"
        },
        {
          "name": "",
          "type": "bytes32"
        },
        {
          "name": "",
          "type": "bytes32"
        }
      ],
      "payable": false,
      "stateMutability": "view",
      "type": "function"
    },
    {
      "constant": true,
      "inputs": [
        {
          "name": "_host",
          "type": "address"
        }
      ],
      "name": "getRoundOptionBetsForHost",
      "outputs": [
        {
          "name": "",
          "type": "uint256"
        },
        {
          "name": "",
          "type": "uint256"
        },
        {
          "name": "",
          "type": "uint256"
        },
        {
          "name": "",
          "type": "uint256"
        },
        {
          "name": "",
          "type": "uint256"
        }
      ],
      "payable": false,
      "stateMutability": "view",
      "type": "function"
    },
    {
      "constant": true,
      "inputs": [
        {
          "name": "_host",
          "type": "address"
        }
      ],
      "name": "getMyRoundOptionBetsForHost",
      "outputs": [
        {
          "name": "",
          "type": "uint256"
        },
        {
          "name": "",
          "type": "uint256"
        },
        {
          "name": "",
          "type": "uint256"
        },
        {
          "name": "",
          "type": "uint256"
        },
        {
          "name": "",
          "type": "uint256"
        }
      ],
      "payable": false,
      "stateMutability": "view",
      "type": "function"
    },
    {
      "constant": true,
      "inputs": [
        {
          "name": "_host",
          "type": "address"
        }
      ],
      "name": "getRoundPickedOptionsForHost",
      "outputs": [
        {
          "name": "",
          "type": "bool"
        },
        {
          "name": "",
          "type": "bool"
        },
        {
          "name": "",
          "type": "bool"
        },
        {
          "name": "",
          "type": "bool"
        },
        {
          "name": "",
          "type": "bool"
        }
      ],
      "payable": false,
      "stateMutability": "view",
      "type": "function"
    },
    {
      "constant": false,
      "inputs": [
        {
          "name": "_winners",
          "type": "uint256[]"
        }
      ],
      "name": "pickWinnerAndEnd",
      "outputs": [],
      "payable": true,
      "stateMutability": "payable",
      "type": "function"
    },
    {
      "constant": false,
      "inputs": [
        {
          "name": "_host",
          "type": "address"
        },
        {
          "name": "_roundId",
          "type": "bytes4"
        },
        {
          "name": "_optionId",
          "type": "bytes32"
        }
      ],
      "name": "bet",
      "outputs": [],
      "payable": true,
      "stateMutability": "payable",
      "type": "function"
    },
    {
      "constant": false,
      "inputs": [
        {
          "name": "_host",
          "type": "address"
        },
        {
          "name": "_roundId",
          "type": "bytes4"
        }
      ],
      "name": "claimPayout",
      "outputs": [],
      "payable": false,
      "stateMutability": "nonpayable",
      "type": "function"
    },
    {
      "constant": false,
      "inputs": [],
      "name": "cancelRound",
      "outputs": [],
      "payable": false,
      "stateMutability": "nonpayable",
      "type": "function"
    },
    {
      "constant": false,
      "inputs": [
        {
          "name": "_name",
          "type": "bytes32"
        }
      ],
      "name": "registerRecord",
      "outputs": [],
      "payable": false,
      "stateMutability": "nonpayable",
      "type": "function"
    },
    {
      "constant": false,
      "inputs": [],
      "name": "deleteRecord",
      "outputs": [],
      "payable": false,
      "stateMutability": "nonpayable",
      "type": "function"
    },
    {
      "constant": false,
      "inputs": [
        {
          "name": "_newName",
          "type": "bytes32"
        }
      ],
      "name": "updateRecord",
      "outputs": [],
      "payable": false,
      "stateMutability": "nonpayable",
      "type": "function"
    },
    {
      "constant": false,
      "inputs": [
        {
          "name": "_name",
          "type": "bytes32"
        }
      ],
      "name": "sudoDeleteRecord",
      "outputs": [],
      "payable": false,
      "stateMutability": "nonpayable",
      "type": "function"
    }
  ],
  "bytecode": "0x6080604052336000806101000a81548173ffffffffffffffffffffffffffffffffffffffff021916908373ffffffffffffffffffffffffffffffffffffffff160217905550612e38806100536000396000f300608060405260043610610112576000357c0100000000000000000000000000000000000000000000000000000000900463ffffffff16806301186d99146101175780631584108b1461014857806326c57935146101b45780632f9417531461023b578063471990ba146102695780634db24463146102dc5780635de2e1171461037757806365426a98146103dc57806366d9e7d8146103f35780636f50c44b146104245780638264d2151461045557806386a594d0146104c85780638c7763cb146104df5780638da5cb5b146105525780639dd4527d146105a9578063a070f04e1461061a578063c4388eb014610679578063cc40762c146106f7578063f2fde38b14610755578063f5309ec014610798575b600080fd5b34801561012357600080fd5b506101466004803603810190808035600019169060200190929190505050610805565b005b34801561015457600080fd5b506101b2600480360381019080803573ffffffffffffffffffffffffffffffffffffffff16906020019092919080357bffffffffffffffffffffffffffffffffffffffffffffffffffffffff19169060200190929190505050610819565b005b3480156101c057600080fd5b506101f5600480360381019080803573ffffffffffffffffffffffffffffffffffffffff169060200190929190505050610ebd565b6040518086151515158152602001851515151581526020018415151515815260200183151515158152602001821515151581526020019550505050505060405180910390f35b610267600480360381019080803590602001908201803590602001919091929391929390505050610ece565b005b34801561027557600080fd5b506102aa600480360381019080803573ffffffffffffffffffffffffffffffffffffffff169060200190929190505050611471565b604051808681526020018581526020018481526020018381526020018281526020019550505050505060405180910390f35b3480156102e857600080fd5b5061031d600480360381019080803573ffffffffffffffffffffffffffffffffffffffff1690602001909291905050506114a7565b60405180866000191660001916815260200185600019166000191681526020018460001916600019168152602001836000191660001916815260200182600019166000191681526020019550505050505060405180910390f35b34801561038357600080fd5b506103b8600480360381019080803573ffffffffffffffffffffffffffffffffffffffff1690602001909291905050506114b8565b60405180848152602001838152602001828152602001935050505060405180910390f35b3480156103e857600080fd5b506103f16114c4565b005b3480156103ff57600080fd5b50610422600480360381019080803560001916906020019092919050505061159a565b005b34801561043057600080fd5b506104536004803603810190808035600019169060200190929190505050611672565b005b34801561046157600080fd5b50610496600480360381019080803573ffffffffffffffffffffffffffffffffffffffff169060200190929190505050611756565b604051808681526020018581526020018481526020018381526020018281526020019550505050505060405180910390f35b3480156104d457600080fd5b506104dd611767565b005b3480156104eb57600080fd5b50610520600480360381019080803573ffffffffffffffffffffffffffffffffffffffff1690602001909291905050506119f0565b604051808681526020018581526020018481526020018381526020018281526020019550505050505060405180910390f35b34801561055e57600080fd5b50610567611a01565b604051808273ffffffffffffffffffffffffffffffffffffffff1673ffffffffffffffffffffffffffffffffffffffff16815260200191505060405180910390f35b3480156105b557600080fd5b506105d86004803603810190808035600019169060200190929190505050611a26565b604051808273ffffffffffffffffffffffffffffffffffffffff1673ffffffffffffffffffffffffffffffffffffffff16815260200191505060405180910390f35b34801561062657600080fd5b5061065b600480360381019080803573ffffffffffffffffffffffffffffffffffffffff169060200190929190505050611a59565b60405180826000191660001916815260200191505060405180910390f35b34801561068557600080fd5b506106ba600480360381019080803573ffffffffffffffffffffffffffffffffffffffff169060200190929190505050611a71565b6040518087815260200186815260200185815260200184815260200183815260200182151515158152602001965050505050505060405180910390f35b610753600480360381019080803590602001908201803590602001919091929391929390803590602001908201803590602001919091929391929390803590602001908201803590602001919091929391929390505050611a83565b005b34801561076157600080fd5b50610796600480360381019080803573ffffffffffffffffffffffffffffffffffffffff1690602001909291905050506121c9565b005b610803600480360381019080803573ffffffffffffffffffffffffffffffffffffffff16906020019092919080357bffffffffffffffffffffffffffffffffffffffffffffffffffffffff19169060200190929190803560001916906020019092919050505061231e565b005b61080d6114c4565b6108168161159a565b50565b60008060008060008060008060006108308b61293d565b7bffffffffffffffffffffffffffffffffffffffffffffffffffffffff19168a7bffffffffffffffffffffffffffffffffffffffffffffffffffffffff191614151561087b57600080fd5b6003600581111561088857fe5b600160008d73ffffffffffffffffffffffffffffffffffffffff1673ffffffffffffffffffffffffffffffffffffffff16815260200190815260200160002060008c7bffffffffffffffffffffffffffffffffffffffffffffffffffffffff19167bffffffffffffffffffffffffffffffffffffffffffffffffffffffff1916815260200190815260200160002060010160009054906101000a900460ff16600581111561093257fe5b14151561093e57600080fd5b600160008c73ffffffffffffffffffffffffffffffffffffffff1673ffffffffffffffffffffffffffffffffffffffff16815260200190815260200160002060008b7bffffffffffffffffffffffffffffffffffffffffffffffffffffffff19167bffffffffffffffffffffffffffffffffffffffffffffffffffffffff19168152602001908152602001600020600a019750600160008c73ffffffffffffffffffffffffffffffffffffffff1673ffffffffffffffffffffffffffffffffffffffff16815260200190815260200160002060008b7bffffffffffffffffffffffffffffffffffffffffffffffffffffffff19167bffffffffffffffffffffffffffffffffffffffffffffffffffffffff19168152602001908152602001600020600c01600101549650600095505b8760000180549050861015610e5a578760000186815481101515610a8d57fe5b90600052602060002001549450600160008c73ffffffffffffffffffffffffffffffffffffffff1673ffffffffffffffffffffffffffffffffffffffff16815260200190815260200160002060008b7bffffffffffffffffffffffffffffffffffffffffffffffffffffffff19167bffffffffffffffffffffffffffffffffffffffffffffffffffffffff19168152602001908152602001600020600e016000866000191660001916815260200190815260200160002060003373ffffffffffffffffffffffffffffffffffffffff1673ffffffffffffffffffffffffffffffffffffffff1681526020019081526020016000205493506000841115610e4d57610c55600160008d73ffffffffffffffffffffffffffffffffffffffff1673ffffffffffffffffffffffffffffffffffffffff16815260200190815260200160002060008c7bffffffffffffffffffffffffffffffffffffffffffffffffffffffff19167bffffffffffffffffffffffffffffffffffffffffffffffffffffffff19168152602001908152602001600020600f01600087600019166000191681526020019081526020016000205468056bc75e2d631000008602612a5090919063ffffffff16565b9250600160008c73ffffffffffffffffffffffffffffffffffffffff1673ffffffffffffffffffffffffffffffffffffffff16815260200190815260200160002060008b7bffffffffffffffffffffffffffffffffffffffffffffffffffffffff19167bffffffffffffffffffffffffffffffffffffffffffffffffffffffff1916815260200190815260200160002060060160030186815481101515610cf857fe5b90600052602060002001549150610d5868056bc75e2d63100000610d4a85610d3c6064610d2e888e612a6690919063ffffffff16565b612a5090919063ffffffff16565b612a6690919063ffffffff16565b612a5090919063ffffffff16565b905080890198506000600160008d73ffffffffffffffffffffffffffffffffffffffff1673ffffffffffffffffffffffffffffffffffffffff16815260200190815260200160002060008c7bffffffffffffffffffffffffffffffffffffffffffffffffffffffff19167bffffffffffffffffffffffffffffffffffffffffffffffffffffffff19168152602001908152602001600020600e016000876000191660001916815260200190815260200160002060003373ffffffffffffffffffffffffffffffffffffffff1673ffffffffffffffffffffffffffffffffffffffff168152602001908152602001600020819055505b8580600101965050610a6d565b600089111515610e6957600080fd5b3373ffffffffffffffffffffffffffffffffffffffff166108fc8a9081150290604051600060405180830381858888f19350505050158015610eaf573d6000803e3d6000fd5b505050505050505050505050565b600080600080600091939590929450565b600080610eda3361293d565b9150600160003373ffffffffffffffffffffffffffffffffffffffff1673ffffffffffffffffffffffffffffffffffffffff1681526020019081526020016000206000837bffffffffffffffffffffffffffffffffffffffffffffffffffffffff19167bffffffffffffffffffffffffffffffffffffffffffffffffffffffff1916815260200190815260200160002060010160009054906101000a900460ff16905060016005811115610f8a57fe5b816005811115610f9657fe5b1480610fb8575060026005811115610faa57fe5b816005811115610fb657fe5b145b1515610fc357600080fd5b600160003373ffffffffffffffffffffffffffffffffffffffff1673ffffffffffffffffffffffffffffffffffffffff1681526020019081526020016000206000837bffffffffffffffffffffffffffffffffffffffffffffffffffffffff19167bffffffffffffffffffffffffffffffffffffffffffffffffffffffff1916815260200190815260200160002060060160000154848490501115151561106957600080fd5b600160003373ffffffffffffffffffffffffffffffffffffffff1673ffffffffffffffffffffffffffffffffffffffff1681526020019081526020016000206000837bffffffffffffffffffffffffffffffffffffffffffffffffffffffff19167bffffffffffffffffffffffffffffffffffffffffffffffffffffffff19168152602001908152602001600020600201600101544210151561110b57600080fd5b600160003373ffffffffffffffffffffffffffffffffffffffff1673ffffffffffffffffffffffffffffffffffffffff1681526020019081526020016000206000837bffffffffffffffffffffffffffffffffffffffffffffffffffffffff19167bffffffffffffffffffffffffffffffffffffffffffffffffffffffff19168152602001908152602001600020600c0160000154600260003373ffffffffffffffffffffffffffffffffffffffff1673ffffffffffffffffffffffffffffffffffffffff1681526020019081526020016000206004016000828254019250508190555034600160003373ffffffffffffffffffffffffffffffffffffffff1673ffffffffffffffffffffffffffffffffffffffff1681526020019081526020016000206000847bffffffffffffffffffffffffffffffffffffffffffffffffffffffff19167bffffffffffffffffffffffffffffffffffffffffffffffffffffffff19168152602001908152602001600020600c016001015401600260003373ffffffffffffffffffffffffffffffffffffffff1673ffffffffffffffffffffffffffffffffffffffff168152602001908152602001600020600501600082825401925050819055506001600260003373ffffffffffffffffffffffffffffffffffffffff1673ffffffffffffffffffffffffffffffffffffffff168152602001908152602001600020600201600082825401925050819055506003600581111561133357fe5b600160003373ffffffffffffffffffffffffffffffffffffffff1673ffffffffffffffffffffffffffffffffffffffff1681526020019081526020016000206000847bffffffffffffffffffffffffffffffffffffffffffffffffffffffff19167bffffffffffffffffffffffffffffffffffffffffffffffffffffffff1916815260200190815260200160002060010160009054906101000a900460ff1660058111156113dd57fe5b50503373ffffffffffffffffffffffffffffffffffffffff167f4cdf964e6e89934ffc032ff3f5be1525aa747560a07d9e380c8bead358e6febd8360405180827bffffffffffffffffffffffffffffffffffffffffffffffffffffffff19167bffffffffffffffffffffffffffffffffffffffffffffffffffffffff1916815260200191505060405180910390a250505050565b60026020528060005260406000206000915090508060010154908060020154908060030154908060040154908060050154905085565b600080600080600091939590929450565b60008060009193909250565b6000600460003373ffffffffffffffffffffffffffffffffffffffff1673ffffffffffffffffffffffffffffffffffffffff16815260200190815260200160002054905060007f01000000000000000000000000000000000000000000000000000000000000000281600060208110151561153b57fe5b1a7f0100000000000000000000000000000000000000000000000000000000000000027effffffffffffffffffffffffffffffffffffffffffffffffffffffffffffff19161415151561158d57600080fd5b6115973382612a9e565b50565b600073ffffffffffffffffffffffffffffffffffffffff1660036000836000191660001916815260200190815260200160002060009054906101000a900473ffffffffffffffffffffffffffffffffffffffff1673ffffffffffffffffffffffffffffffffffffffff1614151561161057600080fd5b6000600102600460003373ffffffffffffffffffffffffffffffffffffffff1673ffffffffffffffffffffffffffffffffffffffff168152602001908152602001600020546000191614151561166557600080fd5b61166f3382612b23565b50565b60008060009054906101000a900473ffffffffffffffffffffffffffffffffffffffff1673ffffffffffffffffffffffffffffffffffffffff163373ffffffffffffffffffffffffffffffffffffffff161415156116cf57600080fd5b60036000836000191660001916815260200190815260200160002060009054906101000a900473ffffffffffffffffffffffffffffffffffffffff169050600073ffffffffffffffffffffffffffffffffffffffff168173ffffffffffffffffffffffffffffffffffffffff1614151561174857600080fd5b6117528183612a9e565b5050565b600080600080600091939590929450565b6000806117733361293d565b9150600160003373ffffffffffffffffffffffffffffffffffffffff1673ffffffffffffffffffffffffffffffffffffffff1681526020019081526020016000206000837bffffffffffffffffffffffffffffffffffffffffffffffffffffffff19167bffffffffffffffffffffffffffffffffffffffffffffffffffffffff1916815260200190815260200160002060010160009054906101000a900460ff1690506000600581111561182357fe5b81600581111561182f57fe5b148061185157506001600581111561184357fe5b81600581111561184f57fe5b145b151561185c57600080fd5b6004600160003373ffffffffffffffffffffffffffffffffffffffff1673ffffffffffffffffffffffffffffffffffffffff1681526020019081526020016000206000847bffffffffffffffffffffffffffffffffffffffffffffffffffffffff19167bffffffffffffffffffffffffffffffffffffffffffffffffffffffff1916815260200190815260200160002060010160006101000a81548160ff0219169083600581111561190a57fe5b02179055506001600260003373ffffffffffffffffffffffffffffffffffffffff1673ffffffffffffffffffffffffffffffffffffffff168152602001908152602001600020600301600082825401925050819055503373ffffffffffffffffffffffffffffffffffffffff167f49dfec2e2e317e8070427c11252213b653bc1379b7255378fffc5c13a29ec7e18360405180827bffffffffffffffffffffffffffffffffffffffffffffffffffffffff19167bffffffffffffffffffffffffffffffffffffffffffffffffffffffff1916815260200191505060405180910390a25050565b600080600080600091939590929450565b6000809054906101000a900473ffffffffffffffffffffffffffffffffffffffff1681565b60036020528060005260406000206000915054906101000a900473ffffffffffffffffffffffffffffffffffffffff1681565b60046020528060005260406000206000915090505481565b60008060008060008091939550919395565b600080611a8e612bc9565b611a96612bf2565b611a9e612c14565b611aa6612c2e565b611aae612c48565b6000603c8c8c60008181101515611ac157fe5b9050602002013510151515611ad557600080fd5b60028e8e905010151515611ae857600080fd5b60648c8c60028181101515611af957fe5b9050602002013511151515611b0d57600080fd5b8d8d90508a8a905011151515611b2257600080fd5b600260003373ffffffffffffffffffffffffffffffffffffffff1673ffffffffffffffffffffffffffffffffffffffff1681526020019081526020016000206001015497506000881115611c8057600160003373ffffffffffffffffffffffffffffffffffffffff1673ffffffffffffffffffffffffffffffffffffffff1681526020019081526020016000206000611bba3361293d565b7bffffffffffffffffffffffffffffffffffffffffffffffffffffffff19167bffffffffffffffffffffffffffffffffffffffffffffffffffffffff1916815260200190815260200160002060010160009054906101000a900460ff16965060036005811115611c2657fe5b876005811115611c3257fe5b1480611c54575060046005811115611c4657fe5b876005811115611c5257fe5b145b80611c745750600580811115611c6657fe5b876005811115611c7257fe5b145b1515611c7f57600080fd5b5b6080604051908101604052804281526020018d8d60008181101515611ca157fe5b90506020020135420181526020018d8d60018181101515611cbe57fe5b9050602002013581526020013481525095506060604051908101604052808f8f905081526020018f8f8080602002602001604051908101604052809392919081815260200183836020028082843782019150505050505081526020018b8b80806020026020016040519081016040528093929190818152602001838360200280828437820191505050505050815250945060408051908101604052806000604051908082528060200260200182016040528015611d8a5781602001602082028038833980820191505090505b5081526020016000604051908082528060200260200182016040528015611dc05781602001602082028038833980820191505090505b50815250935060408051908101604052806000815260200134815250925060c06040519081016040528089815260200160016005811115611dfd57fe5b81526020018781526020018681526020018581526020018481525091503388604051602001808373ffffffffffffffffffffffffffffffffffffffff1673ffffffffffffffffffffffffffffffffffffffff166c01000000000000000000000000028152601401828152602001925050506040516020818303038152906040526040518082805190602001908083835b602083101515611eb25780518252602082019150602081019050602083039250611e8d565b6001836020036101000a0380198251168184511680821785525050505050509050019150506040518091039020905081600160003373ffffffffffffffffffffffffffffffffffffffff1673ffffffffffffffffffffffffffffffffffffffff1681526020019081526020016000206000837bffffffffffffffffffffffffffffffffffffffffffffffffffffffff19167bffffffffffffffffffffffffffffffffffffffffffffffffffffffff191681526020019081526020016000206000820151816000015560208201518160010160006101000a81548160ff02191690836005811115611f9e57fe5b0217905550604082015181600201600082015181600001556020820151816001015560408201518160020155606082015181600301555050606082015181600601600082015181600001556020820151816001019080519060200190612005929190612ca3565b506040820151816003019080519060200190612022929190612cf6565b505050608082015181600a01600082015181600001908051906020019061204a929190612ca3565b506020820151816001019080519060200190612067929190612cf6565b50505060a082015181600c01600082015181600001556020820151816001015550509050506001600260003373ffffffffffffffffffffffffffffffffffffffff1673ffffffffffffffffffffffffffffffffffffffff1681526020019081526020016000206001016000828254019250508190555034600260003373ffffffffffffffffffffffffffffffffffffffff1673ffffffffffffffffffffffffffffffffffffffff168152602001908152602001600020600501600082825401925050819055503373ffffffffffffffffffffffffffffffffffffffff167f38200ecf62e44ebceaabbd4292688e3e06ac3bdaf612a0287f9d1d7f0e3e5ad08260405180827bffffffffffffffffffffffffffffffffffffffffffffffffffffffff19167bffffffffffffffffffffffffffffffffffffffffffffffffffffffff1916815260200191505060405180910390a25050505050505050505050505050565b6000809054906101000a900473ffffffffffffffffffffffffffffffffffffffff1673ffffffffffffffffffffffffffffffffffffffff163373ffffffffffffffffffffffffffffffffffffffff1614151561222457600080fd5b600073ffffffffffffffffffffffffffffffffffffffff168173ffffffffffffffffffffffffffffffffffffffff161415151561226057600080fd5b8073ffffffffffffffffffffffffffffffffffffffff166000809054906101000a900473ffffffffffffffffffffffffffffffffffffffff1673ffffffffffffffffffffffffffffffffffffffff167f8be0079c531659141344cd1fd0a4f28419497f9722a3daafe3b4186f6b6457e060405160405180910390a3806000806101000a81548173ffffffffffffffffffffffffffffffffffffffff021916908373ffffffffffffffffffffffffffffffffffffffff16021790555050565b6123273361293d565b7bffffffffffffffffffffffffffffffffffffffffffffffffffffffff1916827bffffffffffffffffffffffffffffffffffffffffffffffffffffffff191614151561237257600080fd5b6001600581111561237f57fe5b600160008573ffffffffffffffffffffffffffffffffffffffff1673ffffffffffffffffffffffffffffffffffffffff1681526020019081526020016000206000847bffffffffffffffffffffffffffffffffffffffffffffffffffffffff19167bffffffffffffffffffffffffffffffffffffffffffffffffffffffff1916815260200190815260200160002060010160009054906101000a900460ff16600581111561242957fe5b14151561243557600080fd5b600160008473ffffffffffffffffffffffffffffffffffffffff1673ffffffffffffffffffffffffffffffffffffffff1681526020019081526020016000206000837bffffffffffffffffffffffffffffffffffffffffffffffffffffffff19167bffffffffffffffffffffffffffffffffffffffffffffffffffffffff191681526020019081526020016000206002016002015434101515156124d857600080fd5b60011515600160008573ffffffffffffffffffffffffffffffffffffffff1673ffffffffffffffffffffffffffffffffffffffff1681526020019081526020016000206000847bffffffffffffffffffffffffffffffffffffffffffffffffffffffff19167bffffffffffffffffffffffffffffffffffffffffffffffffffffffff191681526020019081526020016000206006016002016000836000191660001916815260200190815260200160002060009054906101000a900460ff1615151415156125a557600080fd5b600160008473ffffffffffffffffffffffffffffffffffffffff1673ffffffffffffffffffffffffffffffffffffffff1681526020019081526020016000206000837bffffffffffffffffffffffffffffffffffffffffffffffffffffffff19167bffffffffffffffffffffffffffffffffffffffffffffffffffffffff19168152602001908152602001600020600201600101544210151561264757600080fd5b34600160008573ffffffffffffffffffffffffffffffffffffffff1673ffffffffffffffffffffffffffffffffffffffff1681526020019081526020016000206000847bffffffffffffffffffffffffffffffffffffffffffffffffffffffff19167bffffffffffffffffffffffffffffffffffffffffffffffffffffffff19168152602001908152602001600020600e016000836000191660001916815260200190815260200160002060003373ffffffffffffffffffffffffffffffffffffffff1673ffffffffffffffffffffffffffffffffffffffff1681526020019081526020016000206000828254019250508190555034600160008573ffffffffffffffffffffffffffffffffffffffff1673ffffffffffffffffffffffffffffffffffffffff1681526020019081526020016000206000847bffffffffffffffffffffffffffffffffffffffffffffffffffffffff19167bffffffffffffffffffffffffffffffffffffffffffffffffffffffff19168152602001908152602001600020600f01600083600019166000191681526020019081526020016000206000828254019250508190555060018060008573ffffffffffffffffffffffffffffffffffffffff1673ffffffffffffffffffffffffffffffffffffffff1681526020019081526020016000206000847bffffffffffffffffffffffffffffffffffffffffffffffffffffffff19167bffffffffffffffffffffffffffffffffffffffffffffffffffffffff19168152602001908152602001600020600c016000016000828254019250508190555034600160008573ffffffffffffffffffffffffffffffffffffffff1673ffffffffffffffffffffffffffffffffffffffff1681526020019081526020016000206000847bffffffffffffffffffffffffffffffffffffffffffffffffffffffff19167bffffffffffffffffffffffffffffffffffffffffffffffffffffffff19168152602001908152602001600020600c0160010160008282540192505081905550505050565b6000816001600260008573ffffffffffffffffffffffffffffffffffffffff1673ffffffffffffffffffffffffffffffffffffffff1681526020019081526020016000206001015403604051602001808373ffffffffffffffffffffffffffffffffffffffff1673ffffffffffffffffffffffffffffffffffffffff166c01000000000000000000000000028152601401828152602001925050506040516020818303038152906040526040518082805190602001908083835b602083101515612a1c57805182526020820191506020810190506020830392506129f7565b6001836020036101000a03801982511681845116808217855250505050505090500191505060405180910390209050919050565b60008183811515612a5d57fe5b04905092915050565b600080831415612a795760009050612a98565b8183029050818382811515612a8a57fe5b04141515612a9457fe5b8090505b92915050565b60036000826000191660001916815260200190815260200160002060006101000a81549073ffffffffffffffffffffffffffffffffffffffff0219169055600460008373ffffffffffffffffffffffffffffffffffffffff1673ffffffffffffffffffffffffffffffffffffffff168152602001908152602001600020600090555050565b8160036000836000191660001916815260200190815260200160002060006101000a81548173ffffffffffffffffffffffffffffffffffffffff021916908373ffffffffffffffffffffffffffffffffffffffff16021790555080600460008473ffffffffffffffffffffffffffffffffffffffff1673ffffffffffffffffffffffffffffffffffffffff16815260200190815260200160002081600019169055505050565b608060405190810160405280600081526020016000815260200160008152602001600081525090565b6060604051908101604052806000815260200160608152602001606081525090565b604080519081016040528060608152602001606081525090565b604080519081016040528060008152602001600081525090565b6101a0604051908101604052806000815260200160006005811115612c6957fe5b8152602001612c76612d43565b8152602001612c83612d6c565b8152602001612c90612d8e565b8152602001612c9d612da8565b81525090565b828054828255906000526020600020908101928215612ce5579160200282015b82811115612ce4578251829060001916905591602001919060010190612cc3565b5b509050612cf29190612dc2565b5090565b828054828255906000526020600020908101928215612d32579160200282015b82811115612d31578251825591602001919060010190612d16565b5b509050612d3f9190612de7565b5090565b608060405190810160405280600081526020016000815260200160008152602001600081525090565b6060604051908101604052806000815260200160608152602001606081525090565b604080519081016040528060608152602001606081525090565b604080519081016040528060008152602001600081525090565b612de491905b80821115612de0576000816000905550600101612dc8565b5090565b90565b612e0991905b80821115612e05576000816000905550600101612ded565b5090565b905600a165627a7a72305820f588ad2e5043daa740f678f238f058ba2b09cd5761faf3d481487b74f88be81e0029",
  "source": "pragma solidity ^0.4.24;\n\nimport 'openzeppelin-solidity/contracts/ownership/Ownable.sol';\nimport 'openzeppelin-solidity/contracts/math/SafeMath.sol';\n\ncontract Betl is Ownable {\n  using SafeMath for uint;\n\n  uint private constant FEE_PERCENT = 1;\n  uint private constant MIN_TIMEOUT = 1 minutes;\n  uint private constant MODE_WHATEVER = 0;       // usecase for modes?\n\n  enum Status {\n    INACTIVE,\n    OPEN,\n    CLOSED,\n    FINISHED,\n    CANCELLED,\n    TIMEOUT\n  }\n\n  event RoundCreated(address indexed host, bytes4 roundId);\n  event RoundFinished(address indexed host, bytes4 roundId);\n  event RoundCanceled(address indexed host, bytes4 roundId);\n\n  // Eventually divide into RoundConfig and RoundConfigExt. First one mandatory, latter optional\n  // Default config: one winner, who takes it all.\n  struct RoundConfig {\n    uint createdAt;\n    uint timeoutAt;\n    uint minBet;\n    uint hostBonus; // or: add directly to roundstats += hostBonus\n  }\n\n  struct RoundOptions {\n    uint numOptions;\n    bytes32[] options;\n    mapping(bytes32 => bool) optionLookup;\n    // Specifies payout distributions in case multiple winners are possible\n    // Example: When there are 3 winners, this array can be [60, 30, 10] ==> in percents, must sum to 100.\n    // winnerTiers.length <= numOptions\n    uint[] payoutTiers;\n    //bool hasFlexOptions;\n  }\n\n  // has to be aligned with RoundConfig(Ext)\n  struct RoundResults {\n    // can only contain 1 winner, or multiple ones. Primary winner specified first followed by lower tier orders in DESC order\n    bytes32[] pickedOptions;\n    uint[] optionPayouts; // in wei\n  }\n\n  struct RoundStats {\n    uint numBets;\n    uint poolSize;\n  }\n\n  struct Round {\n    uint id;\n    Status status;\n    RoundConfig config;\n    RoundOptions options;\n    RoundResults results;\n    RoundStats stats;\n    //    hash(opt) =>         player  => bet\n    mapping(bytes32 => mapping(address => uint)) playerBets;\n    //    hash(opt) => totalBets\n    mapping(bytes32 => uint) optionBets;\n  }\n\n  struct HostContext {\n    mapping(bytes4 => bool) roundIdLookup;\n    uint nextRoundId; // == numRoundsCreated\n    uint numRoundsSuccess;\n    uint numRoundsCancelled;\n    uint totalNumBets;\n    uint totalPoolSize;\n  }\n\n  //      host    =>  hash(host,id) => Round\n  mapping(address => mapping(bytes4 => Round)) rounds;\n\n  //      host    => stats\n  mapping(address => HostContext) public hostContext;\n\n  //      name   <=> host\n  mapping(bytes32 => address) public hostAddresses;\n  mapping(address => bytes32) public hostNames;\n\n  function getRoundId(address _host)\n    private\n    view\n    returns (bytes4)\n  {\n    return bytes4(keccak256(abi.encodePacked(_host, hostContext[_host].nextRoundId-1)));\n  }\n\n\n  // ADD/TODO/TOTHINK?:\n  // - bool _hasMultipleWinners --> rather no. Host has no reason to cheat --> loss of reputation\n  // - modeCode usefulness?\n  // configData[ timout, minBet, hostShare ]\n  // COSTS: 296305gas -> @ 5Gwei: 1 dollar\n  function createRound (\n    bytes32[] _options,\n    uint[] _configData,\n    uint[] _payoutTiers\n    //bool _hasFlexOptions\n  )\n    external\n    payable\n  {\n    require(_configData[0] >= MIN_TIMEOUT);\n    require(_options.length >= 2);// || _hasFlexOptions == true);\n    require(_configData[2] <= 100);\n    require(_payoutTiers.length <= _options.length);\n\n    uint id = hostContext[msg.sender].nextRoundId;\n    if (id > 0) {\n      Status status = rounds[msg.sender][getRoundId(msg.sender)].status;\n      require(status == Status.FINISHED ||\n        status == Status.CANCELLED || \n        status == Status.TIMEOUT);\n    }\n    //require(hostContext[msg.sender].roundIdLookup[_roundId] == false);\n\n    RoundConfig memory config = RoundConfig(\n      now,\n      now + _configData[0],\n      _configData[1],\n      msg.value\n    );\n\n    RoundOptions memory options = RoundOptions(\n      _options.length,\n      _options,\n      _payoutTiers\n    );\n\n    RoundResults memory results = RoundResults(\n      new bytes32[](0),\n      new uint[](0)\n    );\n\n    RoundStats memory stats = RoundStats(\n      0,\n      msg.value\n    );\n\n    Round memory round = Round(\n      id,\n      Status.OPEN,\n      config,\n      options,\n      results,\n      stats\n    );\n    \n    bytes4 roundId = bytes4(keccak256(abi.encodePacked(msg.sender, id)));\n    rounds[msg.sender][roundId] = round;\n\n    // post creation\n    hostContext[msg.sender].nextRoundId += 1;\n    hostContext[msg.sender].totalPoolSize += msg.value;\n\n    emit RoundCreated(msg.sender, roundId);\n  }\n\n  //                                                           status, createdAt, timeout, minBet, hostBonus, hasFlexOption\n  function getRoundConfigForHost (address _host) external view returns (uint, uint, uint, uint, uint, bool) {\n  }\n  //                                                              numBets, numPlayers, poolSize\n  function getRoundStatsForHost (address _host) external view returns (uint, uint, uint) {\n  }\n\n  // TODO: implement. For now max 5 options/return values. If only 2 provided, fill up with 0s\n  function getRoundOptionsForHost (address _host) external view returns (bytes32, bytes32, bytes32, bytes32, bytes32) { }\n  \n  function getRoundOptionBetsForHost (address _host) external view returns (uint, uint, uint, uint, uint) { }\n  \n  function getMyRoundOptionBetsForHost (address _host) external view returns (uint, uint, uint, uint, uint) { }\n\n  function getRoundPickedOptionsForHost (address _host) external view returns (bool, bool, bool, bool, bool) { }\n\n  // function addOptionForRound (address _host, bytes4 _roundId, bytes32 _option) external {\n  //   //additional check needed to make sure that round exists?\n  //   //require(rounds[_host][_roundId] != 0); // not 0x0, there must be a Round\n  //   require(rounds[_host][_roundId].options.hasFlexOptions == true);\n  //   require(rounds[_host][_roundId].status == Status.OPEN);\n  //   require(rounds[_host][_roundId].options.optionLookup[_option] == false); // option doesn't exist yet\n    \n  //   rounds[_host][_roundId].options.options.push(_option);\n  //   rounds[_host][_roundId].options.optionLookup[_option] = true;\n  //   rounds[_host][_roundId].options.numOptions += 1;\n  // }\n\n  // always takes newest rounds.\n  function pickWinnerAndEnd (uint[] _winners) external payable {\n    bytes4 roundId = getRoundId(msg.sender);\n\n    Status status = rounds[msg.sender][roundId].status;\n    require(status == Status.OPEN || status == Status.CLOSED); // Host can either end running or closed Round\n    require(_winners.length <= rounds[msg.sender][roundId].options.numOptions);\n    require(now < rounds[msg.sender][roundId].config.timeoutAt); // --> cancelInternal when timeoutAt reached? Nahh. move to Closed?\n    \n\n    // TODO: redistribute payouts\n    //owner.transfer(1%)\n    //host.transfer(hostShare)\n    // payouts = remaining pool\n\n\n    hostContext[msg.sender].totalNumBets += rounds[msg.sender][roundId].stats.numBets;\n    hostContext[msg.sender].totalPoolSize += (rounds[msg.sender][roundId].stats.poolSize + msg.value);\n    hostContext[msg.sender].numRoundsSuccess += 1;\n    rounds[msg.sender][roundId].status == Status.FINISHED;\n    emit RoundFinished(msg.sender, roundId);\n  }\n\n  function bet (address _host, bytes4 _roundId, bytes32 _optionId) external payable {\n    require(_roundId == getRoundId(msg.sender));\n    require(rounds[_host][_roundId].status == Status.OPEN);\n    require(msg.value >= rounds[_host][_roundId].config.minBet);\n    require(rounds[_host][_roundId].options.optionLookup[_optionId] == true);\n    require(now < rounds[_host][_roundId].config.timeoutAt);\n  \n    rounds[_host][_roundId].playerBets[_optionId][msg.sender] += msg.value;\n    rounds[_host][_roundId].optionBets[_optionId] += msg.value;\n    rounds[_host][_roundId].stats.numBets += 1;\n    rounds[_host][_roundId].stats.poolSize += msg.value;\n  }\n\n  function claimPayout (address _host, bytes4 _roundId) external {\n    require(_roundId == getRoundId(_host));\n    require(rounds[_host][_roundId].status == Status.FINISHED);\n\n    uint payout;\n    RoundResults storage results = rounds[_host][_roundId].results;\n    uint all = rounds[_host][_roundId].stats.poolSize;\n\n    // In case host only picked one winner, this is one iteration\n    for(uint i=0; i<results.pickedOptions.length; i++) {\n      bytes32 pickedOption = results.pickedOptions[i];\n      uint playerBet = rounds[_host][_roundId].playerBets[pickedOption][msg.sender];\n\n      if(playerBet > 0) {\n        // e.g. 2 (*1e20)\n        uint playerShare = (playerBet*1e20).div(rounds[_host][_roundId].optionBets[pickedOption]);\n        // e.g. 70\n        uint optionShare = rounds[_host][_roundId].options.payoutTiers[i];\n\n        // playerShare * optionShare = player payout for pickedOptions[i]\n        uint share = all.mul(optionShare).div(100).mul(playerShare).div(1e20);\n        payout += share;\n\n        // reset player bets so that they can't be claimed again\n        rounds[_host][_roundId].playerBets[pickedOption][msg.sender] = 0;\n      }\n    }\n\n    require(payout > 0);\n    msg.sender.transfer(payout);\n  }\n\n  function cancelRound () external {\n    bytes4 roundId = getRoundId(msg.sender);\n\n    Status status = rounds[msg.sender][roundId].status;\n    require(status == Status.INACTIVE || status == Status.OPEN); // check if round is cancelable\n\n    rounds[msg.sender][roundId].status = Status.CANCELLED;\n    hostContext[msg.sender].numRoundsCancelled += 1;\n    emit RoundCanceled(msg.sender, roundId);\n  }\n\n\n  ///\n  /// Management of `Username <-> address` mappings\n  ///\n\n  function registerRecord (bytes32 _name)\n    public\n  {\n    require(hostAddresses[_name] == address(0));\n    require(hostNames[msg.sender] == 0x0000000000000000);\n\n    _setRecord(msg.sender, _name);\n  }\n\n  function deleteRecord ()\n    public\n  {\n    bytes32 oldName = hostNames[msg.sender];\n    require(oldName[0] != 0);\n\n    _removeRecord(msg.sender, oldName);\n  }\n\n  function updateRecord (bytes32 _newName)\n    external\n  {\n    deleteRecord();\n    registerRecord(_newName);\n  }\n\n  function sudoDeleteRecord (bytes32 _name)\n    external\n    onlyOwner\n  {\n    address affectedAddress = hostAddresses[_name];\n    require(affectedAddress == address(0));\n\n    _removeRecord(affectedAddress, _name);\n  }\n\n  function _setRecord (\n    address _address,\n    bytes32 _name\n  )\n    private\n  {\n    hostAddresses[_name] = _address;\n    hostNames[_address] = _name;\n  }\n\n  function _removeRecord (\n    address _address,\n    bytes32 _name\n  )\n    private\n  {\n    delete hostAddresses[_name];\n    delete hostNames[_address];\n  }\n\n  function ()\n    external\n    payable\n  {\n    revert(); \n  }\n}",
  "sourcePath": "/home/mo/dev/betl/smart-contract/contracts/Betl.sol",
  "compiler": {
    "name": "solc",
    "version": "0.4.24+commit.e67f0147.Emscripten.clang"
  },
  "schemaVersion": "2.0.0",
  "updatedAt": "2018-06-14T18:50:02.578Z"
}