{
  "contractName": "Betl",
  "abi": [
    {
      "constant": true,
      "inputs": [
        {
          "name": "",
          "type": "address"
        }
      ],
      "name": "hostContext",
      "outputs": [
        {
          "name": "nextRoundNumber",
          "type": "uint256"
        },
        {
          "name": "numRoundsSuccess",
          "type": "uint256"
        },
        {
          "name": "numRoundsCancelled",
          "type": "uint256"
        },
        {
          "name": "totalNumBets",
          "type": "uint256"
        },
        {
          "name": "totalPoolSize",
          "type": "uint256"
        }
      ],
      "payable": false,
      "stateMutability": "view",
      "type": "function"
    },
    {
      "constant": false,
      "inputs": [],
      "name": "renounceOwnership",
      "outputs": [],
      "payable": false,
      "stateMutability": "nonpayable",
      "type": "function"
    },
    {
      "constant": true,
      "inputs": [],
      "name": "owner",
      "outputs": [
        {
          "name": "",
          "type": "address"
        }
      ],
      "payable": false,
      "stateMutability": "view",
      "type": "function"
    },
    {
      "constant": true,
      "inputs": [
        {
          "name": "",
          "type": "bytes32"
        }
      ],
      "name": "hostAddresses",
      "outputs": [
        {
          "name": "",
          "type": "address"
        }
      ],
      "payable": false,
      "stateMutability": "view",
      "type": "function"
    },
    {
      "constant": true,
      "inputs": [
        {
          "name": "",
          "type": "address"
        }
      ],
      "name": "hostNames",
      "outputs": [
        {
          "name": "",
          "type": "bytes32"
        }
      ],
      "payable": false,
      "stateMutability": "view",
      "type": "function"
    },
    {
      "constant": false,
      "inputs": [
        {
          "name": "_newOwner",
          "type": "address"
        }
      ],
      "name": "transferOwnership",
      "outputs": [],
      "payable": false,
      "stateMutability": "nonpayable",
      "type": "function"
    },
    {
      "payable": true,
      "stateMutability": "payable",
      "type": "fallback"
    },
    {
      "anonymous": false,
      "inputs": [
        {
          "indexed": true,
          "name": "host",
          "type": "address"
        },
        {
          "indexed": false,
          "name": "roundId",
          "type": "bytes4"
        }
      ],
      "name": "RoundCreated",
      "type": "event"
    },
    {
      "anonymous": false,
      "inputs": [
        {
          "indexed": true,
          "name": "host",
          "type": "address"
        },
        {
          "indexed": false,
          "name": "roundId",
          "type": "bytes4"
        }
      ],
      "name": "RoundFinished",
      "type": "event"
    },
    {
      "anonymous": false,
      "inputs": [
        {
          "indexed": true,
          "name": "host",
          "type": "address"
        },
        {
          "indexed": false,
          "name": "roundId",
          "type": "bytes4"
        }
      ],
      "name": "RoundCancelled",
      "type": "event"
    },
    {
      "anonymous": false,
      "inputs": [
        {
          "indexed": true,
          "name": "previousOwner",
          "type": "address"
        }
      ],
      "name": "OwnershipRenounced",
      "type": "event"
    },
    {
      "anonymous": false,
      "inputs": [
        {
          "indexed": true,
          "name": "previousOwner",
          "type": "address"
        },
        {
          "indexed": true,
          "name": "newOwner",
          "type": "address"
        }
      ],
      "name": "OwnershipTransferred",
      "type": "event"
    },
    {
      "constant": true,
      "inputs": [
        {
          "name": "_host",
          "type": "address"
        }
      ],
      "name": "getNextRoundId",
      "outputs": [
        {
          "name": "",
          "type": "bytes4"
        }
      ],
      "payable": false,
      "stateMutability": "view",
      "type": "function"
    },
    {
      "constant": false,
      "inputs": [
        {
          "name": "_question",
          "type": "bytes32"
        },
        {
          "name": "_outcomes",
          "type": "bytes32[]"
        },
        {
          "name": "_configData",
          "type": "uint256[4]"
        },
        {
          "name": "_payoutTiers",
          "type": "uint256[]"
        }
      ],
      "name": "createRound",
      "outputs": [],
      "payable": true,
      "stateMutability": "payable",
      "type": "function"
    },
    {
      "constant": false,
      "inputs": [
        {
          "name": "_host",
          "type": "address"
        },
        {
          "name": "_roundId",
          "type": "bytes4"
        },
        {
          "name": "_outcomeId",
          "type": "bytes32"
        }
      ],
      "name": "bet",
      "outputs": [],
      "payable": true,
      "stateMutability": "payable",
      "type": "function"
    },
    {
      "constant": false,
      "inputs": [
        {
          "name": "_picks",
          "type": "uint256[]"
        },
        {
          "name": "_roundId",
          "type": "bytes4"
        }
      ],
      "name": "pickWinnerAndEnd",
      "outputs": [],
      "payable": true,
      "stateMutability": "payable",
      "type": "function"
    },
    {
      "constant": false,
      "inputs": [
        {
          "name": "_host",
          "type": "address"
        },
        {
          "name": "_roundId",
          "type": "bytes4"
        }
      ],
      "name": "claimPayout",
      "outputs": [],
      "payable": false,
      "stateMutability": "nonpayable",
      "type": "function"
    },
    {
      "constant": false,
      "inputs": [
        {
          "name": "_host",
          "type": "address"
        },
        {
          "name": "_roundId",
          "type": "bytes4"
        }
      ],
      "name": "claimRefund",
      "outputs": [],
      "payable": false,
      "stateMutability": "nonpayable",
      "type": "function"
    },
    {
      "constant": false,
      "inputs": [
        {
          "name": "_roundId",
          "type": "bytes4"
        }
      ],
      "name": "cancelRound",
      "outputs": [],
      "payable": false,
      "stateMutability": "nonpayable",
      "type": "function"
    },
    {
      "constant": true,
      "inputs": [
        {
          "name": "_host",
          "type": "address"
        },
        {
          "name": "_roundId",
          "type": "bytes4"
        }
      ],
      "name": "getRoundInfo",
      "outputs": [
        {
          "name": "",
          "type": "uint256"
        },
        {
          "name": "",
          "type": "uint256"
        },
        {
          "name": "",
          "type": "uint256"
        },
        {
          "name": "",
          "type": "uint256"
        },
        {
          "name": "",
          "type": "bytes32"
        },
        {
          "name": "",
          "type": "uint256"
        },
        {
          "name": "",
          "type": "uint256"
        },
        {
          "name": "",
          "type": "uint256"
        },
        {
          "name": "",
          "type": "uint256"
        },
        {
          "name": "",
          "type": "uint256"
        }
      ],
      "payable": false,
      "stateMutability": "view",
      "type": "function"
    },
    {
      "constant": true,
      "inputs": [
        {
          "name": "_hostName",
          "type": "bytes32"
        },
        {
          "name": "_roundId",
          "type": "bytes4"
        }
      ],
      "name": "getRoundInfo",
      "outputs": [
        {
          "name": "",
          "type": "uint256"
        },
        {
          "name": "",
          "type": "uint256"
        },
        {
          "name": "",
          "type": "uint256"
        },
        {
          "name": "",
          "type": "uint256"
        },
        {
          "name": "",
          "type": "bytes32"
        },
        {
          "name": "",
          "type": "uint256"
        },
        {
          "name": "",
          "type": "uint256"
        },
        {
          "name": "",
          "type": "uint256"
        },
        {
          "name": "",
          "type": "uint256"
        },
        {
          "name": "",
          "type": "uint256"
        }
      ],
      "payable": false,
      "stateMutability": "view",
      "type": "function"
    },
    {
      "constant": true,
      "inputs": [
        {
          "name": "_hostName",
          "type": "bytes32"
        },
        {
          "name": "_roundId",
          "type": "bytes4"
        }
      ],
      "name": "getRoundOutcomes",
      "outputs": [
        {
          "name": "",
          "type": "bytes32[]"
        }
      ],
      "payable": false,
      "stateMutability": "view",
      "type": "function"
    },
    {
      "constant": true,
      "inputs": [
        {
          "name": "_host",
          "type": "address"
        },
        {
          "name": "_roundId",
          "type": "bytes4"
        }
      ],
      "name": "getRoundOutcomes",
      "outputs": [
        {
          "name": "",
          "type": "bytes32[]"
        }
      ],
      "payable": false,
      "stateMutability": "view",
      "type": "function"
    },
    {
      "constant": true,
      "inputs": [
        {
          "name": "_hostName",
          "type": "bytes32"
        },
        {
          "name": "_roundId",
          "type": "bytes4"
        },
        {
          "name": "_outcomeHash",
          "type": "bytes32"
        }
      ],
      "name": "getRoundOutcomePool",
      "outputs": [
        {
          "name": "",
          "type": "uint256"
        }
      ],
      "payable": false,
      "stateMutability": "view",
      "type": "function"
    },
    {
      "constant": true,
      "inputs": [
        {
          "name": "_host",
          "type": "address"
        },
        {
          "name": "_roundId",
          "type": "bytes4"
        },
        {
          "name": "_outcomeHash",
          "type": "bytes32"
        }
      ],
      "name": "getRoundOutcomePool",
      "outputs": [
        {
          "name": "",
          "type": "uint256"
        }
      ],
      "payable": false,
      "stateMutability": "view",
      "type": "function"
    },
    {
      "constant": true,
      "inputs": [
        {
          "name": "_hostName",
          "type": "bytes32"
        },
        {
          "name": "_roundId",
          "type": "bytes4"
        },
        {
          "name": "_outcomeHash",
          "type": "bytes32"
        }
      ],
      "name": "getRoundOutcomeNumBets",
      "outputs": [
        {
          "name": "",
          "type": "uint256"
        }
      ],
      "payable": false,
      "stateMutability": "view",
      "type": "function"
    },
    {
      "constant": true,
      "inputs": [
        {
          "name": "_host",
          "type": "address"
        },
        {
          "name": "_roundId",
          "type": "bytes4"
        },
        {
          "name": "_outcomeHash",
          "type": "bytes32"
        }
      ],
      "name": "getRoundOutcomeNumBets",
      "outputs": [
        {
          "name": "",
          "type": "uint256"
        }
      ],
      "payable": false,
      "stateMutability": "view",
      "type": "function"
    },
    {
      "constant": true,
      "inputs": [
        {
          "name": "_hostName",
          "type": "bytes32"
        },
        {
          "name": "_roundId",
          "type": "bytes4"
        },
        {
          "name": "_outcomeHash",
          "type": "bytes32"
        }
      ],
      "name": "getMyRoundOutcomeBet",
      "outputs": [
        {
          "name": "",
          "type": "uint256"
        }
      ],
      "payable": false,
      "stateMutability": "view",
      "type": "function"
    },
    {
      "constant": true,
      "inputs": [
        {
          "name": "_host",
          "type": "address"
        },
        {
          "name": "_roundId",
          "type": "bytes4"
        },
        {
          "name": "_outcomeHash",
          "type": "bytes32"
        }
      ],
      "name": "getMyRoundOutcomeBet",
      "outputs": [
        {
          "name": "",
          "type": "uint256"
        }
      ],
      "payable": false,
      "stateMutability": "view",
      "type": "function"
    },
    {
      "constant": true,
      "inputs": [
        {
          "name": "_hostName",
          "type": "bytes32"
        },
        {
          "name": "_roundId",
          "type": "bytes4"
        },
        {
          "name": "_outcomeHash",
          "type": "bytes32"
        }
      ],
      "name": "getRoundOutcomeWinShare",
      "outputs": [
        {
          "name": "",
          "type": "uint256"
        }
      ],
      "payable": false,
      "stateMutability": "view",
      "type": "function"
    },
    {
      "constant": true,
      "inputs": [
        {
          "name": "_host",
          "type": "address"
        },
        {
          "name": "_roundId",
          "type": "bytes4"
        },
        {
          "name": "_outcomeHash",
          "type": "bytes32"
        }
      ],
      "name": "getRoundOutcomeWinShare",
      "outputs": [
        {
          "name": "",
          "type": "uint256"
        }
      ],
      "payable": false,
      "stateMutability": "view",
      "type": "function"
    },
    {
      "constant": true,
      "inputs": [
        {
          "name": "_host",
          "type": "address"
        }
      ],
      "name": "getHostStats",
      "outputs": [
        {
          "name": "",
          "type": "uint256"
        },
        {
          "name": "",
          "type": "uint256"
        },
        {
          "name": "",
          "type": "uint256"
        },
        {
          "name": "",
          "type": "uint256"
        }
      ],
      "payable": false,
      "stateMutability": "view",
      "type": "function"
    },
    {
      "constant": false,
      "inputs": [
        {
          "name": "_name",
          "type": "bytes32"
        }
      ],
      "name": "registerRecord",
      "outputs": [],
      "payable": false,
      "stateMutability": "nonpayable",
      "type": "function"
    },
    {
      "constant": false,
      "inputs": [],
      "name": "deleteRecord",
      "outputs": [],
      "payable": false,
      "stateMutability": "nonpayable",
      "type": "function"
    },
    {
      "constant": false,
      "inputs": [
        {
          "name": "_newName",
          "type": "bytes32"
        }
      ],
      "name": "updateRecord",
      "outputs": [],
      "payable": false,
      "stateMutability": "nonpayable",
      "type": "function"
    },
    {
      "constant": false,
      "inputs": [
        {
          "name": "_name",
          "type": "bytes32"
        }
      ],
      "name": "sudoDeleteRecord",
      "outputs": [],
      "payable": false,
      "stateMutability": "nonpayable",
      "type": "function"
    }
  ],
  "bytecode": "0x6080604052336000806101000a81548173ffffffffffffffffffffffffffffffffffffffff021916908373ffffffffffffffffffffffffffffffffffffffff160217905550614568806100536000396000f300608060405260043610610180576000357c0100000000000000000000000000000000000000000000000000000000900463ffffffff16806301186d991461018557806303437415146101b65780630d4c09601461024b5780631584108b146102a257806317b0421a1461030e5780632bfcc24e146103d5578063326d9a62146104635780633cc37e82146104f157806342cbac3e146105b2578063471990ba1461062e57806365426a98146106a157806366d9e7d8146106b85780636a34295e146106e95780636f50c44b1461079e578063715018a6146107cf578063764ac734146107e657806387a3c0f9146108525780638baf79a4146108ce5780638da5cb5b1461092c57806397c78536146109835780639dd4527d146109cf578063a070f04e14610a40578063c7641f9b14610a9f578063ca5af5d914610b1b578063da6295a414610ba9578063ef1cbbf714610c15578063f2dd33d614610ca3578063f2fde38b14610d1f578063f5309ec014610d62578063fe637de814610dcf575b600080fd5b34801561019157600080fd5b506101b46004803603810190808035600019169060200190929190505050610e7e565b005b3480156101c257600080fd5b506101f7600480360381019080803573ffffffffffffffffffffffffffffffffffffffff169060200190929190505050610e92565b60405180827bffffffffffffffffffffffffffffffffffffffffffffffffffffffff19167bffffffffffffffffffffffffffffffffffffffffffffffffffffffff1916815260200191505060405180910390f35b6102a060048036038101908080359060200190820180359060200191909192939192939080357bffffffffffffffffffffffffffffffffffffffffffffffffffffffff19169060200190929190505050610fad565b005b3480156102ae57600080fd5b5061030c600480360381019080803573ffffffffffffffffffffffffffffffffffffffff16906020019092919080357bffffffffffffffffffffffffffffffffffffffffffffffffffffffff191690602001909291905050506114b8565b005b34801561031a57600080fd5b50610378600480360381019080803573ffffffffffffffffffffffffffffffffffffffff16906020019092919080357bffffffffffffffffffffffffffffffffffffffffffffffffffffffff191690602001909291905050506116de565b604051808b81526020018a815260200189815260200188815260200187600019166000191681526020018681526020018581526020018481526020018381526020018281526020019a505050505050505050505060405180910390f35b3480156103e157600080fd5b5061044d600480360381019080803573ffffffffffffffffffffffffffffffffffffffff16906020019092919080357bffffffffffffffffffffffffffffffffffffffffffffffffffffffff191690602001909291908035600019169060200190929190505050611917565b6040518082815260200191505060405180910390f35b34801561046f57600080fd5b506104db600480360381019080803573ffffffffffffffffffffffffffffffffffffffff16906020019092919080357bffffffffffffffffffffffffffffffffffffffffffffffffffffffff191690602001909291908035600019169060200190929190505050611b69565b6040518082815260200191505060405180910390f35b3480156104fd57600080fd5b5061055b600480360381019080803573ffffffffffffffffffffffffffffffffffffffff16906020019092919080357bffffffffffffffffffffffffffffffffffffffffffffffffffffffff19169060200190929190505050611df8565b6040518080602001828103825283818151815260200191508051906020019060200280838360005b8381101561059e578082015181840152602081019050610583565b505050509050019250505060405180910390f35b3480156105be57600080fd5b50610618600480360381019080803560001916906020019092919080357bffffffffffffffffffffffffffffffffffffffffffffffffffffffff191690602001909291908035600019169060200190929190505050612085565b6040518082815260200191505060405180910390f35b34801561063a57600080fd5b5061066f600480360381019080803573ffffffffffffffffffffffffffffffffffffffff169060200190929190505050612220565b604051808681526020018581526020018481526020018381526020018281526020019550505050505060405180910390f35b3480156106ad57600080fd5b506106b6612256565b005b3480156106c457600080fd5b506106e7600480360381019080803560001916906020019092919050505061232c565b005b3480156106f557600080fd5b50610741600480360381019080803560001916906020019092919080357bffffffffffffffffffffffffffffffffffffffffffffffffffffffff19169060200190929190505050612408565b604051808b81526020018a815260200189815260200188815260200187600019166000191681526020018681526020018581526020018481526020018381526020018281526020019a505050505050505050505060405180910390f35b3480156107aa57600080fd5b506107cd60048036038101908080356000191690602001909291905050506125ca565b005b3480156107db57600080fd5b506107e46126ae565b005b3480156107f257600080fd5b50610827600480360381019080803573ffffffffffffffffffffffffffffffffffffffff1690602001909291905050506127b0565b6040518085815260200184815260200183815260200182815260200194505050505060405180910390f35b34801561085e57600080fd5b506108b8600480360381019080803560001916906020019092919080357bffffffffffffffffffffffffffffffffffffffffffffffffffffffff19169060200190929190803560001916906020019092919050505061281d565b6040518082815260200191505060405180910390f35b61092a6004803603810190808035600019169060200190929190803590602001908201803590602001919091929391929390806080019091929192908035906020019082018035906020019190919293919293905050506129b8565b005b34801561093857600080fd5b50610941612ebf565b604051808273ffffffffffffffffffffffffffffffffffffffff1673ffffffffffffffffffffffffffffffffffffffff16815260200191505060405180910390f35b34801561098f57600080fd5b506109cd60048036038101908080357bffffffffffffffffffffffffffffffffffffffffffffffffffffffff19169060200190929190505050612ee4565b005b3480156109db57600080fd5b506109fe60048036038101908080356000191690602001909291905050506130ee565b604051808273ffffffffffffffffffffffffffffffffffffffff1673ffffffffffffffffffffffffffffffffffffffff16815260200191505060405180910390f35b348015610a4c57600080fd5b50610a81600480360381019080803573ffffffffffffffffffffffffffffffffffffffff169060200190929190505050613121565b60405180826000191660001916815260200191505060405180910390f35b348015610aab57600080fd5b50610b05600480360381019080803560001916906020019092919080357bffffffffffffffffffffffffffffffffffffffffffffffffffffffff191690602001909291908035600019169060200190929190505050613139565b6040518082815260200191505060405180910390f35b348015610b2757600080fd5b50610b93600480360381019080803573ffffffffffffffffffffffffffffffffffffffff16906020019092919080357bffffffffffffffffffffffffffffffffffffffffffffffffffffffff1916906020019092919080356000191690602001909291905050506132d4565b6040518082815260200191505060405180910390f35b348015610bb557600080fd5b50610c13600480360381019080803573ffffffffffffffffffffffffffffffffffffffff16906020019092919080357bffffffffffffffffffffffffffffffffffffffffffffffffffffffff19169060200190929190505050613526565b005b348015610c2157600080fd5b50610c8d600480360381019080803573ffffffffffffffffffffffffffffffffffffffff16906020019092919080357bffffffffffffffffffffffffffffffffffffffffffffffffffffffff1916906020019092919080356000191690602001909291905050506136fc565b6040518082815260200191505060405180910390f35b348015610caf57600080fd5b50610d09600480360381019080803560001916906020019092919080357bffffffffffffffffffffffffffffffffffffffffffffffffffffffff191690602001909291908035600019169060200190929190505050613951565b6040518082815260200191505060405180910390f35b348015610d2b57600080fd5b50610d60600480360381019080803573ffffffffffffffffffffffffffffffffffffffff169060200190929190505050613aec565b005b610dcd600480360381019080803573ffffffffffffffffffffffffffffffffffffffff16906020019092919080357bffffffffffffffffffffffffffffffffffffffffffffffffffffffff191690602001909291908035600019169060200190929190505050613b53565b005b348015610ddb57600080fd5b50610e27600480360381019080803560001916906020019092919080357bffffffffffffffffffffffffffffffffffffffffffffffffffffffff19169060200190929190505050613d4a565b6040518080602001828103825283818151815260200191508051906020019060200280838360005b83811015610e6a578082015181840152602081019050610e4f565b505050509050019250505060405180910390f35b610e86612256565b610e8f8161232c565b50565b6000806000600260008573ffffffffffffffffffffffffffffffffffffffff1673ffffffffffffffffffffffffffffffffffffffff1681526020019081526020016000206000015491508382604051602001808373ffffffffffffffffffffffffffffffffffffffff1673ffffffffffffffffffffffffffffffffffffffff166c01000000000000000000000000028152601401828152602001925050506040516020818303038152906040526040518082805190602001908083835b602083101515610f745780518252602082019150602081019050602083039250610f4f565b6001836020036101000a038019825116818451168082178552505050505050905001915050604051809103902090508092505050919050565b600080600080600080600080600080610fc6338c613ee4565b995060026006811115610fd557fe5b8a60010160009054906101000a900460ff166006811115610ff257fe5b148061102557506003600681111561100657fe5b8a60010160009054906101000a900460ff16600681111561102357fe5b145b151561103057600080fd5b89600901600001805490508d8d905014151561104b57600080fd5b89600401544210151561105d57600080fd5b61108b606461107d60018d600e0160010154613f7c90919063ffffffff16565b613fb490919063ffffffff16565b9850888a600e01600101540397506110ca60646110bc8c600701548d600e0160010154613f7c90919063ffffffff16565b613fb490919063ffffffff16565b96508688039750600092505b8c8c9050831015611206578c8c8481811015156110ef57fe5b9050602002013591506111028a84613fca565b90506000821415611112576111f9565b6064821115151561112257600080fd5b8186019550818a600c0160010160008360001916600019168152602001908152602001600020819055506111726064611164848b613f7c90919063ffffffff16565b613fb490919063ffffffff16565b8a600c016000018481548110151561118657fe5b90600052602060002001819055506111c48a60120160008360001916600019168152602001908152602001600020548661407c90919063ffffffff16565b94506111f68a60110160008360001916600019168152602001908152602001600020548561407c90919063ffffffff16565b93505b82806001019350506110d6565b60648614151561121557600080fd5b848a600e0160000181905550611234348561407c90919063ffffffff16565b8a600e016001018190555089600e0160000154600260003373ffffffffffffffffffffffffffffffffffffffff1673ffffffffffffffffffffffffffffffffffffffff1681526020019081526020016000206003016000828254019250508190555089600e0160010154600260003373ffffffffffffffffffffffffffffffffffffffff1673ffffffffffffffffffffffffffffffffffffffff168152602001908152602001600020600401600082825401925050819055506001600260003373ffffffffffffffffffffffffffffffffffffffff1673ffffffffffffffffffffffffffffffffffffffff1681526020019081526020016000206001016000828254019250508190555060048a60010160006101000a81548160ff0219169083600681111561135f57fe5b02179055506000809054906101000a900473ffffffffffffffffffffffffffffffffffffffff1673ffffffffffffffffffffffffffffffffffffffff166108fc8a9081150290604051600060405180830381858888f193505050501580156113cb573d6000803e3d6000fd5b50600087111561141d573373ffffffffffffffffffffffffffffffffffffffff166108fc889081150290604051600060405180830381858888f1935050505015801561141b573d6000803e3d6000fd5b505b3373ffffffffffffffffffffffffffffffffffffffff167f4cdf964e6e89934ffc032ff3f5be1525aa747560a07d9e380c8bead358e6febd8c60405180827bffffffffffffffffffffffffffffffffffffffffffffffffffffffff19167bffffffffffffffffffffffffffffffffffffffffffffffffffffffff1916815260200191505060405180910390a250505050505050505050505050565b6000806000806000806114cb8888613ee4565b9550600460068111156114da57fe5b8660010160009054906101000a900460ff1660068111156114f757fe5b14151561150357600080fd5b600093505b856009016000018054905084101561167e576115248685613fca565b925085600c0160010160008460001916600019168152602001908152602001600020549150600082141561155757611671565b6115e1866010016000856000191660001916815260200190815260200160002060003373ffffffffffffffffffffffffffffffffffffffff1673ffffffffffffffffffffffffffffffffffffffff168152602001908152602001600020548388601101600087600019166000191681526020019081526020016000205489600e0160010154614098565b90506000811115611662576115ff818661407c90919063ffffffff16565b94506000866010016000856000191660001916815260200190815260200160002060003373ffffffffffffffffffffffffffffffffffffffff1673ffffffffffffffffffffffffffffffffffffffff168152602001908152602001600020819055505b60648214156116705761167e565b5b8380600101945050611508565b60008511151561168d57600080fd5b3373ffffffffffffffffffffffffffffffffffffffff166108fc869081150290604051600060405180830381858888f193505050501580156116d3573d6000803e3d6000fd5b505050505050505050565b60008060008060008060008060008060008c8c600060068111156116fe57fe5b600160008473ffffffffffffffffffffffffffffffffffffffff1673ffffffffffffffffffffffffffffffffffffffff1681526020019081526020016000206000837bffffffffffffffffffffffffffffffffffffffffffffffffffffffff19167bffffffffffffffffffffffffffffffffffffffffffffffffffffffff1916815260200190815260200160002060010160009054906101000a900460ff1660068111156117a857fe5b14156040805190810160405280601781526020017f484f53545f4f525f524f554e445f4e4f545f464f554e44000000000000000000815250901515611888576040517f08c379a00000000000000000000000000000000000000000000000000000000081526004018080602001828103825283818151815260200191508051906020019080838360005b8381101561184d578082015181840152602081019050611832565b50505050905090810190601f16801561187a5780820380516001836020036101000a031916815260200191505b509250505060405180910390fd5b506118938f8f613ee4565b925082600001548360010160009054906101000a900460ff1660068111156118b757fe5b846002015485600401548660080154876009016000018054905088600e016000015489600e01600101548a600601548b600701548860ff1698509c509c509c509c509c509c509c509c509c509c505050509295989b9194979a5092959850565b600083836000600681111561192857fe5b600160008473ffffffffffffffffffffffffffffffffffffffff1673ffffffffffffffffffffffffffffffffffffffff1681526020019081526020016000206000837bffffffffffffffffffffffffffffffffffffffffffffffffffffffff19167bffffffffffffffffffffffffffffffffffffffffffffffffffffffff1916815260200190815260200160002060010160009054906101000a900460ff1660068111156119d257fe5b14156040805190810160405280601781526020017f484f53545f4f525f524f554e445f4e4f545f464f554e44000000000000000000815250901515611ab2576040517f08c379a00000000000000000000000000000000000000000000000000000000081526004018080602001828103825283818151815260200191508051906020019080838360005b83811015611a77578082015181840152602081019050611a5c565b50505050905090810190601f168015611aa45780820380516001836020036101000a031916815260200191505b509250505060405180910390fd5b50600160008773ffffffffffffffffffffffffffffffffffffffff1673ffffffffffffffffffffffffffffffffffffffff1681526020019081526020016000206000867bffffffffffffffffffffffffffffffffffffffffffffffffffffffff19167bffffffffffffffffffffffffffffffffffffffffffffffffffffffff191681526020019081526020016000206012016000856000191660001916815260200190815260200160002054925050509392505050565b6000838360006006811115611b7a57fe5b600160008473ffffffffffffffffffffffffffffffffffffffff1673ffffffffffffffffffffffffffffffffffffffff1681526020019081526020016000206000837bffffffffffffffffffffffffffffffffffffffffffffffffffffffff19167bffffffffffffffffffffffffffffffffffffffffffffffffffffffff1916815260200190815260200160002060010160009054906101000a900460ff166006811115611c2457fe5b14156040805190810160405280601781526020017f484f53545f4f525f524f554e445f4e4f545f464f554e44000000000000000000815250901515611d04576040517f08c379a00000000000000000000000000000000000000000000000000000000081526004018080602001828103825283818151815260200191508051906020019080838360005b83811015611cc9578082015181840152602081019050611cae565b50505050905090810190601f168015611cf65780820380516001836020036101000a031916815260200191505b509250505060405180910390fd5b50600160008773ffffffffffffffffffffffffffffffffffffffff1673ffffffffffffffffffffffffffffffffffffffff1681526020019081526020016000206000867bffffffffffffffffffffffffffffffffffffffffffffffffffffffff19167bffffffffffffffffffffffffffffffffffffffffffffffffffffffff191681526020019081526020016000206010016000856000191660001916815260200190815260200160002060003373ffffffffffffffffffffffffffffffffffffffff1673ffffffffffffffffffffffffffffffffffffffff16815260200190815260200160002054925050509392505050565b6060828260006006811115611e0957fe5b600160008473ffffffffffffffffffffffffffffffffffffffff1673ffffffffffffffffffffffffffffffffffffffff1681526020019081526020016000206000837bffffffffffffffffffffffffffffffffffffffffffffffffffffffff19167bffffffffffffffffffffffffffffffffffffffffffffffffffffffff1916815260200190815260200160002060010160009054906101000a900460ff166006811115611eb357fe5b14156040805190810160405280601781526020017f484f53545f4f525f524f554e445f4e4f545f464f554e44000000000000000000815250901515611f93576040517f08c379a00000000000000000000000000000000000000000000000000000000081526004018080602001828103825283818151815260200191508051906020019080838360005b83811015611f58578082015181840152602081019050611f3d565b50505050905090810190601f168015611f855780820380516001836020036101000a031916815260200191505b509250505060405180910390fd5b50600160008673ffffffffffffffffffffffffffffffffffffffff1673ffffffffffffffffffffffffffffffffffffffff1681526020019081526020016000206000857bffffffffffffffffffffffffffffffffffffffffffffffffffffffff19167bffffffffffffffffffffffffffffffffffffffffffffffffffffffff1916815260200190815260200160002060090160000180548060200260200160405190810160405280929190818152602001828054801561207657602002820191906000526020600020905b8154600019168152602001906001019080831161205e575b50505050509250505092915050565b60008073ffffffffffffffffffffffffffffffffffffffff1660036000866000191660001916815260200190815260200160002060009054906101000a900473ffffffffffffffffffffffffffffffffffffffff1673ffffffffffffffffffffffffffffffffffffffff1614156040805190810160405280601381526020017f484f53545f4e414d455f4e4f545f464f554e44000000000000000000000000008152509015156121d0576040517f08c379a00000000000000000000000000000000000000000000000000000000081526004018080602001828103825283818151815260200191508051906020019080838360005b8381101561219557808201518184015260208101905061217a565b50505050905090810190601f1680156121c25780820380516001836020036101000a031916815260200191505b509250505060405180910390fd5b5061221760036000866000191660001916815260200190815260200160002060009054906101000a900473ffffffffffffffffffffffffffffffffffffffff168484611b69565b90509392505050565b60026020528060005260406000206000915090508060000154908060010154908060020154908060030154908060040154905085565b6000600460003373ffffffffffffffffffffffffffffffffffffffff1673ffffffffffffffffffffffffffffffffffffffff16815260200190815260200160002054905060007f0100000000000000000000000000000000000000000000000000000000000000028160006020811015156122cd57fe5b1a7f0100000000000000000000000000000000000000000000000000000000000000027effffffffffffffffffffffffffffffffffffffffffffffffffffffffffffff19161415151561231f57600080fd5b6123293382614131565b50565b600073ffffffffffffffffffffffffffffffffffffffff1660036000836000191660001916815260200190815260200160002060009054906101000a900473ffffffffffffffffffffffffffffffffffffffff1673ffffffffffffffffffffffffffffffffffffffff161415156123a257600080fd5b600060010260001916600460003373ffffffffffffffffffffffffffffffffffffffff1673ffffffffffffffffffffffffffffffffffffffff16815260200190815260200160002054600019161415156123fb57600080fd5b61240533826141b6565b50565b600080600080600080600080600080600073ffffffffffffffffffffffffffffffffffffffff16600360008e6000191660001916815260200190815260200160002060009054906101000a900473ffffffffffffffffffffffffffffffffffffffff1673ffffffffffffffffffffffffffffffffffffffff1614156040805190810160405280601381526020017f484f53545f4e414d455f4e4f545f464f554e4400000000000000000000000000815250901515612561576040517f08c379a00000000000000000000000000000000000000000000000000000000081526004018080602001828103825283818151815260200191508051906020019080838360005b8381101561252657808201518184015260208101905061250b565b50505050905090810190601f1680156125535780820380516001836020036101000a031916815260200191505b509250505060405180910390fd5b506125a7600360008e6000191660001916815260200190815260200160002060009054906101000a900473ffffffffffffffffffffffffffffffffffffffff168c6116de565b99509950995099509950995099509950995099509295989b9194979a5092959850565b60008060009054906101000a900473ffffffffffffffffffffffffffffffffffffffff1673ffffffffffffffffffffffffffffffffffffffff163373ffffffffffffffffffffffffffffffffffffffff1614151561262757600080fd5b60036000836000191660001916815260200190815260200160002060009054906101000a900473ffffffffffffffffffffffffffffffffffffffff169050600073ffffffffffffffffffffffffffffffffffffffff168173ffffffffffffffffffffffffffffffffffffffff161415156126a057600080fd5b6126aa8183614131565b5050565b6000809054906101000a900473ffffffffffffffffffffffffffffffffffffffff1673ffffffffffffffffffffffffffffffffffffffff163373ffffffffffffffffffffffffffffffffffffffff1614151561270957600080fd5b6000809054906101000a900473ffffffffffffffffffffffffffffffffffffffff1673ffffffffffffffffffffffffffffffffffffffff167ff8df31144d9c2f0f6b59d69b8b98abd5459d07f2742c4df920b25aae33c6482060405160405180910390a260008060006101000a81548173ffffffffffffffffffffffffffffffffffffffff021916908373ffffffffffffffffffffffffffffffffffffffff160217905550565b6000806000806000600260008773ffffffffffffffffffffffffffffffffffffffff1673ffffffffffffffffffffffffffffffffffffffff168152602001908152602001600020905080600101548160020154826003015483600401549450945094509450509193509193565b60008073ffffffffffffffffffffffffffffffffffffffff1660036000866000191660001916815260200190815260200160002060009054906101000a900473ffffffffffffffffffffffffffffffffffffffff1673ffffffffffffffffffffffffffffffffffffffff1614156040805190810160405280601381526020017f484f53545f4e414d455f4e4f545f464f554e4400000000000000000000000000815250901515612968576040517f08c379a00000000000000000000000000000000000000000000000000000000081526004018080602001828103825283818151815260200191508051906020019080838360005b8381101561292d578082015181840152602081019050612912565b50505050905090810190601f16801561295a5780820380516001836020036101000a031916815260200191505b509250505060405180910390fd5b506129af60036000866000191660001916815260200190815260200160002060009054906101000a900473ffffffffffffffffffffffffffffffffffffffff1684846136fc565b90509392505050565b6000806129c361440a565b6129cb614424565b6129d3614438565b60008060008a60006004811015156129e757fe5b60200201351480612a0a5750428a6000600481101515612a0357fe5b6020020135115b1515612a1557600080fd5b603c8a6001600481101515612a2657fe5b602002013510151515612a3857600080fd5b60028c8c905010158015612a505750600a8c8c905011155b1515612a5b57600080fd5b60648a6003600481101515612a6c57fe5b602002013511151515612a7e57600080fd5b8b8b90508989905011151515612a9357600080fd5b60008a6000600481101515612aa457fe5b602002013514612ab5576001612ab8565b60025b965060008a6000600481101515612acb57fe5b602002013514612aee57896000600481101515612ae457fe5b6020020135612b03565b896001600481101515612afd57fe5b60200201355b955060408051908101604052808d8d8080602002602001604051908101604052809392919081815260200183836020028082843782019150505050505081526020018a8a8080602002602001604051908101604052809392919081815260200183836020028082843782019150505050505081525094506020604051908101604052808d8d9050604051908082528060200260200182016040528015612bb85781602001602082028038833980820191505090505b508152509350604080519081016040528060008152602001348152509250612bdf3361425c565b809250819350505061018060405190810160405280838152602001886006811115612c0657fe5b81526020014281526020018781526020018b6001600481101515612c2657fe5b6020020135880181526020018b6002600481101515612c4157fe5b602002013581526020013481526020018b6003600481101515612c6057fe5b602002013581526020018e60001916815260200186815260200185815260200184815250600160003373ffffffffffffffffffffffffffffffffffffffff1673ffffffffffffffffffffffffffffffffffffffff1681526020019081526020016000206000837bffffffffffffffffffffffffffffffffffffffffffffffffffffffff19167bffffffffffffffffffffffffffffffffffffffffffffffffffffffff191681526020019081526020016000206000820151816000015560208201518160010160006101000a81548160ff02191690836006811115612d4057fe5b021790555060408201518160020155606082015181600301556080820151816004015560a0820151816005015560c0820151816006015560e082015181600701556101008201518160080190600019169055610120820151816009016000820151816000019080519060200190612db8929190614452565b506020820151816002019080519060200190612dd59291906144a5565b50505061014082015181600c016000820151816000019080519060200190612dfe9291906144a5565b50505061016082015181600e01600082015181600001556020820151816001015550509050503373ffffffffffffffffffffffffffffffffffffffff167f38200ecf62e44ebceaabbd4292688e3e06ac3bdaf612a0287f9d1d7f0e3e5ad08260405180827bffffffffffffffffffffffffffffffffffffffffffffffffffffffff19167bffffffffffffffffffffffffffffffffffffffffffffffffffffffff1916815260200191505060405180910390a250505050505050505050505050565b6000809054906101000a900473ffffffffffffffffffffffffffffffffffffffff1681565b6000612ef03383613ee4565b905060016006811115612eff57fe5b8160010160009054906101000a900460ff166006811115612f1c57fe5b1480612f4f575060026006811115612f3057fe5b8160010160009054906101000a900460ff166006811115612f4d57fe5b145b1515612f5a57600080fd5b6005600160003373ffffffffffffffffffffffffffffffffffffffff1673ffffffffffffffffffffffffffffffffffffffff1681526020019081526020016000206000847bffffffffffffffffffffffffffffffffffffffffffffffffffffffff19167bffffffffffffffffffffffffffffffffffffffffffffffffffffffff1916815260200190815260200160002060010160006101000a81548160ff0219169083600681111561300857fe5b02179055506001600260003373ffffffffffffffffffffffffffffffffffffffff1673ffffffffffffffffffffffffffffffffffffffff168152602001908152602001600020600201600082825401925050819055503373ffffffffffffffffffffffffffffffffffffffff167f81a8172348667ad6402f7c3aca080b41512f7d5925c666de439a4473e51fe4b78360405180827bffffffffffffffffffffffffffffffffffffffffffffffffffffffff19167bffffffffffffffffffffffffffffffffffffffffffffffffffffffff1916815260200191505060405180910390a25050565b60036020528060005260406000206000915054906101000a900473ffffffffffffffffffffffffffffffffffffffff1681565b60046020528060005260406000206000915090505481565b60008073ffffffffffffffffffffffffffffffffffffffff1660036000866000191660001916815260200190815260200160002060009054906101000a900473ffffffffffffffffffffffffffffffffffffffff1673ffffffffffffffffffffffffffffffffffffffff1614156040805190810160405280601381526020017f484f53545f4e414d455f4e4f545f464f554e4400000000000000000000000000815250901515613284576040517f08c379a00000000000000000000000000000000000000000000000000000000081526004018080602001828103825283818151815260200191508051906020019080838360005b8381101561324957808201518184015260208101905061322e565b50505050905090810190601f1680156132765780820380516001836020036101000a031916815260200191505b509250505060405180910390fd5b506132cb60036000866000191660001916815260200190815260200160002060009054906101000a900473ffffffffffffffffffffffffffffffffffffffff168484611917565b90509392505050565b60008383600060068111156132e557fe5b600160008473ffffffffffffffffffffffffffffffffffffffff1673ffffffffffffffffffffffffffffffffffffffff1681526020019081526020016000206000837bffffffffffffffffffffffffffffffffffffffffffffffffffffffff19167bffffffffffffffffffffffffffffffffffffffffffffffffffffffff1916815260200190815260200160002060010160009054906101000a900460ff16600681111561338f57fe5b14156040805190810160405280601781526020017f484f53545f4f525f524f554e445f4e4f545f464f554e4400000000000000000081525090151561346f576040517f08c379a00000000000000000000000000000000000000000000000000000000081526004018080602001828103825283818151815260200191508051906020019080838360005b83811015613434578082015181840152602081019050613419565b50505050905090810190601f1680156134615780820380516001836020036101000a031916815260200191505b509250505060405180910390fd5b50600160008773ffffffffffffffffffffffffffffffffffffffff1673ffffffffffffffffffffffffffffffffffffffff1681526020019081526020016000206000867bffffffffffffffffffffffffffffffffffffffffffffffffffffffff19167bffffffffffffffffffffffffffffffffffffffffffffffffffffffff191681526020019081526020016000206011016000856000191660001916815260200190815260200160002054925050509392505050565b6000806000806135368686613ee4565b93506005600681111561354557fe5b8460010160009054906101000a900460ff16600681111561356257fe5b1480613594575060068081111561357557fe5b8460010160009054906101000a900460ff16600681111561359257fe5b145b151561359f57600080fd5b600091505b836009016000018054905082101561369e576135c08483613fca565b905061362f846010016000836000191660001916815260200190815260200160002060003373ffffffffffffffffffffffffffffffffffffffff1673ffffffffffffffffffffffffffffffffffffffff168152602001908152602001600020548461407c90919063ffffffff16565b92506000846010016000836000191660001916815260200190815260200160002060003373ffffffffffffffffffffffffffffffffffffffff1673ffffffffffffffffffffffffffffffffffffffff1681526020019081526020016000208190555081806001019250506135a4565b6000831115156136ad57600080fd5b3373ffffffffffffffffffffffffffffffffffffffff166108fc849081150290604051600060405180830381858888f193505050501580156136f3573d6000803e3d6000fd5b50505050505050565b600083836000600681111561370d57fe5b600160008473ffffffffffffffffffffffffffffffffffffffff1673ffffffffffffffffffffffffffffffffffffffff1681526020019081526020016000206000837bffffffffffffffffffffffffffffffffffffffffffffffffffffffff19167bffffffffffffffffffffffffffffffffffffffffffffffffffffffff1916815260200190815260200160002060010160009054906101000a900460ff1660068111156137b757fe5b14156040805190810160405280601781526020017f484f53545f4f525f524f554e445f4e4f545f464f554e44000000000000000000815250901515613897576040517f08c379a00000000000000000000000000000000000000000000000000000000081526004018080602001828103825283818151815260200191508051906020019080838360005b8381101561385c578082015181840152602081019050613841565b50505050905090810190601f1680156138895780820380516001836020036101000a031916815260200191505b509250505060405180910390fd5b50600160008773ffffffffffffffffffffffffffffffffffffffff1673ffffffffffffffffffffffffffffffffffffffff1681526020019081526020016000206000867bffffffffffffffffffffffffffffffffffffffffffffffffffffffff19167bffffffffffffffffffffffffffffffffffffffffffffffffffffffff19168152602001908152602001600020600c016001016000856000191660001916815260200190815260200160002054925050509392505050565b60008073ffffffffffffffffffffffffffffffffffffffff1660036000866000191660001916815260200190815260200160002060009054906101000a900473ffffffffffffffffffffffffffffffffffffffff1673ffffffffffffffffffffffffffffffffffffffff1614156040805190810160405280601381526020017f484f53545f4e414d455f4e4f545f464f554e4400000000000000000000000000815250901515613a9c576040517f08c379a00000000000000000000000000000000000000000000000000000000081526004018080602001828103825283818151815260200191508051906020019080838360005b83811015613a61578082015181840152602081019050613a46565b50505050905090810190601f168015613a8e5780820380516001836020036101000a031916815260200191505b509250505060405180910390fd5b50613ae360036000866000191660001916815260200190815260200160002060009054906101000a900473ffffffffffffffffffffffffffffffffffffffff1684846132d4565b90509392505050565b6000809054906101000a900473ffffffffffffffffffffffffffffffffffffffff1673ffffffffffffffffffffffffffffffffffffffff163373ffffffffffffffffffffffffffffffffffffffff16141515613b4757600080fd5b613b5081614310565b50565b6000613b5f8484613ee4565b905060026006811115613b6e57fe5b8160010160009054906101000a900460ff166006811115613b8b57fe5b141515613b9757600080fd5b80600501543410151515613baa57600080fd5b60011515816009016001016000846000191660001916815260200190815260200160002060009054906101000a900460ff161515141515613bea57600080fd5b806004015442101515613bfc57600080fd5b613c6934826010016000856000191660001916815260200190815260200160002060003373ffffffffffffffffffffffffffffffffffffffff1673ffffffffffffffffffffffffffffffffffffffff1681526020019081526020016000205461407c90919063ffffffff16565b816010016000846000191660001916815260200190815260200160002060003373ffffffffffffffffffffffffffffffffffffffff1673ffffffffffffffffffffffffffffffffffffffff16815260200190815260200160002081905550613cf73482601101600085600019166000191681526020019081526020016000205461407c90919063ffffffff16565b816011016000846000191660001916815260200190815260200160002081905550600181601201600084600019166000191681526020019081526020016000206000828254019250508190555050505050565b6060600073ffffffffffffffffffffffffffffffffffffffff1660036000856000191660001916815260200190815260200160002060009054906101000a900473ffffffffffffffffffffffffffffffffffffffff1673ffffffffffffffffffffffffffffffffffffffff1614156040805190810160405280601381526020017f484f53545f4e414d455f4e4f545f464f554e4400000000000000000000000000815250901515613e96576040517f08c379a00000000000000000000000000000000000000000000000000000000081526004018080602001828103825283818151815260200191508051906020019080838360005b83811015613e5b578082015181840152602081019050613e40565b50505050905090810190601f168015613e885780820380516001836020036101000a031916815260200191505b509250505060405180910390fd5b50613edc60036000856000191660001916815260200190815260200160002060009054906101000a900473ffffffffffffffffffffffffffffffffffffffff1683611df8565b905092915050565b6000600160008473ffffffffffffffffffffffffffffffffffffffff1673ffffffffffffffffffffffffffffffffffffffff1681526020019081526020016000206000837bffffffffffffffffffffffffffffffffffffffffffffffffffffffff19167bffffffffffffffffffffffffffffffffffffffffffffffffffffffff19168152602001908152602001600020905092915050565b600080831415613f8f5760009050613fae565b8183029050818382811515613fa057fe5b04141515613faa57fe5b8090505b92915050565b60008183811515613fc157fe5b04905092915050565b60008260090160000182815481101515613fe057fe5b90600052602060002001546040516020018082600019166000191681526020019150506040516020818303038152906040526040518082805190602001908083835b6020831015156140475780518252602082019150602081019050602083039250614022565b6001836020036101000a0380198251168184511680821785525050505050509050019150506040518091039020905092915050565b6000818301905082811015151561408f57fe5b80905092915050565b600080600080871115614122576140c38568056bc75e2d631000008902613fb490919063ffffffff16565b915061411868056bc75e2d6310000061410a846140fc60646140ee8c8b613f7c90919063ffffffff16565b613fb490919063ffffffff16565b613f7c90919063ffffffff16565b613fb490919063ffffffff16565b9050809250614127565b600092505b5050949350505050565b60036000826000191660001916815260200190815260200160002060006101000a81549073ffffffffffffffffffffffffffffffffffffffff0219169055600460008373ffffffffffffffffffffffffffffffffffffffff1673ffffffffffffffffffffffffffffffffffffffff168152602001908152602001600020600090555050565b8160036000836000191660001916815260200190815260200160002060006101000a81548173ffffffffffffffffffffffffffffffffffffffff021916908373ffffffffffffffffffffffffffffffffffffffff16021790555080600460008473ffffffffffffffffffffffffffffffffffffffff1673ffffffffffffffffffffffffffffffffffffffff16815260200190815260200160002081600019169055505050565b600080600080600260008673ffffffffffffffffffffffffffffffffffffffff1673ffffffffffffffffffffffffffffffffffffffff1681526020019081526020016000206000015491506142b085610e92565b90506001600260008773ffffffffffffffffffffffffffffffffffffffff1673ffffffffffffffffffffffffffffffffffffffff168152602001908152602001600020600001600082825401925050819055508181935093505050915091565b600073ffffffffffffffffffffffffffffffffffffffff168173ffffffffffffffffffffffffffffffffffffffff161415151561434c57600080fd5b8073ffffffffffffffffffffffffffffffffffffffff166000809054906101000a900473ffffffffffffffffffffffffffffffffffffffff1673ffffffffffffffffffffffffffffffffffffffff167f8be0079c531659141344cd1fd0a4f28419497f9722a3daafe3b4186f6b6457e060405160405180910390a3806000806101000a81548173ffffffffffffffffffffffffffffffffffffffff021916908373ffffffffffffffffffffffffffffffffffffffff16021790555050565b604080519081016040528060608152602001606081525090565b602060405190810160405280606081525090565b604080519081016040528060008152602001600081525090565b828054828255906000526020600020908101928215614494579160200282015b82811115614493578251829060001916905591602001919060010190614472565b5b5090506144a191906144f2565b5090565b8280548282559060005260206000209081019282156144e1579160200282015b828111156144e05782518255916020019190600101906144c5565b5b5090506144ee9190614517565b5090565b61451491905b808211156145105760008160009055506001016144f8565b5090565b90565b61453991905b8082111561453557600081600090555060010161451d565b5090565b905600a165627a7a723058200dc73eff73b1b25ffa401792e56fa578ce70a460d04683cd8749807a9db73f230029",
  "source": "pragma solidity ^0.4.24;\n\nimport 'openzeppelin-solidity/contracts/ownership/Ownable.sol';\nimport 'openzeppelin-solidity/contracts/math/SafeMath.sol';\n\ncontract Betl is Ownable {\n  using SafeMath for uint;\n\n  uint private constant FEE_PERCENT = 1;\n  uint private constant MIN_TIMEOUT = 1 minutes;\n  uint private constant MODE_WHATEVER = 0;       // usecase for modes?\n  uint private constant MAX_OUTCOMES = 10;\n\n  enum Status {\n    UNDEFINED, // Round doesn't exist\n    SCHEDULED, // Round exists and is scheduled for the future\n    OPEN,\n    CLOSED,\n    FINISHED,\n    CANCELLED,\n    TIMEOUT\n  }\n\n  // Errors\n  string constant HOST_NAME_NOT_FOUND = 'HOST_NAME_NOT_FOUND';\n  string constant HOST_OR_ROUND_NOT_FOUND = 'HOST_OR_ROUND_NOT_FOUND';\n\n  event RoundCreated(address indexed host, bytes4 roundId);\n  event RoundFinished(address indexed host, bytes4 roundId);\n  event RoundCancelled(address indexed host, bytes4 roundId);\n\n  struct Outcomes {\n    bytes32[] outcomes;\n    mapping(bytes32 => bool) lookup;\n    // Specifies payout distributions in case multiple winners are possible\n    // Example: When there are 3 winners, this array can be [60, 30, 10] ==> in percents, must sum to 100.\n    // winnerTiers.length <= numOutcomes\n    uint[] payoutTiers;\n    //bool hasFlexOutcomes;\n  }\n\n  struct Results {\n    uint[] payouts;\n    //    hash(opt) => winShare [0-100]\n    mapping(bytes32 => uint) outcomeWinShares;\n  }\n\n  struct Stats {\n    uint numBets;\n    uint poolSize;\n  }\n\n  struct Round {\n    uint roundNumber;\n    Status status;\n    uint createdAt;\n    uint scheduledAt;\n    uint timeoutAt;\n    uint minBet;\n    uint hostBonus; // or: add directly to roundstats += hostBonus\n    uint hostFee;\n\n    bytes32 question;\n    Outcomes outcomes;\n    Results results;\n    Stats stats;\n    //    hash(opt) =>         player  => bet\n    mapping(bytes32 => mapping(address => uint)) playerBets;\n    //    hash(opt) => totalBets\n    mapping(bytes32 => uint) outcomePools;\n    mapping(bytes32 => uint) outcomeNumBets;\n  }\n\n  struct HostContext {\n    uint nextRoundNumber; // == numRoundsCreated\n    uint numRoundsSuccess;\n    uint numRoundsCancelled;\n    uint totalNumBets;\n    uint totalPoolSize;\n  }\n\n  //      host    =>  hash(host,id) => Round\n  mapping(address => mapping(bytes4 => Round)) rounds;\n\n  //      host    => stats\n  mapping(address => HostContext) public hostContext;\n\n  //      name   <=> host\n  mapping(bytes32 => address) public hostAddresses;\n  mapping(address => bytes32) public hostNames;\n\n  modifier roundExists(address _host, bytes4 _roundId) {\n    require(rounds[_host][_roundId].status != Status.UNDEFINED, HOST_OR_ROUND_NOT_FOUND);\n    _;\n  }\n\n  function getRound(address _host, bytes4 _roundId) private view returns (Round storage) {\n    return rounds[_host][_roundId];\n  }\n\n  // function getRoundId(address _host) public view returns (bytes4) {\n  //   uint nextRoundNumber = getNextRoundNumber(_host);\n  //   require(nextRoundNumber > 0);\n  //   bytes32 hash = keccak256(abi.encodePacked(_host, nextRoundNumber-1));\n  //   return bytes4(hash);\n  // }\n\n  // Frontend needs to fetch roundId of created round.\n  function getNextRoundId(address _host) public view returns (bytes4) {\n    uint nrn = hostContext[_host].nextRoundNumber;\n    bytes32 hash = keccak256(abi.encodePacked(_host, nrn));\n    return bytes4(hash);\n  }\n\n  function generateRoundId(address _host) private returns (uint, bytes4) {\n    uint roundNumber = hostContext[_host].nextRoundNumber;\n    bytes4 roundId = getNextRoundId(_host);\n    hostContext[_host].nextRoundNumber += 1;\n    return (roundNumber, roundId);\n  }\n\n  // ADD/TODO/TOTHINK?:\n  // - modeCode usefulness? e.g. 'winner-takes-it-all', '80-20', '66-33', '66-25-9', '50-25-12.5-6.25-3.125'\n  // configData[ scheduledAt, timeout, minBet, hostShare ]\n  // COSTS: 294518 gas -> @ 5Gwei: 1 dollar\n  function createRound(\n    bytes32 _question,\n    bytes32[] _outcomes,\n    uint[4] _configData, // array of format `[scheduledAt, timeout, minBet, hostFee]`\n    uint[] _payoutTiers\n  )\n    external\n    payable\n  {\n    require(_configData[0] == 0 || _configData[0] > now);\n    require(_configData[1] >= MIN_TIMEOUT);\n    require(_outcomes.length >= 2 && _outcomes.length <= MAX_OUTCOMES);\n    require(_configData[3] <= 100);\n    require(_payoutTiers.length <= _outcomes.length);\n\n    // Determine initial status depending on `scheduledAt`\n    // If scheduledAt == createdAt, the status is `Status.OPEN`\n    // If scheduledAt > createdAt, the status is `Status.SCHEDULED`\n    Status status = _configData[0] == 0 ? Status.OPEN : Status.SCHEDULED;\n    uint scheduledAt = _configData[0] == 0 ? _configData[1] : _configData[0];\n\n    Outcomes memory outcomes = Outcomes(\n      _outcomes,                        // outcomes\n      _payoutTiers                      // payout tiers in percent in DESC order\n    );\n\n    Results memory results = Results(\n      new uint[](_outcomes.length)      // payouts\n    );\n\n    Stats memory stats = Stats(\n      0,                                // numBets\n      msg.value                         // poolSize\n    );\n\n    uint roundNumber;\n    bytes4 roundId;\n    (roundNumber, roundId) = generateRoundId(msg.sender);\n\n    rounds[msg.sender][roundId] = Round(\n      roundNumber,\n      status,                           // initial status\n      now,                              // createdAt\n      scheduledAt,                      // scheduledAt\n      scheduledAt + _configData[1],     // timeoutAt\n      _configData[2],                   // minBet\n      msg.value,                        // hostBonus\n      _configData[3],                   // hostFee\n\n      _question,\n      outcomes,\n      results,\n      stats\n    );\n\n    emit RoundCreated(msg.sender, roundId);\n  }\n\n  function bet(address _host, bytes4 _roundId, bytes32 _outcomeId) external payable {\n    Round storage r = getRound(_host, _roundId);\n    require(r.status == Status.OPEN);\n\n    require(msg.value >= r.minBet);\n    require(r.outcomes.lookup[_outcomeId] == true);\n    require(now < r.timeoutAt);\n  \n    r.playerBets[_outcomeId][msg.sender] = r.playerBets[_outcomeId][msg.sender].add(msg.value);\n    r.outcomePools[_outcomeId] = r.outcomePools[_outcomeId].add(msg.value);\n    r.outcomeNumBets[_outcomeId] += 1;\n  } \n\n  function pickWinnerAndEnd(uint[] _picks, bytes4 _roundId) external payable {\n    Round storage r = getRound(msg.sender, _roundId);\n    require(r.status == Status.OPEN || r.status == Status.CLOSED);\n\n    require(_picks.length == r.outcomes.outcomes.length);\n    require(now < r.timeoutAt); // --> cancelInternal when timeoutAt reached? Nahh. move to Closed?\n\n    uint ownerFee = r.stats.poolSize.mul(FEE_PERCENT).div(100);\n    uint remainingPool = r.stats.poolSize - ownerFee;\n    uint hostFee = r.stats.poolSize.mul(r.hostFee).div(100);\n    remainingPool = remainingPool - hostFee;\n\n    uint allShares;\n    uint numBets;\n    uint poolSize;\n\n    for (uint i=0; i<_picks.length; i++) {\n      uint outcomeShare = _picks[i];\n      bytes32 outcomeId = getOutcomeId(r, i);\n\n      if(outcomeShare == 0) continue;\n\n      require(outcomeShare <= 100);\n      allShares += outcomeShare;\n\n      // populate lookup to simplify getter function `getRoundOutcomeWinShare`\n      r.results.outcomeWinShares[outcomeId] = outcomeShare;\n\n      // distribute round pool\n      r.results.payouts[i] = remainingPool.mul(outcomeShare).div(100);\n\n      numBets = numBets.add(r.outcomeNumBets[outcomeId]);\n      poolSize = poolSize.add(r.outcomePools[outcomeId]);\n    }\n    require(allShares == 100);\n\n    r.stats.numBets = numBets;\n    r.stats.poolSize = poolSize.add(msg.value);\n    hostContext[msg.sender].totalNumBets += r.stats.numBets;\n    hostContext[msg.sender].totalPoolSize += r.stats.poolSize;\n    hostContext[msg.sender].numRoundsSuccess += 1;\n    r.status = Status.FINISHED;\n\n    owner.transfer(ownerFee);\n    if (hostFee > 0) msg.sender.transfer(hostFee);\n\n    emit RoundFinished(msg.sender, _roundId);\n  }\n\n  function areValidPicks(uint[] memory _picks) private pure returns (bool) {\n    uint sum;\n    for (uint i=0; i<_picks.length; i++) {\n      sum += _picks[i];\n    }\n    return sum == 100;\n  }\n\n  function getOutcomeId(Round storage _round, uint _outcomeIndex) private view returns (bytes32) {\n    return keccak256(abi.encodePacked(_round.outcomes.outcomes[_outcomeIndex]));\n  }\n\n  function claimPayout(address _host, bytes4 _roundId) external {\n    Round storage r = getRound(_host, _roundId);\n    require(r.status == Status.FINISHED);\n    \n    uint myPayout;\n\n    for (uint i=0; i<r.outcomes.outcomes.length; i++) {\n      bytes32 outcomeId = getOutcomeId(r, i);\n      uint outcomeShare = r.results.outcomeWinShares[outcomeId];\n\n      if (outcomeShare == 0) {\n        continue;\n      }\n   \n      uint myOutcomePayout = getMyPayoutForOutcome(\n          r.playerBets[outcomeId][msg.sender],\n          outcomeShare,\n          r.outcomePools[outcomeId],\n          r.stats.poolSize\n      );\n\n      if (myOutcomePayout > 0) {\n        myPayout = myPayout.add(myOutcomePayout);\n\n        // Reset player bets so that they can't be claimed again\n        r.playerBets[outcomeId][msg.sender] = 0;\n      }\n\n      // Minor optimization that skips iterations in case an outcome got picked as only\n      // winner (outcomeShare == 100 (%)) which is expeceted to be often the case\n      if (outcomeShare == 100) {\n        break;\n      }\n    }\n\n    require(myPayout > 0);\n    msg.sender.transfer(myPayout);\n  }\n\n  function claimRefund(address _host, bytes4 _roundId) external {\n    Round storage r = getRound(_host, _roundId);\n    require(r.status == Status.CANCELLED || r.status == Status.TIMEOUT);\n\n    uint myRefund;\n\n    for(uint i=0; i<r.outcomes.outcomes.length; i++) {\n      bytes32 outcomeId = getOutcomeId(r, i);\n      myRefund = myRefund.add(r.playerBets[outcomeId][msg.sender]);\n      r.playerBets[outcomeId][msg.sender] = 0;\n    }\n\n    require(myRefund > 0);\n    msg.sender.transfer(myRefund);\n  }\n\n  function getMyPayoutForOutcome(uint _myBet, uint _outcomeShare, uint _outcomePool, uint _roundPool) pure private returns (uint) {\n    if (_myBet > 0) {\n      uint myOutcomeShare = (_myBet*1e20).div(_outcomePool);\n\n      uint myOutcomePayout = _roundPool\n          .mul(_outcomeShare)\n          .div(100)\n          .mul(myOutcomeShare)\n          .div(1e20);\n\n      return myOutcomePayout;\n    }\n    return 0;\n  }\n\n  function cancelRound(bytes4 _roundId) external {\n    Round storage r = getRound(msg.sender, _roundId);\n    require(r.status == Status.SCHEDULED || r.status == Status.OPEN);\n\n    rounds[msg.sender][_roundId].status = Status.CANCELLED;\n    hostContext[msg.sender].numRoundsCancelled += 1;\n    emit RoundCancelled(msg.sender, _roundId);\n  }\n\n\n  ///\n  /// Getters used by UI\n  ///\n\n  function getRoundInfo(bytes32 _hostName, bytes4 _roundId) \n    external\n    view // roundNumber, status, createdAt, timeoutAt, question, numOutcomes, numBets, poolSize, hostBonus, hostFee\n    returns (uint, uint, uint, uint, bytes32, uint, uint, uint, uint, uint)\n  {\n    require(hostAddresses[_hostName] != address(0), HOST_NAME_NOT_FOUND);\n    return getRoundInfo(hostAddresses[_hostName], _roundId);\n  }\n\n  function getRoundInfo(address _host, bytes4 _roundId)\n    public\n    view\n    roundExists(_host, _roundId)\n    // roundNumber, status, createdAt, timeoutAt, question, numOutcomes, numBets, poolSize, hostBonus, hostFee\n    returns (uint, uint, uint, uint, bytes32, uint, uint, uint, uint, uint)\n  {\n    Round storage r = getRound(_host, _roundId);\n    return (\n      r.roundNumber,\n      uint8(r.status),\n      r.createdAt,\n      r.timeoutAt,\n      r.question,\n      r.outcomes.outcomes.length,\n      r.stats.numBets,\n      r.stats.poolSize,\n      r.hostBonus,\n      r.hostFee\n    );\n  }\n\n  function getRoundOutcomes(bytes32 _hostName, bytes4 _roundId) external view returns (bytes32[]) {\n    require(hostAddresses[_hostName] != address(0), HOST_NAME_NOT_FOUND);\n    return getRoundOutcomes(hostAddresses[_hostName], _roundId);\n  }\n  \n  function getRoundOutcomes(address _host, bytes4 _roundId) public view roundExists(_host, _roundId) returns (bytes32[]) {\n    return rounds[_host][_roundId].outcomes.outcomes;\n  }\n\n  function getRoundOutcomePool(bytes32 _hostName, bytes4 _roundId, bytes32 _outcomeHash) external view returns (uint) {\n    require(hostAddresses[_hostName] != address(0), HOST_NAME_NOT_FOUND);\n    return getRoundOutcomePool(hostAddresses[_hostName], _roundId, _outcomeHash);\n  }\n  \n  function getRoundOutcomePool(address _host, bytes4 _roundId, bytes32 _outcomeHash) public view roundExists(_host, _roundId) returns (uint) {\n    return rounds[_host][_roundId].outcomePools[_outcomeHash];\n  }\n\n  function getRoundOutcomeNumBets(bytes32 _hostName, bytes4 _roundId, bytes32 _outcomeHash) external view returns (uint) {\n    require(hostAddresses[_hostName] != address(0), HOST_NAME_NOT_FOUND);\n    return getRoundOutcomeNumBets(hostAddresses[_hostName], _roundId, _outcomeHash);\n  }\n  \n  function getRoundOutcomeNumBets(address _host, bytes4 _roundId, bytes32 _outcomeHash) public view roundExists(_host, _roundId) returns (uint) {\n    return rounds[_host][_roundId].outcomeNumBets[_outcomeHash];\n  }\n\n  function getMyRoundOutcomeBet (bytes32 _hostName, bytes4 _roundId, bytes32 _outcomeHash) external view returns (uint) {\n    require(hostAddresses[_hostName] != address(0), HOST_NAME_NOT_FOUND);\n    return getMyRoundOutcomeBet(hostAddresses[_hostName], _roundId, _outcomeHash);\n  }\n  \n  function getMyRoundOutcomeBet (address _host, bytes4 _roundId, bytes32 _outcomeHash) public view roundExists(_host, _roundId) returns (uint) {\n    return rounds[_host][_roundId].playerBets[_outcomeHash][msg.sender];\n  }\n\n  function getRoundOutcomeWinShare (bytes32 _hostName, bytes4 _roundId, bytes32 _outcomeHash) external view returns (uint) {\n    require(hostAddresses[_hostName] != address(0), HOST_NAME_NOT_FOUND);\n    return getRoundOutcomeWinShare(hostAddresses[_hostName], _roundId, _outcomeHash);\n  }\n  \n  function getRoundOutcomeWinShare (address _host, bytes4 _roundId, bytes32 _outcomeHash) public view roundExists(_host, _roundId) returns (uint) {\n    return rounds[_host][_roundId].results.outcomeWinShares[_outcomeHash];\n  }\n\n  //                                          numRoundsCreated, numRoundsCancelled, numBets, poolSize\n  function getHostStats (address _host) external view returns (uint, uint, uint, uint) {\n    HostContext storage hc = hostContext[_host];\n    return (\n      hc.numRoundsSuccess,\n      hc.numRoundsCancelled,\n      hc.totalNumBets,\n      hc.totalPoolSize\n    );\n  }\n\n\n  ///\n  /// Management of `Username <-> address` mapping\n  ///\n\n  function registerRecord(bytes32 _name)\n    public\n  {\n    require(hostAddresses[_name] == address(0));\n    require(hostNames[msg.sender] == bytes32(0));\n\n    _setRecord(msg.sender, _name);\n  }\n\n  function deleteRecord()\n    public\n  {\n    bytes32 oldName = hostNames[msg.sender];\n    require(oldName[0] != 0);\n\n    _removeRecord(msg.sender, oldName);\n  }\n\n  function updateRecord(bytes32 _newName)\n    external\n  {\n    deleteRecord();\n    registerRecord(_newName);\n  }\n\n  function sudoDeleteRecord(bytes32 _name)\n    external\n    onlyOwner\n  {\n    address affectedAddress = hostAddresses[_name];\n    require(affectedAddress == address(0));\n\n    _removeRecord(affectedAddress, _name);\n  }\n\n  function _setRecord(\n    address _address,\n    bytes32 _name\n  )\n    private\n  {\n    hostAddresses[_name] = _address;\n    hostNames[_address] = _name;\n  }\n\n  function _removeRecord(\n    address _address,\n    bytes32 _name\n  )\n    private\n  {\n    delete hostAddresses[_name];\n    delete hostNames[_address];\n  }\n\n  function ()\n    external\n    payable\n  {\n    revert(); \n  }\n}",
  "sourcePath": "/home/mo/dev/betl/smart-contract/contracts/Betl.sol",
  "compiler": {
    "name": "solc",
    "version": "0.4.24+commit.e67f0147.Emscripten.clang"
  },
  "schemaVersion": "2.0.0",
  "updatedAt": "2018-06-26T09:41:34.309Z"
}