{
  "contractName": "Betl",
  "abi": [
    {
      "constant": true,
      "inputs": [
        {
          "name": "",
          "type": "address"
        }
      ],
      "name": "hostContext",
      "outputs": [
        {
          "name": "nextRoundNumber",
          "type": "uint256"
        },
        {
          "name": "numRoundsSuccess",
          "type": "uint256"
        },
        {
          "name": "numRoundsCancelled",
          "type": "uint256"
        },
        {
          "name": "totalNumBets",
          "type": "uint256"
        },
        {
          "name": "totalPoolSize",
          "type": "uint256"
        }
      ],
      "payable": false,
      "stateMutability": "view",
      "type": "function"
    },
    {
      "constant": false,
      "inputs": [],
      "name": "renounceOwnership",
      "outputs": [],
      "payable": false,
      "stateMutability": "nonpayable",
      "type": "function"
    },
    {
      "constant": true,
      "inputs": [],
      "name": "owner",
      "outputs": [
        {
          "name": "",
          "type": "address"
        }
      ],
      "payable": false,
      "stateMutability": "view",
      "type": "function"
    },
    {
      "constant": true,
      "inputs": [
        {
          "name": "",
          "type": "bytes32"
        }
      ],
      "name": "hostAddresses",
      "outputs": [
        {
          "name": "",
          "type": "address"
        }
      ],
      "payable": false,
      "stateMutability": "view",
      "type": "function"
    },
    {
      "constant": true,
      "inputs": [
        {
          "name": "",
          "type": "address"
        }
      ],
      "name": "hostNames",
      "outputs": [
        {
          "name": "",
          "type": "bytes32"
        }
      ],
      "payable": false,
      "stateMutability": "view",
      "type": "function"
    },
    {
      "constant": false,
      "inputs": [
        {
          "name": "_newOwner",
          "type": "address"
        }
      ],
      "name": "transferOwnership",
      "outputs": [],
      "payable": false,
      "stateMutability": "nonpayable",
      "type": "function"
    },
    {
      "payable": true,
      "stateMutability": "payable",
      "type": "fallback"
    },
    {
      "anonymous": false,
      "inputs": [
        {
          "indexed": true,
          "name": "host",
          "type": "address"
        },
        {
          "indexed": false,
          "name": "roundId",
          "type": "bytes4"
        }
      ],
      "name": "RoundCreated",
      "type": "event"
    },
    {
      "anonymous": false,
      "inputs": [
        {
          "indexed": true,
          "name": "host",
          "type": "address"
        },
        {
          "indexed": false,
          "name": "roundId",
          "type": "bytes4"
        }
      ],
      "name": "RoundFinished",
      "type": "event"
    },
    {
      "anonymous": false,
      "inputs": [
        {
          "indexed": true,
          "name": "host",
          "type": "address"
        },
        {
          "indexed": false,
          "name": "roundId",
          "type": "bytes4"
        }
      ],
      "name": "RoundCanceled",
      "type": "event"
    },
    {
      "anonymous": false,
      "inputs": [
        {
          "indexed": true,
          "name": "previousOwner",
          "type": "address"
        }
      ],
      "name": "OwnershipRenounced",
      "type": "event"
    },
    {
      "anonymous": false,
      "inputs": [
        {
          "indexed": true,
          "name": "previousOwner",
          "type": "address"
        },
        {
          "indexed": true,
          "name": "newOwner",
          "type": "address"
        }
      ],
      "name": "OwnershipTransferred",
      "type": "event"
    },
    {
      "constant": true,
      "inputs": [
        {
          "name": "_host",
          "type": "address"
        }
      ],
      "name": "getRoundId",
      "outputs": [
        {
          "name": "",
          "type": "bytes4"
        }
      ],
      "payable": false,
      "stateMutability": "view",
      "type": "function"
    },
    {
      "constant": true,
      "inputs": [
        {
          "name": "_host",
          "type": "address"
        }
      ],
      "name": "getNextRoundId",
      "outputs": [
        {
          "name": "",
          "type": "bytes4"
        }
      ],
      "payable": false,
      "stateMutability": "view",
      "type": "function"
    },
    {
      "constant": true,
      "inputs": [
        {
          "name": "_host",
          "type": "address"
        }
      ],
      "name": "getNextRoundNumber",
      "outputs": [
        {
          "name": "",
          "type": "uint256"
        }
      ],
      "payable": false,
      "stateMutability": "view",
      "type": "function"
    },
    {
      "constant": false,
      "inputs": [
        {
          "name": "_question",
          "type": "bytes32"
        },
        {
          "name": "_options",
          "type": "bytes32[]"
        },
        {
          "name": "_configData",
          "type": "uint256[]"
        },
        {
          "name": "_payoutTiers",
          "type": "uint256[]"
        }
      ],
      "name": "createRound",
      "outputs": [],
      "payable": true,
      "stateMutability": "payable",
      "type": "function"
    },
    {
      "constant": true,
      "inputs": [
        {
          "name": "_hostAddress",
          "type": "address"
        },
        {
          "name": "_roundId",
          "type": "bytes4"
        }
      ],
      "name": "getRound",
      "outputs": [
        {
          "name": "",
          "type": "uint256"
        },
        {
          "name": "",
          "type": "uint256"
        },
        {
          "name": "",
          "type": "uint256"
        },
        {
          "name": "",
          "type": "uint256"
        },
        {
          "name": "",
          "type": "bytes32"
        },
        {
          "name": "",
          "type": "uint256"
        },
        {
          "name": "",
          "type": "uint256"
        },
        {
          "name": "",
          "type": "uint256"
        }
      ],
      "payable": false,
      "stateMutability": "view",
      "type": "function"
    },
    {
      "constant": true,
      "inputs": [
        {
          "name": "_hostName",
          "type": "bytes32"
        },
        {
          "name": "_roundId",
          "type": "bytes4"
        }
      ],
      "name": "getRound",
      "outputs": [
        {
          "name": "",
          "type": "uint256"
        },
        {
          "name": "",
          "type": "uint256"
        },
        {
          "name": "",
          "type": "uint256"
        },
        {
          "name": "",
          "type": "uint256"
        },
        {
          "name": "",
          "type": "bytes32"
        },
        {
          "name": "",
          "type": "uint256"
        },
        {
          "name": "",
          "type": "uint256"
        },
        {
          "name": "",
          "type": "uint256"
        }
      ],
      "payable": false,
      "stateMutability": "view",
      "type": "function"
    },
    {
      "constant": true,
      "inputs": [
        {
          "name": "_host",
          "type": "address"
        }
      ],
      "name": "getRoundConfigForHost",
      "outputs": [
        {
          "name": "",
          "type": "uint256"
        },
        {
          "name": "",
          "type": "uint256"
        },
        {
          "name": "",
          "type": "uint256"
        },
        {
          "name": "",
          "type": "uint256"
        },
        {
          "name": "",
          "type": "uint256"
        },
        {
          "name": "",
          "type": "bool"
        }
      ],
      "payable": false,
      "stateMutability": "view",
      "type": "function"
    },
    {
      "constant": true,
      "inputs": [
        {
          "name": "_host",
          "type": "address"
        }
      ],
      "name": "getRoundStatsForHost",
      "outputs": [
        {
          "name": "",
          "type": "uint256"
        },
        {
          "name": "",
          "type": "uint256"
        },
        {
          "name": "",
          "type": "uint256"
        }
      ],
      "payable": false,
      "stateMutability": "view",
      "type": "function"
    },
    {
      "constant": true,
      "inputs": [
        {
          "name": "_host",
          "type": "address"
        }
      ],
      "name": "getRoundOptionsForHost",
      "outputs": [
        {
          "name": "",
          "type": "bytes32"
        },
        {
          "name": "",
          "type": "bytes32"
        },
        {
          "name": "",
          "type": "bytes32"
        },
        {
          "name": "",
          "type": "bytes32"
        },
        {
          "name": "",
          "type": "bytes32"
        }
      ],
      "payable": false,
      "stateMutability": "view",
      "type": "function"
    },
    {
      "constant": true,
      "inputs": [
        {
          "name": "_host",
          "type": "address"
        }
      ],
      "name": "getRoundOptionBetsForHost",
      "outputs": [
        {
          "name": "",
          "type": "uint256"
        },
        {
          "name": "",
          "type": "uint256"
        },
        {
          "name": "",
          "type": "uint256"
        },
        {
          "name": "",
          "type": "uint256"
        },
        {
          "name": "",
          "type": "uint256"
        }
      ],
      "payable": false,
      "stateMutability": "view",
      "type": "function"
    },
    {
      "constant": true,
      "inputs": [
        {
          "name": "_host",
          "type": "address"
        }
      ],
      "name": "getMyRoundOptionBetsForHost",
      "outputs": [
        {
          "name": "",
          "type": "uint256"
        },
        {
          "name": "",
          "type": "uint256"
        },
        {
          "name": "",
          "type": "uint256"
        },
        {
          "name": "",
          "type": "uint256"
        },
        {
          "name": "",
          "type": "uint256"
        }
      ],
      "payable": false,
      "stateMutability": "view",
      "type": "function"
    },
    {
      "constant": true,
      "inputs": [
        {
          "name": "_host",
          "type": "address"
        }
      ],
      "name": "getRoundPickedOptionsForHost",
      "outputs": [
        {
          "name": "",
          "type": "bool"
        },
        {
          "name": "",
          "type": "bool"
        },
        {
          "name": "",
          "type": "bool"
        },
        {
          "name": "",
          "type": "bool"
        },
        {
          "name": "",
          "type": "bool"
        }
      ],
      "payable": false,
      "stateMutability": "view",
      "type": "function"
    },
    {
      "constant": false,
      "inputs": [
        {
          "name": "_winners",
          "type": "uint256[]"
        }
      ],
      "name": "pickWinnerAndEnd",
      "outputs": [],
      "payable": true,
      "stateMutability": "payable",
      "type": "function"
    },
    {
      "constant": false,
      "inputs": [
        {
          "name": "_host",
          "type": "address"
        },
        {
          "name": "_roundId",
          "type": "bytes4"
        },
        {
          "name": "_optionId",
          "type": "bytes32"
        }
      ],
      "name": "bet",
      "outputs": [],
      "payable": true,
      "stateMutability": "payable",
      "type": "function"
    },
    {
      "constant": false,
      "inputs": [
        {
          "name": "_host",
          "type": "address"
        },
        {
          "name": "_roundId",
          "type": "bytes4"
        }
      ],
      "name": "claimPayout",
      "outputs": [],
      "payable": false,
      "stateMutability": "nonpayable",
      "type": "function"
    },
    {
      "constant": false,
      "inputs": [],
      "name": "cancelRound",
      "outputs": [],
      "payable": false,
      "stateMutability": "nonpayable",
      "type": "function"
    },
    {
      "constant": false,
      "inputs": [
        {
          "name": "_name",
          "type": "bytes32"
        }
      ],
      "name": "registerRecord",
      "outputs": [],
      "payable": false,
      "stateMutability": "nonpayable",
      "type": "function"
    },
    {
      "constant": false,
      "inputs": [],
      "name": "deleteRecord",
      "outputs": [],
      "payable": false,
      "stateMutability": "nonpayable",
      "type": "function"
    },
    {
      "constant": false,
      "inputs": [
        {
          "name": "_newName",
          "type": "bytes32"
        }
      ],
      "name": "updateRecord",
      "outputs": [],
      "payable": false,
      "stateMutability": "nonpayable",
      "type": "function"
    },
    {
      "constant": false,
      "inputs": [
        {
          "name": "_name",
          "type": "bytes32"
        }
      ],
      "name": "sudoDeleteRecord",
      "outputs": [],
      "payable": false,
      "stateMutability": "nonpayable",
      "type": "function"
    }
  ],
  "bytecode": "0x6080604052336000806101000a81548173ffffffffffffffffffffffffffffffffffffffff021916908373ffffffffffffffffffffffffffffffffffffffff1602179055506135c6806100536000396000f300608060405260043610610154576000357c0100000000000000000000000000000000000000000000000000000000900463ffffffff16806301186d9914610159578063034374151461018a57806304756f0b1461021f5780631584108b146102c65780631dd9fe431461033257806326c57935146103895780632f94175314610410578063471990ba1461043e5780634db24463146104b15780635de2e1171461054c57806365426a98146105b157806366d9e7d8146105c85780636f50c44b146105f9578063715018a61461062a5780637ddef9df146106415780638264d215146106fa57806385c092051461076d57806386a594d0146108025780638c7763cb146108195780638da5cb5b1461088c5780639dd4527d146108e3578063a070f04e14610954578063c4388eb0146109b3578063c5da399314610a31578063f2fde38b14610a9d578063f5309ec014610ae0575b600080fd5b34801561016557600080fd5b506101886004803603810190808035600019169060200190929190505050610b4d565b005b34801561019657600080fd5b506101cb600480360381019080803573ffffffffffffffffffffffffffffffffffffffff169060200190929190505050610b61565b60405180827bffffffffffffffffffffffffffffffffffffffffffffffffffffffff19167bffffffffffffffffffffffffffffffffffffffffffffffffffffffff1916815260200191505060405180910390f35b34801561022b57600080fd5b50610277600480360381019080803560001916906020019092919080357bffffffffffffffffffffffffffffffffffffffffffffffffffffffff19169060200190929190505050610c76565b6040518089815260200188815260200187815260200186815260200185600019166000191681526020018481526020018381526020018281526020019850505050505050505060405180910390f35b3480156102d257600080fd5b50610330600480360381019080803573ffffffffffffffffffffffffffffffffffffffff16906020019092919080357bffffffffffffffffffffffffffffffffffffffffffffffffffffffff19169060200190929190505050610dc4565b005b34801561033e57600080fd5b50610373600480360381019080803573ffffffffffffffffffffffffffffffffffffffff169060200190929190505050611468565b6040518082815260200191505060405180910390f35b34801561039557600080fd5b506103ca600480360381019080803573ffffffffffffffffffffffffffffffffffffffff1690602001909291905050506114b4565b6040518086151515158152602001851515151581526020018415151515815260200183151515158152602001821515151581526020019550505050505060405180910390f35b61043c6004803603810190808035906020019082018035906020019190919293919293905050506114c5565b005b34801561044a57600080fd5b5061047f600480360381019080803573ffffffffffffffffffffffffffffffffffffffff169060200190929190505050611a68565b604051808681526020018581526020018481526020018381526020018281526020019550505050505060405180910390f35b3480156104bd57600080fd5b506104f2600480360381019080803573ffffffffffffffffffffffffffffffffffffffff169060200190929190505050611a9e565b60405180866000191660001916815260200185600019166000191681526020018460001916600019168152602001836000191660001916815260200182600019166000191681526020019550505050505060405180910390f35b34801561055857600080fd5b5061058d600480360381019080803573ffffffffffffffffffffffffffffffffffffffff169060200190929190505050611aaf565b60405180848152602001838152602001828152602001935050505060405180910390f35b3480156105bd57600080fd5b506105c6611abb565b005b3480156105d457600080fd5b506105f76004803603810190808035600019169060200190929190505050611b91565b005b34801561060557600080fd5b506106286004803603810190808035600019169060200190929190505050611c69565b005b34801561063657600080fd5b5061063f611d4d565b005b34801561064d57600080fd5b506106ab600480360381019080803573ffffffffffffffffffffffffffffffffffffffff16906020019092919080357bffffffffffffffffffffffffffffffffffffffffffffffffffffffff19169060200190929190505050611e4f565b6040518089815260200188815260200187815260200186815260200185600019166000191681526020018481526020018381526020018281526020019850505050505050505060405180910390f35b34801561070657600080fd5b5061073b600480360381019080803573ffffffffffffffffffffffffffffffffffffffff1690602001909291905050506120e4565b604051808681526020018581526020018481526020018381526020018281526020019550505050505060405180910390f35b34801561077957600080fd5b506107ae600480360381019080803573ffffffffffffffffffffffffffffffffffffffff1690602001909291905050506120f5565b60405180827bffffffffffffffffffffffffffffffffffffffffffffffffffffffff19167bffffffffffffffffffffffffffffffffffffffffffffffffffffffff1916815260200191505060405180910390f35b34801561080e57600080fd5b506108176121e8565b005b34801561082557600080fd5b5061085a600480360381019080803573ffffffffffffffffffffffffffffffffffffffff169060200190929190505050612471565b604051808681526020018581526020018481526020018381526020018281526020019550505050505060405180910390f35b34801561089857600080fd5b506108a1612482565b604051808273ffffffffffffffffffffffffffffffffffffffff1673ffffffffffffffffffffffffffffffffffffffff16815260200191505060405180910390f35b3480156108ef57600080fd5b5061091260048036038101908080356000191690602001909291905050506124a7565b604051808273ffffffffffffffffffffffffffffffffffffffff1673ffffffffffffffffffffffffffffffffffffffff16815260200191505060405180910390f35b34801561096057600080fd5b50610995600480360381019080803573ffffffffffffffffffffffffffffffffffffffff1690602001909291905050506124da565b60405180826000191660001916815260200191505060405180910390f35b3480156109bf57600080fd5b506109f4600480360381019080803573ffffffffffffffffffffffffffffffffffffffff1690602001909291905050506124f2565b6040518087815260200186815260200185815260200184815260200183815260200182151515158152602001965050505050505060405180910390f35b610a9b6004803603810190808035600019169060200190929190803590602001908201803590602001919091929391929390803590602001908201803590602001919091929391929390803590602001908201803590602001919091929391929390505050612504565b005b348015610aa957600080fd5b50610ade600480360381019080803573ffffffffffffffffffffffffffffffffffffffff169060200190929190505050612a54565b005b610b4b600480360381019080803573ffffffffffffffffffffffffffffffffffffffff16906020019092919080357bffffffffffffffffffffffffffffffffffffffffffffffffffffffff191690602001909291908035600019169060200190929190505050612abb565b005b610b55611abb565b610b5e81611b91565b50565b60008082600260008573ffffffffffffffffffffffffffffffffffffffff1673ffffffffffffffffffffffffffffffffffffffff16815260200190815260200160002060000154604051602001808373ffffffffffffffffffffffffffffffffffffffff1673ffffffffffffffffffffffffffffffffffffffff166c01000000000000000000000000028152601401828152602001925050506040516020818303038152906040526040518082805190602001908083835b602083101515610c3e5780518252602082019150602081019050602083039250610c19565b6001836020036101000a0380198251168184511680821785525050505050509050019150506040518091039020905080915050919050565b600080600080600080600080600073ffffffffffffffffffffffffffffffffffffffff16600360008c6000191660001916815260200190815260200160002060009054906101000a900473ffffffffffffffffffffffffffffffffffffffff1673ffffffffffffffffffffffffffffffffffffffff1614151515610d62576040517f08c379a00000000000000000000000000000000000000000000000000000000081526004018080602001828103825260138152602001807f486f737420646f6573206e6f742065786973740000000000000000000000000081525060200191505060405180910390fd5b610da7600360008c6000191660001916815260200190815260200160002060009054906101000a900473ffffffffffffffffffffffffffffffffffffffff168a611e4f565b975097509750975097509750975097509295985092959890939650565b6000806000806000806000806000610ddb8b6120f5565b7bffffffffffffffffffffffffffffffffffffffffffffffffffffffff19168a7bffffffffffffffffffffffffffffffffffffffffffffffffffffffff1916141515610e2657600080fd5b60036005811115610e3357fe5b600160008d73ffffffffffffffffffffffffffffffffffffffff1673ffffffffffffffffffffffffffffffffffffffff16815260200190815260200160002060008c7bffffffffffffffffffffffffffffffffffffffffffffffffffffffff19167bffffffffffffffffffffffffffffffffffffffffffffffffffffffff1916815260200190815260200160002060010160009054906101000a900460ff166005811115610edd57fe5b141515610ee957600080fd5b600160008c73ffffffffffffffffffffffffffffffffffffffff1673ffffffffffffffffffffffffffffffffffffffff16815260200190815260200160002060008b7bffffffffffffffffffffffffffffffffffffffffffffffffffffffff19167bffffffffffffffffffffffffffffffffffffffffffffffffffffffff19168152602001908152602001600020600b019750600160008c73ffffffffffffffffffffffffffffffffffffffff1673ffffffffffffffffffffffffffffffffffffffff16815260200190815260200160002060008b7bffffffffffffffffffffffffffffffffffffffffffffffffffffffff19167bffffffffffffffffffffffffffffffffffffffffffffffffffffffff19168152602001908152602001600020600d01600101549650600095505b876000018054905086101561140557876000018681548110151561103857fe5b90600052602060002001549450600160008c73ffffffffffffffffffffffffffffffffffffffff1673ffffffffffffffffffffffffffffffffffffffff16815260200190815260200160002060008b7bffffffffffffffffffffffffffffffffffffffffffffffffffffffff19167bffffffffffffffffffffffffffffffffffffffffffffffffffffffff19168152602001908152602001600020600f016000866000191660001916815260200190815260200160002060003373ffffffffffffffffffffffffffffffffffffffff1673ffffffffffffffffffffffffffffffffffffffff16815260200190815260200160002054935060008411156113f857611200600160008d73ffffffffffffffffffffffffffffffffffffffff1673ffffffffffffffffffffffffffffffffffffffff16815260200190815260200160002060008c7bffffffffffffffffffffffffffffffffffffffffffffffffffffffff19167bffffffffffffffffffffffffffffffffffffffffffffffffffffffff19168152602001908152602001600020601001600087600019166000191681526020019081526020016000205468056bc75e2d6310000086026130da90919063ffffffff16565b9250600160008c73ffffffffffffffffffffffffffffffffffffffff1673ffffffffffffffffffffffffffffffffffffffff16815260200190815260200160002060008b7bffffffffffffffffffffffffffffffffffffffffffffffffffffffff19167bffffffffffffffffffffffffffffffffffffffffffffffffffffffff19168152602001908152602001600020600701600301868154811015156112a357fe5b9060005260206000200154915061130368056bc75e2d631000006112f5856112e760646112d9888e6130f090919063ffffffff16565b6130da90919063ffffffff16565b6130f090919063ffffffff16565b6130da90919063ffffffff16565b905080890198506000600160008d73ffffffffffffffffffffffffffffffffffffffff1673ffffffffffffffffffffffffffffffffffffffff16815260200190815260200160002060008c7bffffffffffffffffffffffffffffffffffffffffffffffffffffffff19167bffffffffffffffffffffffffffffffffffffffffffffffffffffffff19168152602001908152602001600020600f016000876000191660001916815260200190815260200160002060003373ffffffffffffffffffffffffffffffffffffffff1673ffffffffffffffffffffffffffffffffffffffff168152602001908152602001600020819055505b8580600101965050611018565b60008911151561141457600080fd5b3373ffffffffffffffffffffffffffffffffffffffff166108fc8a9081150290604051600060405180830381858888f1935050505015801561145a573d6000803e3d6000fd5b505050505050505050505050565b6000600260008373ffffffffffffffffffffffffffffffffffffffff1673ffffffffffffffffffffffffffffffffffffffff168152602001908152602001600020600001549050919050565b600080600080600091939590929450565b6000806114d1336120f5565b9150600160003373ffffffffffffffffffffffffffffffffffffffff1673ffffffffffffffffffffffffffffffffffffffff1681526020019081526020016000206000837bffffffffffffffffffffffffffffffffffffffffffffffffffffffff19167bffffffffffffffffffffffffffffffffffffffffffffffffffffffff1916815260200190815260200160002060010160009054906101000a900460ff1690506001600581111561158157fe5b81600581111561158d57fe5b14806115af5750600260058111156115a157fe5b8160058111156115ad57fe5b145b15156115ba57600080fd5b600160003373ffffffffffffffffffffffffffffffffffffffff1673ffffffffffffffffffffffffffffffffffffffff1681526020019081526020016000206000837bffffffffffffffffffffffffffffffffffffffffffffffffffffffff19167bffffffffffffffffffffffffffffffffffffffffffffffffffffffff1916815260200190815260200160002060070160000154848490501115151561166057600080fd5b600160003373ffffffffffffffffffffffffffffffffffffffff1673ffffffffffffffffffffffffffffffffffffffff1681526020019081526020016000206000837bffffffffffffffffffffffffffffffffffffffffffffffffffffffff19167bffffffffffffffffffffffffffffffffffffffffffffffffffffffff19168152602001908152602001600020600301600101544210151561170257600080fd5b600160003373ffffffffffffffffffffffffffffffffffffffff1673ffffffffffffffffffffffffffffffffffffffff1681526020019081526020016000206000837bffffffffffffffffffffffffffffffffffffffffffffffffffffffff19167bffffffffffffffffffffffffffffffffffffffffffffffffffffffff19168152602001908152602001600020600d0160000154600260003373ffffffffffffffffffffffffffffffffffffffff1673ffffffffffffffffffffffffffffffffffffffff1681526020019081526020016000206003016000828254019250508190555034600160003373ffffffffffffffffffffffffffffffffffffffff1673ffffffffffffffffffffffffffffffffffffffff1681526020019081526020016000206000847bffffffffffffffffffffffffffffffffffffffffffffffffffffffff19167bffffffffffffffffffffffffffffffffffffffffffffffffffffffff19168152602001908152602001600020600d016001015401600260003373ffffffffffffffffffffffffffffffffffffffff1673ffffffffffffffffffffffffffffffffffffffff168152602001908152602001600020600401600082825401925050819055506001600260003373ffffffffffffffffffffffffffffffffffffffff1673ffffffffffffffffffffffffffffffffffffffff168152602001908152602001600020600101600082825401925050819055506003600581111561192a57fe5b600160003373ffffffffffffffffffffffffffffffffffffffff1673ffffffffffffffffffffffffffffffffffffffff1681526020019081526020016000206000847bffffffffffffffffffffffffffffffffffffffffffffffffffffffff19167bffffffffffffffffffffffffffffffffffffffffffffffffffffffff1916815260200190815260200160002060010160009054906101000a900460ff1660058111156119d457fe5b50503373ffffffffffffffffffffffffffffffffffffffff167f4cdf964e6e89934ffc032ff3f5be1525aa747560a07d9e380c8bead358e6febd8360405180827bffffffffffffffffffffffffffffffffffffffffffffffffffffffff19167bffffffffffffffffffffffffffffffffffffffffffffffffffffffff1916815260200191505060405180910390a250505050565b60026020528060005260406000206000915090508060000154908060010154908060020154908060030154908060040154905085565b600080600080600091939590929450565b60008060009193909250565b6000600460003373ffffffffffffffffffffffffffffffffffffffff1673ffffffffffffffffffffffffffffffffffffffff16815260200190815260200160002054905060007f010000000000000000000000000000000000000000000000000000000000000002816000602081101515611b3257fe5b1a7f0100000000000000000000000000000000000000000000000000000000000000027effffffffffffffffffffffffffffffffffffffffffffffffffffffffffffff191614151515611b8457600080fd5b611b8e3382613128565b50565b600073ffffffffffffffffffffffffffffffffffffffff1660036000836000191660001916815260200190815260200160002060009054906101000a900473ffffffffffffffffffffffffffffffffffffffff1673ffffffffffffffffffffffffffffffffffffffff16141515611c0757600080fd5b6000600102600460003373ffffffffffffffffffffffffffffffffffffffff1673ffffffffffffffffffffffffffffffffffffffff1681526020019081526020016000205460001916141515611c5c57600080fd5b611c6633826131ad565b50565b60008060009054906101000a900473ffffffffffffffffffffffffffffffffffffffff1673ffffffffffffffffffffffffffffffffffffffff163373ffffffffffffffffffffffffffffffffffffffff16141515611cc657600080fd5b60036000836000191660001916815260200190815260200160002060009054906101000a900473ffffffffffffffffffffffffffffffffffffffff169050600073ffffffffffffffffffffffffffffffffffffffff168173ffffffffffffffffffffffffffffffffffffffff16141515611d3f57600080fd5b611d498183613128565b5050565b6000809054906101000a900473ffffffffffffffffffffffffffffffffffffffff1673ffffffffffffffffffffffffffffffffffffffff163373ffffffffffffffffffffffffffffffffffffffff16141515611da857600080fd5b6000809054906101000a900473ffffffffffffffffffffffffffffffffffffffff1673ffffffffffffffffffffffffffffffffffffffff167ff8df31144d9c2f0f6b59d69b8b98abd5459d07f2742c4df920b25aae33c6482060405160405180910390a260008060006101000a81548173ffffffffffffffffffffffffffffffffffffffff021916908373ffffffffffffffffffffffffffffffffffffffff160217905550565b600080600080600080600080600080600260008d73ffffffffffffffffffffffffffffffffffffffff1673ffffffffffffffffffffffffffffffffffffffff168152602001908152602001600020600001549150600082111515611f41576040517f08c379a00000000000000000000000000000000000000000000000000000000081526004018080602001828103825260228152602001807f486f737420686173206e6f74206372656174656420616e7920726f756e64207981526020017f657400000000000000000000000000000000000000000000000000000000000081525060400191505060405180910390fd5b600160008d73ffffffffffffffffffffffffffffffffffffffff1673ffffffffffffffffffffffffffffffffffffffff16815260200190815260200160002060008c7bffffffffffffffffffffffffffffffffffffffffffffffffffffffff19167bffffffffffffffffffffffffffffffffffffffffffffffffffffffff19168152602001908152602001600020905060006005811115611fde57fe5b8160010160009054906101000a900460ff166005811115611ffb57fe5b14151515612071576040517f08c379a00000000000000000000000000000000000000000000000000000000081526004018080602001828103825260148152602001807f526f756e6420646f6573206e6f7420657869737400000000000000000000000081525060200191505060405180910390fd5b600182038160010160009054906101000a900460ff16600581111561209257fe5b826003016000015483600301600101548460020154856007016000015486600d016000015487600d01600101548660ff1696509950995099509950995099509950995050509295985092959890939650565b600080600080600091939590929450565b600080600061210384611468565b915060008211151561211457600080fd5b8360018303604051602001808373ffffffffffffffffffffffffffffffffffffffff1673ffffffffffffffffffffffffffffffffffffffff166c01000000000000000000000000028152601401828152602001925050506040516020818303038152906040526040518082805190602001908083835b6020831015156121af578051825260208201915060208101905060208303925061218a565b6001836020036101000a038019825116818451168082178552505050505050905001915050604051809103902090508092505050919050565b6000806121f4336120f5565b9150600160003373ffffffffffffffffffffffffffffffffffffffff1673ffffffffffffffffffffffffffffffffffffffff1681526020019081526020016000206000837bffffffffffffffffffffffffffffffffffffffffffffffffffffffff19167bffffffffffffffffffffffffffffffffffffffffffffffffffffffff1916815260200190815260200160002060010160009054906101000a900460ff169050600060058111156122a457fe5b8160058111156122b057fe5b14806122d25750600160058111156122c457fe5b8160058111156122d057fe5b145b15156122dd57600080fd5b6004600160003373ffffffffffffffffffffffffffffffffffffffff1673ffffffffffffffffffffffffffffffffffffffff1681526020019081526020016000206000847bffffffffffffffffffffffffffffffffffffffffffffffffffffffff19167bffffffffffffffffffffffffffffffffffffffffffffffffffffffff1916815260200190815260200160002060010160006101000a81548160ff0219169083600581111561238b57fe5b02179055506001600260003373ffffffffffffffffffffffffffffffffffffffff1673ffffffffffffffffffffffffffffffffffffffff168152602001908152602001600020600201600082825401925050819055503373ffffffffffffffffffffffffffffffffffffffff167f49dfec2e2e317e8070427c11252213b653bc1379b7255378fffc5c13a29ec7e18360405180827bffffffffffffffffffffffffffffffffffffffffffffffffffffffff19167bffffffffffffffffffffffffffffffffffffffffffffffffffffffff1916815260200191505060405180910390a25050565b600080600080600091939590929450565b6000809054906101000a900473ffffffffffffffffffffffffffffffffffffffff1681565b60036020528060005260406000206000915054906101000a900473ffffffffffffffffffffffffffffffffffffffff1681565b60046020528060005260406000206000915090505481565b60008060008060008091939550919395565b600061250e61334d565b612516613376565b61251e613398565b6125266133b2565b61252e6133cc565b6000603c8b8b6000818110151561254157fe5b905060200201351015151561255557600080fd5b60028d8d90501015151561256857600080fd5b60648b8b6002818110151561257957fe5b905060200201351115151561258d57600080fd5b8c8c905089899050111515156125a257600080fd5b6125ab33611468565b96506080604051908101604052804281526020018c8c600081811015156125ce57fe5b90506020020135420181526020018c8c600181811015156125eb57fe5b9050602002013581526020013481525095506060604051908101604052808e8e905081526020018e8e8080602002602001604051908101604052809392919081815260200183836020028082843782019150505050505081526020018a8a808060200260200160405190810160405280939291908181526020018383602002808284378201915050505050508152509450604080519081016040528060006040519080825280602002602001820160405280156126b75781602001602082028038833980820191505090505b50815260200160006040519080825280602002602001820160405280156126ed5781602001602082028038833980820191505090505b50815250935060408051908101604052806000815260200134815250925060e0604051908101604052808881526020016001600581111561272a57fe5b81526020018f60001916815260200187815260200186815260200185815260200184815250915061275a33610b61565b905081600160003373ffffffffffffffffffffffffffffffffffffffff1673ffffffffffffffffffffffffffffffffffffffff1681526020019081526020016000206000837bffffffffffffffffffffffffffffffffffffffffffffffffffffffff19167bffffffffffffffffffffffffffffffffffffffffffffffffffffffff191681526020019081526020016000206000820151816000015560208201518160010160006101000a81548160ff0219169083600581111561281957fe5b021790555060408201518160020190600019169055606082015181600301600082015181600001556020820151816001015560408201518160020155606082015181600301555050608082015181600701600082015181600001556020820151816001019080519060200190612890929190613431565b5060408201518160030190805190602001906128ad929190613484565b50505060a082015181600b0160008201518160000190805190602001906128d5929190613431565b5060208201518160010190805190602001906128f2929190613484565b50505060c082015181600d01600082015181600001556020820151816001015550509050506001600260003373ffffffffffffffffffffffffffffffffffffffff1673ffffffffffffffffffffffffffffffffffffffff1681526020019081526020016000206000016000828254019250508190555034600260003373ffffffffffffffffffffffffffffffffffffffff1673ffffffffffffffffffffffffffffffffffffffff168152602001908152602001600020600401600082825401925050819055503373ffffffffffffffffffffffffffffffffffffffff167f38200ecf62e44ebceaabbd4292688e3e06ac3bdaf612a0287f9d1d7f0e3e5ad08260405180827bffffffffffffffffffffffffffffffffffffffffffffffffffffffff19167bffffffffffffffffffffffffffffffffffffffffffffffffffffffff1916815260200191505060405180910390a25050505050505050505050505050565b6000809054906101000a900473ffffffffffffffffffffffffffffffffffffffff1673ffffffffffffffffffffffffffffffffffffffff163373ffffffffffffffffffffffffffffffffffffffff16141515612aaf57600080fd5b612ab881613253565b50565b612ac4836120f5565b7bffffffffffffffffffffffffffffffffffffffffffffffffffffffff1916827bffffffffffffffffffffffffffffffffffffffffffffffffffffffff1916141515612b0f57600080fd5b60016005811115612b1c57fe5b600160008573ffffffffffffffffffffffffffffffffffffffff1673ffffffffffffffffffffffffffffffffffffffff1681526020019081526020016000206000847bffffffffffffffffffffffffffffffffffffffffffffffffffffffff19167bffffffffffffffffffffffffffffffffffffffffffffffffffffffff1916815260200190815260200160002060010160009054906101000a900460ff166005811115612bc657fe5b141515612bd257600080fd5b600160008473ffffffffffffffffffffffffffffffffffffffff1673ffffffffffffffffffffffffffffffffffffffff1681526020019081526020016000206000837bffffffffffffffffffffffffffffffffffffffffffffffffffffffff19167bffffffffffffffffffffffffffffffffffffffffffffffffffffffff19168152602001908152602001600020600301600201543410151515612c7557600080fd5b60011515600160008573ffffffffffffffffffffffffffffffffffffffff1673ffffffffffffffffffffffffffffffffffffffff1681526020019081526020016000206000847bffffffffffffffffffffffffffffffffffffffffffffffffffffffff19167bffffffffffffffffffffffffffffffffffffffffffffffffffffffff191681526020019081526020016000206007016002016000836000191660001916815260200190815260200160002060009054906101000a900460ff161515141515612d4257600080fd5b600160008473ffffffffffffffffffffffffffffffffffffffff1673ffffffffffffffffffffffffffffffffffffffff1681526020019081526020016000206000837bffffffffffffffffffffffffffffffffffffffffffffffffffffffff19167bffffffffffffffffffffffffffffffffffffffffffffffffffffffff191681526020019081526020016000206003016001015442101515612de457600080fd5b34600160008573ffffffffffffffffffffffffffffffffffffffff1673ffffffffffffffffffffffffffffffffffffffff1681526020019081526020016000206000847bffffffffffffffffffffffffffffffffffffffffffffffffffffffff19167bffffffffffffffffffffffffffffffffffffffffffffffffffffffff19168152602001908152602001600020600f016000836000191660001916815260200190815260200160002060003373ffffffffffffffffffffffffffffffffffffffff1673ffffffffffffffffffffffffffffffffffffffff1681526020019081526020016000206000828254019250508190555034600160008573ffffffffffffffffffffffffffffffffffffffff1673ffffffffffffffffffffffffffffffffffffffff1681526020019081526020016000206000847bffffffffffffffffffffffffffffffffffffffffffffffffffffffff19167bffffffffffffffffffffffffffffffffffffffffffffffffffffffff19168152602001908152602001600020601001600083600019166000191681526020019081526020016000206000828254019250508190555060018060008573ffffffffffffffffffffffffffffffffffffffff1673ffffffffffffffffffffffffffffffffffffffff1681526020019081526020016000206000847bffffffffffffffffffffffffffffffffffffffffffffffffffffffff19167bffffffffffffffffffffffffffffffffffffffffffffffffffffffff19168152602001908152602001600020600d016000016000828254019250508190555034600160008573ffffffffffffffffffffffffffffffffffffffff1673ffffffffffffffffffffffffffffffffffffffff1681526020019081526020016000206000847bffffffffffffffffffffffffffffffffffffffffffffffffffffffff19167bffffffffffffffffffffffffffffffffffffffffffffffffffffffff19168152602001908152602001600020600d0160010160008282540192505081905550505050565b600081838115156130e757fe5b04905092915050565b6000808314156131035760009050613122565b818302905081838281151561311457fe5b0414151561311e57fe5b8090505b92915050565b60036000826000191660001916815260200190815260200160002060006101000a81549073ffffffffffffffffffffffffffffffffffffffff0219169055600460008373ffffffffffffffffffffffffffffffffffffffff1673ffffffffffffffffffffffffffffffffffffffff168152602001908152602001600020600090555050565b8160036000836000191660001916815260200190815260200160002060006101000a81548173ffffffffffffffffffffffffffffffffffffffff021916908373ffffffffffffffffffffffffffffffffffffffff16021790555080600460008473ffffffffffffffffffffffffffffffffffffffff1673ffffffffffffffffffffffffffffffffffffffff16815260200190815260200160002081600019169055505050565b600073ffffffffffffffffffffffffffffffffffffffff168173ffffffffffffffffffffffffffffffffffffffff161415151561328f57600080fd5b8073ffffffffffffffffffffffffffffffffffffffff166000809054906101000a900473ffffffffffffffffffffffffffffffffffffffff1673ffffffffffffffffffffffffffffffffffffffff167f8be0079c531659141344cd1fd0a4f28419497f9722a3daafe3b4186f6b6457e060405160405180910390a3806000806101000a81548173ffffffffffffffffffffffffffffffffffffffff021916908373ffffffffffffffffffffffffffffffffffffffff16021790555050565b608060405190810160405280600081526020016000815260200160008152602001600081525090565b6060604051908101604052806000815260200160608152602001606081525090565b604080519081016040528060608152602001606081525090565b604080519081016040528060008152602001600081525090565b6101c06040519081016040528060008152602001600060058111156133ed57fe5b8152602001600080191681526020016134046134d1565b81526020016134116134fa565b815260200161341e61351c565b815260200161342b613536565b81525090565b828054828255906000526020600020908101928215613473579160200282015b82811115613472578251829060001916905591602001919060010190613451565b5b5090506134809190613550565b5090565b8280548282559060005260206000209081019282156134c0579160200282015b828111156134bf5782518255916020019190600101906134a4565b5b5090506134cd9190613575565b5090565b608060405190810160405280600081526020016000815260200160008152602001600081525090565b6060604051908101604052806000815260200160608152602001606081525090565b604080519081016040528060608152602001606081525090565b604080519081016040528060008152602001600081525090565b61357291905b8082111561356e576000816000905550600101613556565b5090565b90565b61359791905b8082111561359357600081600090555060010161357b565b5090565b905600a165627a7a723058206ec5112d0e64267ba0c54f5f5335d760b1e2717d7fec9d9ffe9db92ea58b9e3a0029",
  "source": "pragma solidity ^0.4.24;\n\nimport 'openzeppelin-solidity/contracts/ownership/Ownable.sol';\nimport 'openzeppelin-solidity/contracts/math/SafeMath.sol';\n\ncontract Betl is Ownable {\n  using SafeMath for uint;\n\n  uint private constant FEE_PERCENT = 1;\n  uint private constant MIN_TIMEOUT = 1 minutes;\n  uint private constant MODE_WHATEVER = 0;       // usecase for modes?\n\n  enum Status {\n    UNDEFINED,\n    OPEN,\n    CLOSED,\n    FINISHED,\n    CANCELLED,\n    TIMEOUT\n  }\n\n  event RoundCreated(address indexed host, bytes4 roundId);\n  event RoundFinished(address indexed host, bytes4 roundId);\n  event RoundCanceled(address indexed host, bytes4 roundId);\n\n  // Eventually divide into RoundConfig and RoundConfigExt. First one mandatory, latter optional\n  // Default config: one winner, who takes it all.\n  struct RoundConfig {\n    uint createdAt;\n    uint timeoutAt;\n    uint minBet;\n    uint hostBonus; // or: add directly to roundstats += hostBonus\n  }\n\n  struct RoundOptions {\n    uint numOptions;\n    bytes32[] options;\n    mapping(bytes32 => bool) optionLookup;\n    // Specifies payout distributions in case multiple winners are possible\n    // Example: When there are 3 winners, this array can be [60, 30, 10] ==> in percents, must sum to 100.\n    // winnerTiers.length <= numOptions\n    uint[] payoutTiers;\n    //bool hasFlexOptions;\n  }\n\n  // has to be aligned with RoundConfig(Ext)\n  struct RoundResults {\n    // can only contain 1 winner, or multiple ones. Primary winner specified first followed by lower tier orders in DESC order\n    bytes32[] pickedOptions;\n    uint[] optionPayouts; // in wei\n  }\n\n  struct RoundStats {\n    uint numBets;\n    uint poolSize;\n  }\n\n  struct Round {\n    uint id;\n    Status status;\n    bytes32 question;\n    RoundConfig config;\n    RoundOptions options;\n    RoundResults results;\n    RoundStats stats;\n    //    hash(opt) =>         player  => bet\n    mapping(bytes32 => mapping(address => uint)) playerBets;\n    //    hash(opt) => totalBets\n    mapping(bytes32 => uint) optionBets;\n  }\n\n  struct HostContext {\n    uint nextRoundNumber; // == numRoundsCreated\n    uint numRoundsSuccess;\n    uint numRoundsCancelled;\n    uint totalNumBets;\n    uint totalPoolSize;\n  }\n\n  //      host    =>  hash(host,id) => Round\n  mapping(address => mapping(bytes4 => Round)) rounds;\n\n  //      host    => stats\n  mapping(address => HostContext) public hostContext;\n\n  //      name   <=> host\n  mapping(bytes32 => address) public hostAddresses;\n  mapping(address => bytes32) public hostNames;\n\n  // function getRoundId(address _host)\n  //   public\n  //   view\n  //   returns (bytes4)\n  // {\n  //   return bytes4(keccak256(abi.encodePacked(_host, hostContext[_host].nextRoundId)));\n  // }\n  function getRoundId(address _host) public view returns (bytes4) {\n    uint nextRoundNumber = getNextRoundNumber(_host);\n    require(nextRoundNumber > 0);\n    bytes32 hash = keccak256(abi.encodePacked(_host, nextRoundNumber-1));\n    return bytes4(hash);\n  }\n\n  function getNextRoundId(address _host) public view returns (bytes4) {\n    bytes32 hash = keccak256(abi.encodePacked(_host, hostContext[_host].nextRoundNumber));\n    return bytes4(hash);\n  }\n\n  function getNextRoundNumber(address _host) public view returns (uint) {\n    return hostContext[_host].nextRoundNumber;\n  }\n\n  // ADD/TODO/TOTHINK?:\n  // - bool _hasMultipleWinners --> rather no. Host has no reason to cheat --> loss of reputation\n  // - modeCode usefulness?\n  // configData[ timeout, minBet, hostShare ]\n  // COSTS: 294518 gas -> @ 5Gwei: 1 dollar\n  function createRound (\n    bytes32 _question,\n    bytes32[] _options,\n    uint[] _configData,\n    uint[] _payoutTiers\n    //bool _hasFlexOptions\n  )\n    external\n    payable\n  {\n    require(_configData[0] >= MIN_TIMEOUT);\n    require(_options.length >= 2);// || _hasFlexOptions == true);\n    require(_configData[2] <= 100);\n    require(_payoutTiers.length <= _options.length);\n\n    uint id = getNextRoundNumber(msg.sender);\n    // TODO: check if we really need this check\n    // if (id > 0) {\n    //   Status status = rounds[msg.sender][getRoundId(msg.sender)].status;\n    //   require(status == Status.FINISHED ||\n    //     status == Status.CANCELLED || \n    //     status == Status.TIMEOUT);\n    // }\n    //require(hostContext[msg.sender].roundIdLookup[_roundId] == false);\n\n    RoundConfig memory config = RoundConfig(\n      now,\n      now + _configData[0],\n      _configData[1],\n      msg.value\n    );\n\n    RoundOptions memory options = RoundOptions(\n      _options.length,\n      _options,\n      _payoutTiers\n    );\n\n    RoundResults memory results = RoundResults(\n      new bytes32[](0),\n      new uint[](0)\n    );\n\n    RoundStats memory stats = RoundStats(\n      0,\n      msg.value\n    );\n\n    Round memory round = Round(\n      id,\n      Status.OPEN,\n      _question,\n      config,\n      options,\n      results,\n      stats\n    );\n    \n    bytes4 roundId = getNextRoundId(msg.sender);\n    rounds[msg.sender][roundId] = round;\n\n    // post creation\n    hostContext[msg.sender].nextRoundNumber += 1;\n    hostContext[msg.sender].totalPoolSize += msg.value;\n\n    emit RoundCreated(msg.sender, roundId);\n  }\n\n  function getRound (address _hostAddress, bytes4 _roundId)\n    public\n    view // status, createdAt, timeoutAt, question, numOptions, numBets, poolSize\n    returns (uint, uint, uint, uint, bytes32, uint, uint, uint)\n  {\n    uint nextRoundNumber = hostContext[_hostAddress].nextRoundNumber;\n    require(nextRoundNumber > 0, 'Host has not created any round yet');\n    Round storage round = rounds[_hostAddress][_roundId];\n    require(round.status != Status.UNDEFINED, 'Round does not exist');\n\n    return (\n      nextRoundNumber-1,\n      uint8(round.status),\n      round.config.createdAt,\n      round.config.timeoutAt,\n      round.question,\n      round.options.numOptions,\n      round.stats.numBets,\n      round.stats.poolSize\n    );\n  }\n\n  function getRound (bytes32 _hostName, bytes4 _roundId) \n    external\n    view // status, createdAt, timeoutAt, question, numOptions, numBets, poolSize\n    returns (uint, uint, uint, uint, bytes32, uint, uint, uint)\n  {\n    require(hostAddresses[_hostName] != address(0), 'Host does not exist');\n    return getRound(hostAddresses[_hostName], _roundId);\n  }\n\n  //                                                           status, createdAt, timeout, minBet, hostBonus, hasFlexOption\n  function getRoundConfigForHost (address _host) external view returns (uint, uint, uint, uint, uint, bool) {\n  }\n  //                                                              numBets, numPlayers, poolSize\n  function getRoundStatsForHost (address _host) external view returns (uint, uint, uint) {\n  }\n\n  // TODO: implement. For now max 5 options/return values. If only 2 provided, fill up with 0s\n  function getRoundOptionsForHost (address _host) external view returns (bytes32, bytes32, bytes32, bytes32, bytes32) { }\n  \n  function getRoundOptionBetsForHost (address _host) external view returns (uint, uint, uint, uint, uint) { }\n  \n  function getMyRoundOptionBetsForHost (address _host) external view returns (uint, uint, uint, uint, uint) { }\n\n  function getRoundPickedOptionsForHost (address _host) external view returns (bool, bool, bool, bool, bool) { }\n\n  // function addOptionForRound (address _host, bytes4 _roundId, bytes32 _option) external {\n  //   //additional check needed to make sure that round exists?\n  //   //require(rounds[_host][_roundId] != 0); // not 0x0, there must be a Round\n  //   require(rounds[_host][_roundId].options.hasFlexOptions == true);\n  //   require(rounds[_host][_roundId].status == Status.OPEN);\n  //   require(rounds[_host][_roundId].options.optionLookup[_option] == false); // option doesn't exist yet\n    \n  //   rounds[_host][_roundId].options.options.push(_option);\n  //   rounds[_host][_roundId].options.optionLookup[_option] = true;\n  //   rounds[_host][_roundId].options.numOptions += 1;\n  // }\n\n  // always takes newest rounds.\n  function pickWinnerAndEnd (uint[] _winners) external payable {\n    bytes4 roundId = getRoundId(msg.sender);\n\n    Status status = rounds[msg.sender][roundId].status;\n    require(status == Status.OPEN || status == Status.CLOSED); // Host can either end running or closed Round\n    require(_winners.length <= rounds[msg.sender][roundId].options.numOptions);\n    require(now < rounds[msg.sender][roundId].config.timeoutAt); // --> cancelInternal when timeoutAt reached? Nahh. move to Closed?\n    \n\n    // TODO: redistribute payouts\n    //owner.transfer(1%)\n    //host.transfer(hostShare)\n    // payouts = remaining pool\n\n\n    hostContext[msg.sender].totalNumBets += rounds[msg.sender][roundId].stats.numBets;\n    hostContext[msg.sender].totalPoolSize += (rounds[msg.sender][roundId].stats.poolSize + msg.value);\n    hostContext[msg.sender].numRoundsSuccess += 1;\n    rounds[msg.sender][roundId].status == Status.FINISHED;\n    emit RoundFinished(msg.sender, roundId);\n  }\n\n  function bet (address _host, bytes4 _roundId, bytes32 _optionId) external payable {\n    require(_roundId == getRoundId(_host));\n    require(rounds[_host][_roundId].status == Status.OPEN);\n    require(msg.value >= rounds[_host][_roundId].config.minBet);\n    require(rounds[_host][_roundId].options.optionLookup[_optionId] == true);\n    require(now < rounds[_host][_roundId].config.timeoutAt);\n  \n    rounds[_host][_roundId].playerBets[_optionId][msg.sender] += msg.value;\n    rounds[_host][_roundId].optionBets[_optionId] += msg.value;\n    rounds[_host][_roundId].stats.numBets += 1;\n    rounds[_host][_roundId].stats.poolSize += msg.value;\n  }\n\n  function claimPayout (address _host, bytes4 _roundId) external {\n    require(_roundId == getRoundId(_host));\n    require(rounds[_host][_roundId].status == Status.FINISHED);\n\n    uint payout;\n    RoundResults storage results = rounds[_host][_roundId].results;\n    uint all = rounds[_host][_roundId].stats.poolSize;\n\n    // In case host only picked one winner, this is one iteration\n    for(uint i=0; i<results.pickedOptions.length; i++) {\n      bytes32 pickedOption = results.pickedOptions[i];\n      uint playerBet = rounds[_host][_roundId].playerBets[pickedOption][msg.sender];\n\n      if(playerBet > 0) {\n        // e.g. 2 (*1e20)\n        uint playerShare = (playerBet*1e20).div(rounds[_host][_roundId].optionBets[pickedOption]);\n        // e.g. 70\n        uint optionShare = rounds[_host][_roundId].options.payoutTiers[i];\n\n        // playerShare * optionShare = player payout for pickedOptions[i]\n        uint share = all.mul(optionShare).div(100).mul(playerShare).div(1e20);\n        payout += share;\n\n        // reset player bets so that they can't be claimed again\n        rounds[_host][_roundId].playerBets[pickedOption][msg.sender] = 0;\n      }\n    }\n\n    require(payout > 0);\n    msg.sender.transfer(payout);\n  }\n\n  function cancelRound () external {\n    bytes4 roundId = getRoundId(msg.sender);\n\n    Status status = rounds[msg.sender][roundId].status;\n    require(status == Status.UNDEFINED || status == Status.OPEN); // check if round is cancelable\n\n    rounds[msg.sender][roundId].status = Status.CANCELLED;\n    hostContext[msg.sender].numRoundsCancelled += 1;\n    emit RoundCanceled(msg.sender, roundId);\n  }\n\n\n  ///\n  /// Management of `Username <-> address` mappings\n  ///\n\n  function registerRecord (bytes32 _name)\n    public\n  {\n    require(hostAddresses[_name] == address(0));\n    require(hostNames[msg.sender] == 0x0000000000000000);\n\n    _setRecord(msg.sender, _name);\n  }\n\n  function deleteRecord ()\n    public\n  {\n    bytes32 oldName = hostNames[msg.sender];\n    require(oldName[0] != 0);\n\n    _removeRecord(msg.sender, oldName);\n  }\n\n  function updateRecord (bytes32 _newName)\n    external\n  {\n    deleteRecord();\n    registerRecord(_newName);\n  }\n\n  function sudoDeleteRecord (bytes32 _name)\n    external\n    onlyOwner\n  {\n    address affectedAddress = hostAddresses[_name];\n    require(affectedAddress == address(0));\n\n    _removeRecord(affectedAddress, _name);\n  }\n\n  function _setRecord (\n    address _address,\n    bytes32 _name\n  )\n    private\n  {\n    hostAddresses[_name] = _address;\n    hostNames[_address] = _name;\n  }\n\n  function _removeRecord (\n    address _address,\n    bytes32 _name\n  )\n    private\n  {\n    delete hostAddresses[_name];\n    delete hostNames[_address];\n  }\n\n  function ()\n    external\n    payable\n  {\n    revert(); \n  }\n}",
  "sourcePath": "/home/mo/dev/betl/smart-contract/contracts/Betl.sol",
  "compiler": {
    "name": "solc",
    "version": "0.4.24+commit.e67f0147.Emscripten.clang"
  },
  "schemaVersion": "2.0.0",
  "updatedAt": "2018-06-18T18:48:16.761Z"
}