{
  "contractName": "Betl",
  "abi": [
    {
      "constant": true,
      "inputs": [
        {
          "name": "",
          "type": "address"
        }
      ],
      "name": "hostContext",
      "outputs": [
        {
          "name": "nextRoundId",
          "type": "uint256"
        },
        {
          "name": "numRoundsCreated",
          "type": "uint256"
        },
        {
          "name": "numRoundsSuccess",
          "type": "uint256"
        },
        {
          "name": "numRoundsCancelled",
          "type": "uint256"
        },
        {
          "name": "totalNumBets",
          "type": "uint256"
        },
        {
          "name": "totalNumPlayers",
          "type": "uint256"
        },
        {
          "name": "totalPoolSize",
          "type": "uint256"
        }
      ],
      "payable": false,
      "stateMutability": "view",
      "type": "function"
    },
    {
      "constant": true,
      "inputs": [],
      "name": "owner",
      "outputs": [
        {
          "name": "",
          "type": "address"
        }
      ],
      "payable": false,
      "stateMutability": "view",
      "type": "function"
    },
    {
      "constant": true,
      "inputs": [
        {
          "name": "",
          "type": "bytes32"
        }
      ],
      "name": "hostNames",
      "outputs": [
        {
          "name": "",
          "type": "address"
        }
      ],
      "payable": false,
      "stateMutability": "view",
      "type": "function"
    },
    {
      "constant": false,
      "inputs": [
        {
          "name": "newOwner",
          "type": "address"
        }
      ],
      "name": "transferOwnership",
      "outputs": [],
      "payable": false,
      "stateMutability": "nonpayable",
      "type": "function"
    },
    {
      "inputs": [],
      "payable": false,
      "stateMutability": "nonpayable",
      "type": "constructor"
    },
    {
      "payable": true,
      "stateMutability": "payable",
      "type": "fallback"
    },
    {
      "anonymous": false,
      "inputs": [
        {
          "indexed": true,
          "name": "host",
          "type": "address"
        },
        {
          "indexed": false,
          "name": "roundId",
          "type": "bytes32"
        }
      ],
      "name": "RoundCreated",
      "type": "event"
    },
    {
      "anonymous": false,
      "inputs": [
        {
          "indexed": true,
          "name": "host",
          "type": "address"
        },
        {
          "indexed": false,
          "name": "roundId",
          "type": "bytes32"
        }
      ],
      "name": "RoundFinished",
      "type": "event"
    },
    {
      "anonymous": false,
      "inputs": [
        {
          "indexed": true,
          "name": "previousOwner",
          "type": "address"
        },
        {
          "indexed": true,
          "name": "newOwner",
          "type": "address"
        }
      ],
      "name": "OwnershipTransferred",
      "type": "event"
    },
    {
      "constant": false,
      "inputs": [
        {
          "name": "_options",
          "type": "bytes32[]"
        },
        {
          "name": "_configData",
          "type": "uint256[]"
        },
        {
          "name": "_payoutTiers",
          "type": "uint256[]"
        },
        {
          "name": "_hasFlexOptions",
          "type": "bool"
        }
      ],
      "name": "createRound",
      "outputs": [],
      "payable": true,
      "stateMutability": "payable",
      "type": "function"
    },
    {
      "constant": true,
      "inputs": [
        {
          "name": "_host",
          "type": "address"
        }
      ],
      "name": "getCurrentRoundIdForHost",
      "outputs": [
        {
          "name": "",
          "type": "bytes32"
        }
      ],
      "payable": false,
      "stateMutability": "view",
      "type": "function"
    },
    {
      "constant": true,
      "inputs": [
        {
          "name": "_host",
          "type": "address"
        }
      ],
      "name": "getRoundConfigForHost",
      "outputs": [
        {
          "name": "",
          "type": "uint256"
        },
        {
          "name": "",
          "type": "uint256"
        },
        {
          "name": "",
          "type": "uint256"
        },
        {
          "name": "",
          "type": "uint256"
        },
        {
          "name": "",
          "type": "uint256"
        },
        {
          "name": "",
          "type": "bool"
        }
      ],
      "payable": false,
      "stateMutability": "view",
      "type": "function"
    },
    {
      "constant": true,
      "inputs": [
        {
          "name": "_host",
          "type": "address"
        }
      ],
      "name": "getRoundStatsForHost",
      "outputs": [
        {
          "name": "",
          "type": "uint256"
        },
        {
          "name": "",
          "type": "uint256"
        },
        {
          "name": "",
          "type": "uint256"
        }
      ],
      "payable": false,
      "stateMutability": "view",
      "type": "function"
    },
    {
      "constant": true,
      "inputs": [
        {
          "name": "_host",
          "type": "address"
        }
      ],
      "name": "getRoundOptionsForHost",
      "outputs": [
        {
          "name": "",
          "type": "bytes32"
        },
        {
          "name": "",
          "type": "bytes32"
        },
        {
          "name": "",
          "type": "bytes32"
        },
        {
          "name": "",
          "type": "bytes32"
        },
        {
          "name": "",
          "type": "bytes32"
        }
      ],
      "payable": false,
      "stateMutability": "view",
      "type": "function"
    },
    {
      "constant": true,
      "inputs": [
        {
          "name": "_host",
          "type": "address"
        }
      ],
      "name": "getRoundOptionBetsForHost",
      "outputs": [
        {
          "name": "",
          "type": "uint256"
        },
        {
          "name": "",
          "type": "uint256"
        },
        {
          "name": "",
          "type": "uint256"
        },
        {
          "name": "",
          "type": "uint256"
        },
        {
          "name": "",
          "type": "uint256"
        }
      ],
      "payable": false,
      "stateMutability": "view",
      "type": "function"
    },
    {
      "constant": true,
      "inputs": [
        {
          "name": "_host",
          "type": "address"
        }
      ],
      "name": "getMyRoundOptionBetsForHost",
      "outputs": [
        {
          "name": "",
          "type": "uint256"
        },
        {
          "name": "",
          "type": "uint256"
        },
        {
          "name": "",
          "type": "uint256"
        },
        {
          "name": "",
          "type": "uint256"
        },
        {
          "name": "",
          "type": "uint256"
        }
      ],
      "payable": false,
      "stateMutability": "view",
      "type": "function"
    },
    {
      "constant": true,
      "inputs": [
        {
          "name": "_host",
          "type": "address"
        }
      ],
      "name": "getRoundPickedOptionsForHost",
      "outputs": [
        {
          "name": "",
          "type": "bool"
        },
        {
          "name": "",
          "type": "bool"
        },
        {
          "name": "",
          "type": "bool"
        },
        {
          "name": "",
          "type": "bool"
        },
        {
          "name": "",
          "type": "bool"
        }
      ],
      "payable": false,
      "stateMutability": "view",
      "type": "function"
    },
    {
      "constant": false,
      "inputs": [
        {
          "name": "_host",
          "type": "address"
        },
        {
          "name": "_roundId",
          "type": "bytes32"
        },
        {
          "name": "_option",
          "type": "bytes32"
        }
      ],
      "name": "addOptionForRound",
      "outputs": [],
      "payable": false,
      "stateMutability": "nonpayable",
      "type": "function"
    },
    {
      "constant": false,
      "inputs": [
        {
          "name": "_winners",
          "type": "uint256[]"
        }
      ],
      "name": "pickWinnerAndEnd",
      "outputs": [],
      "payable": false,
      "stateMutability": "nonpayable",
      "type": "function"
    },
    {
      "constant": false,
      "inputs": [
        {
          "name": "_host",
          "type": "address"
        },
        {
          "name": "_roundId",
          "type": "uint256"
        },
        {
          "name": "optionId",
          "type": "uint256"
        }
      ],
      "name": "bet",
      "outputs": [],
      "payable": false,
      "stateMutability": "nonpayable",
      "type": "function"
    },
    {
      "constant": false,
      "inputs": [
        {
          "name": "_host",
          "type": "address"
        },
        {
          "name": "_roundId",
          "type": "uint256"
        }
      ],
      "name": "claimPayout",
      "outputs": [],
      "payable": false,
      "stateMutability": "nonpayable",
      "type": "function"
    },
    {
      "constant": false,
      "inputs": [
        {
          "name": "_roundId",
          "type": "uint256"
        }
      ],
      "name": "cancelRound",
      "outputs": [],
      "payable": false,
      "stateMutability": "nonpayable",
      "type": "function"
    }
  ],
  "bytecode": "0x608060405234801561001057600080fd5b50336000806101000a81548173ffffffffffffffffffffffffffffffffffffffff021916908373ffffffffffffffffffffffffffffffffffffffff1602179055506118e1806100606000396000f3006080604052600436106100f1576000357c0100000000000000000000000000000000000000000000000000000000900463ffffffff1680631a2fcc8b146100f657806326c57935146101435780632f941753146101ca578063310e10b914610205578063471990ba1461026f5780634db24463146102f05780635de2e1171461038b57806364f6856b146103f0578063789f51a01461044f5780637e07ab09146104a65780638264d215146104d357806386fac42d146105465780638c7763cb146105a55780638da5cb5b14610618578063c4388eb01461066f578063e8a0cdb4146106ed578063f2fde38b1461075e575b600080fd5b34801561010257600080fd5b50610141600480360381019080803573ffffffffffffffffffffffffffffffffffffffff169060200190929190803590602001909291905050506107a1565b005b34801561014f57600080fd5b50610184600480360381019080803573ffffffffffffffffffffffffffffffffffffffff1690602001909291905050506107a5565b6040518086151515158152602001851515151581526020018415151515815260200183151515158152602001821515151581526020019550505050505060405180910390f35b3480156101d657600080fd5b50610203600480360381019080803590602001908201803590602001919091929391929390505050610827565b005b61026d600480360381019080803590602001908201803590602001919091929391929390803590602001908201803590602001919091929391929390803590602001908201803590602001919091929391929390803515159060200190929190505050610a91565b005b34801561027b57600080fd5b506102b0600480360381019080803573ffffffffffffffffffffffffffffffffffffffff169060200190929190505050611020565b6040518088815260200187815260200186815260200185815260200184815260200183815260200182815260200197505050505050505060405180910390f35b3480156102fc57600080fd5b50610331600480360381019080803573ffffffffffffffffffffffffffffffffffffffff169060200190929190505050611062565b60405180866000191660001916815260200185600019166000191681526020018460001916600019168152602001836000191660001916815260200182600019166000191681526020019550505050505060405180910390f35b34801561039757600080fd5b506103cc600480360381019080803573ffffffffffffffffffffffffffffffffffffffff169060200190929190505050611073565b60405180848152602001838152602001828152602001935050505060405180910390f35b3480156103fc57600080fd5b50610431600480360381019080803573ffffffffffffffffffffffffffffffffffffffff16906020019092919050505061107f565b60405180826000191660001916815260200191505060405180910390f35b34801561045b57600080fd5b506104a4600480360381019080803573ffffffffffffffffffffffffffffffffffffffff16906020019092919080359060200190929190803590602001909291905050506110f8565b005b3480156104b257600080fd5b506104d1600480360381019080803590602001909291905050506110fd565b005b3480156104df57600080fd5b50610514600480360381019080803573ffffffffffffffffffffffffffffffffffffffff169060200190929190505050611100565b604051808681526020018581526020018481526020018381526020018281526020019550505050505060405180910390f35b34801561055257600080fd5b506105a3600480360381019080803573ffffffffffffffffffffffffffffffffffffffff16906020019092919080356000191690602001909291908035600019169060200190929190505050611111565b005b3480156105b157600080fd5b506105e6600480360381019080803573ffffffffffffffffffffffffffffffffffffffff16906020019092919050505061148b565b604051808681526020018581526020018481526020018381526020018281526020019550505050505060405180910390f35b34801561062457600080fd5b5061062d61149c565b604051808273ffffffffffffffffffffffffffffffffffffffff1673ffffffffffffffffffffffffffffffffffffffff16815260200191505060405180910390f35b34801561067b57600080fd5b506106b0600480360381019080803573ffffffffffffffffffffffffffffffffffffffff1690602001909291905050506114c1565b6040518087815260200186815260200185815260200184815260200183815260200182151515158152602001965050505050505060405180910390f35b3480156106f957600080fd5b5061071c60048036038101908080356000191690602001909291905050506114d3565b604051808273ffffffffffffffffffffffffffffffffffffffff1673ffffffffffffffffffffffffffffffffffffffff16815260200191505060405180910390f35b34801561076a57600080fd5b5061079f600480360381019080803573ffffffffffffffffffffffffffffffffffffffff169060200190929190505050611506565b005b5050565b600080600080600060038060008873ffffffffffffffffffffffffffffffffffffffff1673ffffffffffffffffffffffffffffffffffffffff16815260200190815260200160002060006107f88961107f565b600019166000191681526020019081526020016000206001015414151561081e57600080fd5b91939590929450565b6000806108333361107f565b9150600360003373ffffffffffffffffffffffffffffffffffffffff1673ffffffffffffffffffffffffffffffffffffffff1681526020019081526020016000206000836000191660001916815260200190815260200160002060010154905060018114806108a25750600281145b15156108ad57600080fd5b600360003373ffffffffffffffffffffffffffffffffffffffff1673ffffffffffffffffffffffffffffffffffffffff1681526020019081526020016000206000836000191660001916815260200190815260200160002060060160000154848490501115151561091d57600080fd5b600360003373ffffffffffffffffffffffffffffffffffffffff1673ffffffffffffffffffffffffffffffffffffffff16815260200190815260200160002060008360001916600019168152602001908152602001600020600201600101544210151561098957600080fd5b6001600260003373ffffffffffffffffffffffffffffffffffffffff1673ffffffffffffffffffffffffffffffffffffffff1681526020019081526020016000206002016000828254019250508190555060038060003373ffffffffffffffffffffffffffffffffffffffff1673ffffffffffffffffffffffffffffffffffffffff1681526020019081526020016000206000846000191660001916815260200190815260200160002050503373ffffffffffffffffffffffffffffffffffffffff167f99c9af2fb5e64dada6a1cd6ddeecd8baefb6d24b8c65b3f1548b185375a96e178360405180826000191660001916815260200191505060405180910390a250505050565b6000610a9b61165b565b610aa3611684565b610aab6116af565b610ab36116c9565b610abb6116eb565b6000603c8c8c60008181101515610ace57fe5b9050602002013510151515610ae257600080fd5b60028e8e9050101580610af9575060011515881515145b1515610b0457600080fd5b60648c8c60028181101515610b1557fe5b9050602002013511151515610b2957600080fd5b600015158815151415610b4c578d8d90508a8a905011151515610b4b57600080fd5b5b600260003373ffffffffffffffffffffffffffffffffffffffff1673ffffffffffffffffffffffffffffffffffffffff1681526020019081526020016000206000015496506080604051908101604052804281526020018d8d60008181101515610bb257fe5b90506020020135420181526020018d8d60018181101515610bcf57fe5b9050602002013581526020013481525095506080604051908101604052808f8f905081526020018f8f8080602002602001604051908101604052809392919081815260200183836020028082843782019150505050505081526020018b8b808060200260200160405190810160405280939291908181526020018383602002808284378201915050505050508152602001891515815250945060408051908101604052806000604051908082528060200260200182016040528015610ca35781602001602082028038833980820191505090505b5081526020016000604051908082528060200260200182016040528015610cd95781602001602082028038833980820191505090505b508152509350606060405190810160405280600081526020016000815260200134815250925060c0604051908101604052808881526020016001815260200187815260200186815260200185815260200184815250915086604051808281526020019150506040518091039020905081600360003373ffffffffffffffffffffffffffffffffffffffff1673ffffffffffffffffffffffffffffffffffffffff168152602001908152602001600020600083600019166000191681526020019081526020016000206000820151816000015560208201518160010155604082015181600201600082015181600001556020820151816001015560408201518160020155606082015181600301555050606082015181600601600082015181600001556020820151816001019080519060200190610e1792919061173b565b506040820151816003019080519060200190610e3492919061178e565b5060608201518160040160006101000a81548160ff0219169083151502179055505050608082015181600b016000820151816000019080519060200190610e7c92919061178e565b506020820151816001019080519060200190610e9992919061178e565b50505060a082015181600d0160008201518160000155602082015181600101556040820151816002015550509050506001600260003373ffffffffffffffffffffffffffffffffffffffff1673ffffffffffffffffffffffffffffffffffffffff168152602001908152602001600020600001600082825401925050819055506001600260003373ffffffffffffffffffffffffffffffffffffffff1673ffffffffffffffffffffffffffffffffffffffff1681526020019081526020016000206001016000828254019250508190555034600260003373ffffffffffffffffffffffffffffffffffffffff1673ffffffffffffffffffffffffffffffffffffffff168152602001908152602001600020600601600082825401925050819055503373ffffffffffffffffffffffffffffffffffffffff167f88260a332d90bbf2376fcde9e874cae0829b029cd2a871f23b805ff1093c34a68260405180826000191660001916815260200191505060405180910390a25050505050505050505050505050565b60026020528060005260406000206000915090508060000154908060010154908060020154908060030154908060040154908060050154908060060154905087565b600080600080600091939590929450565b60008060009193909250565b6000806001600260008573ffffffffffffffffffffffffffffffffffffffff1673ffffffffffffffffffffffffffffffffffffffff16815260200190815260200160002060000154039050600081141515156110da57600080fd5b80604051808281526020019150506040518091039020915050919050565b505050565b50565b600080600080600091939590929450565b6000600360008573ffffffffffffffffffffffffffffffffffffffff1673ffffffffffffffffffffffffffffffffffffffff16815260200190815260200160002060008460001916600019168152602001908152602001600020600001541415151561117c57600080fd5b60011515600360008573ffffffffffffffffffffffffffffffffffffffff1673ffffffffffffffffffffffffffffffffffffffff1681526020019081526020016000206000846000191660001916815260200190815260200160002060060160040160009054906101000a900460ff1615151415156111fa57600080fd5b6001600360008573ffffffffffffffffffffffffffffffffffffffff1673ffffffffffffffffffffffffffffffffffffffff168152602001908152602001600020600084600019166000191681526020019081526020016000206001015414151561126457600080fd5b60001515600360008573ffffffffffffffffffffffffffffffffffffffff1673ffffffffffffffffffffffffffffffffffffffff168152602001908152602001600020600084600019166000191681526020019081526020016000206006016002016000836000191660001916815260200190815260200160002060009054906101000a900460ff1615151415156112fb57600080fd5b600360008473ffffffffffffffffffffffffffffffffffffffff1673ffffffffffffffffffffffffffffffffffffffff168152602001908152602001600020600083600019166000191681526020019081526020016000206006016001018190806001815401808255809150509060018203906000526020600020016000909192909190915090600019169055506001600360008573ffffffffffffffffffffffffffffffffffffffff1673ffffffffffffffffffffffffffffffffffffffff168152602001908152602001600020600084600019166000191681526020019081526020016000206006016002016000836000191660001916815260200190815260200160002060006101000a81548160ff0219169083151502179055506001600360008573ffffffffffffffffffffffffffffffffffffffff1673ffffffffffffffffffffffffffffffffffffffff1681526020019081526020016000206000846000191660001916815260200190815260200160002060060160000160008282540192505081905550505050565b600080600080600091939590929450565b6000809054906101000a900473ffffffffffffffffffffffffffffffffffffffff1681565b60008060008060008091939550919395565b60016020528060005260406000206000915054906101000a900473ffffffffffffffffffffffffffffffffffffffff1681565b6000809054906101000a900473ffffffffffffffffffffffffffffffffffffffff1673ffffffffffffffffffffffffffffffffffffffff163373ffffffffffffffffffffffffffffffffffffffff1614151561156157600080fd5b600073ffffffffffffffffffffffffffffffffffffffff168173ffffffffffffffffffffffffffffffffffffffff161415151561159d57600080fd5b8073ffffffffffffffffffffffffffffffffffffffff166000809054906101000a900473ffffffffffffffffffffffffffffffffffffffff1673ffffffffffffffffffffffffffffffffffffffff167f8be0079c531659141344cd1fd0a4f28419497f9722a3daafe3b4186f6b6457e060405160405180910390a3806000806101000a81548173ffffffffffffffffffffffffffffffffffffffff021916908373ffffffffffffffffffffffffffffffffffffffff16021790555050565b608060405190810160405280600081526020016000815260200160008152602001600081525090565b6080604051908101604052806000815260200160608152602001606081526020016000151581525090565b604080519081016040528060608152602001606081525090565b6060604051908101604052806000815260200160008152602001600081525090565b6101e060405190810160405280600081526020016000815260200161170e6117db565b815260200161171b611804565b815260200161172861182f565b8152602001611735611849565b81525090565b82805482825590600052602060002090810192821561177d579160200282015b8281111561177c57825182906000191690559160200191906001019061175b565b5b50905061178a919061186b565b5090565b8280548282559060005260206000209081019282156117ca579160200282015b828111156117c95782518255916020019190600101906117ae565b5b5090506117d79190611890565b5090565b608060405190810160405280600081526020016000815260200160008152602001600081525090565b6080604051908101604052806000815260200160608152602001606081526020016000151581525090565b604080519081016040528060608152602001606081525090565b6060604051908101604052806000815260200160008152602001600081525090565b61188d91905b80821115611889576000816000905550600101611871565b5090565b90565b6118b291905b808211156118ae576000816000905550600101611896565b5090565b905600a165627a7a7230582056422d789426951b5cf9ecd927ee031215445ffa6d14354990f1bfa3bca89b480029",
  "source": "pragma solidity ^0.4.24;\n\nimport 'openzeppelin-solidity/contracts/ownership/Ownable.sol';\nimport 'openzeppelin-solidity/contracts/math/SafeMath.sol';\n\ncontract Betl is Ownable {\n  using SafeMath for uint;\n\n  uint private constant FEE_PERCENT = 1;\n  uint private constant MIN_TIMEOUT = 1 minutes;\n  uint private constant MODE_WHATEVER = 0;       // usecase for modes?\n\n  uint private constant STATUS_INACTIVE = 0;\n  uint private constant STATUS_OPEN = 1;\n  uint private constant STATUS_CLOSED = 2;\n  uint private constant STATUS_FINISHED = 3;\n  uint private constant STATUS_CANCELLED = 4;\n  uint private constant STATUS_TIMEOUT = 5;\n\n  event RoundCreated(address indexed host, bytes32 roundId);\n  event RoundFinished(address indexed host, bytes32 roundId);\n\n  // Eventually divide into RoundConfig and RoundConfigExt. First one mandatory, latter optional\n  // Default config: one winner, who takes it all.\n  struct RoundConfig {\n    uint createdAt;\n    uint timeoutAt;\n    uint minBet;\n    uint hostBonus; // or: add directly to roundstats += hostBonus\n  }\n\n  struct RoundOptions {\n    uint numOptions;\n    bytes32[] options;\n    mapping(bytes32 => bool) optionLookup;\n    // Specifies payout distributions in case multiple winners are possible\n    // Example: When there are 3 winners, this array can be [60, 30, 10] ==> in percents, must sum to 100.\n    // winnerTiers.length <= numOptions\n    uint[] payoutTiers;\n    bool hasFlexOptions;\n  }\n\n  // has to be aligned with RoundConfig(Ext)\n  struct RoundResults {\n    // can only contain 1 winner, or multiple ones. Primary winner specified first followed by lower tier orders in DESC order\n    uint[] pickedOptions;\n    uint[] optionPayouts; // in wei\n  }\n\n  struct RoundStats {\n    uint numBets;\n    uint numPlayers;  // to expensive to maintain\n    uint poolSize;\n  }\n\n  struct Round {\n    uint id;\n    uint status;\n    RoundConfig config;\n    RoundOptions options;\n    RoundResults results;\n    RoundStats stats;\n    //    hash(opt) =>         player  => bet\n    mapping(bytes32 => mapping(address => uint)) playerBets;\n    //    hash(opt) => totalBets\n    mapping(bytes32 => uint) optionBets;\n  }\n\n  struct HostContext {\n    uint nextRoundId;\n    uint numRoundsCreated;\n    uint numRoundsSuccess;\n    uint numRoundsCancelled;\n    uint totalNumBets;\n    uint totalNumPlayers; // too expensive to maintain it\n    uint totalPoolSize;\n  }\n\n  //      name   => host\n  mapping(bytes32 => address) public hostNames;\n  //      host    => stats\n  mapping(address => HostContext) public hostContext;\n  //      host    =>        hash(id) => Round\n  mapping(address => mapping(bytes32 => Round)) rounds;\n\n  constructor () {\n  }\n\n  // ADD/TODO/TOTHINK?:\n  // - bool _hasMultipleWinners --> rather no. Host has no reason to cheat --> loss of reputation\n  // - modeCode usefulness?\n  // configData[ timout, minBet, hostShare ]\n  // COSTS: 296305gas -> @ 5Gwei: 1 dollar\n  function createRound (\n    bytes32[] _options,\n    uint[] _configData,\n    uint[] _payoutTiers,\n    bool _hasFlexOptions)\n    external\n    payable\n  {\n    require(_configData[0] >= MIN_TIMEOUT);\n    require(_options.length >= 2 || _hasFlexOptions == true);\n    require(_configData[2] <= 100);\n    if (_hasFlexOptions == false) {\n      require(_payoutTiers.length <= _options.length);\n    }\n\n    uint id = hostContext[msg.sender].nextRoundId;\n\n    RoundConfig memory config = RoundConfig(\n      now,\n      now + _configData[0],\n      _configData[1],\n      msg.value\n    );\n\n    RoundOptions memory options = RoundOptions(\n      _options.length,\n      _options,\n      _payoutTiers,\n      _hasFlexOptions\n    );\n\n    RoundResults memory results = RoundResults(\n      new uint[](0),\n      new uint[](0)\n    );\n\n    RoundStats memory stats = RoundStats(\n      0,\n      0,\n      msg.value\n    );\n\n    Round memory round = Round(\n      id,\n      STATUS_OPEN,\n      config,\n      options,\n      results,\n      stats\n    );\n    \n    bytes32 idHash = keccak256(id);\n    rounds[msg.sender][idHash] = round;\n\n    // post creation\n    hostContext[msg.sender].nextRoundId += 1;\n    hostContext[msg.sender].numRoundsCreated += 1;\n    hostContext[msg.sender].totalPoolSize += msg.value;\n\n    emit RoundCreated(msg.sender, idHash);\n  }\n\n  function getCurrentRoundIdForHost (address _host) public view returns (bytes32) {\n    var id = hostContext[_host].nextRoundId-1;\n    require(id != 0);  // if currentId == 0, host hasn't created a round yet\n    return keccak256(id);\n  }\n\n  //                                                           status, createdAt, timeout, minBet, hostBonus, hasFlexOption\n  function getRoundConfigForHost (address _host) external view returns (uint, uint, uint, uint, uint, bool) {\n  }\n  //                                                              numBets, numPlayers, poolSize\n  function getRoundStatsForHost (address _host) external view returns (uint, uint, uint) {\n  }\n\n  // TODO: implement. For now max 5 options/return values. If only 2 provided, fill up with 0s\n  function getRoundOptionsForHost (address _host) external view returns (bytes32, bytes32, bytes32, bytes32, bytes32) { }\n  \n  function getRoundOptionBetsForHost (address _host) external view returns (uint, uint, uint, uint, uint) { }\n  \n  function getMyRoundOptionBetsForHost (address _host) external view returns (uint, uint, uint, uint, uint) { }\n\n  function getRoundPickedOptionsForHost (address _host) external view returns (bool, bool, bool, bool, bool) { require(rounds[_host][getCurrentRoundIdForHost(_host)].status == STATUS_FINISHED); }\n\n  function addOptionForRound (address _host, bytes32 _roundId, bytes32 _option) external {\n    require(rounds[_host][_roundId].id != 0); // not 0x0, there bust be a Round\n    require(rounds[_host][_roundId].options.hasFlexOptions == true);\n    require(rounds[_host][_roundId].status == STATUS_OPEN);\n    require(rounds[_host][_roundId].options.optionLookup[_option] == false); // option doesn't exist yet\n    \n    rounds[_host][_roundId].options.options.push(_option);\n    rounds[_host][_roundId].options.optionLookup[_option] = true;\n    rounds[_host][_roundId].options.numOptions += 1;\n  }\n\n  // always takes newest rounds.\n  function pickWinnerAndEnd (uint[] _winners) external {\n    bytes32 currentId = getCurrentRoundIdForHost(msg.sender);\n    uint status = rounds[msg.sender][currentId].status;\n    require(status == STATUS_OPEN || status == STATUS_CLOSED); // Host can either end running or closed Round\n    require(_winners.length <= rounds[msg.sender][currentId].options.numOptions);\n    require(now < rounds[msg.sender][currentId].config.timeoutAt); // --> cancelInternal when timeoutAt reached? Nahh. move to Closed?\n    \n\n    // TODO: redistribute payouts\n    \n    hostContext[msg.sender].numRoundsSuccess += 1;\n    rounds[msg.sender][currentId].status == STATUS_FINISHED;\n    emit RoundFinished(msg.sender, currentId);\n  }\n\n  function bet (address _host, uint _roundId, uint optionId) external {\n    //require: _host with _roundId both exist\n    //require: round is in STATUS_OPEN\n    //require: msg.value <= round.minBet\n    //require: if hasFlexOptions == FALSE: require(_optionId < options.length)\n    //require: if hasFlexOptions == TRUE: check if optionId exists, if so, bet there, if not, create option and bet on it\n    //require: timeout not reached yet\n    // check, also msg.value\n    // check if host has roundId, check if round is active, check if option exists (in case options are predefined)\n\n    // HOST: increment totalNumBets\n    // HOST: totalPoolSize += msg.value\n    // HOST: \n    // ROUND: numBets + 1\n    // ROUND: poolSize += msg.value\n    // ROUND:\n\n    // TODO: implementation\n  }\n\n  function claimPayout (address _host, uint _roundId) external {\n    //require: _host and _roundID exist\n    //require: roundId is in payout phase\n    //require: msg.sender is among winners (and has bets)\n\n    // TODO: implementation\n  }\n\n  function cancelRound (uint _roundId) external {\n    //require: host msg.sender must have round with _roundId\n    //require: round must be in cancellable == INACTIVE || OPEN\n\n    // set status = STATUS_CANCELLED\n    // increment numRoundsCancelled for host\n\n    // TODO: implementation\n  }\n\n\n\n  // function registerNameLookup (string _name)\n  //   external\n  //   //isNameFree\n  // {\n  //   // make sure the name is free\n  //   // or if it's not free, make sure it's the same user, just wanting to replace his name\n  //   // check that it's not contract address (?)\n  //   hostNames[_name] = msg.sender;\n  //   hostAddresses[msg.sender] = _name;\n  // }\n\n  // function deleteNameLookup (string _name, address _address)\n  //   external\n  //   onlyOwner\n  // {\n  //   hostNames[_name] = ZERO_ADDRESS;\n  //   hostAddresses[_address] = ''; // or empty bytes\n  // }\n\n  function () external payable {\n      revert(); \n  }\n}",
  "sourcePath": "/home/mo/dev/betl/contracts/Betl.sol",
  "compiler": {
    "name": "solc",
    "version": "0.4.24+commit.e67f0147.Emscripten.clang"
  },
  "schemaVersion": "2.0.0",
  "updatedAt": "2018-06-03T22:22:36.757Z"
}