{
  "contractName": "Betl",
  "abi": [
    {
      "constant": true,
      "inputs": [
        {
          "name": "",
          "type": "address"
        }
      ],
      "name": "hostContext",
      "outputs": [
        {
          "name": "nextRoundNumber",
          "type": "uint256"
        },
        {
          "name": "numRoundsSuccess",
          "type": "uint256"
        },
        {
          "name": "numRoundsCancelled",
          "type": "uint256"
        },
        {
          "name": "totalNumBets",
          "type": "uint256"
        },
        {
          "name": "totalPoolSize",
          "type": "uint256"
        }
      ],
      "payable": false,
      "stateMutability": "view",
      "type": "function"
    },
    {
      "constant": false,
      "inputs": [],
      "name": "renounceOwnership",
      "outputs": [],
      "payable": false,
      "stateMutability": "nonpayable",
      "type": "function"
    },
    {
      "constant": true,
      "inputs": [],
      "name": "owner",
      "outputs": [
        {
          "name": "",
          "type": "address"
        }
      ],
      "payable": false,
      "stateMutability": "view",
      "type": "function"
    },
    {
      "constant": true,
      "inputs": [
        {
          "name": "",
          "type": "bytes32"
        }
      ],
      "name": "hostAddresses",
      "outputs": [
        {
          "name": "",
          "type": "address"
        }
      ],
      "payable": false,
      "stateMutability": "view",
      "type": "function"
    },
    {
      "constant": true,
      "inputs": [
        {
          "name": "",
          "type": "address"
        }
      ],
      "name": "hostNames",
      "outputs": [
        {
          "name": "",
          "type": "bytes32"
        }
      ],
      "payable": false,
      "stateMutability": "view",
      "type": "function"
    },
    {
      "constant": false,
      "inputs": [
        {
          "name": "_newOwner",
          "type": "address"
        }
      ],
      "name": "transferOwnership",
      "outputs": [],
      "payable": false,
      "stateMutability": "nonpayable",
      "type": "function"
    },
    {
      "payable": true,
      "stateMutability": "payable",
      "type": "fallback"
    },
    {
      "anonymous": false,
      "inputs": [
        {
          "indexed": true,
          "name": "host",
          "type": "address"
        },
        {
          "indexed": false,
          "name": "roundId",
          "type": "bytes4"
        }
      ],
      "name": "RoundCreated",
      "type": "event"
    },
    {
      "anonymous": false,
      "inputs": [
        {
          "indexed": true,
          "name": "host",
          "type": "address"
        },
        {
          "indexed": false,
          "name": "roundId",
          "type": "bytes4"
        }
      ],
      "name": "RoundFinished",
      "type": "event"
    },
    {
      "anonymous": false,
      "inputs": [
        {
          "indexed": true,
          "name": "host",
          "type": "address"
        },
        {
          "indexed": false,
          "name": "roundId",
          "type": "bytes4"
        }
      ],
      "name": "RoundCancelled",
      "type": "event"
    },
    {
      "anonymous": false,
      "inputs": [
        {
          "indexed": true,
          "name": "previousOwner",
          "type": "address"
        }
      ],
      "name": "OwnershipRenounced",
      "type": "event"
    },
    {
      "anonymous": false,
      "inputs": [
        {
          "indexed": true,
          "name": "previousOwner",
          "type": "address"
        },
        {
          "indexed": true,
          "name": "newOwner",
          "type": "address"
        }
      ],
      "name": "OwnershipTransferred",
      "type": "event"
    },
    {
      "constant": true,
      "inputs": [
        {
          "name": "_host",
          "type": "address"
        }
      ],
      "name": "getNextRoundId",
      "outputs": [
        {
          "name": "",
          "type": "bytes4"
        }
      ],
      "payable": false,
      "stateMutability": "view",
      "type": "function"
    },
    {
      "constant": false,
      "inputs": [
        {
          "name": "_question",
          "type": "bytes32"
        },
        {
          "name": "_outcomes",
          "type": "bytes32[]"
        },
        {
          "name": "_configData",
          "type": "uint256[4]"
        },
        {
          "name": "_payoutTiers",
          "type": "uint256[]"
        }
      ],
      "name": "createRound",
      "outputs": [],
      "payable": true,
      "stateMutability": "payable",
      "type": "function"
    },
    {
      "constant": false,
      "inputs": [
        {
          "name": "_host",
          "type": "address"
        },
        {
          "name": "_roundId",
          "type": "bytes4"
        },
        {
          "name": "_outcomeIndex",
          "type": "uint256"
        }
      ],
      "name": "bet",
      "outputs": [],
      "payable": true,
      "stateMutability": "payable",
      "type": "function"
    },
    {
      "constant": false,
      "inputs": [
        {
          "name": "_picks",
          "type": "uint256[]"
        },
        {
          "name": "_roundId",
          "type": "bytes4"
        }
      ],
      "name": "pickWinnerAndEnd",
      "outputs": [],
      "payable": true,
      "stateMutability": "payable",
      "type": "function"
    },
    {
      "constant": false,
      "inputs": [
        {
          "name": "_host",
          "type": "address"
        },
        {
          "name": "_roundId",
          "type": "bytes4"
        }
      ],
      "name": "claimPayout",
      "outputs": [],
      "payable": false,
      "stateMutability": "nonpayable",
      "type": "function"
    },
    {
      "constant": false,
      "inputs": [
        {
          "name": "_host",
          "type": "address"
        },
        {
          "name": "_roundId",
          "type": "bytes4"
        }
      ],
      "name": "claimRefund",
      "outputs": [],
      "payable": false,
      "stateMutability": "nonpayable",
      "type": "function"
    },
    {
      "constant": false,
      "inputs": [
        {
          "name": "_roundId",
          "type": "bytes4"
        }
      ],
      "name": "cancelRound",
      "outputs": [],
      "payable": false,
      "stateMutability": "nonpayable",
      "type": "function"
    },
    {
      "constant": true,
      "inputs": [
        {
          "name": "_host",
          "type": "address"
        },
        {
          "name": "_roundId",
          "type": "bytes4"
        }
      ],
      "name": "getRoundInfo",
      "outputs": [
        {
          "name": "",
          "type": "uint256"
        },
        {
          "name": "",
          "type": "uint256"
        },
        {
          "name": "",
          "type": "uint256"
        },
        {
          "name": "",
          "type": "uint256"
        },
        {
          "name": "",
          "type": "bytes32"
        },
        {
          "name": "",
          "type": "uint256"
        },
        {
          "name": "",
          "type": "uint256"
        },
        {
          "name": "",
          "type": "uint256"
        },
        {
          "name": "",
          "type": "uint256"
        },
        {
          "name": "",
          "type": "uint256"
        }
      ],
      "payable": false,
      "stateMutability": "view",
      "type": "function"
    },
    {
      "constant": true,
      "inputs": [
        {
          "name": "_host",
          "type": "address"
        },
        {
          "name": "_roundId",
          "type": "bytes4"
        }
      ],
      "name": "getRoundInfoChanges",
      "outputs": [
        {
          "name": "",
          "type": "uint256"
        },
        {
          "name": "",
          "type": "uint256"
        },
        {
          "name": "",
          "type": "uint256"
        },
        {
          "name": "",
          "type": "uint256"
        }
      ],
      "payable": false,
      "stateMutability": "view",
      "type": "function"
    },
    {
      "constant": true,
      "inputs": [
        {
          "name": "_hostName",
          "type": "bytes32"
        },
        {
          "name": "_roundId",
          "type": "bytes4"
        },
        {
          "name": "_outcomeIndex",
          "type": "uint256"
        }
      ],
      "name": "getRoundOutcomeByName",
      "outputs": [
        {
          "name": "",
          "type": "bytes32"
        }
      ],
      "payable": false,
      "stateMutability": "view",
      "type": "function"
    },
    {
      "constant": true,
      "inputs": [
        {
          "name": "_host",
          "type": "address"
        },
        {
          "name": "_roundId",
          "type": "bytes4"
        },
        {
          "name": "_outcomeIndex",
          "type": "uint256"
        }
      ],
      "name": "getRoundOutcome",
      "outputs": [
        {
          "name": "",
          "type": "bytes32"
        }
      ],
      "payable": false,
      "stateMutability": "view",
      "type": "function"
    },
    {
      "constant": true,
      "inputs": [
        {
          "name": "_hostName",
          "type": "bytes32"
        },
        {
          "name": "_roundId",
          "type": "bytes4"
        },
        {
          "name": "_outcomeIndex",
          "type": "uint256"
        }
      ],
      "name": "getRoundOutcomePoolByName",
      "outputs": [
        {
          "name": "",
          "type": "uint256"
        }
      ],
      "payable": false,
      "stateMutability": "view",
      "type": "function"
    },
    {
      "constant": true,
      "inputs": [
        {
          "name": "_host",
          "type": "address"
        },
        {
          "name": "_roundId",
          "type": "bytes4"
        },
        {
          "name": "_outcomeIndex",
          "type": "uint256"
        }
      ],
      "name": "getRoundOutcomePool",
      "outputs": [
        {
          "name": "",
          "type": "uint256"
        }
      ],
      "payable": false,
      "stateMutability": "view",
      "type": "function"
    },
    {
      "constant": true,
      "inputs": [
        {
          "name": "_hostName",
          "type": "bytes32"
        },
        {
          "name": "_roundId",
          "type": "bytes4"
        },
        {
          "name": "_outcomeIndex",
          "type": "uint256"
        }
      ],
      "name": "getRoundOutcomeNumBetsByName",
      "outputs": [
        {
          "name": "",
          "type": "uint256"
        }
      ],
      "payable": false,
      "stateMutability": "view",
      "type": "function"
    },
    {
      "constant": true,
      "inputs": [
        {
          "name": "_host",
          "type": "address"
        },
        {
          "name": "_roundId",
          "type": "bytes4"
        },
        {
          "name": "_outcomeIndex",
          "type": "uint256"
        }
      ],
      "name": "getRoundOutcomeNumBets",
      "outputs": [
        {
          "name": "",
          "type": "uint256"
        }
      ],
      "payable": false,
      "stateMutability": "view",
      "type": "function"
    },
    {
      "constant": true,
      "inputs": [
        {
          "name": "_hostName",
          "type": "bytes32"
        },
        {
          "name": "_roundId",
          "type": "bytes4"
        },
        {
          "name": "_outcomeIndex",
          "type": "uint256"
        }
      ],
      "name": "getMyRoundOutcomeBetByName",
      "outputs": [
        {
          "name": "",
          "type": "uint256"
        }
      ],
      "payable": false,
      "stateMutability": "view",
      "type": "function"
    },
    {
      "constant": true,
      "inputs": [
        {
          "name": "_host",
          "type": "address"
        },
        {
          "name": "_roundId",
          "type": "bytes4"
        },
        {
          "name": "_outcomeIndex",
          "type": "uint256"
        }
      ],
      "name": "getMyRoundOutcomeBet",
      "outputs": [
        {
          "name": "",
          "type": "uint256"
        }
      ],
      "payable": false,
      "stateMutability": "view",
      "type": "function"
    },
    {
      "constant": true,
      "inputs": [
        {
          "name": "_hostName",
          "type": "bytes32"
        },
        {
          "name": "_roundId",
          "type": "bytes4"
        },
        {
          "name": "_outcomeIndex",
          "type": "uint256"
        }
      ],
      "name": "getRoundOutcomeWinShareByName",
      "outputs": [
        {
          "name": "",
          "type": "uint256"
        }
      ],
      "payable": false,
      "stateMutability": "view",
      "type": "function"
    },
    {
      "constant": true,
      "inputs": [
        {
          "name": "_host",
          "type": "address"
        },
        {
          "name": "_roundId",
          "type": "bytes4"
        },
        {
          "name": "_outcomeIndex",
          "type": "uint256"
        }
      ],
      "name": "getRoundOutcomeWinShare",
      "outputs": [
        {
          "name": "",
          "type": "uint256"
        }
      ],
      "payable": false,
      "stateMutability": "view",
      "type": "function"
    },
    {
      "constant": true,
      "inputs": [
        {
          "name": "_host",
          "type": "address"
        }
      ],
      "name": "getHostStats",
      "outputs": [
        {
          "name": "",
          "type": "uint256"
        },
        {
          "name": "",
          "type": "uint256"
        },
        {
          "name": "",
          "type": "uint256"
        },
        {
          "name": "",
          "type": "uint256"
        }
      ],
      "payable": false,
      "stateMutability": "view",
      "type": "function"
    },
    {
      "constant": false,
      "inputs": [
        {
          "name": "_name",
          "type": "bytes32"
        }
      ],
      "name": "registerRecord",
      "outputs": [],
      "payable": false,
      "stateMutability": "nonpayable",
      "type": "function"
    },
    {
      "constant": false,
      "inputs": [],
      "name": "deleteRecord",
      "outputs": [],
      "payable": false,
      "stateMutability": "nonpayable",
      "type": "function"
    },
    {
      "constant": false,
      "inputs": [
        {
          "name": "_newName",
          "type": "bytes32"
        }
      ],
      "name": "updateRecord",
      "outputs": [],
      "payable": false,
      "stateMutability": "nonpayable",
      "type": "function"
    },
    {
      "constant": false,
      "inputs": [
        {
          "name": "_name",
          "type": "bytes32"
        }
      ],
      "name": "sudoDeleteRecord",
      "outputs": [],
      "payable": false,
      "stateMutability": "nonpayable",
      "type": "function"
    }
  ],
  "bytecode": "0x6080604052336000806101000a81548173ffffffffffffffffffffffffffffffffffffffff021916908373ffffffffffffffffffffffffffffffffffffffff1602179055506136f9806100536000396000f300608060405260043610610180576000357c0100000000000000000000000000000000000000000000000000000000900463ffffffff16806301186d991461018557806303437415146101b657806307be5b6d1461024b5780630d4c0960146102b45780631536c9e21461030b5780631584108b1461038357806317b0421a146103ef5780632b7b0d48146104b65780634245ac9d1461052e578063471990ba146105c057806351fde5ce1461063357806358cefa4c146106ab57806365426a981461073557806366d9e7d81461074c57806369a1ea111461077d5780636f50c44b14610807578063715018a614610838578063764ac7341461084f5780638baf79a4146108bb5780638da5cb5b146109195780638f6ae7001461097057806397c78536146109e85780639dd4527d14610a34578063a070f04e14610aa5578063b357cae314610b04578063be1075d414610b8e578063da6295a414610c18578063f181b9a314610c84578063f2fde38b14610d04578063f6734bcd14610d47575b600080fd5b34801561019157600080fd5b506101b46004803603810190808035600019169060200190929190505050610ddc565b005b3480156101c257600080fd5b506101f7600480360381019080803573ffffffffffffffffffffffffffffffffffffffff169060200190929190505050610df0565b60405180827bffffffffffffffffffffffffffffffffffffffffffffffffffffffff19167bffffffffffffffffffffffffffffffffffffffffffffffffffffffff1916815260200191505060405180910390f35b6102b2600480360381019080803573ffffffffffffffffffffffffffffffffffffffff16906020019092919080357bffffffffffffffffffffffffffffffffffffffffffffffffffffffff1916906020019092919080359060200190929190505050610f0b565b005b61030960048036038101908080359060200190820180359060200191909192939192939080357bffffffffffffffffffffffffffffffffffffffffffffffffffffffff19169060200190929190505050611157565b005b34801561031757600080fd5b5061036d600480360381019080803560001916906020019092919080357bffffffffffffffffffffffffffffffffffffffffffffffffffffffff19169060200190929190803590602001909291905050506115c2565b6040518082815260200191505060405180910390f35b34801561038f57600080fd5b506103ed600480360381019080803573ffffffffffffffffffffffffffffffffffffffff16906020019092919080357bffffffffffffffffffffffffffffffffffffffffffffffffffffffff1916906020019092919050505061175d565b005b3480156103fb57600080fd5b50610459600480360381019080803573ffffffffffffffffffffffffffffffffffffffff16906020019092919080357bffffffffffffffffffffffffffffffffffffffffffffffffffffffff19169060200190929190505050611955565b604051808b81526020018a815260200189815260200188815260200187600019166000191681526020018681526020018581526020018481526020018381526020018281526020019a505050505050505050505060405180910390f35b3480156104c257600080fd5b50610518600480360381019080803560001916906020019092919080357bffffffffffffffffffffffffffffffffffffffffffffffffffffffff19169060200190929190803590602001909291905050506119f0565b6040518082815260200191505060405180910390f35b34801561053a57600080fd5b506105a2600480360381019080803573ffffffffffffffffffffffffffffffffffffffff16906020019092919080357bffffffffffffffffffffffffffffffffffffffffffffffffffffffff1916906020019092919080359060200190929190505050611b8b565b60405180826000191660001916815260200191505060405180910390f35b3480156105cc57600080fd5b50610601600480360381019080803573ffffffffffffffffffffffffffffffffffffffff169060200190929190505050611bdf565b604051808681526020018581526020018481526020018381526020018281526020019550505050505060405180910390f35b34801561063f57600080fd5b50610695600480360381019080803560001916906020019092919080357bffffffffffffffffffffffffffffffffffffffffffffffffffffffff1916906020019092919080359060200190929190505050611c15565b6040518082815260200191505060405180910390f35b3480156106b757600080fd5b5061071f600480360381019080803573ffffffffffffffffffffffffffffffffffffffff16906020019092919080357bffffffffffffffffffffffffffffffffffffffffffffffffffffffff1916906020019092919080359060200190929190505050611db0565b6040518082815260200191505060405180910390f35b34801561074157600080fd5b5061074a611e5e565b005b34801561075857600080fd5b5061077b6004803603810190808035600019169060200190929190505050611f34565b005b34801561078957600080fd5b506107f1600480360381019080803573ffffffffffffffffffffffffffffffffffffffff16906020019092919080357bffffffffffffffffffffffffffffffffffffffffffffffffffffffff1916906020019092919080359060200190929190505050612010565b6040518082815260200191505060405180910390f35b34801561081357600080fd5b5061083660048036038101908080356000191690602001909291905050506120c1565b005b34801561084457600080fd5b5061084d6121a5565b005b34801561085b57600080fd5b50610890600480360381019080803573ffffffffffffffffffffffffffffffffffffffff1690602001909291905050506122a7565b6040518085815260200184815260200183815260200182815260200194505050505060405180910390f35b610917600480360381019080803560001916906020019092919080359060200190820180359060200191909192939192939080608001909192919290803590602001908201803590602001919091929391929390505050612314565b005b34801561092557600080fd5b5061092e6127ac565b604051808273ffffffffffffffffffffffffffffffffffffffff1673ffffffffffffffffffffffffffffffffffffffff16815260200191505060405180910390f35b34801561097c57600080fd5b506109d2600480360381019080803560001916906020019092919080357bffffffffffffffffffffffffffffffffffffffffffffffffffffffff19169060200190929190803590602001909291905050506127d1565b6040518082815260200191505060405180910390f35b3480156109f457600080fd5b50610a3260048036038101908080357bffffffffffffffffffffffffffffffffffffffffffffffffffffffff1916906020019092919050505061296c565b005b348015610a4057600080fd5b50610a636004803603810190808035600019169060200190929190505050612b76565b604051808273ffffffffffffffffffffffffffffffffffffffff1673ffffffffffffffffffffffffffffffffffffffff16815260200191505060405180910390f35b348015610ab157600080fd5b50610ae6600480360381019080803573ffffffffffffffffffffffffffffffffffffffff169060200190929190505050612ba9565b60405180826000191660001916815260200191505060405180910390f35b348015610b1057600080fd5b50610b78600480360381019080803573ffffffffffffffffffffffffffffffffffffffff16906020019092919080357bffffffffffffffffffffffffffffffffffffffffffffffffffffffff1916906020019092919080359060200190929190505050612bc1565b6040518082815260200191505060405180910390f35b348015610b9a57600080fd5b50610c02600480360381019080803573ffffffffffffffffffffffffffffffffffffffff16906020019092919080357bffffffffffffffffffffffffffffffffffffffffffffffffffffffff1916906020019092919080359060200190929190505050612c2d565b6040518082815260200191505060405180910390f35b348015610c2457600080fd5b50610c82600480360381019080803573ffffffffffffffffffffffffffffffffffffffff16906020019092919080357bffffffffffffffffffffffffffffffffffffffffffffffffffffffff19169060200190929190505050612cdb565b005b348015610c9057600080fd5b50610ce6600480360381019080803560001916906020019092919080357bffffffffffffffffffffffffffffffffffffffffffffffffffffffff1916906020019092919080359060200190929190505050612e93565b60405180826000191660001916815260200191505060405180910390f35b348015610d1057600080fd5b50610d45600480360381019080803573ffffffffffffffffffffffffffffffffffffffff16906020019092919050505061302e565b005b348015610d5357600080fd5b50610db1600480360381019080803573ffffffffffffffffffffffffffffffffffffffff16906020019092919080357bffffffffffffffffffffffffffffffffffffffffffffffffffffffff19169060200190929190505050613095565b6040518085815260200184815260200183815260200182815260200194505050505060405180910390f35b610de4611e5e565b610ded81611f34565b50565b6000806000600260008573ffffffffffffffffffffffffffffffffffffffff1673ffffffffffffffffffffffffffffffffffffffff1681526020019081526020016000206000015491508382604051602001808373ffffffffffffffffffffffffffffffffffffffff1673ffffffffffffffffffffffffffffffffffffffff166c01000000000000000000000000028152601401828152602001925050506040516020818303038152906040526040518082805190602001908083835b602083101515610ed25780518252602082019150602081019050602083039250610ead565b6001836020036101000a038019825116818451168082178552505050505050905001915050604051809103902090508092505050919050565b6000610f1784846130f1565b905060026006811115610f2657fe5b8160010160009054906101000a900460ff166006811115610f4357fe5b141515610f4f57600080fd5b600034118015610f63575080600501543410155b1515610f6e57600080fd5b6000600102600019168160090160000183815481101515610f8b57fe5b90600052602060002001546000191614151515610fa757600080fd5b600081600401541480610fbd5750806004015442105b1515610fc857600080fd5b61102d3482600f01600085815260200190815260200160002060003373ffffffffffffffffffffffffffffffffffffffff1673ffffffffffffffffffffffffffffffffffffffff168152602001908152602001600020546131bf90919063ffffffff16565b81600f01600084815260200190815260200160002060003373ffffffffffffffffffffffffffffffffffffffff1673ffffffffffffffffffffffffffffffffffffffff168152602001908152602001600020819055506110ab34826010016000858152602001908152602001600020546131bf90919063ffffffff16565b816010016000848152602001908152602001600020819055506110ed6001826011016000858152602001908152602001600020546131bf90919063ffffffff16565b81601101600084815260200190815260200160002081905550611121600182600d01600001546131bf90919063ffffffff16565b81600d01600001819055506111463482600d01600101546131bf90919063ffffffff16565b81600d016001018190555050505050565b600080600080600080600061116c33896130f1565b96506002600681111561117b57fe5b8760010160009054906101000a900460ff16600681111561119857fe5b14806111cb5750600360068111156111ac57fe5b8760010160009054906101000a900460ff1660068111156111c957fe5b145b15156111d657600080fd5b86600901600001805490508a8a90501415156111f157600080fd5b86600401544210151561120357600080fd5b611231606461122360018a600d01600101546131db90919063ffffffff16565b61321390919063ffffffff16565b95508587600d0160010154039450611270606461126289600701548a600d01600101546131db90919063ffffffff16565b61321390919063ffffffff16565b93508385039450600091505b8989905082101561133457898983818110151561129557fe5b90506020020135905060008114156112ac57611327565b606481111515156112bc57600080fd5b80830192508087600b0160010160008481526020019081526020016000208190555061130460646112f683886131db90919063ffffffff16565b61321390919063ffffffff16565b87600b016000018381548110151561131857fe5b90600052602060002001819055505b818060010192505061127c565b60648314151561134357600080fd5b86600d0160000154600260003373ffffffffffffffffffffffffffffffffffffffff1673ffffffffffffffffffffffffffffffffffffffff1681526020019081526020016000206003016000828254019250508190555086600d0160010154600260003373ffffffffffffffffffffffffffffffffffffffff1673ffffffffffffffffffffffffffffffffffffffff168152602001908152602001600020600401600082825401925050819055506001600260003373ffffffffffffffffffffffffffffffffffffffff1673ffffffffffffffffffffffffffffffffffffffff1681526020019081526020016000206001016000828254019250508190555060048760010160006101000a81548160ff0219169083600681111561146357fe5b02179055504287600301819055506000809054906101000a900473ffffffffffffffffffffffffffffffffffffffff1673ffffffffffffffffffffffffffffffffffffffff166108fc879081150290604051600060405180830381858888f193505050501580156114d8573d6000803e3d6000fd5b50600084111561152a573373ffffffffffffffffffffffffffffffffffffffff166108fc859081150290604051600060405180830381858888f19350505050158015611528573d6000803e3d6000fd5b505b3373ffffffffffffffffffffffffffffffffffffffff167f4cdf964e6e89934ffc032ff3f5be1525aa747560a07d9e380c8bead358e6febd8960405180827bffffffffffffffffffffffffffffffffffffffffffffffffffffffff19167bffffffffffffffffffffffffffffffffffffffffffffffffffffffff1916815260200191505060405180910390a250505050505050505050565b60008073ffffffffffffffffffffffffffffffffffffffff1660036000866000191660001916815260200190815260200160002060009054906101000a900473ffffffffffffffffffffffffffffffffffffffff1673ffffffffffffffffffffffffffffffffffffffff1614156040805190810160405280601381526020017f484f53545f4e414d455f4e4f545f464f554e440000000000000000000000000081525090151561170d576040517f08c379a00000000000000000000000000000000000000000000000000000000081526004018080602001828103825283818151815260200191508051906020019080838360005b838110156116d25780820151818401526020810190506116b7565b50505050905090810190601f1680156116ff5780820380516001836020036101000a031916815260200191505b509250505060405180910390fd5b5061175460036000866000191660001916815260200190815260200160002060009054906101000a900473ffffffffffffffffffffffffffffffffffffffff168484612c2d565b90509392505050565b600080600080600061176f87876130f1565b94506004600681111561177e57fe5b8560010160009054906101000a900460ff16600681111561179b57fe5b1415156117a757600080fd5b600092505b84600901600001805490508310156118f65784600b01600101600084815260200190815260200160002054915060008214156117e7576118e9565b61186185600f01600085815260200190815260200160002060003373ffffffffffffffffffffffffffffffffffffffff1673ffffffffffffffffffffffffffffffffffffffff16815260200190815260200160002054838760100160008781526020019081526020016000205488600d0160010154613229565b905060008111156118da5761187f81856131bf90919063ffffffff16565b9350600085600f01600085815260200190815260200160002060003373ffffffffffffffffffffffffffffffffffffffff1673ffffffffffffffffffffffffffffffffffffffff168152602001908152602001600020819055505b60648214156118e8576118f6565b5b82806001019350506117ac565b60008411151561190557600080fd5b3373ffffffffffffffffffffffffffffffffffffffff166108fc859081150290604051600060405180830381858888f1935050505015801561194b573d6000803e3d6000fd5b5050505050505050565b60008060008060008060008060008060008c8c6119728f8f6130f1565b92508260010160009054906101000a900460ff16600681111561199157fe5b8360020154846003015485600401548660080154876009016000018054905088600d016000015489600d01600101548a600601548b600701549c509c509c509c509c509c509c509c509c509c505050509295989b9194979a5092959850565b60008073ffffffffffffffffffffffffffffffffffffffff1660036000866000191660001916815260200190815260200160002060009054906101000a900473ffffffffffffffffffffffffffffffffffffffff1673ffffffffffffffffffffffffffffffffffffffff1614156040805190810160405280601381526020017f484f53545f4e414d455f4e4f545f464f554e4400000000000000000000000000815250901515611b3b576040517f08c379a00000000000000000000000000000000000000000000000000000000081526004018080602001828103825283818151815260200191508051906020019080838360005b83811015611b00578082015181840152602081019050611ae5565b50505050905090810190601f168015611b2d5780820380516001836020036101000a031916815260200191505b509250505060405180910390fd5b50611b8260036000866000191660001916815260200190815260200160002060009054906101000a900473ffffffffffffffffffffffffffffffffffffffff168484612bc1565b90509392505050565b6000808484611b9a87876130f1565b9250826009016000018054905085101515611bb457600080fd5b8260090160000185815481101515611bc857fe5b906000526020600020015493505050509392505050565b60026020528060005260406000206000915090508060000154908060010154908060020154908060030154908060040154905085565b60008073ffffffffffffffffffffffffffffffffffffffff1660036000866000191660001916815260200190815260200160002060009054906101000a900473ffffffffffffffffffffffffffffffffffffffff1673ffffffffffffffffffffffffffffffffffffffff1614156040805190810160405280601381526020017f484f53545f4e414d455f4e4f545f464f554e4400000000000000000000000000815250901515611d60576040517f08c379a00000000000000000000000000000000000000000000000000000000081526004018080602001828103825283818151815260200191508051906020019080838360005b83811015611d25578082015181840152602081019050611d0a565b50505050905090810190601f168015611d525780820380516001836020036101000a031916815260200191505b509250505060405180910390fd5b50611da760036000866000191660001916815260200190815260200160002060009054906101000a900473ffffffffffffffffffffffffffffffffffffffff168484611db0565b90509392505050565b6000600160008573ffffffffffffffffffffffffffffffffffffffff1673ffffffffffffffffffffffffffffffffffffffff1681526020019081526020016000206000847bffffffffffffffffffffffffffffffffffffffffffffffffffffffff19167bffffffffffffffffffffffffffffffffffffffffffffffffffffffff1916815260200190815260200160002060110160008381526020019081526020016000205490509392505050565b6000600460003373ffffffffffffffffffffffffffffffffffffffff1673ffffffffffffffffffffffffffffffffffffffff16815260200190815260200160002054905060007f010000000000000000000000000000000000000000000000000000000000000002816000602081101515611ed557fe5b1a7f0100000000000000000000000000000000000000000000000000000000000000027effffffffffffffffffffffffffffffffffffffffffffffffffffffffffffff191614151515611f2757600080fd5b611f3133826132c2565b50565b600073ffffffffffffffffffffffffffffffffffffffff1660036000836000191660001916815260200190815260200160002060009054906101000a900473ffffffffffffffffffffffffffffffffffffffff1673ffffffffffffffffffffffffffffffffffffffff16141515611faa57600080fd5b600060010260001916600460003373ffffffffffffffffffffffffffffffffffffffff1673ffffffffffffffffffffffffffffffffffffffff168152602001908152602001600020546000191614151561200357600080fd5b61200d3382613347565b50565b6000600160008573ffffffffffffffffffffffffffffffffffffffff1673ffffffffffffffffffffffffffffffffffffffff1681526020019081526020016000206000847bffffffffffffffffffffffffffffffffffffffffffffffffffffffff19167bffffffffffffffffffffffffffffffffffffffffffffffffffffffff19168152602001908152602001600020600b0160010160008381526020019081526020016000205490509392505050565b60008060009054906101000a900473ffffffffffffffffffffffffffffffffffffffff1673ffffffffffffffffffffffffffffffffffffffff163373ffffffffffffffffffffffffffffffffffffffff1614151561211e57600080fd5b60036000836000191660001916815260200190815260200160002060009054906101000a900473ffffffffffffffffffffffffffffffffffffffff169050600073ffffffffffffffffffffffffffffffffffffffff168173ffffffffffffffffffffffffffffffffffffffff1614151561219757600080fd5b6121a181836132c2565b5050565b6000809054906101000a900473ffffffffffffffffffffffffffffffffffffffff1673ffffffffffffffffffffffffffffffffffffffff163373ffffffffffffffffffffffffffffffffffffffff1614151561220057600080fd5b6000809054906101000a900473ffffffffffffffffffffffffffffffffffffffff1673ffffffffffffffffffffffffffffffffffffffff167ff8df31144d9c2f0f6b59d69b8b98abd5459d07f2742c4df920b25aae33c6482060405160405180910390a260008060006101000a81548173ffffffffffffffffffffffffffffffffffffffff021916908373ffffffffffffffffffffffffffffffffffffffff160217905550565b6000806000806000600260008773ffffffffffffffffffffffffffffffffffffffff1673ffffffffffffffffffffffffffffffffffffffff168152602001908152602001600020905080600101548160020154826003015483600401549450945094509450509193509193565b600061231e61359b565b6123266135b5565b61232e6135c9565b600080600089600060048110151561234257fe5b6020020135148061236557504289600060048110151561235e57fe5b6020020135115b151561237057600080fd5b603c89600160048110151561238157fe5b60200201351015151561239357600080fd5b60028b8b9050101580156123ab5750600a8b8b905011155b15156123b657600080fd5b60648960036004811015156123c757fe5b6020020135111515156123d957600080fd5b8a8a905088889050111515156123ee57600080fd5b6002955060408051908101604052808c8c80806020026020016040519081016040528093929190818152602001838360200280828437820191505050505050815260200189898080602002602001604051908101604052809392919081815260200183836020028082843782019150505050505081525094506020604051908101604052808c8c90506040519080825280602002602001820160405280156124a55781602001602082028038833980820191505090505b5081525093506040805190810160405280600081526020013481525092506124cc336133ed565b8092508193505050610180604051908101604052808381526020018760068111156124f357fe5b8152602001428152602001600081526020018a600160048110151561251457fe5b6020020135420181526020018a600260048110151561252f57fe5b602002013581526020013481526020018a600360048110151561254e57fe5b602002013581526020018d60001916815260200186815260200185815260200184815250600160003373ffffffffffffffffffffffffffffffffffffffff1673ffffffffffffffffffffffffffffffffffffffff1681526020019081526020016000206000837bffffffffffffffffffffffffffffffffffffffffffffffffffffffff19167bffffffffffffffffffffffffffffffffffffffffffffffffffffffff191681526020019081526020016000206000820151816000015560208201518160010160006101000a81548160ff0219169083600681111561262e57fe5b021790555060408201518160020155606082015181600301556080820151816004015560a0820151816005015560c0820151816006015560e0820151816007015561010082015181600801906000191690556101208201518160090160008201518160000190805190602001906126a69291906135e3565b5060208201518160010190805190602001906126c3929190613636565b50505061014082015181600b0160008201518160000190805190602001906126ec929190613636565b50505061016082015181600d01600082015181600001556020820151816001015550509050503373ffffffffffffffffffffffffffffffffffffffff167f38200ecf62e44ebceaabbd4292688e3e06ac3bdaf612a0287f9d1d7f0e3e5ad08260405180827bffffffffffffffffffffffffffffffffffffffffffffffffffffffff19167bffffffffffffffffffffffffffffffffffffffffffffffffffffffff1916815260200191505060405180910390a2505050505050505050505050565b6000809054906101000a900473ffffffffffffffffffffffffffffffffffffffff1681565b60008073ffffffffffffffffffffffffffffffffffffffff1660036000866000191660001916815260200190815260200160002060009054906101000a900473ffffffffffffffffffffffffffffffffffffffff1673ffffffffffffffffffffffffffffffffffffffff1614156040805190810160405280601381526020017f484f53545f4e414d455f4e4f545f464f554e440000000000000000000000000081525090151561291c576040517f08c379a00000000000000000000000000000000000000000000000000000000081526004018080602001828103825283818151815260200191508051906020019080838360005b838110156128e15780820151818401526020810190506128c6565b50505050905090810190601f16801561290e5780820380516001836020036101000a031916815260200191505b509250505060405180910390fd5b5061296360036000866000191660001916815260200190815260200160002060009054906101000a900473ffffffffffffffffffffffffffffffffffffffff168484612010565b90509392505050565b600061297833836130f1565b90506001600681111561298757fe5b8160010160009054906101000a900460ff1660068111156129a457fe5b14806129d75750600260068111156129b857fe5b8160010160009054906101000a900460ff1660068111156129d557fe5b145b15156129e257600080fd5b6005600160003373ffffffffffffffffffffffffffffffffffffffff1673ffffffffffffffffffffffffffffffffffffffff1681526020019081526020016000206000847bffffffffffffffffffffffffffffffffffffffffffffffffffffffff19167bffffffffffffffffffffffffffffffffffffffffffffffffffffffff1916815260200190815260200160002060010160006101000a81548160ff02191690836006811115612a9057fe5b02179055506001600260003373ffffffffffffffffffffffffffffffffffffffff1673ffffffffffffffffffffffffffffffffffffffff168152602001908152602001600020600201600082825401925050819055503373ffffffffffffffffffffffffffffffffffffffff167f81a8172348667ad6402f7c3aca080b41512f7d5925c666de439a4473e51fe4b78360405180827bffffffffffffffffffffffffffffffffffffffffffffffffffffffff19167bffffffffffffffffffffffffffffffffffffffffffffffffffffffff1916815260200191505060405180910390a25050565b60036020528060005260406000206000915054906101000a900473ffffffffffffffffffffffffffffffffffffffff1681565b60046020528060005260406000206000915090505481565b600080612bce85856130f1565b905080600f01600084815260200190815260200160002060003373ffffffffffffffffffffffffffffffffffffffff1673ffffffffffffffffffffffffffffffffffffffff168152602001908152602001600020549150509392505050565b6000600160008573ffffffffffffffffffffffffffffffffffffffff1673ffffffffffffffffffffffffffffffffffffffff1681526020019081526020016000206000847bffffffffffffffffffffffffffffffffffffffffffffffffffffffff19167bffffffffffffffffffffffffffffffffffffffffffffffffffffffff1916815260200190815260200160002060100160008381526020019081526020016000205490509392505050565b6000806000612cea85856130f1565b925060056006811115612cf957fe5b8360010160009054906101000a900460ff166006811115612d1657fe5b1480612d485750600680811115612d2957fe5b8360010160009054906101000a900460ff166006811115612d4657fe5b145b1515612d5357600080fd5b600090505b8260090160000180549050811015612e3657612dcf83600f01600083815260200190815260200160002060003373ffffffffffffffffffffffffffffffffffffffff1673ffffffffffffffffffffffffffffffffffffffff16815260200190815260200160002054836131bf90919063ffffffff16565b9150600083600f01600083815260200190815260200160002060003373ffffffffffffffffffffffffffffffffffffffff1673ffffffffffffffffffffffffffffffffffffffff168152602001908152602001600020819055508080600101915050612d58565b600082111515612e4557600080fd5b3373ffffffffffffffffffffffffffffffffffffffff166108fc839081150290604051600060405180830381858888f19350505050158015612e8b573d6000803e3d6000fd5b505050505050565b60008073ffffffffffffffffffffffffffffffffffffffff1660036000866000191660001916815260200190815260200160002060009054906101000a900473ffffffffffffffffffffffffffffffffffffffff1673ffffffffffffffffffffffffffffffffffffffff1614156040805190810160405280601381526020017f484f53545f4e414d455f4e4f545f464f554e4400000000000000000000000000815250901515612fde576040517f08c379a00000000000000000000000000000000000000000000000000000000081526004018080602001828103825283818151815260200191508051906020019080838360005b83811015612fa3578082015181840152602081019050612f88565b50505050905090810190601f168015612fd05780820380516001836020036101000a031916815260200191505b509250505060405180910390fd5b5061302560036000866000191660001916815260200190815260200160002060009054906101000a900473ffffffffffffffffffffffffffffffffffffffff168484611b8b565b90509392505050565b6000809054906101000a900473ffffffffffffffffffffffffffffffffffffffff1673ffffffffffffffffffffffffffffffffffffffff163373ffffffffffffffffffffffffffffffffffffffff1614151561308957600080fd5b613092816134a1565b50565b600080600080600086866130a989896130f1565b92508260010160009054906101000a900460ff1660068111156130c857fe5b836003015484600d016000015485600d0160010154965096509650965050505092959194509250565b6000806000600160008673ffffffffffffffffffffffffffffffffffffffff1673ffffffffffffffffffffffffffffffffffffffff1681526020019081526020016000206000857bffffffffffffffffffffffffffffffffffffffffffffffffffffffff19167bffffffffffffffffffffffffffffffffffffffffffffffffffffffff1916815260200190815260200160002091508160010160009054906101000a900460ff16905060078160068111156131a857fe5b1015156131b457600080fd5b819250505092915050565b600081830190508281101515156131d257fe5b80905092915050565b6000808314156131ee576000905061320d565b81830290508183828115156131ff57fe5b0414151561320957fe5b8090505b92915050565b6000818381151561322057fe5b04905092915050565b6000806000808711156132b3576132548568056bc75e2d63100000890261321390919063ffffffff16565b91506132a968056bc75e2d6310000061329b8461328d606461327f8c8b6131db90919063ffffffff16565b61321390919063ffffffff16565b6131db90919063ffffffff16565b61321390919063ffffffff16565b90508092506132b8565b600092505b5050949350505050565b60036000826000191660001916815260200190815260200160002060006101000a81549073ffffffffffffffffffffffffffffffffffffffff0219169055600460008373ffffffffffffffffffffffffffffffffffffffff1673ffffffffffffffffffffffffffffffffffffffff168152602001908152602001600020600090555050565b8160036000836000191660001916815260200190815260200160002060006101000a81548173ffffffffffffffffffffffffffffffffffffffff021916908373ffffffffffffffffffffffffffffffffffffffff16021790555080600460008473ffffffffffffffffffffffffffffffffffffffff1673ffffffffffffffffffffffffffffffffffffffff16815260200190815260200160002081600019169055505050565b600080600080600260008673ffffffffffffffffffffffffffffffffffffffff1673ffffffffffffffffffffffffffffffffffffffff16815260200190815260200160002060000154915061344185610df0565b90506001600260008773ffffffffffffffffffffffffffffffffffffffff1673ffffffffffffffffffffffffffffffffffffffff168152602001908152602001600020600001600082825401925050819055508181935093505050915091565b600073ffffffffffffffffffffffffffffffffffffffff168173ffffffffffffffffffffffffffffffffffffffff16141515156134dd57600080fd5b8073ffffffffffffffffffffffffffffffffffffffff166000809054906101000a900473ffffffffffffffffffffffffffffffffffffffff1673ffffffffffffffffffffffffffffffffffffffff167f8be0079c531659141344cd1fd0a4f28419497f9722a3daafe3b4186f6b6457e060405160405180910390a3806000806101000a81548173ffffffffffffffffffffffffffffffffffffffff021916908373ffffffffffffffffffffffffffffffffffffffff16021790555050565b604080519081016040528060608152602001606081525090565b602060405190810160405280606081525090565b604080519081016040528060008152602001600081525090565b828054828255906000526020600020908101928215613625579160200282015b82811115613624578251829060001916905591602001919060010190613603565b5b5090506136329190613683565b5090565b828054828255906000526020600020908101928215613672579160200282015b82811115613671578251825591602001919060010190613656565b5b50905061367f91906136a8565b5090565b6136a591905b808211156136a1576000816000905550600101613689565b5090565b90565b6136ca91905b808211156136c65760008160009055506001016136ae565b5090565b905600a165627a7a723058207b322090fcf37ae7f02ac06892ae880926048aaff4316640662b680cd8dd167b0029",
  "source": "pragma solidity ^0.4.24;\n\nimport 'openzeppelin-solidity/contracts/ownership/Ownable.sol';\nimport 'openzeppelin-solidity/contracts/math/SafeMath.sol';\n\ncontract Betl is Ownable {\n  using SafeMath for uint;\n\n  uint private constant FEE_PERCENT = 1;\n  uint private constant MIN_TIMEOUT = 1 minutes;\n  uint private constant MODE_WHATEVER = 0;       // usecase for modes?\n  uint private constant MAX_OUTCOMES = 10;\n\n  enum Status {\n    UNDEFINED, // Round doesn't exist\n    SCHEDULED, // Round exists and is scheduled for the future\n    OPEN,\n    CLOSED,\n    FINISHED,\n    CANCELLED,\n    TIMEOUT\n  }\n\n  // Errors\n  string constant HOST_NAME_NOT_FOUND = 'HOST_NAME_NOT_FOUND';\n  string constant HOST_OR_ROUND_NOT_FOUND = 'HOST_OR_ROUND_NOT_FOUND';\n\n  event RoundCreated(address indexed host, bytes4 roundId);\n  event RoundFinished(address indexed host, bytes4 roundId);\n  event RoundCancelled(address indexed host, bytes4 roundId);\n\n  struct Outcomes {\n    bytes32[] outcomes;\n    // Specifies payout distributions in case multiple winners are possible\n    // Example: When there are 3 winners, this array can be [60, 30, 10] ==> in percents, must sum to 100.\n    // winnerTiers.length <= numOutcomes\n    uint[] payoutTiers;\n    //bool hasFlexOutcomes;\n  }\n\n  struct Results {\n    uint[] payouts;\n    // outcomeIndex => winShare [0-100]\n    mapping(uint => uint) outcomeWinShares;\n  }\n\n  struct Stats {\n    uint numBets;\n    uint poolSize;\n  }\n\n  struct Round {\n    uint roundNumber;\n    Status status;\n    uint createdAt;\n    uint endedAt;\n    uint timeoutAt;\n    uint minBet;\n    uint hostBonus; // or: add directly to roundstats += hostBonus\n    uint hostFee;\n\n    bytes32 question;\n    Outcomes outcomes;\n    Results results;\n    Stats stats;\n    // outcomeIndex =>         player  => bet\n    mapping(uint => mapping(address => uint)) playerBets;\n    // outcomeIndex => totalBets\n    mapping(uint => uint) outcomePools;\n    mapping(uint => uint) outcomeNumBets;\n  }\n\n  struct HostContext {\n    uint nextRoundNumber; // == numRoundsCreated\n    uint numRoundsSuccess;\n    uint numRoundsCancelled;\n    uint totalNumBets;\n    uint totalPoolSize;\n  }\n\n  //      host    =>  hash(host,id) => Round\n  mapping(address => mapping(bytes4 => Round)) rounds;\n\n  //      host    => stats\n  mapping(address => HostContext) public hostContext;\n\n  //      name   <=> host\n  mapping(bytes32 => address) public hostAddresses;\n  mapping(address => bytes32) public hostNames;\n\n  modifier roundExists(address _host, bytes4 _roundId) {\n    //require(rounds[_host][_roundId].status != Status.UNDEFINED, HOST_OR_ROUND_NOT_FOUND);\n    _;\n  }\n\n  function getRound(address _host, bytes4 _roundId) private view returns (Round storage) {\n    Round storage r = rounds[_host][_roundId];\n    // verify existance of round\n    Status status = r.status;\n    require(uint(status) < 7);\n    return r;\n  }\n\n  // function getRoundId(address _host) public view returns (bytes4) {\n  //   uint nextRoundNumber = getNextRoundNumber(_host);\n  //   require(nextRoundNumber > 0);\n  //   bytes32 hash = keccak256(abi.encodePacked(_host, nextRoundNumber-1));\n  //   return bytes4(hash);\n  // }\n\n  // Frontend needs to fetch roundId of created round.\n  function getNextRoundId(address _host) public view returns (bytes4) {\n    uint nrn = hostContext[_host].nextRoundNumber;\n    bytes32 hash = keccak256(abi.encodePacked(_host, nrn));\n    return bytes4(hash);\n  }\n\n  function generateRoundId(address _host) private returns (uint, bytes4) {\n    uint roundNumber = hostContext[_host].nextRoundNumber;\n    bytes4 roundId = getNextRoundId(_host);\n    hostContext[_host].nextRoundNumber += 1;\n    return (roundNumber, roundId);\n  }\n\n  // ADD/TODO/TOTHINK?:\n  // - modeCode usefulness? e.g. 'winner-takes-it-all', '80-20', '66-33', '66-25-9', '50-25-12.5-6.25-3.125'\n  // configData[ scheduledAt, timeout, minBet, hostShare ]\n  // COSTS: 294518 gas -> @ 5Gwei: 1 dollar\n  function createRound(\n    bytes32 _question,\n    bytes32[] _outcomes,\n    uint[4] _configData, // array of format `[scheduledAt, timeout, minBet, hostFee]`\n    uint[] _payoutTiers\n  )\n    external\n    payable\n  {\n    require(_configData[0] == 0 || _configData[0] > now);\n    require(_configData[1] >= MIN_TIMEOUT);\n    require(_outcomes.length >= 2 && _outcomes.length <= MAX_OUTCOMES);\n    require(_configData[3] <= 100);\n    require(_payoutTiers.length <= _outcomes.length);\n\n    Status status = Status.OPEN;\n\n    Outcomes memory outcomes = Outcomes(\n      _outcomes,                        // outcomes\n      _payoutTiers                      // payout tiers in percent in DESC order\n    );\n\n    Results memory results = Results(\n      new uint[](_outcomes.length)      // payouts\n    );\n\n    Stats memory stats = Stats(\n      0,                                // numBets\n      msg.value                         // poolSize\n    );\n\n    uint roundNumber;\n    bytes4 roundId;\n    (roundNumber, roundId) = generateRoundId(msg.sender);\n\n    rounds[msg.sender][roundId] = Round(\n      roundNumber,\n      status,                           // initial status\n      now,                              // createdAt\n      0,                                // endedAt\n      now + _configData[1],             // timeoutAt\n      _configData[2],                   // minBet\n      msg.value,                        // hostBonus\n      _configData[3],                   // hostFee\n\n      _question,\n      outcomes,\n      results,\n      stats\n    );\n\n    emit RoundCreated(msg.sender, roundId);\n  }\n\n  function bet(address _host, bytes4 _roundId, uint _outcomeIndex) external payable {\n    Round storage r = getRound(_host, _roundId);\n    require(r.status == Status.OPEN);\n\n    require(msg.value > 0 && msg.value >= r.minBet);\n    require(r.outcomes.outcomes[_outcomeIndex] != bytes32(0));\n    require(r.timeoutAt == 0 || now < r.timeoutAt);\n  \n    r.playerBets[_outcomeIndex][msg.sender] = r.playerBets[_outcomeIndex][msg.sender].add(msg.value);\n    r.outcomePools[_outcomeIndex] = r.outcomePools[_outcomeIndex].add(msg.value);\n    r.outcomeNumBets[_outcomeIndex] = r.outcomeNumBets[_outcomeIndex].add(1);\n    r.stats.numBets = r.stats.numBets.add(1);\n    r.stats.poolSize = r.stats.poolSize.add(msg.value);\n  } \n\n  function pickWinnerAndEnd(uint[] _picks, bytes4 _roundId) external payable {\n    Round storage r = getRound(msg.sender, _roundId);\n    require(r.status == Status.OPEN || r.status == Status.CLOSED);\n\n    require(_picks.length == r.outcomes.outcomes.length);\n    require(now < r.timeoutAt); // --> cancelInternal when timeoutAt reached? Nahh. move to Closed?\n\n    uint ownerFee = r.stats.poolSize.mul(FEE_PERCENT).div(100);\n    uint remainingPool = r.stats.poolSize - ownerFee;\n    uint hostFee = r.stats.poolSize.mul(r.hostFee).div(100);\n    remainingPool = remainingPool - hostFee;\n\n    uint allShares;\n\n    for (uint i=0; i<_picks.length; i++) {\n      uint outcomeShare = _picks[i];\n\n      if(outcomeShare == 0) continue;\n\n      require(outcomeShare <= 100);\n      allShares += outcomeShare;\n\n      // populate lookup to simplify getter function `getRoundOutcomeWinShare`\n      r.results.outcomeWinShares[i] = outcomeShare;\n\n      // distribute round pool\n      r.results.payouts[i] = remainingPool.mul(outcomeShare).div(100);\n    }\n    require(allShares == 100);\n\n    hostContext[msg.sender].totalNumBets += r.stats.numBets;\n    hostContext[msg.sender].totalPoolSize += r.stats.poolSize;\n    hostContext[msg.sender].numRoundsSuccess += 1;\n    r.status = Status.FINISHED;\n    r.endedAt = now;\n\n    owner.transfer(ownerFee);\n    if (hostFee > 0) msg.sender.transfer(hostFee);\n\n    emit RoundFinished(msg.sender, _roundId);\n  }\n\n  function areValidPicks(uint[] memory _picks) private pure returns (bool) {\n    uint sum;\n    for (uint i=0; i<_picks.length; i++) {\n      sum += _picks[i];\n    }\n    return sum == 100;\n  }\n\n  function getOutcomeId(Round storage _round, uint _outcomeIndex) private view returns (bytes32) {\n    return keccak256(abi.encodePacked(_round.outcomes.outcomes[_outcomeIndex]));\n  }\n\n  function claimPayout(address _host, bytes4 _roundId) external {\n    Round storage r = getRound(_host, _roundId);\n    require(r.status == Status.FINISHED);\n    \n    uint myPayout;\n\n    for (uint i=0; i<r.outcomes.outcomes.length; i++) {\n      uint outcomeShare = r.results.outcomeWinShares[i];\n\n      if (outcomeShare == 0) {\n        continue;\n      }\n   \n      uint myOutcomePayout = getMyPayoutForOutcome(\n          r.playerBets[i][msg.sender],\n          outcomeShare,\n          r.outcomePools[i],\n          r.stats.poolSize\n      );\n\n      if (myOutcomePayout > 0) {\n        myPayout = myPayout.add(myOutcomePayout);\n\n        // Reset player bets so that they can't be claimed again\n        r.playerBets[i][msg.sender] = 0;\n      }\n\n      // Minor optimization that skips iterations in case an outcome got picked as only\n      // winner (outcomeShare == 100 (%)) which is expeceted to be often the case\n      if (outcomeShare == 100) {\n        break;\n      }\n    }\n\n    require(myPayout > 0);\n    msg.sender.transfer(myPayout);\n  }\n\n  function claimRefund(address _host, bytes4 _roundId) external {\n    Round storage r = getRound(_host, _roundId);\n    require(r.status == Status.CANCELLED || r.status == Status.TIMEOUT);\n\n    uint myRefund;\n\n    for(uint i=0; i<r.outcomes.outcomes.length; i++) {\n      myRefund = myRefund.add(r.playerBets[i][msg.sender]);\n      r.playerBets[i][msg.sender] = 0;\n    }\n\n    require(myRefund > 0);\n    msg.sender.transfer(myRefund);\n  }\n\n  function getMyPayoutForOutcome(uint _myBet, uint _outcomeShare, uint _outcomePool, uint _roundPool) pure private returns (uint) {\n    if (_myBet > 0) {\n      uint myOutcomeShare = (_myBet*1e20).div(_outcomePool);\n\n      uint myOutcomePayout = _roundPool\n          .mul(_outcomeShare)\n          .div(100)\n          .mul(myOutcomeShare)\n          .div(1e20);\n\n      return myOutcomePayout;\n    }\n    return 0;\n  }\n\n  function cancelRound(bytes4 _roundId) external {\n    Round storage r = getRound(msg.sender, _roundId);\n    require(r.status == Status.SCHEDULED || r.status == Status.OPEN);\n\n    rounds[msg.sender][_roundId].status = Status.CANCELLED;\n    hostContext[msg.sender].numRoundsCancelled += 1;\n    emit RoundCancelled(msg.sender, _roundId);\n  }\n\n\n  ///\n  /// Getters used by UI\n  ///\n\n  function getRoundInfo(address _host, bytes4 _roundId)\n    public\n    view\n    roundExists(_host, _roundId)\n    // status, createdAt, endedAt, timeoutAt, question, numOutcomes, numBets, poolSize, hostBonus, hostFee\n    returns (uint, uint, uint, uint, bytes32, uint, uint, uint, uint, uint)\n  {\n    Round storage r = getRound(_host, _roundId);\n   \n    return (\n      uint256(r.status),\n      r.createdAt,\n      r.endedAt,\n      r.timeoutAt,\n      r.question,\n      r.outcomes.outcomes.length,\n      r.stats.numBets,\n      r.stats.poolSize,\n      r.hostBonus,\n      r.hostFee\n    );\n  }\n\n  // Convenience function for the client to only fetch fields that can be\n  // updated in the lifecycle of a Round\n  function getRoundInfoChanges(address _host, bytes4 _roundId) public view roundExists(_host, _roundId)\n    returns (uint, uint, uint, uint)\n  {\n    Round storage r = getRound(_host, _roundId);\n\n    return (\n      uint256(r.status),\n      r.endedAt,\n      r.stats.numBets,\n      r.stats.poolSize\n    );\n  }\n\n  function getRoundOutcomeByName(bytes32 _hostName, bytes4 _roundId, uint _outcomeIndex) external view returns (bytes32) {\n    require(hostAddresses[_hostName] != address(0), HOST_NAME_NOT_FOUND);\n    return getRoundOutcome(hostAddresses[_hostName], _roundId, _outcomeIndex);\n  }\n  \n  function getRoundOutcome(address _host, bytes4 _roundId, uint _outcomeIndex) public view roundExists(_host, _roundId) returns (bytes32) {\n    Round storage r = getRound(_host, _roundId);\n    require(_outcomeIndex < r.outcomes.outcomes.length);\n    return r.outcomes.outcomes[_outcomeIndex];\n  }\n\n  function getRoundOutcomePoolByName(bytes32 _hostName, bytes4 _roundId, uint _outcomeIndex) external view returns (uint) {\n    require(hostAddresses[_hostName] != address(0), HOST_NAME_NOT_FOUND);\n    return getRoundOutcomePool(hostAddresses[_hostName], _roundId, _outcomeIndex);\n  }\n  \n  function getRoundOutcomePool(address _host, bytes4 _roundId, uint _outcomeIndex) public view returns (uint) {\n    return rounds[_host][_roundId].outcomePools[_outcomeIndex];\n  }\n\n  function getRoundOutcomeNumBetsByName(bytes32 _hostName, bytes4 _roundId, uint _outcomeIndex) external view returns (uint) {\n    require(hostAddresses[_hostName] != address(0), HOST_NAME_NOT_FOUND);\n    return getRoundOutcomeNumBets(hostAddresses[_hostName], _roundId, _outcomeIndex);\n  }\n  \n  function getRoundOutcomeNumBets(address _host, bytes4 _roundId, uint _outcomeIndex) public view returns (uint) {\n    return rounds[_host][_roundId].outcomeNumBets[_outcomeIndex];\n  }\n\n  function getMyRoundOutcomeBetByName(bytes32 _hostName, bytes4 _roundId, uint _outcomeIndex) external view returns (uint) {\n    require(hostAddresses[_hostName] != address(0), HOST_NAME_NOT_FOUND);\n    return getMyRoundOutcomeBet(hostAddresses[_hostName], _roundId, _outcomeIndex);\n  }\n  \n  function getMyRoundOutcomeBet(address _host, bytes4 _roundId, uint _outcomeIndex) public view returns (uint) {\n    Round storage r = getRound(_host, _roundId);\n    return r.playerBets[_outcomeIndex][msg.sender];\n  }\n\n  function getRoundOutcomeWinShareByName(bytes32 _hostName, bytes4 _roundId, uint _outcomeIndex) external view returns (uint) {\n    require(hostAddresses[_hostName] != address(0), HOST_NAME_NOT_FOUND);\n    return getRoundOutcomeWinShare(hostAddresses[_hostName], _roundId, _outcomeIndex);\n  }\n  \n  function getRoundOutcomeWinShare(address _host, bytes4 _roundId, uint _outcomeIndex) public view returns (uint) {\n    return rounds[_host][_roundId].results.outcomeWinShares[_outcomeIndex];\n  }\n\n  //                                          numRoundsCreated, numRoundsCancelled, numBets, poolSize\n  function getHostStats (address _host) external view returns (uint, uint, uint, uint) {\n    HostContext storage hc = hostContext[_host];\n    return (\n      hc.numRoundsSuccess,\n      hc.numRoundsCancelled,\n      hc.totalNumBets,\n      hc.totalPoolSize\n    );\n  }\n\n\n  ///\n  /// Management of `Username <-> address` mapping\n  ///\n\n  function registerRecord(bytes32 _name)\n    public\n  {\n    require(hostAddresses[_name] == address(0));\n    require(hostNames[msg.sender] == bytes32(0));\n\n    _setRecord(msg.sender, _name);\n  }\n\n  function deleteRecord()\n    public\n  {\n    bytes32 oldName = hostNames[msg.sender];\n    require(oldName[0] != 0);\n\n    _removeRecord(msg.sender, oldName);\n  }\n\n  function updateRecord(bytes32 _newName)\n    external\n  {\n    deleteRecord();\n    registerRecord(_newName);\n  }\n\n  function sudoDeleteRecord(bytes32 _name)\n    external\n    onlyOwner\n  {\n    address affectedAddress = hostAddresses[_name];\n    require(affectedAddress == address(0));\n\n    _removeRecord(affectedAddress, _name);\n  }\n\n  function _setRecord(\n    address _address,\n    bytes32 _name\n  )\n    private\n  {\n    hostAddresses[_name] = _address;\n    hostNames[_address] = _name;\n  }\n\n  function _removeRecord(\n    address _address,\n    bytes32 _name\n  )\n    private\n  {\n    delete hostAddresses[_name];\n    delete hostNames[_address];\n  }\n\n  function ()\n    external\n    payable\n  {\n    revert(); \n  }\n}",
  "sourcePath": "/home/mo/dev/betl/smart-contract/contracts/Betl.sol",
  "compiler": {
    "name": "solc",
    "version": "0.4.24+commit.e67f0147.Emscripten.clang"
  },
  "schemaVersion": "2.0.0",
  "updatedAt": "2018-07-12T21:48:15.586Z"
}