{
  "contractName": "Betl",
  "abi": [
    {
      "constant": true,
      "inputs": [
        {
          "name": "",
          "type": "address"
        }
      ],
      "name": "hostContext",
      "outputs": [
        {
          "name": "nextRoundId",
          "type": "uint256"
        },
        {
          "name": "numRoundsSuccess",
          "type": "uint256"
        },
        {
          "name": "numRoundsCancelled",
          "type": "uint256"
        },
        {
          "name": "totalNumBets",
          "type": "uint256"
        },
        {
          "name": "totalPoolSize",
          "type": "uint256"
        }
      ],
      "payable": false,
      "stateMutability": "view",
      "type": "function"
    },
    {
      "constant": false,
      "inputs": [],
      "name": "renounceOwnership",
      "outputs": [],
      "payable": false,
      "stateMutability": "nonpayable",
      "type": "function"
    },
    {
      "constant": true,
      "inputs": [],
      "name": "owner",
      "outputs": [
        {
          "name": "",
          "type": "address"
        }
      ],
      "payable": false,
      "stateMutability": "view",
      "type": "function"
    },
    {
      "constant": true,
      "inputs": [
        {
          "name": "",
          "type": "bytes32"
        }
      ],
      "name": "hostAddresses",
      "outputs": [
        {
          "name": "",
          "type": "address"
        }
      ],
      "payable": false,
      "stateMutability": "view",
      "type": "function"
    },
    {
      "constant": true,
      "inputs": [
        {
          "name": "",
          "type": "address"
        }
      ],
      "name": "hostNames",
      "outputs": [
        {
          "name": "",
          "type": "bytes32"
        }
      ],
      "payable": false,
      "stateMutability": "view",
      "type": "function"
    },
    {
      "constant": false,
      "inputs": [
        {
          "name": "_newOwner",
          "type": "address"
        }
      ],
      "name": "transferOwnership",
      "outputs": [],
      "payable": false,
      "stateMutability": "nonpayable",
      "type": "function"
    },
    {
      "payable": true,
      "stateMutability": "payable",
      "type": "fallback"
    },
    {
      "anonymous": false,
      "inputs": [
        {
          "indexed": true,
          "name": "host",
          "type": "address"
        },
        {
          "indexed": false,
          "name": "roundId",
          "type": "bytes4"
        }
      ],
      "name": "RoundCreated",
      "type": "event"
    },
    {
      "anonymous": false,
      "inputs": [
        {
          "indexed": true,
          "name": "host",
          "type": "address"
        },
        {
          "indexed": false,
          "name": "roundId",
          "type": "bytes4"
        }
      ],
      "name": "RoundFinished",
      "type": "event"
    },
    {
      "anonymous": false,
      "inputs": [
        {
          "indexed": true,
          "name": "host",
          "type": "address"
        },
        {
          "indexed": false,
          "name": "roundId",
          "type": "bytes4"
        }
      ],
      "name": "RoundCanceled",
      "type": "event"
    },
    {
      "anonymous": false,
      "inputs": [
        {
          "indexed": true,
          "name": "previousOwner",
          "type": "address"
        }
      ],
      "name": "OwnershipRenounced",
      "type": "event"
    },
    {
      "anonymous": false,
      "inputs": [
        {
          "indexed": true,
          "name": "previousOwner",
          "type": "address"
        },
        {
          "indexed": true,
          "name": "newOwner",
          "type": "address"
        }
      ],
      "name": "OwnershipTransferred",
      "type": "event"
    },
    {
      "constant": false,
      "inputs": [
        {
          "name": "_question",
          "type": "bytes32"
        },
        {
          "name": "_options",
          "type": "bytes32[]"
        },
        {
          "name": "_configData",
          "type": "uint256[]"
        },
        {
          "name": "_payoutTiers",
          "type": "uint256[]"
        }
      ],
      "name": "createRound",
      "outputs": [],
      "payable": true,
      "stateMutability": "payable",
      "type": "function"
    },
    {
      "constant": true,
      "inputs": [
        {
          "name": "_hostAddress",
          "type": "address"
        },
        {
          "name": "_roundId",
          "type": "bytes4"
        }
      ],
      "name": "getRound",
      "outputs": [
        {
          "name": "",
          "type": "uint256"
        },
        {
          "name": "",
          "type": "uint256"
        },
        {
          "name": "",
          "type": "uint256"
        },
        {
          "name": "",
          "type": "bytes32"
        },
        {
          "name": "",
          "type": "uint256"
        },
        {
          "name": "",
          "type": "uint256"
        },
        {
          "name": "",
          "type": "uint256"
        }
      ],
      "payable": false,
      "stateMutability": "view",
      "type": "function"
    },
    {
      "constant": true,
      "inputs": [
        {
          "name": "_hostName",
          "type": "bytes32"
        },
        {
          "name": "_roundId",
          "type": "bytes4"
        }
      ],
      "name": "getRound",
      "outputs": [
        {
          "name": "",
          "type": "uint256"
        },
        {
          "name": "",
          "type": "uint256"
        },
        {
          "name": "",
          "type": "uint256"
        },
        {
          "name": "",
          "type": "bytes32"
        },
        {
          "name": "",
          "type": "uint256"
        },
        {
          "name": "",
          "type": "uint256"
        },
        {
          "name": "",
          "type": "uint256"
        }
      ],
      "payable": false,
      "stateMutability": "view",
      "type": "function"
    },
    {
      "constant": true,
      "inputs": [
        {
          "name": "_host",
          "type": "address"
        }
      ],
      "name": "getRoundConfigForHost",
      "outputs": [
        {
          "name": "",
          "type": "uint256"
        },
        {
          "name": "",
          "type": "uint256"
        },
        {
          "name": "",
          "type": "uint256"
        },
        {
          "name": "",
          "type": "uint256"
        },
        {
          "name": "",
          "type": "uint256"
        },
        {
          "name": "",
          "type": "bool"
        }
      ],
      "payable": false,
      "stateMutability": "view",
      "type": "function"
    },
    {
      "constant": true,
      "inputs": [
        {
          "name": "_host",
          "type": "address"
        }
      ],
      "name": "getRoundStatsForHost",
      "outputs": [
        {
          "name": "",
          "type": "uint256"
        },
        {
          "name": "",
          "type": "uint256"
        },
        {
          "name": "",
          "type": "uint256"
        }
      ],
      "payable": false,
      "stateMutability": "view",
      "type": "function"
    },
    {
      "constant": true,
      "inputs": [
        {
          "name": "_host",
          "type": "address"
        }
      ],
      "name": "getRoundOptionsForHost",
      "outputs": [
        {
          "name": "",
          "type": "bytes32"
        },
        {
          "name": "",
          "type": "bytes32"
        },
        {
          "name": "",
          "type": "bytes32"
        },
        {
          "name": "",
          "type": "bytes32"
        },
        {
          "name": "",
          "type": "bytes32"
        }
      ],
      "payable": false,
      "stateMutability": "view",
      "type": "function"
    },
    {
      "constant": true,
      "inputs": [
        {
          "name": "_host",
          "type": "address"
        }
      ],
      "name": "getRoundOptionBetsForHost",
      "outputs": [
        {
          "name": "",
          "type": "uint256"
        },
        {
          "name": "",
          "type": "uint256"
        },
        {
          "name": "",
          "type": "uint256"
        },
        {
          "name": "",
          "type": "uint256"
        },
        {
          "name": "",
          "type": "uint256"
        }
      ],
      "payable": false,
      "stateMutability": "view",
      "type": "function"
    },
    {
      "constant": true,
      "inputs": [
        {
          "name": "_host",
          "type": "address"
        }
      ],
      "name": "getMyRoundOptionBetsForHost",
      "outputs": [
        {
          "name": "",
          "type": "uint256"
        },
        {
          "name": "",
          "type": "uint256"
        },
        {
          "name": "",
          "type": "uint256"
        },
        {
          "name": "",
          "type": "uint256"
        },
        {
          "name": "",
          "type": "uint256"
        }
      ],
      "payable": false,
      "stateMutability": "view",
      "type": "function"
    },
    {
      "constant": true,
      "inputs": [
        {
          "name": "_host",
          "type": "address"
        }
      ],
      "name": "getRoundPickedOptionsForHost",
      "outputs": [
        {
          "name": "",
          "type": "bool"
        },
        {
          "name": "",
          "type": "bool"
        },
        {
          "name": "",
          "type": "bool"
        },
        {
          "name": "",
          "type": "bool"
        },
        {
          "name": "",
          "type": "bool"
        }
      ],
      "payable": false,
      "stateMutability": "view",
      "type": "function"
    },
    {
      "constant": false,
      "inputs": [
        {
          "name": "_winners",
          "type": "uint256[]"
        }
      ],
      "name": "pickWinnerAndEnd",
      "outputs": [],
      "payable": true,
      "stateMutability": "payable",
      "type": "function"
    },
    {
      "constant": false,
      "inputs": [
        {
          "name": "_host",
          "type": "address"
        },
        {
          "name": "_roundId",
          "type": "bytes4"
        },
        {
          "name": "_optionId",
          "type": "bytes32"
        }
      ],
      "name": "bet",
      "outputs": [],
      "payable": true,
      "stateMutability": "payable",
      "type": "function"
    },
    {
      "constant": false,
      "inputs": [
        {
          "name": "_host",
          "type": "address"
        },
        {
          "name": "_roundId",
          "type": "bytes4"
        }
      ],
      "name": "claimPayout",
      "outputs": [],
      "payable": false,
      "stateMutability": "nonpayable",
      "type": "function"
    },
    {
      "constant": false,
      "inputs": [],
      "name": "cancelRound",
      "outputs": [],
      "payable": false,
      "stateMutability": "nonpayable",
      "type": "function"
    },
    {
      "constant": false,
      "inputs": [
        {
          "name": "_name",
          "type": "bytes32"
        }
      ],
      "name": "registerRecord",
      "outputs": [],
      "payable": false,
      "stateMutability": "nonpayable",
      "type": "function"
    },
    {
      "constant": false,
      "inputs": [],
      "name": "deleteRecord",
      "outputs": [],
      "payable": false,
      "stateMutability": "nonpayable",
      "type": "function"
    },
    {
      "constant": false,
      "inputs": [
        {
          "name": "_newName",
          "type": "bytes32"
        }
      ],
      "name": "updateRecord",
      "outputs": [],
      "payable": false,
      "stateMutability": "nonpayable",
      "type": "function"
    },
    {
      "constant": false,
      "inputs": [
        {
          "name": "_name",
          "type": "bytes32"
        }
      ],
      "name": "sudoDeleteRecord",
      "outputs": [],
      "payable": false,
      "stateMutability": "nonpayable",
      "type": "function"
    }
  ],
  "bytecode": "0x6080604052336000806101000a81548173ffffffffffffffffffffffffffffffffffffffff021916908373ffffffffffffffffffffffffffffffffffffffff1602179055506133be806100536000396000f300608060405260043610610133576000357c0100000000000000000000000000000000000000000000000000000000900463ffffffff16806301186d991461013857806304756f0b146101695780631584108b1461020957806326c57935146102755780632f941753146102fc578063471990ba1461032a5780634db244631461039d5780635de2e1171461043857806365426a981461049d57806366d9e7d8146104b45780636f50c44b146104e5578063715018a6146105165780637ddef9df1461052d5780638264d215146105df57806386a594d0146106525780638c7763cb146106695780638da5cb5b146106dc5780639dd4527d14610733578063a070f04e146107a4578063c4388eb014610803578063c5da399314610881578063f2fde38b146108ed578063f5309ec014610930575b600080fd5b34801561014457600080fd5b50610167600480360381019080803560001916906020019092919050505061099d565b005b34801561017557600080fd5b506101c1600480360381019080803560001916906020019092919080357bffffffffffffffffffffffffffffffffffffffffffffffffffffffff191690602001909291905050506109b1565b60405180888152602001878152602001868152602001856000191660001916815260200184815260200183815260200182815260200197505050505050505060405180910390f35b34801561021557600080fd5b50610273600480360381019080803573ffffffffffffffffffffffffffffffffffffffff16906020019092919080357bffffffffffffffffffffffffffffffffffffffffffffffffffffffff19169060200190929190505050610afa565b005b34801561028157600080fd5b506102b6600480360381019080803573ffffffffffffffffffffffffffffffffffffffff16906020019092919050505061119e565b6040518086151515158152602001851515151581526020018415151515815260200183151515158152602001821515151581526020019550505050505060405180910390f35b6103286004803603810190808035906020019082018035906020019190919293919293905050506111af565b005b34801561033657600080fd5b5061036b600480360381019080803573ffffffffffffffffffffffffffffffffffffffff169060200190929190505050611752565b604051808681526020018581526020018481526020018381526020018281526020019550505050505060405180910390f35b3480156103a957600080fd5b506103de600480360381019080803573ffffffffffffffffffffffffffffffffffffffff169060200190929190505050611788565b60405180866000191660001916815260200185600019166000191681526020018460001916600019168152602001836000191660001916815260200182600019166000191681526020019550505050505060405180910390f35b34801561044457600080fd5b50610479600480360381019080803573ffffffffffffffffffffffffffffffffffffffff169060200190929190505050611799565b60405180848152602001838152602001828152602001935050505060405180910390f35b3480156104a957600080fd5b506104b26117a5565b005b3480156104c057600080fd5b506104e3600480360381019080803560001916906020019092919050505061187b565b005b3480156104f157600080fd5b506105146004803603810190808035600019169060200190929190505050611953565b005b34801561052257600080fd5b5061052b611a37565b005b34801561053957600080fd5b50610597600480360381019080803573ffffffffffffffffffffffffffffffffffffffff16906020019092919080357bffffffffffffffffffffffffffffffffffffffffffffffffffffffff19169060200190929190505050611b39565b60405180888152602001878152602001868152602001856000191660001916815260200184815260200183815260200182815260200197505050505050505060405180910390f35b3480156105eb57600080fd5b50610620600480360381019080803573ffffffffffffffffffffffffffffffffffffffff169060200190929190505050611dc6565b604051808681526020018581526020018481526020018381526020018281526020019550505050505060405180910390f35b34801561065e57600080fd5b50610667611dd7565b005b34801561067557600080fd5b506106aa600480360381019080803573ffffffffffffffffffffffffffffffffffffffff169060200190929190505050612060565b604051808681526020018581526020018481526020018381526020018281526020019550505050505060405180910390f35b3480156106e857600080fd5b506106f1612071565b604051808273ffffffffffffffffffffffffffffffffffffffff1673ffffffffffffffffffffffffffffffffffffffff16815260200191505060405180910390f35b34801561073f57600080fd5b506107626004803603810190808035600019169060200190929190505050612096565b604051808273ffffffffffffffffffffffffffffffffffffffff1673ffffffffffffffffffffffffffffffffffffffff16815260200191505060405180910390f35b3480156107b057600080fd5b506107e5600480360381019080803573ffffffffffffffffffffffffffffffffffffffff1690602001909291905050506120c9565b60405180826000191660001916815260200191505060405180910390f35b34801561080f57600080fd5b50610844600480360381019080803573ffffffffffffffffffffffffffffffffffffffff1690602001909291905050506120e1565b6040518087815260200186815260200185815260200184815260200183815260200182151515158152602001965050505050505060405180910390f35b6108eb60048036038101908080356000191690602001909291908035906020019082018035906020019190919293919293908035906020019082018035906020019190919293919293908035906020019082018035906020019190919293919293905050506120f3565b005b3480156108f957600080fd5b5061092e600480360381019080803573ffffffffffffffffffffffffffffffffffffffff169060200190929190505050612739565b005b61099b600480360381019080803573ffffffffffffffffffffffffffffffffffffffff16906020019092919080357bffffffffffffffffffffffffffffffffffffffffffffffffffffffff1916906020019092919080356000191690602001909291905050506127a0565b005b6109a56117a5565b6109ae8161187b565b50565b60008060008060008060008073ffffffffffffffffffffffffffffffffffffffff16600360008b6000191660001916815260200190815260200160002060009054906101000a900473ffffffffffffffffffffffffffffffffffffffff1673ffffffffffffffffffffffffffffffffffffffff1614151515610a9b576040517f08c379a00000000000000000000000000000000000000000000000000000000081526004018080602001828103825260138152602001807f486f737420646f6573206e6f742065786973740000000000000000000000000081525060200191505060405180910390fd5b610ae0600360008b6000191660001916815260200190815260200160002060009054906101000a900473ffffffffffffffffffffffffffffffffffffffff1689611b39565b965096509650965096509650965092959891949750929550565b6000806000806000806000806000610b118b612dbf565b7bffffffffffffffffffffffffffffffffffffffffffffffffffffffff19168a7bffffffffffffffffffffffffffffffffffffffffffffffffffffffff1916141515610b5c57600080fd5b60036005811115610b6957fe5b600160008d73ffffffffffffffffffffffffffffffffffffffff1673ffffffffffffffffffffffffffffffffffffffff16815260200190815260200160002060008c7bffffffffffffffffffffffffffffffffffffffffffffffffffffffff19167bffffffffffffffffffffffffffffffffffffffffffffffffffffffff1916815260200190815260200160002060010160009054906101000a900460ff166005811115610c1357fe5b141515610c1f57600080fd5b600160008c73ffffffffffffffffffffffffffffffffffffffff1673ffffffffffffffffffffffffffffffffffffffff16815260200190815260200160002060008b7bffffffffffffffffffffffffffffffffffffffffffffffffffffffff19167bffffffffffffffffffffffffffffffffffffffffffffffffffffffff19168152602001908152602001600020600b019750600160008c73ffffffffffffffffffffffffffffffffffffffff1673ffffffffffffffffffffffffffffffffffffffff16815260200190815260200160002060008b7bffffffffffffffffffffffffffffffffffffffffffffffffffffffff19167bffffffffffffffffffffffffffffffffffffffffffffffffffffffff19168152602001908152602001600020600d01600101549650600095505b876000018054905086101561113b578760000186815481101515610d6e57fe5b90600052602060002001549450600160008c73ffffffffffffffffffffffffffffffffffffffff1673ffffffffffffffffffffffffffffffffffffffff16815260200190815260200160002060008b7bffffffffffffffffffffffffffffffffffffffffffffffffffffffff19167bffffffffffffffffffffffffffffffffffffffffffffffffffffffff19168152602001908152602001600020600f016000866000191660001916815260200190815260200160002060003373ffffffffffffffffffffffffffffffffffffffff1673ffffffffffffffffffffffffffffffffffffffff168152602001908152602001600020549350600084111561112e57610f36600160008d73ffffffffffffffffffffffffffffffffffffffff1673ffffffffffffffffffffffffffffffffffffffff16815260200190815260200160002060008c7bffffffffffffffffffffffffffffffffffffffffffffffffffffffff19167bffffffffffffffffffffffffffffffffffffffffffffffffffffffff19168152602001908152602001600020601001600087600019166000191681526020019081526020016000205468056bc75e2d631000008602612ed290919063ffffffff16565b9250600160008c73ffffffffffffffffffffffffffffffffffffffff1673ffffffffffffffffffffffffffffffffffffffff16815260200190815260200160002060008b7bffffffffffffffffffffffffffffffffffffffffffffffffffffffff19167bffffffffffffffffffffffffffffffffffffffffffffffffffffffff1916815260200190815260200160002060070160030186815481101515610fd957fe5b9060005260206000200154915061103968056bc75e2d6310000061102b8561101d606461100f888e612ee890919063ffffffff16565b612ed290919063ffffffff16565b612ee890919063ffffffff16565b612ed290919063ffffffff16565b905080890198506000600160008d73ffffffffffffffffffffffffffffffffffffffff1673ffffffffffffffffffffffffffffffffffffffff16815260200190815260200160002060008c7bffffffffffffffffffffffffffffffffffffffffffffffffffffffff19167bffffffffffffffffffffffffffffffffffffffffffffffffffffffff19168152602001908152602001600020600f016000876000191660001916815260200190815260200160002060003373ffffffffffffffffffffffffffffffffffffffff1673ffffffffffffffffffffffffffffffffffffffff168152602001908152602001600020819055505b8580600101965050610d4e565b60008911151561114a57600080fd5b3373ffffffffffffffffffffffffffffffffffffffff166108fc8a9081150290604051600060405180830381858888f19350505050158015611190573d6000803e3d6000fd5b505050505050505050505050565b600080600080600091939590929450565b6000806111bb33612dbf565b9150600160003373ffffffffffffffffffffffffffffffffffffffff1673ffffffffffffffffffffffffffffffffffffffff1681526020019081526020016000206000837bffffffffffffffffffffffffffffffffffffffffffffffffffffffff19167bffffffffffffffffffffffffffffffffffffffffffffffffffffffff1916815260200190815260200160002060010160009054906101000a900460ff1690506001600581111561126b57fe5b81600581111561127757fe5b148061129957506002600581111561128b57fe5b81600581111561129757fe5b145b15156112a457600080fd5b600160003373ffffffffffffffffffffffffffffffffffffffff1673ffffffffffffffffffffffffffffffffffffffff1681526020019081526020016000206000837bffffffffffffffffffffffffffffffffffffffffffffffffffffffff19167bffffffffffffffffffffffffffffffffffffffffffffffffffffffff1916815260200190815260200160002060070160000154848490501115151561134a57600080fd5b600160003373ffffffffffffffffffffffffffffffffffffffff1673ffffffffffffffffffffffffffffffffffffffff1681526020019081526020016000206000837bffffffffffffffffffffffffffffffffffffffffffffffffffffffff19167bffffffffffffffffffffffffffffffffffffffffffffffffffffffff1916815260200190815260200160002060030160010154421015156113ec57600080fd5b600160003373ffffffffffffffffffffffffffffffffffffffff1673ffffffffffffffffffffffffffffffffffffffff1681526020019081526020016000206000837bffffffffffffffffffffffffffffffffffffffffffffffffffffffff19167bffffffffffffffffffffffffffffffffffffffffffffffffffffffff19168152602001908152602001600020600d0160000154600260003373ffffffffffffffffffffffffffffffffffffffff1673ffffffffffffffffffffffffffffffffffffffff1681526020019081526020016000206003016000828254019250508190555034600160003373ffffffffffffffffffffffffffffffffffffffff1673ffffffffffffffffffffffffffffffffffffffff1681526020019081526020016000206000847bffffffffffffffffffffffffffffffffffffffffffffffffffffffff19167bffffffffffffffffffffffffffffffffffffffffffffffffffffffff19168152602001908152602001600020600d016001015401600260003373ffffffffffffffffffffffffffffffffffffffff1673ffffffffffffffffffffffffffffffffffffffff168152602001908152602001600020600401600082825401925050819055506001600260003373ffffffffffffffffffffffffffffffffffffffff1673ffffffffffffffffffffffffffffffffffffffff168152602001908152602001600020600101600082825401925050819055506003600581111561161457fe5b600160003373ffffffffffffffffffffffffffffffffffffffff1673ffffffffffffffffffffffffffffffffffffffff1681526020019081526020016000206000847bffffffffffffffffffffffffffffffffffffffffffffffffffffffff19167bffffffffffffffffffffffffffffffffffffffffffffffffffffffff1916815260200190815260200160002060010160009054906101000a900460ff1660058111156116be57fe5b50503373ffffffffffffffffffffffffffffffffffffffff167f4cdf964e6e89934ffc032ff3f5be1525aa747560a07d9e380c8bead358e6febd8360405180827bffffffffffffffffffffffffffffffffffffffffffffffffffffffff19167bffffffffffffffffffffffffffffffffffffffffffffffffffffffff1916815260200191505060405180910390a250505050565b60026020528060005260406000206000915090508060000154908060010154908060020154908060030154908060040154905085565b600080600080600091939590929450565b60008060009193909250565b6000600460003373ffffffffffffffffffffffffffffffffffffffff1673ffffffffffffffffffffffffffffffffffffffff16815260200190815260200160002054905060007f01000000000000000000000000000000000000000000000000000000000000000281600060208110151561181c57fe5b1a7f0100000000000000000000000000000000000000000000000000000000000000027effffffffffffffffffffffffffffffffffffffffffffffffffffffffffffff19161415151561186e57600080fd5b6118783382612f20565b50565b600073ffffffffffffffffffffffffffffffffffffffff1660036000836000191660001916815260200190815260200160002060009054906101000a900473ffffffffffffffffffffffffffffffffffffffff1673ffffffffffffffffffffffffffffffffffffffff161415156118f157600080fd5b6000600102600460003373ffffffffffffffffffffffffffffffffffffffff1673ffffffffffffffffffffffffffffffffffffffff168152602001908152602001600020546000191614151561194657600080fd5b6119503382612fa5565b50565b60008060009054906101000a900473ffffffffffffffffffffffffffffffffffffffff1673ffffffffffffffffffffffffffffffffffffffff163373ffffffffffffffffffffffffffffffffffffffff161415156119b057600080fd5b60036000836000191660001916815260200190815260200160002060009054906101000a900473ffffffffffffffffffffffffffffffffffffffff169050600073ffffffffffffffffffffffffffffffffffffffff168173ffffffffffffffffffffffffffffffffffffffff16141515611a2957600080fd5b611a338183612f20565b5050565b6000809054906101000a900473ffffffffffffffffffffffffffffffffffffffff1673ffffffffffffffffffffffffffffffffffffffff163373ffffffffffffffffffffffffffffffffffffffff16141515611a9257600080fd5b6000809054906101000a900473ffffffffffffffffffffffffffffffffffffffff1673ffffffffffffffffffffffffffffffffffffffff167ff8df31144d9c2f0f6b59d69b8b98abd5459d07f2742c4df920b25aae33c6482060405160405180910390a260008060006101000a81548173ffffffffffffffffffffffffffffffffffffffff021916908373ffffffffffffffffffffffffffffffffffffffff160217905550565b6000806000806000806000806000600260008c73ffffffffffffffffffffffffffffffffffffffff1673ffffffffffffffffffffffffffffffffffffffff168152602001908152602001600020600001549150600082111515611c2a576040517f08c379a00000000000000000000000000000000000000000000000000000000081526004018080602001828103825260228152602001807f486f737420686173206e6f74206372656174656420616e7920726f756e64207981526020017f657400000000000000000000000000000000000000000000000000000000000081525060400191505060405180910390fd5b600160008c73ffffffffffffffffffffffffffffffffffffffff1673ffffffffffffffffffffffffffffffffffffffff16815260200190815260200160002060008b7bffffffffffffffffffffffffffffffffffffffffffffffffffffffff19167bffffffffffffffffffffffffffffffffffffffffffffffffffffffff19168152602001908152602001600020905060006005811115611cc757fe5b8160010160009054906101000a900460ff166005811115611ce457fe5b14151515611d5a576040517f08c379a00000000000000000000000000000000000000000000000000000000081526004018080602001828103825260148152602001807f526f756e6420646f6573206e6f7420657869737400000000000000000000000081525060200191505060405180910390fd5b8060010160009054906101000a900460ff166005811115611d7757fe5b816003016000015482600301600101548360020154846007016000015485600d016000015486600d01600101548660ff1696509850985098509850985098509850505092959891949750929550565b600080600080600091939590929450565b600080611de333612dbf565b9150600160003373ffffffffffffffffffffffffffffffffffffffff1673ffffffffffffffffffffffffffffffffffffffff1681526020019081526020016000206000837bffffffffffffffffffffffffffffffffffffffffffffffffffffffff19167bffffffffffffffffffffffffffffffffffffffffffffffffffffffff1916815260200190815260200160002060010160009054906101000a900460ff16905060006005811115611e9357fe5b816005811115611e9f57fe5b1480611ec1575060016005811115611eb357fe5b816005811115611ebf57fe5b145b1515611ecc57600080fd5b6004600160003373ffffffffffffffffffffffffffffffffffffffff1673ffffffffffffffffffffffffffffffffffffffff1681526020019081526020016000206000847bffffffffffffffffffffffffffffffffffffffffffffffffffffffff19167bffffffffffffffffffffffffffffffffffffffffffffffffffffffff1916815260200190815260200160002060010160006101000a81548160ff02191690836005811115611f7a57fe5b02179055506001600260003373ffffffffffffffffffffffffffffffffffffffff1673ffffffffffffffffffffffffffffffffffffffff168152602001908152602001600020600201600082825401925050819055503373ffffffffffffffffffffffffffffffffffffffff167f49dfec2e2e317e8070427c11252213b653bc1379b7255378fffc5c13a29ec7e18360405180827bffffffffffffffffffffffffffffffffffffffffffffffffffffffff19167bffffffffffffffffffffffffffffffffffffffffffffffffffffffff1916815260200191505060405180910390a25050565b600080600080600091939590929450565b6000809054906101000a900473ffffffffffffffffffffffffffffffffffffffff1681565b60036020528060005260406000206000915054906101000a900473ffffffffffffffffffffffffffffffffffffffff1681565b60046020528060005260406000206000915090505481565b60008060008060008091939550919395565b60006120fd613145565b61210561316e565b61210d613190565b6121156131aa565b61211d6131c4565b6000603c8b8b6000818110151561213057fe5b905060200201351015151561214457600080fd5b60028d8d90501015151561215757600080fd5b60648b8b6002818110151561216857fe5b905060200201351115151561217c57600080fd5b8c8c9050898990501115151561219157600080fd5b600260003373ffffffffffffffffffffffffffffffffffffffff1673ffffffffffffffffffffffffffffffffffffffff1681526020019081526020016000206000015496506080604051908101604052804281526020018c8c600081811015156121f757fe5b90506020020135420181526020018c8c6001818110151561221457fe5b9050602002013581526020013481525095506060604051908101604052808e8e905081526020018e8e8080602002602001604051908101604052809392919081815260200183836020028082843782019150505050505081526020018a8a808060200260200160405190810160405280939291908181526020018383602002808284378201915050505050508152509450604080519081016040528060006040519080825280602002602001820160405280156122e05781602001602082028038833980820191505090505b50815260200160006040519080825280602002602001820160405280156123165781602001602082028038833980820191505090505b50815250935060408051908101604052806000815260200134815250925060e0604051908101604052808881526020016001600581111561235357fe5b81526020018f6000191681526020018781526020018681526020018581526020018481525091503387604051602001808373ffffffffffffffffffffffffffffffffffffffff1673ffffffffffffffffffffffffffffffffffffffff166c01000000000000000000000000028152601401828152602001925050506040516020818303038152906040526040518082805190602001908083835b60208310151561241257805182526020820191506020810190506020830392506123ed565b6001836020036101000a0380198251168184511680821785525050505050509050019150506040518091039020905081600160003373ffffffffffffffffffffffffffffffffffffffff1673ffffffffffffffffffffffffffffffffffffffff1681526020019081526020016000206000837bffffffffffffffffffffffffffffffffffffffffffffffffffffffff19167bffffffffffffffffffffffffffffffffffffffffffffffffffffffff191681526020019081526020016000206000820151816000015560208201518160010160006101000a81548160ff021916908360058111156124fe57fe5b021790555060408201518160020190600019169055606082015181600301600082015181600001556020820151816001015560408201518160020155606082015181600301555050608082015181600701600082015181600001556020820151816001019080519060200190612575929190613229565b50604082015181600301908051906020019061259292919061327c565b50505060a082015181600b0160008201518160000190805190602001906125ba929190613229565b5060208201518160010190805190602001906125d792919061327c565b50505060c082015181600d01600082015181600001556020820151816001015550509050506001600260003373ffffffffffffffffffffffffffffffffffffffff1673ffffffffffffffffffffffffffffffffffffffff1681526020019081526020016000206000016000828254019250508190555034600260003373ffffffffffffffffffffffffffffffffffffffff1673ffffffffffffffffffffffffffffffffffffffff168152602001908152602001600020600401600082825401925050819055503373ffffffffffffffffffffffffffffffffffffffff167f38200ecf62e44ebceaabbd4292688e3e06ac3bdaf612a0287f9d1d7f0e3e5ad08260405180827bffffffffffffffffffffffffffffffffffffffffffffffffffffffff19167bffffffffffffffffffffffffffffffffffffffffffffffffffffffff1916815260200191505060405180910390a25050505050505050505050505050565b6000809054906101000a900473ffffffffffffffffffffffffffffffffffffffff1673ffffffffffffffffffffffffffffffffffffffff163373ffffffffffffffffffffffffffffffffffffffff1614151561279457600080fd5b61279d8161304b565b50565b6127a933612dbf565b7bffffffffffffffffffffffffffffffffffffffffffffffffffffffff1916827bffffffffffffffffffffffffffffffffffffffffffffffffffffffff19161415156127f457600080fd5b6001600581111561280157fe5b600160008573ffffffffffffffffffffffffffffffffffffffff1673ffffffffffffffffffffffffffffffffffffffff1681526020019081526020016000206000847bffffffffffffffffffffffffffffffffffffffffffffffffffffffff19167bffffffffffffffffffffffffffffffffffffffffffffffffffffffff1916815260200190815260200160002060010160009054906101000a900460ff1660058111156128ab57fe5b1415156128b757600080fd5b600160008473ffffffffffffffffffffffffffffffffffffffff1673ffffffffffffffffffffffffffffffffffffffff1681526020019081526020016000206000837bffffffffffffffffffffffffffffffffffffffffffffffffffffffff19167bffffffffffffffffffffffffffffffffffffffffffffffffffffffff1916815260200190815260200160002060030160020154341015151561295a57600080fd5b60011515600160008573ffffffffffffffffffffffffffffffffffffffff1673ffffffffffffffffffffffffffffffffffffffff1681526020019081526020016000206000847bffffffffffffffffffffffffffffffffffffffffffffffffffffffff19167bffffffffffffffffffffffffffffffffffffffffffffffffffffffff191681526020019081526020016000206007016002016000836000191660001916815260200190815260200160002060009054906101000a900460ff161515141515612a2757600080fd5b600160008473ffffffffffffffffffffffffffffffffffffffff1673ffffffffffffffffffffffffffffffffffffffff1681526020019081526020016000206000837bffffffffffffffffffffffffffffffffffffffffffffffffffffffff19167bffffffffffffffffffffffffffffffffffffffffffffffffffffffff191681526020019081526020016000206003016001015442101515612ac957600080fd5b34600160008573ffffffffffffffffffffffffffffffffffffffff1673ffffffffffffffffffffffffffffffffffffffff1681526020019081526020016000206000847bffffffffffffffffffffffffffffffffffffffffffffffffffffffff19167bffffffffffffffffffffffffffffffffffffffffffffffffffffffff19168152602001908152602001600020600f016000836000191660001916815260200190815260200160002060003373ffffffffffffffffffffffffffffffffffffffff1673ffffffffffffffffffffffffffffffffffffffff1681526020019081526020016000206000828254019250508190555034600160008573ffffffffffffffffffffffffffffffffffffffff1673ffffffffffffffffffffffffffffffffffffffff1681526020019081526020016000206000847bffffffffffffffffffffffffffffffffffffffffffffffffffffffff19167bffffffffffffffffffffffffffffffffffffffffffffffffffffffff19168152602001908152602001600020601001600083600019166000191681526020019081526020016000206000828254019250508190555060018060008573ffffffffffffffffffffffffffffffffffffffff1673ffffffffffffffffffffffffffffffffffffffff1681526020019081526020016000206000847bffffffffffffffffffffffffffffffffffffffffffffffffffffffff19167bffffffffffffffffffffffffffffffffffffffffffffffffffffffff19168152602001908152602001600020600d016000016000828254019250508190555034600160008573ffffffffffffffffffffffffffffffffffffffff1673ffffffffffffffffffffffffffffffffffffffff1681526020019081526020016000206000847bffffffffffffffffffffffffffffffffffffffffffffffffffffffff19167bffffffffffffffffffffffffffffffffffffffffffffffffffffffff19168152602001908152602001600020600d0160010160008282540192505081905550505050565b6000816001600260008573ffffffffffffffffffffffffffffffffffffffff1673ffffffffffffffffffffffffffffffffffffffff1681526020019081526020016000206000015403604051602001808373ffffffffffffffffffffffffffffffffffffffff1673ffffffffffffffffffffffffffffffffffffffff166c01000000000000000000000000028152601401828152602001925050506040516020818303038152906040526040518082805190602001908083835b602083101515612e9e5780518252602082019150602081019050602083039250612e79565b6001836020036101000a03801982511681845116808217855250505050505090500191505060405180910390209050919050565b60008183811515612edf57fe5b04905092915050565b600080831415612efb5760009050612f1a565b8183029050818382811515612f0c57fe5b04141515612f1657fe5b8090505b92915050565b60036000826000191660001916815260200190815260200160002060006101000a81549073ffffffffffffffffffffffffffffffffffffffff0219169055600460008373ffffffffffffffffffffffffffffffffffffffff1673ffffffffffffffffffffffffffffffffffffffff168152602001908152602001600020600090555050565b8160036000836000191660001916815260200190815260200160002060006101000a81548173ffffffffffffffffffffffffffffffffffffffff021916908373ffffffffffffffffffffffffffffffffffffffff16021790555080600460008473ffffffffffffffffffffffffffffffffffffffff1673ffffffffffffffffffffffffffffffffffffffff16815260200190815260200160002081600019169055505050565b600073ffffffffffffffffffffffffffffffffffffffff168173ffffffffffffffffffffffffffffffffffffffff161415151561308757600080fd5b8073ffffffffffffffffffffffffffffffffffffffff166000809054906101000a900473ffffffffffffffffffffffffffffffffffffffff1673ffffffffffffffffffffffffffffffffffffffff167f8be0079c531659141344cd1fd0a4f28419497f9722a3daafe3b4186f6b6457e060405160405180910390a3806000806101000a81548173ffffffffffffffffffffffffffffffffffffffff021916908373ffffffffffffffffffffffffffffffffffffffff16021790555050565b608060405190810160405280600081526020016000815260200160008152602001600081525090565b6060604051908101604052806000815260200160608152602001606081525090565b604080519081016040528060608152602001606081525090565b604080519081016040528060008152602001600081525090565b6101c06040519081016040528060008152602001600060058111156131e557fe5b8152602001600080191681526020016131fc6132c9565b81526020016132096132f2565b8152602001613216613314565b815260200161322361332e565b81525090565b82805482825590600052602060002090810192821561326b579160200282015b8281111561326a578251829060001916905591602001919060010190613249565b5b5090506132789190613348565b5090565b8280548282559060005260206000209081019282156132b8579160200282015b828111156132b757825182559160200191906001019061329c565b5b5090506132c5919061336d565b5090565b608060405190810160405280600081526020016000815260200160008152602001600081525090565b6060604051908101604052806000815260200160608152602001606081525090565b604080519081016040528060608152602001606081525090565b604080519081016040528060008152602001600081525090565b61336a91905b8082111561336657600081600090555060010161334e565b5090565b90565b61338f91905b8082111561338b576000816000905550600101613373565b5090565b905600a165627a7a723058203555d7d8c2af83cf739ece928fe13ec636fd44f365e726c64d28d62198c4e3e90029",
  "source": "pragma solidity ^0.4.24;\n\nimport 'openzeppelin-solidity/contracts/ownership/Ownable.sol';\nimport 'openzeppelin-solidity/contracts/math/SafeMath.sol';\n\ncontract Betl is Ownable {\n  using SafeMath for uint;\n\n  uint private constant FEE_PERCENT = 1;\n  uint private constant MIN_TIMEOUT = 1 minutes;\n  uint private constant MODE_WHATEVER = 0;       // usecase for modes?\n\n  enum Status {\n    UNDEFINED,\n    OPEN,\n    CLOSED,\n    FINISHED,\n    CANCELLED,\n    TIMEOUT\n  }\n\n  event RoundCreated(address indexed host, bytes4 roundId);\n  event RoundFinished(address indexed host, bytes4 roundId);\n  event RoundCanceled(address indexed host, bytes4 roundId);\n\n  // Eventually divide into RoundConfig and RoundConfigExt. First one mandatory, latter optional\n  // Default config: one winner, who takes it all.\n  struct RoundConfig {\n    uint createdAt;\n    uint timeoutAt;\n    uint minBet;\n    uint hostBonus; // or: add directly to roundstats += hostBonus\n  }\n\n  struct RoundOptions {\n    uint numOptions;\n    bytes32[] options;\n    mapping(bytes32 => bool) optionLookup;\n    // Specifies payout distributions in case multiple winners are possible\n    // Example: When there are 3 winners, this array can be [60, 30, 10] ==> in percents, must sum to 100.\n    // winnerTiers.length <= numOptions\n    uint[] payoutTiers;\n    //bool hasFlexOptions;\n  }\n\n  // has to be aligned with RoundConfig(Ext)\n  struct RoundResults {\n    // can only contain 1 winner, or multiple ones. Primary winner specified first followed by lower tier orders in DESC order\n    bytes32[] pickedOptions;\n    uint[] optionPayouts; // in wei\n  }\n\n  struct RoundStats {\n    uint numBets;\n    uint poolSize;\n  }\n\n  struct Round {\n    uint id;\n    Status status;\n    bytes32 question;\n    RoundConfig config;\n    RoundOptions options;\n    RoundResults results;\n    RoundStats stats;\n    //    hash(opt) =>         player  => bet\n    mapping(bytes32 => mapping(address => uint)) playerBets;\n    //    hash(opt) => totalBets\n    mapping(bytes32 => uint) optionBets;\n  }\n\n  struct HostContext {\n    uint nextRoundId; // == numRoundsCreated\n    uint numRoundsSuccess;\n    uint numRoundsCancelled;\n    uint totalNumBets;\n    uint totalPoolSize;\n  }\n\n  //      host    =>  hash(host,id) => Round\n  mapping(address => mapping(bytes4 => Round)) rounds;\n\n  //      host    => stats\n  mapping(address => HostContext) public hostContext;\n\n  //      name   <=> host\n  mapping(bytes32 => address) public hostAddresses;\n  mapping(address => bytes32) public hostNames;\n\n  function getRoundId(address _host)\n    private\n    view\n    returns (bytes4)\n  {\n    return bytes4(keccak256(abi.encodePacked(_host, hostContext[_host].nextRoundId-1)));\n  }\n\n\n  // ADD/TODO/TOTHINK?:\n  // - bool _hasMultipleWinners --> rather no. Host has no reason to cheat --> loss of reputation\n  // - modeCode usefulness?\n  // configData[ timout, minBet, hostShare ]\n  // COSTS: 296305gas -> @ 5Gwei: 1 dollar\n  function createRound (\n    bytes32 _question,\n    bytes32[] _options,\n    uint[] _configData,\n    uint[] _payoutTiers\n    //bool _hasFlexOptions\n  )\n    external\n    payable\n  {\n    require(_configData[0] >= MIN_TIMEOUT);\n    require(_options.length >= 2);// || _hasFlexOptions == true);\n    require(_configData[2] <= 100);\n    require(_payoutTiers.length <= _options.length);\n\n    uint id = hostContext[msg.sender].nextRoundId;\n    // TODO: check if we really need this check\n    // if (id > 0) {\n    //   Status status = rounds[msg.sender][getRoundId(msg.sender)].status;\n    //   require(status == Status.FINISHED ||\n    //     status == Status.CANCELLED || \n    //     status == Status.TIMEOUT);\n    // }\n    //require(hostContext[msg.sender].roundIdLookup[_roundId] == false);\n\n    RoundConfig memory config = RoundConfig(\n      now,\n      now + _configData[0],\n      _configData[1],\n      msg.value\n    );\n\n    RoundOptions memory options = RoundOptions(\n      _options.length,\n      _options,\n      _payoutTiers\n    );\n\n    RoundResults memory results = RoundResults(\n      new bytes32[](0),\n      new uint[](0)\n    );\n\n    RoundStats memory stats = RoundStats(\n      0,\n      msg.value\n    );\n\n    Round memory round = Round(\n      id,\n      Status.OPEN,\n      _question,\n      config,\n      options,\n      results,\n      stats\n    );\n    \n    bytes4 roundId = bytes4(keccak256(abi.encodePacked(msg.sender, id)));\n    rounds[msg.sender][roundId] = round;\n\n    // post creation\n    hostContext[msg.sender].nextRoundId += 1;\n    hostContext[msg.sender].totalPoolSize += msg.value;\n\n    emit RoundCreated(msg.sender, roundId);\n  }\n\n  function getRound (address _hostAddress, bytes4 _roundId)\n    public\n    view // status, createdAt, timeoutAt, question, numOptions, numBets, poolSize\n    returns (uint, uint, uint, bytes32, uint, uint, uint)\n  {\n    uint nextRoundId = hostContext[_hostAddress].nextRoundId;\n    require(nextRoundId > 0, 'Host has not created any round yet');\n    Round storage round = rounds[_hostAddress][_roundId];\n    require(round.status != Status.UNDEFINED, 'Round does not exist');\n\n    return (\n      uint8(round.status),\n      round.config.createdAt,\n      round.config.timeoutAt,\n      round.question,\n      round.options.numOptions,\n      round.stats.numBets,\n      round.stats.poolSize\n    );\n  }\n\n  function getRound (bytes32 _hostName, bytes4 _roundId) \n    external\n    view // status, createdAt, timeoutAt, question, numOptions, numBets, poolSize\n    returns (uint, uint, uint, bytes32, uint, uint, uint)\n  {\n    require(hostAddresses[_hostName] != address(0), 'Host does not exist');\n    return getRound(hostAddresses[_hostName], _roundId);\n  }\n\n  //                                                           status, createdAt, timeout, minBet, hostBonus, hasFlexOption\n  function getRoundConfigForHost (address _host) external view returns (uint, uint, uint, uint, uint, bool) {\n  }\n  //                                                              numBets, numPlayers, poolSize\n  function getRoundStatsForHost (address _host) external view returns (uint, uint, uint) {\n  }\n\n  // TODO: implement. For now max 5 options/return values. If only 2 provided, fill up with 0s\n  function getRoundOptionsForHost (address _host) external view returns (bytes32, bytes32, bytes32, bytes32, bytes32) { }\n  \n  function getRoundOptionBetsForHost (address _host) external view returns (uint, uint, uint, uint, uint) { }\n  \n  function getMyRoundOptionBetsForHost (address _host) external view returns (uint, uint, uint, uint, uint) { }\n\n  function getRoundPickedOptionsForHost (address _host) external view returns (bool, bool, bool, bool, bool) { }\n\n  // function addOptionForRound (address _host, bytes4 _roundId, bytes32 _option) external {\n  //   //additional check needed to make sure that round exists?\n  //   //require(rounds[_host][_roundId] != 0); // not 0x0, there must be a Round\n  //   require(rounds[_host][_roundId].options.hasFlexOptions == true);\n  //   require(rounds[_host][_roundId].status == Status.OPEN);\n  //   require(rounds[_host][_roundId].options.optionLookup[_option] == false); // option doesn't exist yet\n    \n  //   rounds[_host][_roundId].options.options.push(_option);\n  //   rounds[_host][_roundId].options.optionLookup[_option] = true;\n  //   rounds[_host][_roundId].options.numOptions += 1;\n  // }\n\n  // always takes newest rounds.\n  function pickWinnerAndEnd (uint[] _winners) external payable {\n    bytes4 roundId = getRoundId(msg.sender);\n\n    Status status = rounds[msg.sender][roundId].status;\n    require(status == Status.OPEN || status == Status.CLOSED); // Host can either end running or closed Round\n    require(_winners.length <= rounds[msg.sender][roundId].options.numOptions);\n    require(now < rounds[msg.sender][roundId].config.timeoutAt); // --> cancelInternal when timeoutAt reached? Nahh. move to Closed?\n    \n\n    // TODO: redistribute payouts\n    //owner.transfer(1%)\n    //host.transfer(hostShare)\n    // payouts = remaining pool\n\n\n    hostContext[msg.sender].totalNumBets += rounds[msg.sender][roundId].stats.numBets;\n    hostContext[msg.sender].totalPoolSize += (rounds[msg.sender][roundId].stats.poolSize + msg.value);\n    hostContext[msg.sender].numRoundsSuccess += 1;\n    rounds[msg.sender][roundId].status == Status.FINISHED;\n    emit RoundFinished(msg.sender, roundId);\n  }\n\n  function bet (address _host, bytes4 _roundId, bytes32 _optionId) external payable {\n    require(_roundId == getRoundId(msg.sender));\n    require(rounds[_host][_roundId].status == Status.OPEN);\n    require(msg.value >= rounds[_host][_roundId].config.minBet);\n    require(rounds[_host][_roundId].options.optionLookup[_optionId] == true);\n    require(now < rounds[_host][_roundId].config.timeoutAt);\n  \n    rounds[_host][_roundId].playerBets[_optionId][msg.sender] += msg.value;\n    rounds[_host][_roundId].optionBets[_optionId] += msg.value;\n    rounds[_host][_roundId].stats.numBets += 1;\n    rounds[_host][_roundId].stats.poolSize += msg.value;\n  }\n\n  function claimPayout (address _host, bytes4 _roundId) external {\n    require(_roundId == getRoundId(_host));\n    require(rounds[_host][_roundId].status == Status.FINISHED);\n\n    uint payout;\n    RoundResults storage results = rounds[_host][_roundId].results;\n    uint all = rounds[_host][_roundId].stats.poolSize;\n\n    // In case host only picked one winner, this is one iteration\n    for(uint i=0; i<results.pickedOptions.length; i++) {\n      bytes32 pickedOption = results.pickedOptions[i];\n      uint playerBet = rounds[_host][_roundId].playerBets[pickedOption][msg.sender];\n\n      if(playerBet > 0) {\n        // e.g. 2 (*1e20)\n        uint playerShare = (playerBet*1e20).div(rounds[_host][_roundId].optionBets[pickedOption]);\n        // e.g. 70\n        uint optionShare = rounds[_host][_roundId].options.payoutTiers[i];\n\n        // playerShare * optionShare = player payout for pickedOptions[i]\n        uint share = all.mul(optionShare).div(100).mul(playerShare).div(1e20);\n        payout += share;\n\n        // reset player bets so that they can't be claimed again\n        rounds[_host][_roundId].playerBets[pickedOption][msg.sender] = 0;\n      }\n    }\n\n    require(payout > 0);\n    msg.sender.transfer(payout);\n  }\n\n  function cancelRound () external {\n    bytes4 roundId = getRoundId(msg.sender);\n\n    Status status = rounds[msg.sender][roundId].status;\n    require(status == Status.UNDEFINED || status == Status.OPEN); // check if round is cancelable\n\n    rounds[msg.sender][roundId].status = Status.CANCELLED;\n    hostContext[msg.sender].numRoundsCancelled += 1;\n    emit RoundCanceled(msg.sender, roundId);\n  }\n\n\n  ///\n  /// Management of `Username <-> address` mappings\n  ///\n\n  function registerRecord (bytes32 _name)\n    public\n  {\n    require(hostAddresses[_name] == address(0));\n    require(hostNames[msg.sender] == 0x0000000000000000);\n\n    _setRecord(msg.sender, _name);\n  }\n\n  function deleteRecord ()\n    public\n  {\n    bytes32 oldName = hostNames[msg.sender];\n    require(oldName[0] != 0);\n\n    _removeRecord(msg.sender, oldName);\n  }\n\n  function updateRecord (bytes32 _newName)\n    external\n  {\n    deleteRecord();\n    registerRecord(_newName);\n  }\n\n  function sudoDeleteRecord (bytes32 _name)\n    external\n    onlyOwner\n  {\n    address affectedAddress = hostAddresses[_name];\n    require(affectedAddress == address(0));\n\n    _removeRecord(affectedAddress, _name);\n  }\n\n  function _setRecord (\n    address _address,\n    bytes32 _name\n  )\n    private\n  {\n    hostAddresses[_name] = _address;\n    hostNames[_address] = _name;\n  }\n\n  function _removeRecord (\n    address _address,\n    bytes32 _name\n  )\n    private\n  {\n    delete hostAddresses[_name];\n    delete hostNames[_address];\n  }\n\n  function ()\n    external\n    payable\n  {\n    revert(); \n  }\n}",
  "sourcePath": "/home/mo/dev/betl/smart-contract/contracts/Betl.sol",
  "compiler": {
    "name": "solc",
    "version": "0.4.24+commit.e67f0147.Emscripten.clang"
  },
  "schemaVersion": "2.0.0",
  "updatedAt": "2018-06-17T17:49:36.665Z"
}