{
  "contractName": "Betl",
  "abi": [
    {
      "constant": true,
      "inputs": [
        {
          "name": "",
          "type": "address"
        }
      ],
      "name": "hostContext",
      "outputs": [
        {
          "name": "nextRoundNumber",
          "type": "uint256"
        },
        {
          "name": "numRoundsSuccess",
          "type": "uint256"
        },
        {
          "name": "numRoundsCancelled",
          "type": "uint256"
        },
        {
          "name": "totalNumBets",
          "type": "uint256"
        },
        {
          "name": "totalPoolSize",
          "type": "uint256"
        }
      ],
      "payable": false,
      "stateMutability": "view",
      "type": "function"
    },
    {
      "constant": false,
      "inputs": [],
      "name": "renounceOwnership",
      "outputs": [],
      "payable": false,
      "stateMutability": "nonpayable",
      "type": "function"
    },
    {
      "constant": true,
      "inputs": [],
      "name": "owner",
      "outputs": [
        {
          "name": "",
          "type": "address"
        }
      ],
      "payable": false,
      "stateMutability": "view",
      "type": "function"
    },
    {
      "constant": true,
      "inputs": [
        {
          "name": "",
          "type": "bytes32"
        }
      ],
      "name": "hostAddresses",
      "outputs": [
        {
          "name": "",
          "type": "address"
        }
      ],
      "payable": false,
      "stateMutability": "view",
      "type": "function"
    },
    {
      "constant": true,
      "inputs": [
        {
          "name": "",
          "type": "address"
        }
      ],
      "name": "hostNames",
      "outputs": [
        {
          "name": "",
          "type": "bytes32"
        }
      ],
      "payable": false,
      "stateMutability": "view",
      "type": "function"
    },
    {
      "constant": false,
      "inputs": [
        {
          "name": "_newOwner",
          "type": "address"
        }
      ],
      "name": "transferOwnership",
      "outputs": [],
      "payable": false,
      "stateMutability": "nonpayable",
      "type": "function"
    },
    {
      "payable": true,
      "stateMutability": "payable",
      "type": "fallback"
    },
    {
      "anonymous": false,
      "inputs": [
        {
          "indexed": true,
          "name": "host",
          "type": "address"
        },
        {
          "indexed": false,
          "name": "roundId",
          "type": "bytes4"
        }
      ],
      "name": "RoundCreated",
      "type": "event"
    },
    {
      "anonymous": false,
      "inputs": [
        {
          "indexed": true,
          "name": "host",
          "type": "address"
        },
        {
          "indexed": false,
          "name": "roundId",
          "type": "bytes4"
        }
      ],
      "name": "RoundFinished",
      "type": "event"
    },
    {
      "anonymous": false,
      "inputs": [
        {
          "indexed": true,
          "name": "host",
          "type": "address"
        },
        {
          "indexed": false,
          "name": "roundId",
          "type": "bytes4"
        }
      ],
      "name": "RoundCanceled",
      "type": "event"
    },
    {
      "anonymous": false,
      "inputs": [
        {
          "indexed": true,
          "name": "previousOwner",
          "type": "address"
        }
      ],
      "name": "OwnershipRenounced",
      "type": "event"
    },
    {
      "anonymous": false,
      "inputs": [
        {
          "indexed": true,
          "name": "previousOwner",
          "type": "address"
        },
        {
          "indexed": true,
          "name": "newOwner",
          "type": "address"
        }
      ],
      "name": "OwnershipTransferred",
      "type": "event"
    },
    {
      "constant": true,
      "inputs": [
        {
          "name": "_host",
          "type": "address"
        }
      ],
      "name": "getRoundId",
      "outputs": [
        {
          "name": "",
          "type": "bytes4"
        }
      ],
      "payable": false,
      "stateMutability": "view",
      "type": "function"
    },
    {
      "constant": true,
      "inputs": [
        {
          "name": "_host",
          "type": "address"
        }
      ],
      "name": "getNextRoundId",
      "outputs": [
        {
          "name": "",
          "type": "bytes4"
        }
      ],
      "payable": false,
      "stateMutability": "view",
      "type": "function"
    },
    {
      "constant": true,
      "inputs": [
        {
          "name": "_host",
          "type": "address"
        }
      ],
      "name": "getNextRoundNumber",
      "outputs": [
        {
          "name": "",
          "type": "uint256"
        }
      ],
      "payable": false,
      "stateMutability": "view",
      "type": "function"
    },
    {
      "constant": false,
      "inputs": [
        {
          "name": "_question",
          "type": "bytes32"
        },
        {
          "name": "_outcomes",
          "type": "bytes32[]"
        },
        {
          "name": "_configData",
          "type": "uint256[]"
        },
        {
          "name": "_payoutTiers",
          "type": "uint256[]"
        }
      ],
      "name": "createRound",
      "outputs": [],
      "payable": true,
      "stateMutability": "payable",
      "type": "function"
    },
    {
      "constant": true,
      "inputs": [
        {
          "name": "_hostAddress",
          "type": "address"
        },
        {
          "name": "_roundId",
          "type": "bytes4"
        }
      ],
      "name": "getRound",
      "outputs": [
        {
          "name": "",
          "type": "uint256"
        },
        {
          "name": "",
          "type": "uint256"
        },
        {
          "name": "",
          "type": "uint256"
        },
        {
          "name": "",
          "type": "uint256"
        },
        {
          "name": "",
          "type": "bytes32"
        },
        {
          "name": "",
          "type": "uint256"
        },
        {
          "name": "",
          "type": "uint256"
        },
        {
          "name": "",
          "type": "uint256"
        },
        {
          "name": "",
          "type": "uint256"
        }
      ],
      "payable": false,
      "stateMutability": "view",
      "type": "function"
    },
    {
      "constant": true,
      "inputs": [
        {
          "name": "_hostName",
          "type": "bytes32"
        },
        {
          "name": "_roundId",
          "type": "bytes4"
        }
      ],
      "name": "getRound",
      "outputs": [
        {
          "name": "",
          "type": "uint256"
        },
        {
          "name": "",
          "type": "uint256"
        },
        {
          "name": "",
          "type": "uint256"
        },
        {
          "name": "",
          "type": "uint256"
        },
        {
          "name": "",
          "type": "bytes32"
        },
        {
          "name": "",
          "type": "uint256"
        },
        {
          "name": "",
          "type": "uint256"
        },
        {
          "name": "",
          "type": "uint256"
        },
        {
          "name": "",
          "type": "uint256"
        }
      ],
      "payable": false,
      "stateMutability": "view",
      "type": "function"
    },
    {
      "constant": true,
      "inputs": [
        {
          "name": "_hostName",
          "type": "bytes32"
        },
        {
          "name": "_roundId",
          "type": "bytes4"
        }
      ],
      "name": "getRoundOutcomes",
      "outputs": [
        {
          "name": "",
          "type": "bytes32[]"
        }
      ],
      "payable": false,
      "stateMutability": "view",
      "type": "function"
    },
    {
      "constant": true,
      "inputs": [
        {
          "name": "_host",
          "type": "address"
        },
        {
          "name": "_roundId",
          "type": "bytes4"
        }
      ],
      "name": "getRoundOutcomes",
      "outputs": [
        {
          "name": "",
          "type": "bytes32[]"
        }
      ],
      "payable": false,
      "stateMutability": "view",
      "type": "function"
    },
    {
      "constant": true,
      "inputs": [
        {
          "name": "_hostName",
          "type": "bytes32"
        },
        {
          "name": "_roundId",
          "type": "bytes4"
        },
        {
          "name": "_outcomeHash",
          "type": "bytes32"
        }
      ],
      "name": "getRoundOutcomePool",
      "outputs": [
        {
          "name": "",
          "type": "uint256"
        }
      ],
      "payable": false,
      "stateMutability": "view",
      "type": "function"
    },
    {
      "constant": true,
      "inputs": [
        {
          "name": "_host",
          "type": "address"
        },
        {
          "name": "_roundId",
          "type": "bytes4"
        },
        {
          "name": "_outcomeHash",
          "type": "bytes32"
        }
      ],
      "name": "getRoundOutcomePool",
      "outputs": [
        {
          "name": "",
          "type": "uint256"
        }
      ],
      "payable": false,
      "stateMutability": "view",
      "type": "function"
    },
    {
      "constant": true,
      "inputs": [
        {
          "name": "_host",
          "type": "address"
        },
        {
          "name": "_roundId",
          "type": "bytes4"
        },
        {
          "name": "_outcomeHash",
          "type": "bytes32"
        }
      ],
      "name": "getRoundOutcomeNumBets",
      "outputs": [
        {
          "name": "",
          "type": "uint256"
        }
      ],
      "payable": false,
      "stateMutability": "view",
      "type": "function"
    },
    {
      "constant": true,
      "inputs": [
        {
          "name": "_hostName",
          "type": "bytes32"
        },
        {
          "name": "_roundId",
          "type": "bytes4"
        },
        {
          "name": "_outcomeHash",
          "type": "bytes32"
        }
      ],
      "name": "getRoundOutcomeNumBets",
      "outputs": [
        {
          "name": "",
          "type": "uint256"
        }
      ],
      "payable": false,
      "stateMutability": "view",
      "type": "function"
    },
    {
      "constant": true,
      "inputs": [
        {
          "name": "_hostName",
          "type": "bytes32"
        },
        {
          "name": "_roundId",
          "type": "bytes4"
        },
        {
          "name": "_outcomeHash",
          "type": "bytes32"
        }
      ],
      "name": "getMyRoundOutcomeBet",
      "outputs": [
        {
          "name": "",
          "type": "uint256"
        }
      ],
      "payable": false,
      "stateMutability": "view",
      "type": "function"
    },
    {
      "constant": true,
      "inputs": [
        {
          "name": "_host",
          "type": "address"
        },
        {
          "name": "_roundId",
          "type": "bytes4"
        },
        {
          "name": "_outcomeHash",
          "type": "bytes32"
        }
      ],
      "name": "getMyRoundOutcomeBet",
      "outputs": [
        {
          "name": "",
          "type": "uint256"
        }
      ],
      "payable": false,
      "stateMutability": "view",
      "type": "function"
    },
    {
      "constant": true,
      "inputs": [
        {
          "name": "_host",
          "type": "address"
        },
        {
          "name": "_roundId",
          "type": "bytes4"
        },
        {
          "name": "_outcomeHash",
          "type": "bytes32"
        }
      ],
      "name": "getRoundOutcomeWinShare",
      "outputs": [
        {
          "name": "",
          "type": "uint256"
        }
      ],
      "payable": false,
      "stateMutability": "view",
      "type": "function"
    },
    {
      "constant": true,
      "inputs": [
        {
          "name": "_hostName",
          "type": "bytes32"
        },
        {
          "name": "_roundId",
          "type": "bytes4"
        },
        {
          "name": "_outcomeHash",
          "type": "bytes32"
        }
      ],
      "name": "getRoundOutcomeWinShare",
      "outputs": [
        {
          "name": "",
          "type": "uint256"
        }
      ],
      "payable": false,
      "stateMutability": "view",
      "type": "function"
    },
    {
      "constant": true,
      "inputs": [
        {
          "name": "_host",
          "type": "address"
        }
      ],
      "name": "getHostStats",
      "outputs": [
        {
          "name": "",
          "type": "uint256"
        },
        {
          "name": "",
          "type": "uint256"
        },
        {
          "name": "",
          "type": "uint256"
        },
        {
          "name": "",
          "type": "uint256"
        }
      ],
      "payable": false,
      "stateMutability": "view",
      "type": "function"
    },
    {
      "constant": false,
      "inputs": [
        {
          "name": "_winners",
          "type": "uint256[]"
        },
        {
          "name": "_roundId",
          "type": "bytes4"
        }
      ],
      "name": "pickWinnerAndEnd",
      "outputs": [],
      "payable": true,
      "stateMutability": "payable",
      "type": "function"
    },
    {
      "constant": false,
      "inputs": [
        {
          "name": "_host",
          "type": "address"
        },
        {
          "name": "_roundId",
          "type": "bytes4"
        },
        {
          "name": "_outcomeId",
          "type": "bytes32"
        }
      ],
      "name": "bet",
      "outputs": [],
      "payable": true,
      "stateMutability": "payable",
      "type": "function"
    },
    {
      "constant": false,
      "inputs": [
        {
          "name": "_host",
          "type": "address"
        },
        {
          "name": "_roundId",
          "type": "bytes4"
        }
      ],
      "name": "claimPayout",
      "outputs": [],
      "payable": false,
      "stateMutability": "nonpayable",
      "type": "function"
    },
    {
      "constant": false,
      "inputs": [],
      "name": "cancelRound",
      "outputs": [],
      "payable": false,
      "stateMutability": "nonpayable",
      "type": "function"
    },
    {
      "constant": false,
      "inputs": [
        {
          "name": "_name",
          "type": "bytes32"
        }
      ],
      "name": "registerRecord",
      "outputs": [],
      "payable": false,
      "stateMutability": "nonpayable",
      "type": "function"
    },
    {
      "constant": false,
      "inputs": [],
      "name": "deleteRecord",
      "outputs": [],
      "payable": false,
      "stateMutability": "nonpayable",
      "type": "function"
    },
    {
      "constant": false,
      "inputs": [
        {
          "name": "_newName",
          "type": "bytes32"
        }
      ],
      "name": "updateRecord",
      "outputs": [],
      "payable": false,
      "stateMutability": "nonpayable",
      "type": "function"
    },
    {
      "constant": false,
      "inputs": [
        {
          "name": "_name",
          "type": "bytes32"
        }
      ],
      "name": "sudoDeleteRecord",
      "outputs": [],
      "payable": false,
      "stateMutability": "nonpayable",
      "type": "function"
    }
  ],
  "bytecode": "0x6080604052336000806101000a81548173ffffffffffffffffffffffffffffffffffffffff021916908373ffffffffffffffffffffffffffffffffffffffff16021790555061499b806100536000396000f30060806040526004361061018b576000357c0100000000000000000000000000000000000000000000000000000000900463ffffffff16806301186d991461019057806303437415146101c157806304756f0b146102565780630d4c0960146103045780631584108b1461035b5780631dd9fe43146103c75780632bfcc24e1461041e578063326d9a62146104ac5780633cc37e821461053a57806342cbac3e146105fb578063471990ba1461067757806365426a98146106ea57806366d9e7d8146107015780636f50c44b14610732578063715018a614610763578063764ac7341461077a5780637ddef9df146107e657806385c09205146108a657806386a594d01461093b57806387a3c0f9146109525780638da5cb5b146109ce5780639dd4527d14610a25578063a070f04e14610a96578063c5da399314610af5578063c7641f9b14610b61578063ca5af5d914610bdd578063ef1cbbf714610c6b578063f2dd33d614610cf9578063f2fde38b14610d75578063f5309ec014610db8578063fe637de814610e25575b600080fd5b34801561019c57600080fd5b506101bf6004803603810190808035600019169060200190929190505050610ed4565b005b3480156101cd57600080fd5b50610202600480360381019080803573ffffffffffffffffffffffffffffffffffffffff169060200190929190505050610ee8565b60405180827bffffffffffffffffffffffffffffffffffffffffffffffffffffffff19167bffffffffffffffffffffffffffffffffffffffffffffffffffffffff1916815260200191505060405180910390f35b34801561026257600080fd5b506102ae600480360381019080803560001916906020019092919080357bffffffffffffffffffffffffffffffffffffffffffffffffffffffff19169060200190929190505050610ffd565b604051808a81526020018981526020018881526020018781526020018660001916600019168152602001858152602001848152602001838152602001828152602001995050505050505050505060405180910390f35b61035960048036038101908080359060200190820180359060200191909192939192939080357bffffffffffffffffffffffffffffffffffffffffffffffffffffffff1916906020019092919050505061114e565b005b34801561036757600080fd5b506103c5600480360381019080803573ffffffffffffffffffffffffffffffffffffffff16906020019092919080357bffffffffffffffffffffffffffffffffffffffffffffffffffffffff191690602001909291905050506116e5565b005b3480156103d357600080fd5b50610408600480360381019080803573ffffffffffffffffffffffffffffffffffffffff169060200190929190505050611aba565b6040518082815260200191505060405180910390f35b34801561042a57600080fd5b50610496600480360381019080803573ffffffffffffffffffffffffffffffffffffffff16906020019092919080357bffffffffffffffffffffffffffffffffffffffffffffffffffffffff191690602001909291908035600019169060200190929190505050611b06565b6040518082815260200191505060405180910390f35b3480156104b857600080fd5b50610524600480360381019080803573ffffffffffffffffffffffffffffffffffffffff16906020019092919080357bffffffffffffffffffffffffffffffffffffffffffffffffffffffff191690602001909291908035600019169060200190929190505050611d53565b6040518082815260200191505060405180910390f35b34801561054657600080fd5b506105a4600480360381019080803573ffffffffffffffffffffffffffffffffffffffff16906020019092919080357bffffffffffffffffffffffffffffffffffffffffffffffffffffffff19169060200190929190505050611fdd565b6040518080602001828103825283818151815260200191508051906020019060200280838360005b838110156105e75780820151818401526020810190506105cc565b505050509050019250505060405180910390f35b34801561060757600080fd5b50610661600480360381019080803560001916906020019092919080357bffffffffffffffffffffffffffffffffffffffffffffffffffffffff1916906020019092919080356000191690602001909291905050506120ce565b6040518082815260200191505060405180910390f35b34801561068357600080fd5b506106b8600480360381019080803573ffffffffffffffffffffffffffffffffffffffff169060200190929190505050612269565b604051808681526020018581526020018481526020018381526020018281526020019550505050505060405180910390f35b3480156106f657600080fd5b506106ff61229f565b005b34801561070d57600080fd5b506107306004803603810190808035600019169060200190929190505050612375565b005b34801561073e57600080fd5b50610761600480360381019080803560001916906020019092919050505061244d565b005b34801561076f57600080fd5b50610778612531565b005b34801561078657600080fd5b506107bb600480360381019080803573ffffffffffffffffffffffffffffffffffffffff169060200190929190505050612633565b6040518085815260200184815260200183815260200182815260200194505050505060405180910390f35b3480156107f257600080fd5b50610850600480360381019080803573ffffffffffffffffffffffffffffffffffffffff16906020019092919080357bffffffffffffffffffffffffffffffffffffffffffffffffffffffff191690602001909291905050506126a0565b604051808a81526020018981526020018881526020018781526020018660001916600019168152602001858152602001848152602001838152602001828152602001995050505050505050505060405180910390f35b3480156108b257600080fd5b506108e7600480360381019080803573ffffffffffffffffffffffffffffffffffffffff169060200190929190505050612941565b60405180827bffffffffffffffffffffffffffffffffffffffffffffffffffffffff19167bffffffffffffffffffffffffffffffffffffffffffffffffffffffff1916815260200191505060405180910390f35b34801561094757600080fd5b50610950612a34565b005b34801561095e57600080fd5b506109b8600480360381019080803560001916906020019092919080357bffffffffffffffffffffffffffffffffffffffffffffffffffffffff191690602001909291908035600019169060200190929190505050612cbd565b6040518082815260200191505060405180910390f35b3480156109da57600080fd5b506109e3612e58565b604051808273ffffffffffffffffffffffffffffffffffffffff1673ffffffffffffffffffffffffffffffffffffffff16815260200191505060405180910390f35b348015610a3157600080fd5b50610a546004803603810190808035600019169060200190929190505050612e7d565b604051808273ffffffffffffffffffffffffffffffffffffffff1673ffffffffffffffffffffffffffffffffffffffff16815260200191505060405180910390f35b348015610aa257600080fd5b50610ad7600480360381019080803573ffffffffffffffffffffffffffffffffffffffff169060200190929190505050612eb0565b60405180826000191660001916815260200191505060405180910390f35b610b5f6004803603810190808035600019169060200190929190803590602001908201803590602001919091929391929390803590602001908201803590602001919091929391929390803590602001908201803590602001919091929391929390505050612ec8565b005b348015610b6d57600080fd5b50610bc7600480360381019080803560001916906020019092919080357bffffffffffffffffffffffffffffffffffffffffffffffffffffffff1916906020019092919080356000191690602001909291905050506133c6565b6040518082815260200191505060405180910390f35b348015610be957600080fd5b50610c55600480360381019080803573ffffffffffffffffffffffffffffffffffffffff16906020019092919080357bffffffffffffffffffffffffffffffffffffffffffffffffffffffff191690602001909291908035600019169060200190929190505050613561565b6040518082815260200191505060405180910390f35b348015610c7757600080fd5b50610ce3600480360381019080803573ffffffffffffffffffffffffffffffffffffffff16906020019092919080357bffffffffffffffffffffffffffffffffffffffffffffffffffffffff1916906020019092919080356000191690602001909291905050506137ae565b6040518082815260200191505060405180910390f35b348015610d0557600080fd5b50610d5f600480360381019080803560001916906020019092919080357bffffffffffffffffffffffffffffffffffffffffffffffffffffffff1916906020019092919080356000191690602001909291905050506139fe565b6040518082815260200191505060405180910390f35b348015610d8157600080fd5b50610db6600480360381019080803573ffffffffffffffffffffffffffffffffffffffff169060200190929190505050613b99565b005b610e23600480360381019080803573ffffffffffffffffffffffffffffffffffffffff16906020019092919080357bffffffffffffffffffffffffffffffffffffffffffffffffffffffff191690602001909291908035600019169060200190929190505050613c00565b005b348015610e3157600080fd5b50610e7d600480360381019080803560001916906020019092919080357bffffffffffffffffffffffffffffffffffffffffffffffffffffffff191690602001909291905050506142d7565b6040518080602001828103825283818151815260200191508051906020019060200280838360005b83811015610ec0578082015181840152602081019050610ea5565b505050509050019250505060405180910390f35b610edc61229f565b610ee581612375565b50565b60008082600260008573ffffffffffffffffffffffffffffffffffffffff1673ffffffffffffffffffffffffffffffffffffffff16815260200190815260200160002060000154604051602001808373ffffffffffffffffffffffffffffffffffffffff1673ffffffffffffffffffffffffffffffffffffffff166c01000000000000000000000000028152601401828152602001925050506040516020818303038152906040526040518082805190602001908083835b602083101515610fc55780518252602082019150602081019050602083039250610fa0565b6001836020036101000a0380198251168184511680821785525050505050509050019150506040518091039020905080915050919050565b60008060008060008060008060008073ffffffffffffffffffffffffffffffffffffffff16600360008d6000191660001916815260200190815260200160002060009054906101000a900473ffffffffffffffffffffffffffffffffffffffff1673ffffffffffffffffffffffffffffffffffffffff16141515156110ea576040517f08c379a00000000000000000000000000000000000000000000000000000000081526004018080602001828103825260138152602001807f486f737420646f6573206e6f742065786973740000000000000000000000000081525060200191505060405180910390fd5b61112f600360008d6000191660001916815260200190815260200160002060009054906101000a900473ffffffffffffffffffffffffffffffffffffffff168b6126a0565b9850985098509850985098509850985098509295985092959850929598565b6000600160003373ffffffffffffffffffffffffffffffffffffffff1673ffffffffffffffffffffffffffffffffffffffff1681526020019081526020016000206000837bffffffffffffffffffffffffffffffffffffffffffffffffffffffff19167bffffffffffffffffffffffffffffffffffffffffffffffffffffffff1916815260200190815260200160002060010160009054906101000a900460ff169050600160058111156111fe57fe5b81600581111561120a57fe5b148061122c57506002600581111561121e57fe5b81600581111561122a57fe5b145b151561123757600080fd5b600160003373ffffffffffffffffffffffffffffffffffffffff1673ffffffffffffffffffffffffffffffffffffffff1681526020019081526020016000206000837bffffffffffffffffffffffffffffffffffffffffffffffffffffffff19167bffffffffffffffffffffffffffffffffffffffffffffffffffffffff191681526020019081526020016000206007016000015484849050111515156112dd57600080fd5b600160003373ffffffffffffffffffffffffffffffffffffffff1673ffffffffffffffffffffffffffffffffffffffff1681526020019081526020016000206000837bffffffffffffffffffffffffffffffffffffffffffffffffffffffff19167bffffffffffffffffffffffffffffffffffffffffffffffffffffffff19168152602001908152602001600020600301600101544210151561137f57600080fd5b600160003373ffffffffffffffffffffffffffffffffffffffff1673ffffffffffffffffffffffffffffffffffffffff1681526020019081526020016000206000837bffffffffffffffffffffffffffffffffffffffffffffffffffffffff19167bffffffffffffffffffffffffffffffffffffffffffffffffffffffff19168152602001908152602001600020600d0160000154600260003373ffffffffffffffffffffffffffffffffffffffff1673ffffffffffffffffffffffffffffffffffffffff1681526020019081526020016000206003016000828254019250508190555034600160003373ffffffffffffffffffffffffffffffffffffffff1673ffffffffffffffffffffffffffffffffffffffff1681526020019081526020016000206000847bffffffffffffffffffffffffffffffffffffffffffffffffffffffff19167bffffffffffffffffffffffffffffffffffffffffffffffffffffffff19168152602001908152602001600020600d016001015401600260003373ffffffffffffffffffffffffffffffffffffffff1673ffffffffffffffffffffffffffffffffffffffff168152602001908152602001600020600401600082825401925050819055506001600260003373ffffffffffffffffffffffffffffffffffffffff1673ffffffffffffffffffffffffffffffffffffffff16815260200190815260200160002060010160008282540192505081905550600360058111156115a757fe5b600160003373ffffffffffffffffffffffffffffffffffffffff1673ffffffffffffffffffffffffffffffffffffffff1681526020019081526020016000206000847bffffffffffffffffffffffffffffffffffffffffffffffffffffffff19167bffffffffffffffffffffffffffffffffffffffffffffffffffffffff1916815260200190815260200160002060010160009054906101000a900460ff16600581111561165157fe5b50503373ffffffffffffffffffffffffffffffffffffffff167f4cdf964e6e89934ffc032ff3f5be1525aa747560a07d9e380c8bead358e6febd8360405180827bffffffffffffffffffffffffffffffffffffffffffffffffffffffff19167bffffffffffffffffffffffffffffffffffffffffffffffffffffffff1916815260200191505060405180910390a250505050565b600080600080600080600360058111156116fb57fe5b600160008a73ffffffffffffffffffffffffffffffffffffffff1673ffffffffffffffffffffffffffffffffffffffff1681526020019081526020016000206000897bffffffffffffffffffffffffffffffffffffffffffffffffffffffff19167bffffffffffffffffffffffffffffffffffffffffffffffffffffffff1916815260200190815260200160002060010160009054906101000a900460ff1660058111156117a557fe5b1415156117b157600080fd5b600160008973ffffffffffffffffffffffffffffffffffffffff1673ffffffffffffffffffffffffffffffffffffffff1681526020019081526020016000206000887bffffffffffffffffffffffffffffffffffffffffffffffffffffffff19167bffffffffffffffffffffffffffffffffffffffffffffffffffffffff191681526020019081526020016000209550600093505b8560070160010180549050841015611a5a57856007016001018481548110151561186c57fe5b90600052602060002001546040516020018082600019166000191681526020019150506040516020818303038152906040526040518082805190602001908083835b6020831015156118d357805182526020820191506020810190506020830392506118ae565b6001836020036101000a0380198251168184511680821785525050505050509050019150506040518091039020925085600b0160010160008460001916600019168152602001908152602001600020549150600082141561193357611a4d565b6119bd86600f016000856000191660001916815260200190815260200160002060003373ffffffffffffffffffffffffffffffffffffffff1673ffffffffffffffffffffffffffffffffffffffff168152602001908152602001600020548388601001600087600019166000191681526020019081526020016000205489600d0160010154614406565b90506000811115611a3e576119db818661449f90919063ffffffff16565b9450600086600f016000856000191660001916815260200190815260200160002060003373ffffffffffffffffffffffffffffffffffffffff1673ffffffffffffffffffffffffffffffffffffffff168152602001908152602001600020819055505b6064821415611a4c57611a5a565b5b8380600101945050611846565b600085111515611a6957600080fd5b3373ffffffffffffffffffffffffffffffffffffffff166108fc869081150290604051600060405180830381858888f19350505050158015611aaf573d6000803e3d6000fd5b505050505050505050565b6000600260008373ffffffffffffffffffffffffffffffffffffffff1673ffffffffffffffffffffffffffffffffffffffff168152602001908152602001600020600001549050919050565b6000806005811115611b1457fe5b600160008673ffffffffffffffffffffffffffffffffffffffff1673ffffffffffffffffffffffffffffffffffffffff1681526020019081526020016000206000857bffffffffffffffffffffffffffffffffffffffffffffffffffffffff19167bffffffffffffffffffffffffffffffffffffffffffffffffffffffff1916815260200190815260200160002060010160009054906101000a900460ff166005811115611bbe57fe5b14156040805190810160405280601781526020017f484f53545f4f525f524f554e445f4e4f545f464f554e44000000000000000000815250901515611c9e576040517f08c379a00000000000000000000000000000000000000000000000000000000081526004018080602001828103825283818151815260200191508051906020019080838360005b83811015611c63578082015181840152602081019050611c48565b50505050905090810190601f168015611c905780820380516001836020036101000a031916815260200191505b509250505060405180910390fd5b50600160008573ffffffffffffffffffffffffffffffffffffffff1673ffffffffffffffffffffffffffffffffffffffff1681526020019081526020016000206000847bffffffffffffffffffffffffffffffffffffffffffffffffffffffff19167bffffffffffffffffffffffffffffffffffffffffffffffffffffffff19168152602001908152602001600020601101600083600019166000191681526020019081526020016000205490509392505050565b6000806005811115611d6157fe5b600160008673ffffffffffffffffffffffffffffffffffffffff1673ffffffffffffffffffffffffffffffffffffffff1681526020019081526020016000206000857bffffffffffffffffffffffffffffffffffffffffffffffffffffffff19167bffffffffffffffffffffffffffffffffffffffffffffffffffffffff1916815260200190815260200160002060010160009054906101000a900460ff166005811115611e0b57fe5b14156040805190810160405280601781526020017f484f53545f4f525f524f554e445f4e4f545f464f554e44000000000000000000815250901515611eeb576040517f08c379a00000000000000000000000000000000000000000000000000000000081526004018080602001828103825283818151815260200191508051906020019080838360005b83811015611eb0578082015181840152602081019050611e95565b50505050905090810190601f168015611edd5780820380516001836020036101000a031916815260200191505b509250505060405180910390fd5b50600160008573ffffffffffffffffffffffffffffffffffffffff1673ffffffffffffffffffffffffffffffffffffffff1681526020019081526020016000206000847bffffffffffffffffffffffffffffffffffffffffffffffffffffffff19167bffffffffffffffffffffffffffffffffffffffffffffffffffffffff19168152602001908152602001600020600f016000836000191660001916815260200190815260200160002060003373ffffffffffffffffffffffffffffffffffffffff1673ffffffffffffffffffffffffffffffffffffffff1681526020019081526020016000205490509392505050565b6060600160008473ffffffffffffffffffffffffffffffffffffffff1673ffffffffffffffffffffffffffffffffffffffff1681526020019081526020016000206000837bffffffffffffffffffffffffffffffffffffffffffffffffffffffff19167bffffffffffffffffffffffffffffffffffffffffffffffffffffffff191681526020019081526020016000206007016001018054806020026020016040519081016040528092919081815260200182805480156120c157602002820191906000526020600020905b815460001916815260200190600101908083116120a9575b5050505050905092915050565b60008073ffffffffffffffffffffffffffffffffffffffff1660036000866000191660001916815260200190815260200160002060009054906101000a900473ffffffffffffffffffffffffffffffffffffffff1673ffffffffffffffffffffffffffffffffffffffff1614156040805190810160405280601381526020017f484f53545f4e414d455f4e4f545f464f554e4400000000000000000000000000815250901515612219576040517f08c379a00000000000000000000000000000000000000000000000000000000081526004018080602001828103825283818151815260200191508051906020019080838360005b838110156121de5780820151818401526020810190506121c3565b50505050905090810190601f16801561220b5780820380516001836020036101000a031916815260200191505b509250505060405180910390fd5b5061226060036000866000191660001916815260200190815260200160002060009054906101000a900473ffffffffffffffffffffffffffffffffffffffff168484611d53565b90509392505050565b60026020528060005260406000206000915090508060000154908060010154908060020154908060030154908060040154905085565b6000600460003373ffffffffffffffffffffffffffffffffffffffff1673ffffffffffffffffffffffffffffffffffffffff16815260200190815260200160002054905060007f01000000000000000000000000000000000000000000000000000000000000000281600060208110151561231657fe5b1a7f0100000000000000000000000000000000000000000000000000000000000000027effffffffffffffffffffffffffffffffffffffffffffffffffffffffffffff19161415151561236857600080fd5b61237233826144bb565b50565b600073ffffffffffffffffffffffffffffffffffffffff1660036000836000191660001916815260200190815260200160002060009054906101000a900473ffffffffffffffffffffffffffffffffffffffff1673ffffffffffffffffffffffffffffffffffffffff161415156123eb57600080fd5b6000600102600460003373ffffffffffffffffffffffffffffffffffffffff1673ffffffffffffffffffffffffffffffffffffffff168152602001908152602001600020546000191614151561244057600080fd5b61244a3382614540565b50565b60008060009054906101000a900473ffffffffffffffffffffffffffffffffffffffff1673ffffffffffffffffffffffffffffffffffffffff163373ffffffffffffffffffffffffffffffffffffffff161415156124aa57600080fd5b60036000836000191660001916815260200190815260200160002060009054906101000a900473ffffffffffffffffffffffffffffffffffffffff169050600073ffffffffffffffffffffffffffffffffffffffff168173ffffffffffffffffffffffffffffffffffffffff1614151561252357600080fd5b61252d81836144bb565b5050565b6000809054906101000a900473ffffffffffffffffffffffffffffffffffffffff1673ffffffffffffffffffffffffffffffffffffffff163373ffffffffffffffffffffffffffffffffffffffff1614151561258c57600080fd5b6000809054906101000a900473ffffffffffffffffffffffffffffffffffffffff1673ffffffffffffffffffffffffffffffffffffffff167ff8df31144d9c2f0f6b59d69b8b98abd5459d07f2742c4df920b25aae33c6482060405160405180910390a260008060006101000a81548173ffffffffffffffffffffffffffffffffffffffff021916908373ffffffffffffffffffffffffffffffffffffffff160217905550565b6000806000806000600260008773ffffffffffffffffffffffffffffffffffffffff1673ffffffffffffffffffffffffffffffffffffffff168152602001908152602001600020905080600101548160020154826003015483600401549450945094509450509193509193565b6000806000806000806000806000806000600260008e73ffffffffffffffffffffffffffffffffffffffff1673ffffffffffffffffffffffffffffffffffffffff168152602001908152602001600020600001549150600082111515612794576040517f08c379a00000000000000000000000000000000000000000000000000000000081526004018080602001828103825260228152602001807f486f737420686173206e6f74206372656174656420616e7920726f756e64207981526020017f657400000000000000000000000000000000000000000000000000000000000081525060400191505060405180910390fd5b600160008e73ffffffffffffffffffffffffffffffffffffffff1673ffffffffffffffffffffffffffffffffffffffff16815260200190815260200160002060008d7bffffffffffffffffffffffffffffffffffffffffffffffffffffffff19167bffffffffffffffffffffffffffffffffffffffffffffffffffffffff1916815260200190815260200160002090506000600581111561283157fe5b8160010160009054906101000a900460ff16600581111561284e57fe5b141515156128c4576040517f08c379a00000000000000000000000000000000000000000000000000000000081526004018080602001828103825260148152602001807f526f756e6420646f6573206e6f7420657869737400000000000000000000000081525060200191505060405180910390fd5b600182038160010160009054906101000a900460ff1660058111156128e557fe5b826003016000015483600301600101548460020154856007016000015486600d016000015487600d016001015488600301600301548760ff1697509a509a509a509a509a509a509a509a509a5050509295985092959850929598565b600080600061294f84611aba565b915060008211151561296057600080fd5b8360018303604051602001808373ffffffffffffffffffffffffffffffffffffffff1673ffffffffffffffffffffffffffffffffffffffff166c01000000000000000000000000028152601401828152602001925050506040516020818303038152906040526040518082805190602001908083835b6020831015156129fb57805182526020820191506020810190506020830392506129d6565b6001836020036101000a038019825116818451168082178552505050505050905001915050604051809103902090508092505050919050565b600080612a4033612941565b9150600160003373ffffffffffffffffffffffffffffffffffffffff1673ffffffffffffffffffffffffffffffffffffffff1681526020019081526020016000206000837bffffffffffffffffffffffffffffffffffffffffffffffffffffffff19167bffffffffffffffffffffffffffffffffffffffffffffffffffffffff1916815260200190815260200160002060010160009054906101000a900460ff16905060006005811115612af057fe5b816005811115612afc57fe5b1480612b1e575060016005811115612b1057fe5b816005811115612b1c57fe5b145b1515612b2957600080fd5b6004600160003373ffffffffffffffffffffffffffffffffffffffff1673ffffffffffffffffffffffffffffffffffffffff1681526020019081526020016000206000847bffffffffffffffffffffffffffffffffffffffffffffffffffffffff19167bffffffffffffffffffffffffffffffffffffffffffffffffffffffff1916815260200190815260200160002060010160006101000a81548160ff02191690836005811115612bd757fe5b02179055506001600260003373ffffffffffffffffffffffffffffffffffffffff1673ffffffffffffffffffffffffffffffffffffffff168152602001908152602001600020600201600082825401925050819055503373ffffffffffffffffffffffffffffffffffffffff167f49dfec2e2e317e8070427c11252213b653bc1379b7255378fffc5c13a29ec7e18360405180827bffffffffffffffffffffffffffffffffffffffffffffffffffffffff19167bffffffffffffffffffffffffffffffffffffffffffffffffffffffff1916815260200191505060405180910390a25050565b60008073ffffffffffffffffffffffffffffffffffffffff1660036000866000191660001916815260200190815260200160002060009054906101000a900473ffffffffffffffffffffffffffffffffffffffff1673ffffffffffffffffffffffffffffffffffffffff1614156040805190810160405280601381526020017f484f53545f4e414d455f4e4f545f464f554e4400000000000000000000000000815250901515612e08576040517f08c379a00000000000000000000000000000000000000000000000000000000081526004018080602001828103825283818151815260200191508051906020019080838360005b83811015612dcd578082015181840152602081019050612db2565b50505050905090810190601f168015612dfa5780820380516001836020036101000a031916815260200191505b509250505060405180910390fd5b50612e4f60036000866000191660001916815260200190815260200160002060009054906101000a900473ffffffffffffffffffffffffffffffffffffffff1684846137ae565b90509392505050565b6000809054906101000a900473ffffffffffffffffffffffffffffffffffffffff1681565b60036020528060005260406000206000915054906101000a900473ffffffffffffffffffffffffffffffffffffffff1681565b60046020528060005260406000206000915090505481565b6000612ed261472e565b612eda614757565b612ee2614779565b612eea61478d565b612ef26147a7565b6000603c8b8b60008181101515612f0557fe5b9050602002013510151515612f1957600080fd5b60028d8d905010151515612f2c57600080fd5b60648b8b60028181101515612f3d57fe5b9050602002013511151515612f5157600080fd5b8c8c90508989905011151515612f6657600080fd5b612f6f33611aba565b96506080604051908101604052804281526020018c8c60008181101515612f9257fe5b90506020020135420181526020018c8c60018181101515612faf57fe5b9050602002013581526020013481525095506060604051908101604052808e8e905081526020018e8e8080602002602001604051908101604052809392919081815260200183836020028082843782019150505050505081526020018a8a808060200260200160405190810160405280939291908181526020018383602002808284378201915050505050508152509450602060405190810160405280600060405190808252806020026020018201604052801561307c5781602001602082028038833980820191505090505b50815250935060408051908101604052806000815260200134815250925060e060405190810160405280888152602001600160058111156130b957fe5b81526020018f6000191681526020018781526020018681526020018581526020018481525091506130e933610ee8565b905081600160003373ffffffffffffffffffffffffffffffffffffffff1673ffffffffffffffffffffffffffffffffffffffff1681526020019081526020016000206000837bffffffffffffffffffffffffffffffffffffffffffffffffffffffff19167bffffffffffffffffffffffffffffffffffffffffffffffffffffffff191681526020019081526020016000206000820151816000015560208201518160010160006101000a81548160ff021916908360058111156131a857fe5b02179055506040820151816002019060001916905560608201518160030160008201518160000155602082015181600101556040820151816002015560608201518160030155505060808201518160070160008201518160000155602082015181600101908051906020019061321f92919061480c565b50604082015181600301908051906020019061323c92919061485f565b50505060a082015181600b01600082015181600001908051906020019061326492919061485f565b50505060c082015181600d01600082015181600001556020820151816001015550509050506001600260003373ffffffffffffffffffffffffffffffffffffffff1673ffffffffffffffffffffffffffffffffffffffff1681526020019081526020016000206000016000828254019250508190555034600260003373ffffffffffffffffffffffffffffffffffffffff1673ffffffffffffffffffffffffffffffffffffffff168152602001908152602001600020600401600082825401925050819055503373ffffffffffffffffffffffffffffffffffffffff167f38200ecf62e44ebceaabbd4292688e3e06ac3bdaf612a0287f9d1d7f0e3e5ad08260405180827bffffffffffffffffffffffffffffffffffffffffffffffffffffffff19167bffffffffffffffffffffffffffffffffffffffffffffffffffffffff1916815260200191505060405180910390a25050505050505050505050505050565b60008073ffffffffffffffffffffffffffffffffffffffff1660036000866000191660001916815260200190815260200160002060009054906101000a900473ffffffffffffffffffffffffffffffffffffffff1673ffffffffffffffffffffffffffffffffffffffff1614156040805190810160405280601381526020017f484f53545f4e414d455f4e4f545f464f554e4400000000000000000000000000815250901515613511576040517f08c379a00000000000000000000000000000000000000000000000000000000081526004018080602001828103825283818151815260200191508051906020019080838360005b838110156134d65780820151818401526020810190506134bb565b50505050905090810190601f1680156135035780820380516001836020036101000a031916815260200191505b509250505060405180910390fd5b5061355860036000866000191660001916815260200190815260200160002060009054906101000a900473ffffffffffffffffffffffffffffffffffffffff168484611b06565b90509392505050565b600080600581111561356f57fe5b600160008673ffffffffffffffffffffffffffffffffffffffff1673ffffffffffffffffffffffffffffffffffffffff1681526020019081526020016000206000857bffffffffffffffffffffffffffffffffffffffffffffffffffffffff19167bffffffffffffffffffffffffffffffffffffffffffffffffffffffff1916815260200190815260200160002060010160009054906101000a900460ff16600581111561361957fe5b14156040805190810160405280601781526020017f484f53545f4f525f524f554e445f4e4f545f464f554e440000000000000000008152509015156136f9576040517f08c379a00000000000000000000000000000000000000000000000000000000081526004018080602001828103825283818151815260200191508051906020019080838360005b838110156136be5780820151818401526020810190506136a3565b50505050905090810190601f1680156136eb5780820380516001836020036101000a031916815260200191505b509250505060405180910390fd5b50600160008573ffffffffffffffffffffffffffffffffffffffff1673ffffffffffffffffffffffffffffffffffffffff1681526020019081526020016000206000847bffffffffffffffffffffffffffffffffffffffffffffffffffffffff19167bffffffffffffffffffffffffffffffffffffffffffffffffffffffff19168152602001908152602001600020601001600083600019166000191681526020019081526020016000205490509392505050565b60008060058111156137bc57fe5b600160008673ffffffffffffffffffffffffffffffffffffffff1673ffffffffffffffffffffffffffffffffffffffff1681526020019081526020016000206000857bffffffffffffffffffffffffffffffffffffffffffffffffffffffff19167bffffffffffffffffffffffffffffffffffffffffffffffffffffffff1916815260200190815260200160002060010160009054906101000a900460ff16600581111561386657fe5b14156040805190810160405280601781526020017f484f53545f4f525f524f554e445f4e4f545f464f554e44000000000000000000815250901515613946576040517f08c379a00000000000000000000000000000000000000000000000000000000081526004018080602001828103825283818151815260200191508051906020019080838360005b8381101561390b5780820151818401526020810190506138f0565b50505050905090810190601f1680156139385780820380516001836020036101000a031916815260200191505b509250505060405180910390fd5b50600160008573ffffffffffffffffffffffffffffffffffffffff1673ffffffffffffffffffffffffffffffffffffffff1681526020019081526020016000206000847bffffffffffffffffffffffffffffffffffffffffffffffffffffffff19167bffffffffffffffffffffffffffffffffffffffffffffffffffffffff19168152602001908152602001600020600b01600101600083600019166000191681526020019081526020016000205490509392505050565b60008073ffffffffffffffffffffffffffffffffffffffff1660036000866000191660001916815260200190815260200160002060009054906101000a900473ffffffffffffffffffffffffffffffffffffffff1673ffffffffffffffffffffffffffffffffffffffff1614156040805190810160405280601381526020017f484f53545f4e414d455f4e4f545f464f554e4400000000000000000000000000815250901515613b49576040517f08c379a00000000000000000000000000000000000000000000000000000000081526004018080602001828103825283818151815260200191508051906020019080838360005b83811015613b0e578082015181840152602081019050613af3565b50505050905090810190601f168015613b3b5780820380516001836020036101000a031916815260200191505b509250505060405180910390fd5b50613b9060036000866000191660001916815260200190815260200160002060009054906101000a900473ffffffffffffffffffffffffffffffffffffffff168484613561565b90509392505050565b6000809054906101000a900473ffffffffffffffffffffffffffffffffffffffff1673ffffffffffffffffffffffffffffffffffffffff163373ffffffffffffffffffffffffffffffffffffffff16141515613bf457600080fd5b613bfd816145e6565b50565b613c0983612941565b7bffffffffffffffffffffffffffffffffffffffffffffffffffffffff1916827bffffffffffffffffffffffffffffffffffffffffffffffffffffffff1916141515613c5457600080fd5b60016005811115613c6157fe5b600160008573ffffffffffffffffffffffffffffffffffffffff1673ffffffffffffffffffffffffffffffffffffffff1681526020019081526020016000206000847bffffffffffffffffffffffffffffffffffffffffffffffffffffffff19167bffffffffffffffffffffffffffffffffffffffffffffffffffffffff1916815260200190815260200160002060010160009054906101000a900460ff166005811115613d0b57fe5b141515613d1757600080fd5b600160008473ffffffffffffffffffffffffffffffffffffffff1673ffffffffffffffffffffffffffffffffffffffff1681526020019081526020016000206000837bffffffffffffffffffffffffffffffffffffffffffffffffffffffff19167bffffffffffffffffffffffffffffffffffffffffffffffffffffffff19168152602001908152602001600020600301600201543410151515613dba57600080fd5b60011515600160008573ffffffffffffffffffffffffffffffffffffffff1673ffffffffffffffffffffffffffffffffffffffff1681526020019081526020016000206000847bffffffffffffffffffffffffffffffffffffffffffffffffffffffff19167bffffffffffffffffffffffffffffffffffffffffffffffffffffffff191681526020019081526020016000206007016002016000836000191660001916815260200190815260200160002060009054906101000a900460ff161515141515613e8757600080fd5b600160008473ffffffffffffffffffffffffffffffffffffffff1673ffffffffffffffffffffffffffffffffffffffff1681526020019081526020016000206000837bffffffffffffffffffffffffffffffffffffffffffffffffffffffff19167bffffffffffffffffffffffffffffffffffffffffffffffffffffffff191681526020019081526020016000206003016001015442101515613f2957600080fd5b34600160008573ffffffffffffffffffffffffffffffffffffffff1673ffffffffffffffffffffffffffffffffffffffff1681526020019081526020016000206000847bffffffffffffffffffffffffffffffffffffffffffffffffffffffff19167bffffffffffffffffffffffffffffffffffffffffffffffffffffffff19168152602001908152602001600020600f016000836000191660001916815260200190815260200160002060003373ffffffffffffffffffffffffffffffffffffffff1673ffffffffffffffffffffffffffffffffffffffff1681526020019081526020016000206000828254019250508190555034600160008573ffffffffffffffffffffffffffffffffffffffff1673ffffffffffffffffffffffffffffffffffffffff1681526020019081526020016000206000847bffffffffffffffffffffffffffffffffffffffffffffffffffffffff19167bffffffffffffffffffffffffffffffffffffffffffffffffffffffff19168152602001908152602001600020601001600083600019166000191681526020019081526020016000206000828254019250508190555060018060008573ffffffffffffffffffffffffffffffffffffffff1673ffffffffffffffffffffffffffffffffffffffff1681526020019081526020016000206000847bffffffffffffffffffffffffffffffffffffffffffffffffffffffff19167bffffffffffffffffffffffffffffffffffffffffffffffffffffffff19168152602001908152602001600020601101600083600019166000191681526020019081526020016000206000828254019250508190555060018060008573ffffffffffffffffffffffffffffffffffffffff1673ffffffffffffffffffffffffffffffffffffffff1681526020019081526020016000206000847bffffffffffffffffffffffffffffffffffffffffffffffffffffffff19167bffffffffffffffffffffffffffffffffffffffffffffffffffffffff19168152602001908152602001600020600d016000016000828254019250508190555034600160008573ffffffffffffffffffffffffffffffffffffffff1673ffffffffffffffffffffffffffffffffffffffff1681526020019081526020016000206000847bffffffffffffffffffffffffffffffffffffffffffffffffffffffff19167bffffffffffffffffffffffffffffffffffffffffffffffffffffffff19168152602001908152602001600020600d0160010160008282540192505081905550505050565b6060600073ffffffffffffffffffffffffffffffffffffffff1660036000856000191660001916815260200190815260200160002060009054906101000a900473ffffffffffffffffffffffffffffffffffffffff1673ffffffffffffffffffffffffffffffffffffffff16141515156143b9576040517f08c379a00000000000000000000000000000000000000000000000000000000081526004018080602001828103825260138152602001807f486f737420646f6573206e6f742065786973740000000000000000000000000081525060200191505060405180910390fd5b6143fe60036000856000191660001916815260200190815260200160002060009054906101000a900473ffffffffffffffffffffffffffffffffffffffff1683611fdd565b905092915050565b600080600080871115614490576144318568056bc75e2d6310000089026146e090919063ffffffff16565b915061448668056bc75e2d631000006144788461446a606461445c8c8b6146f690919063ffffffff16565b6146e090919063ffffffff16565b6146f690919063ffffffff16565b6146e090919063ffffffff16565b9050809250614495565b600092505b5050949350505050565b600081830190508281101515156144b257fe5b80905092915050565b60036000826000191660001916815260200190815260200160002060006101000a81549073ffffffffffffffffffffffffffffffffffffffff0219169055600460008373ffffffffffffffffffffffffffffffffffffffff1673ffffffffffffffffffffffffffffffffffffffff168152602001908152602001600020600090555050565b8160036000836000191660001916815260200190815260200160002060006101000a81548173ffffffffffffffffffffffffffffffffffffffff021916908373ffffffffffffffffffffffffffffffffffffffff16021790555080600460008473ffffffffffffffffffffffffffffffffffffffff1673ffffffffffffffffffffffffffffffffffffffff16815260200190815260200160002081600019169055505050565b600073ffffffffffffffffffffffffffffffffffffffff168173ffffffffffffffffffffffffffffffffffffffff161415151561462257600080fd5b8073ffffffffffffffffffffffffffffffffffffffff166000809054906101000a900473ffffffffffffffffffffffffffffffffffffffff1673ffffffffffffffffffffffffffffffffffffffff167f8be0079c531659141344cd1fd0a4f28419497f9722a3daafe3b4186f6b6457e060405160405180910390a3806000806101000a81548173ffffffffffffffffffffffffffffffffffffffff021916908373ffffffffffffffffffffffffffffffffffffffff16021790555050565b600081838115156146ed57fe5b04905092915050565b6000808314156147095760009050614728565b818302905081838281151561471a57fe5b0414151561472457fe5b8090505b92915050565b608060405190810160405280600081526020016000815260200160008152602001600081525090565b6060604051908101604052806000815260200160608152602001606081525090565b602060405190810160405280606081525090565b604080519081016040528060008152602001600081525090565b6101a06040519081016040528060008152602001600060058111156147c857fe5b8152602001600080191681526020016147df6148ac565b81526020016147ec6148d5565b81526020016147f96148f7565b815260200161480661490b565b81525090565b82805482825590600052602060002090810192821561484e579160200282015b8281111561484d57825182906000191690559160200191906001019061482c565b5b50905061485b9190614925565b5090565b82805482825590600052602060002090810192821561489b579160200282015b8281111561489a57825182559160200191906001019061487f565b5b5090506148a8919061494a565b5090565b608060405190810160405280600081526020016000815260200160008152602001600081525090565b6060604051908101604052806000815260200160608152602001606081525090565b602060405190810160405280606081525090565b604080519081016040528060008152602001600081525090565b61494791905b8082111561494357600081600090555060010161492b565b5090565b90565b61496c91905b80821115614968576000816000905550600101614950565b5090565b905600a165627a7a723058201c266239c4b90f40cd6583c2e97eaa1aa5533c489fad15ccc4263eef1701cd400029",
  "source": "pragma solidity ^0.4.24;\n\nimport 'openzeppelin-solidity/contracts/ownership/Ownable.sol';\nimport 'openzeppelin-solidity/contracts/math/SafeMath.sol';\n\ncontract Betl is Ownable {\n  using SafeMath for uint;\n\n  uint private constant FEE_PERCENT = 1;\n  uint private constant MIN_TIMEOUT = 1 minutes;\n  uint private constant MODE_WHATEVER = 0;       // usecase for modes?\n  uint private constant MAX_OUTCOMES = 10;\n\n  enum Status {\n    UNDEFINED,\n    OPEN,\n    CLOSED,\n    FINISHED,\n    CANCELLED,\n    TIMEOUT\n  }\n\n  // Errors\n  string constant HOST_NAME_NOT_FOUND = 'HOST_NAME_NOT_FOUND';\n  string constant HOST_OR_ROUND_NOT_FOUND = 'HOST_OR_ROUND_NOT_FOUND';\n\n  event RoundCreated(address indexed host, bytes4 roundId);\n  event RoundFinished(address indexed host, bytes4 roundId);\n  event RoundCanceled(address indexed host, bytes4 roundId);\n\n  // Eventually divide into RoundConfig and RoundConfigExt. First one mandatory, latter outcomeal\n  // Default config: one winner, who takes it all.\n  struct RoundConfig {\n    uint createdAt;\n    uint timeoutAt;\n    uint minBet;\n    uint hostBonus; // or: add directly to roundstats += hostBonus\n  }\n\n  struct RoundOutcomes {\n    uint numOutcomes;\n    bytes32[] outcomes;\n    mapping(bytes32 => bool) outcomeLookup;\n    // Specifies payout distributions in case multiple winners are possible\n    // Example: When there are 3 winners, this array can be [60, 30, 10] ==> in percents, must sum to 100.\n    // winnerTiers.length <= numOutcomes\n    uint[] payoutTiers;\n    //bool hasFlexOutcomes;\n  }\n\n  // has to be aligned with RoundConfig(Ext)\n  struct RoundResults {\n    uint[] outcomePayouts; // in wei\n    //    hash(opt) => winShare [0-100]\n    mapping(bytes32 => uint) outcomeWinShares;\n  }\n\n  struct RoundStats {\n    uint numBets;\n    uint poolSize;\n  }\n\n  struct Round {\n    uint id;\n    Status status;\n    bytes32 question;\n    RoundConfig config;\n    RoundOutcomes outcomes;\n    RoundResults results;\n    RoundStats stats;\n    //    hash(opt) =>         player  => bet\n    mapping(bytes32 => mapping(address => uint)) playerBets;\n    //    hash(opt) => totalBets\n    mapping(bytes32 => uint) outcomePools;\n    mapping(bytes32 => uint) outcomeNumBets;\n  }\n\n  struct HostContext {\n    uint nextRoundNumber; // == numRoundsCreated\n    uint numRoundsSuccess;\n    uint numRoundsCancelled;\n    uint totalNumBets;\n    uint totalPoolSize;\n  }\n\n  //      host    =>  hash(host,id) => Round\n  mapping(address => mapping(bytes4 => Round)) rounds;\n\n  //      host    => stats\n  mapping(address => HostContext) public hostContext;\n\n  //      name   <=> host\n  mapping(bytes32 => address) public hostAddresses;\n  mapping(address => bytes32) public hostNames;\n\n  // function getRoundId(address _host)\n  //   public\n  //   view\n  //   returns (bytes4)\n  // {\n  //   return bytes4(keccak256(abi.encodePacked(_host, hostContext[_host].nextRoundId)));\n  // }\n  function getRoundId(address _host) public view returns (bytes4) {\n    uint nextRoundNumber = getNextRoundNumber(_host);\n    require(nextRoundNumber > 0);\n    bytes32 hash = keccak256(abi.encodePacked(_host, nextRoundNumber-1));\n    return bytes4(hash);\n  }\n\n  function getNextRoundId(address _host) public view returns (bytes4) {\n    bytes32 hash = keccak256(abi.encodePacked(_host, hostContext[_host].nextRoundNumber));\n    return bytes4(hash);\n  }\n\n  function getNextRoundNumber(address _host) public view returns (uint) {\n    return hostContext[_host].nextRoundNumber;\n  }\n\n  // ADD/TODO/TOTHINK?:\n  // - bool _hasMultipleWinners --> rather no. Host has no reason to cheat --> loss of reputation\n  // - modeCode usefulness?\n  // configData[ timeout, minBet, hostShare ]\n  // COSTS: 294518 gas -> @ 5Gwei: 1 dollar\n  function createRound (\n    bytes32 _question,\n    bytes32[] _outcomes,\n    uint[] _configData,\n    uint[] _payoutTiers\n    //bool _hasFlexOutcomes\n  )\n    external\n    payable\n  {\n    require(_configData[0] >= MIN_TIMEOUT);\n    require(_outcomes.length >= 2);// || _hasFlexOutcomes == true);\n    require(_configData[2] <= 100);\n    require(_payoutTiers.length <= _outcomes.length);\n\n    uint id = getNextRoundNumber(msg.sender);\n    // TODO: check if we really need this check\n    // if (id > 0) {\n    //   Status status = rounds[msg.sender][getRoundId(msg.sender)].status;\n    //   require(status == Status.FINISHED ||\n    //     status == Status.CANCELLED || \n    //     status == Status.TIMEOUT);\n    // }\n    //require(hostContext[msg.sender].roundIdLookup[_roundId] == false);\n\n    RoundConfig memory config = RoundConfig(\n      now,\n      now + _configData[0],\n      _configData[1],\n      msg.value\n    );\n\n    RoundOutcomes memory outcomes = RoundOutcomes(\n      _outcomes.length,\n      _outcomes,\n      _payoutTiers\n    );\n\n    RoundResults memory results = RoundResults(\n      new uint[](0)\n    );\n\n    RoundStats memory stats = RoundStats(\n      0,\n      msg.value\n    );\n\n    Round memory round = Round(\n      id,\n      Status.OPEN,\n      _question,\n      config,\n      outcomes,\n      results,\n      stats\n    );\n    \n    bytes4 roundId = getNextRoundId(msg.sender);\n    rounds[msg.sender][roundId] = round;\n\n    // post creation\n    hostContext[msg.sender].nextRoundNumber += 1;\n    hostContext[msg.sender].totalPoolSize += msg.value;\n\n    emit RoundCreated(msg.sender, roundId);\n  }\n\n  function getRound (bytes32 _hostName, bytes4 _roundId) \n    external\n    view // status, createdAt, timeoutAt, question, numOutcomes, numBets, poolSize, hostBonus\n    returns (uint, uint, uint, uint, bytes32, uint, uint, uint, uint)\n  {\n    require(hostAddresses[_hostName] != address(0), 'Host does not exist');\n    return getRound(hostAddresses[_hostName], _roundId);\n  }\n\n  function getRound (address _hostAddress, bytes4 _roundId)\n    public\n    view // status, createdAt, timeoutAt, question, numOutcomes, numBets, poolSize, hostBonus\n    returns (uint, uint, uint, uint, bytes32, uint, uint, uint, uint)\n  {\n    uint nextRoundNumber = hostContext[_hostAddress].nextRoundNumber;\n    require(nextRoundNumber > 0, 'Host has not created any round yet');\n    Round storage round = rounds[_hostAddress][_roundId];\n    require(round.status != Status.UNDEFINED, 'Round does not exist');\n\n    return (\n      nextRoundNumber-1,\n      uint8(round.status),\n      round.config.createdAt,\n      round.config.timeoutAt,\n      round.question,\n      round.outcomes.numOutcomes,\n      round.stats.numBets,\n      round.stats.poolSize,\n      round.config.hostBonus\n    );\n  }\n\n  function getRoundOutcomes (bytes32 _hostName, bytes4 _roundId) external view returns (bytes32[]) {\n    require(hostAddresses[_hostName] != address(0), 'Host does not exist');\n    return getRoundOutcomes(hostAddresses[_hostName], _roundId);\n  }\n  \n  function getRoundOutcomes (address _host, bytes4 _roundId) public view returns (bytes32[]) {\n    return rounds[_host][_roundId].outcomes.outcomes;\n  }\n\n  function getRoundOutcomePool (bytes32 _hostName, bytes4 _roundId, bytes32 _outcomeHash) external view returns (uint) {\n    require(hostAddresses[_hostName] != address(0), HOST_NAME_NOT_FOUND);\n    return getRoundOutcomePool(hostAddresses[_hostName], _roundId, _outcomeHash);\n  }\n  \n  function getRoundOutcomePool (address _host, bytes4 _roundId, bytes32 _outcomeHash) public view returns (uint) {\n    require(rounds[_host][_roundId].status != Status.UNDEFINED, HOST_OR_ROUND_NOT_FOUND);\n    return rounds[_host][_roundId].outcomePools[_outcomeHash];\n  }\n\n  function getRoundOutcomeNumBets (bytes32 _hostName, bytes4 _roundId, bytes32 _outcomeHash) external view returns (uint) {\n    require(hostAddresses[_hostName] != address(0), HOST_NAME_NOT_FOUND);\n    return getRoundOutcomeNumBets(hostAddresses[_hostName], _roundId, _outcomeHash);\n  }\n  \n  function getRoundOutcomeNumBets (address _host, bytes4 _roundId, bytes32 _outcomeHash) public view returns (uint) {\n    require(rounds[_host][_roundId].status != Status.UNDEFINED, HOST_OR_ROUND_NOT_FOUND);\n    return rounds[_host][_roundId].outcomeNumBets[_outcomeHash];\n  }\n\n  function getMyRoundOutcomeBet (bytes32 _hostName, bytes4 _roundId, bytes32 _outcomeHash) external view returns (uint) {\n    require(hostAddresses[_hostName] != address(0), HOST_NAME_NOT_FOUND);\n    return getMyRoundOutcomeBet(hostAddresses[_hostName], _roundId, _outcomeHash);\n  }\n  \n  function getMyRoundOutcomeBet (address _host, bytes4 _roundId, bytes32 _outcomeHash) public view returns (uint) {\n    require(rounds[_host][_roundId].status != Status.UNDEFINED, HOST_OR_ROUND_NOT_FOUND);\n    return rounds[_host][_roundId].playerBets[_outcomeHash][msg.sender];\n  }\n\n  function getRoundOutcomeWinShare (bytes32 _hostName, bytes4 _roundId, bytes32 _outcomeHash) external view returns (uint) {\n    require(hostAddresses[_hostName] != address(0), HOST_NAME_NOT_FOUND);\n    return getRoundOutcomeWinShare(hostAddresses[_hostName], _roundId, _outcomeHash);\n  }\n  \n  function getRoundOutcomeWinShare (address _host, bytes4 _roundId, bytes32 _outcomeHash) public view returns (uint) {\n    require(rounds[_host][_roundId].status != Status.UNDEFINED, HOST_OR_ROUND_NOT_FOUND);\n    return rounds[_host][_roundId].results.outcomeWinShares[_outcomeHash];\n  }\n\n  //                                          numRoundsCreated, numRoundsCancelled, numBets, poolSize\n  function getHostStats (address _host) external view returns (uint, uint, uint, uint) {\n    HostContext storage hc = hostContext[_host];\n    return (\n      hc.numRoundsSuccess,\n      hc.numRoundsCancelled,\n      hc.totalNumBets,\n      hc.totalPoolSize\n    );\n  }\n  // function addOutcomeForRound (address _host, bytes4 _roundId, bytes32 _outcome) external {\n  //   //additional check needed to make sure that round exists?\n  //   //require(rounds[_host][_roundId] != 0); // not 0x0, there must be a Round\n  //   require(rounds[_host][_roundId].outcomes.hasFlexOutcomes == true);\n  //   require(rounds[_host][_roundId].status == Status.OPEN);\n  //   require(rounds[_host][_roundId].outcomes.outcomeLookup[_outcome] == false); // outcome doesn't exist yet\n    \n  //   rounds[_host][_roundId].outcomes.outcomes.push(_outcome);\n  //   rounds[_host][_roundId].outcomes.outcomeLookup[_outcome] = true;\n  //   rounds[_host][_roundId].outcomes.numOutcomes += 1;\n  // }\n\n  // always takes newest rounds.\n  function pickWinnerAndEnd (uint[] _winners, bytes4 _roundId) external payable {\n    Status status = rounds[msg.sender][_roundId].status;\n    require(status == Status.OPEN || status == Status.CLOSED); // Host can either end running or closed Round\n    require(_winners.length <= rounds[msg.sender][_roundId].outcomes.numOutcomes);\n    require(now < rounds[msg.sender][_roundId].config.timeoutAt); // --> cancelInternal when timeoutAt reached? Nahh. move to Closed?\n    \n\n    // TODO: redistribute payouts\n    //owner.transfer(1%)\n    //host.transfer(hostShare)\n    // payouts = remaining pool\n\n\n    hostContext[msg.sender].totalNumBets += rounds[msg.sender][_roundId].stats.numBets;\n    hostContext[msg.sender].totalPoolSize += (rounds[msg.sender][_roundId].stats.poolSize + msg.value);\n    hostContext[msg.sender].numRoundsSuccess += 1;\n    rounds[msg.sender][_roundId].status == Status.FINISHED;\n    emit RoundFinished(msg.sender, _roundId);\n  }\n\n  function bet (address _host, bytes4 _roundId, bytes32 _outcomeId) external payable {\n    require(_roundId == getRoundId(_host));\n    require(rounds[_host][_roundId].status == Status.OPEN);\n    require(msg.value >= rounds[_host][_roundId].config.minBet);\n    require(rounds[_host][_roundId].outcomes.outcomeLookup[_outcomeId] == true);\n    require(now < rounds[_host][_roundId].config.timeoutAt);\n  \n    rounds[_host][_roundId].playerBets[_outcomeId][msg.sender] += msg.value;\n    rounds[_host][_roundId].outcomePools[_outcomeId] += msg.value;\n    rounds[_host][_roundId].outcomeNumBets[_outcomeId] += 1;\n    rounds[_host][_roundId].stats.numBets += 1;\n    rounds[_host][_roundId].stats.poolSize += msg.value;\n  }\n\n  function claimPayout (address _host, bytes4 _roundId) external {\n    require(rounds[_host][_roundId].status == Status.FINISHED);\n\n    Round storage round = rounds[_host][_roundId];\n    uint myPayout;\n\n    for(uint i=0; i<round.outcomes.outcomes.length; i++) {\n      bytes32 outcome = keccak256(abi.encodePacked(round.outcomes.outcomes[i]));\n      uint outcomeShare = round.results.outcomeWinShares[outcome];\n\n      if (outcomeShare == 0) {\n        continue;\n      }\n   \n      uint myOutcomePayout = getMyPayoutForOutcome(\n          round.playerBets[outcome][msg.sender],\n          outcomeShare,\n          round.outcomePools[outcome],\n          round.stats.poolSize\n      );\n\n      if (myOutcomePayout > 0) {\n        myPayout = myPayout.add(myOutcomePayout);\n\n        // Reset player bets so that they can't be claimed again\n        round.playerBets[outcome][msg.sender] = 0;\n      }\n\n      // Optimization that skips iterations in case an outcome got picked as only\n      // winner (outcomeShare == 100 (%)) which is expeceted to be often the case\n      if (outcomeShare == 100) {\n        break;\n      }\n    }\n\n    require(myPayout > 0);\n    msg.sender.transfer(myPayout);\n  }\n\n  function getMyPayoutForOutcome(uint _myBet, uint _outcomeShare, uint _outcomePool, uint _roundPool) pure private returns (uint) {\n    if (_myBet > 0) {\n      uint myOutcomeShare = (_myBet*1e20).div(_outcomePool);\n\n      uint myOutcomePayout = _roundPool\n          .mul(_outcomeShare)\n          .div(100)\n          .mul(myOutcomeShare)\n          .div(1e20);\n\n      return myOutcomePayout;\n    }\n    return 0;\n  }\n\n  function cancelRound () external {\n    bytes4 roundId = getRoundId(msg.sender);\n\n    Status status = rounds[msg.sender][roundId].status;\n    require(status == Status.UNDEFINED || status == Status.OPEN); // check if round is cancelable\n\n    rounds[msg.sender][roundId].status = Status.CANCELLED;\n    hostContext[msg.sender].numRoundsCancelled += 1;\n    emit RoundCanceled(msg.sender, roundId);\n  }\n\n\n  ///\n  /// Management of `Username <-> address` mappings\n  ///\n\n  function registerRecord (bytes32 _name)\n    public\n  {\n    require(hostAddresses[_name] == address(0));\n    require(hostNames[msg.sender] == 0x0000000000000000);\n\n    _setRecord(msg.sender, _name);\n  }\n\n  function deleteRecord ()\n    public\n  {\n    bytes32 oldName = hostNames[msg.sender];\n    require(oldName[0] != 0);\n\n    _removeRecord(msg.sender, oldName);\n  }\n\n  function updateRecord (bytes32 _newName)\n    external\n  {\n    deleteRecord();\n    registerRecord(_newName);\n  }\n\n  function sudoDeleteRecord (bytes32 _name)\n    external\n    onlyOwner\n  {\n    address affectedAddress = hostAddresses[_name];\n    require(affectedAddress == address(0));\n\n    _removeRecord(affectedAddress, _name);\n  }\n\n  function _setRecord (\n    address _address,\n    bytes32 _name\n  )\n    private\n  {\n    hostAddresses[_name] = _address;\n    hostNames[_address] = _name;\n  }\n\n  function _removeRecord (\n    address _address,\n    bytes32 _name\n  )\n    private\n  {\n    delete hostAddresses[_name];\n    delete hostNames[_address];\n  }\n\n  function ()\n    external\n    payable\n  {\n    revert(); \n  }\n}",
  "sourcePath": "/home/mo/dev/betl/smart-contract/contracts/Betl.sol",
  "compiler": {
    "name": "solc",
    "version": "0.4.24+commit.e67f0147.Emscripten.clang"
  },
  "schemaVersion": "2.0.0",
  "updatedAt": "2018-06-20T14:53:19.622Z"
}