{
  "contractName": "Betl",
  "abi": [
    {
      "constant": true,
      "inputs": [
        {
          "name": "",
          "type": "address"
        }
      ],
      "name": "hostContext",
      "outputs": [
        {
          "name": "nextRoundNumber",
          "type": "uint256"
        },
        {
          "name": "numRoundsSuccess",
          "type": "uint256"
        },
        {
          "name": "numRoundsCancelled",
          "type": "uint256"
        },
        {
          "name": "totalNumBets",
          "type": "uint256"
        },
        {
          "name": "totalPoolSize",
          "type": "uint256"
        }
      ],
      "payable": false,
      "stateMutability": "view",
      "type": "function"
    },
    {
      "constant": true,
      "inputs": [],
      "name": "nameRegistry",
      "outputs": [
        {
          "name": "",
          "type": "address"
        }
      ],
      "payable": false,
      "stateMutability": "view",
      "type": "function"
    },
    {
      "constant": true,
      "inputs": [],
      "name": "owner",
      "outputs": [
        {
          "name": "",
          "type": "address"
        }
      ],
      "payable": false,
      "stateMutability": "view",
      "type": "function"
    },
    {
      "constant": true,
      "inputs": [],
      "name": "isOwner",
      "outputs": [
        {
          "name": "",
          "type": "bool"
        }
      ],
      "payable": false,
      "stateMutability": "view",
      "type": "function"
    },
    {
      "constant": false,
      "inputs": [
        {
          "name": "_newOwner",
          "type": "address"
        }
      ],
      "name": "transferOwnership",
      "outputs": [],
      "payable": false,
      "stateMutability": "nonpayable",
      "type": "function"
    },
    {
      "inputs": [
        {
          "name": "_nameRegistry",
          "type": "address"
        }
      ],
      "payable": false,
      "stateMutability": "nonpayable",
      "type": "constructor"
    },
    {
      "payable": true,
      "stateMutability": "payable",
      "type": "fallback"
    },
    {
      "anonymous": false,
      "inputs": [
        {
          "indexed": true,
          "name": "host",
          "type": "address"
        },
        {
          "indexed": false,
          "name": "roundId",
          "type": "bytes4"
        }
      ],
      "name": "RoundCreated",
      "type": "event"
    },
    {
      "anonymous": false,
      "inputs": [
        {
          "indexed": true,
          "name": "host",
          "type": "address"
        },
        {
          "indexed": false,
          "name": "roundId",
          "type": "bytes4"
        }
      ],
      "name": "RoundFinished",
      "type": "event"
    },
    {
      "anonymous": false,
      "inputs": [
        {
          "indexed": true,
          "name": "host",
          "type": "address"
        },
        {
          "indexed": false,
          "name": "roundId",
          "type": "bytes4"
        }
      ],
      "name": "RoundCancelled",
      "type": "event"
    },
    {
      "anonymous": false,
      "inputs": [
        {
          "indexed": true,
          "name": "previousOwner",
          "type": "address"
        },
        {
          "indexed": true,
          "name": "newOwner",
          "type": "address"
        }
      ],
      "name": "OwnershipTransferred",
      "type": "event"
    },
    {
      "constant": true,
      "inputs": [
        {
          "name": "_host",
          "type": "address"
        },
        {
          "name": "_offset",
          "type": "uint256"
        }
      ],
      "name": "createNextRoundId",
      "outputs": [
        {
          "name": "",
          "type": "bytes4"
        },
        {
          "name": "",
          "type": "uint256"
        }
      ],
      "payable": false,
      "stateMutability": "view",
      "type": "function"
    },
    {
      "constant": false,
      "inputs": [
        {
          "name": "_question",
          "type": "bytes32"
        },
        {
          "name": "_outcomes",
          "type": "bytes32[]"
        },
        {
          "name": "_configData",
          "type": "uint256[4]"
        },
        {
          "name": "_payoutTiers",
          "type": "uint256[]"
        }
      ],
      "name": "createRound",
      "outputs": [
        {
          "name": "",
          "type": "bytes4"
        }
      ],
      "payable": true,
      "stateMutability": "payable",
      "type": "function"
    },
    {
      "constant": false,
      "inputs": [
        {
          "name": "_host",
          "type": "address"
        },
        {
          "name": "_roundId",
          "type": "bytes4"
        },
        {
          "name": "_outcomeIndex",
          "type": "uint256"
        }
      ],
      "name": "bet",
      "outputs": [],
      "payable": true,
      "stateMutability": "payable",
      "type": "function"
    },
    {
      "constant": false,
      "inputs": [
        {
          "name": "_picks",
          "type": "uint256[]"
        },
        {
          "name": "_roundId",
          "type": "bytes4"
        }
      ],
      "name": "pickWinnerAndEnd",
      "outputs": [],
      "payable": true,
      "stateMutability": "payable",
      "type": "function"
    },
    {
      "constant": false,
      "inputs": [
        {
          "name": "_host",
          "type": "address"
        },
        {
          "name": "_roundId",
          "type": "bytes4"
        }
      ],
      "name": "claimPayout",
      "outputs": [],
      "payable": false,
      "stateMutability": "nonpayable",
      "type": "function"
    },
    {
      "constant": false,
      "inputs": [
        {
          "name": "_host",
          "type": "address"
        },
        {
          "name": "_roundId",
          "type": "bytes4"
        }
      ],
      "name": "claimRefund",
      "outputs": [],
      "payable": false,
      "stateMutability": "nonpayable",
      "type": "function"
    },
    {
      "constant": false,
      "inputs": [
        {
          "name": "_roundId",
          "type": "bytes4"
        }
      ],
      "name": "cancelRound",
      "outputs": [],
      "payable": false,
      "stateMutability": "nonpayable",
      "type": "function"
    },
    {
      "constant": true,
      "inputs": [
        {
          "name": "_host",
          "type": "address"
        },
        {
          "name": "_roundId",
          "type": "bytes4"
        }
      ],
      "name": "getRoundInfo",
      "outputs": [
        {
          "name": "",
          "type": "uint256"
        },
        {
          "name": "",
          "type": "uint256"
        },
        {
          "name": "",
          "type": "uint256"
        },
        {
          "name": "",
          "type": "uint256"
        },
        {
          "name": "",
          "type": "bytes32"
        },
        {
          "name": "",
          "type": "uint256"
        },
        {
          "name": "",
          "type": "uint256"
        },
        {
          "name": "",
          "type": "uint256"
        },
        {
          "name": "",
          "type": "uint256"
        },
        {
          "name": "",
          "type": "uint256"
        }
      ],
      "payable": false,
      "stateMutability": "view",
      "type": "function"
    },
    {
      "constant": true,
      "inputs": [
        {
          "name": "_host",
          "type": "address"
        },
        {
          "name": "_roundId",
          "type": "bytes4"
        }
      ],
      "name": "getRoundInfoChanges",
      "outputs": [
        {
          "name": "",
          "type": "uint256"
        },
        {
          "name": "",
          "type": "uint256"
        },
        {
          "name": "",
          "type": "uint256"
        },
        {
          "name": "",
          "type": "uint256"
        }
      ],
      "payable": false,
      "stateMutability": "view",
      "type": "function"
    },
    {
      "constant": true,
      "inputs": [
        {
          "name": "_host",
          "type": "address"
        },
        {
          "name": "_roundId",
          "type": "bytes4"
        },
        {
          "name": "_outcomeIndex",
          "type": "uint256"
        }
      ],
      "name": "getRoundOutcome",
      "outputs": [
        {
          "name": "",
          "type": "bytes32"
        }
      ],
      "payable": false,
      "stateMutability": "view",
      "type": "function"
    },
    {
      "constant": true,
      "inputs": [
        {
          "name": "_host",
          "type": "address"
        },
        {
          "name": "_roundId",
          "type": "bytes4"
        },
        {
          "name": "_outcomeIndex",
          "type": "uint256"
        }
      ],
      "name": "getRoundOutcomePool",
      "outputs": [
        {
          "name": "",
          "type": "uint256"
        }
      ],
      "payable": false,
      "stateMutability": "view",
      "type": "function"
    },
    {
      "constant": true,
      "inputs": [
        {
          "name": "_host",
          "type": "address"
        },
        {
          "name": "_roundId",
          "type": "bytes4"
        },
        {
          "name": "_outcomeIndex",
          "type": "uint256"
        }
      ],
      "name": "getRoundOutcomeNumBets",
      "outputs": [
        {
          "name": "",
          "type": "uint256"
        }
      ],
      "payable": false,
      "stateMutability": "view",
      "type": "function"
    },
    {
      "constant": true,
      "inputs": [
        {
          "name": "_host",
          "type": "address"
        },
        {
          "name": "_roundId",
          "type": "bytes4"
        },
        {
          "name": "_outcomeIndex",
          "type": "uint256"
        }
      ],
      "name": "getRoundOutcomeBet",
      "outputs": [
        {
          "name": "",
          "type": "uint256"
        }
      ],
      "payable": false,
      "stateMutability": "view",
      "type": "function"
    },
    {
      "constant": true,
      "inputs": [
        {
          "name": "_host",
          "type": "address"
        },
        {
          "name": "_roundId",
          "type": "bytes4"
        },
        {
          "name": "_outcomeIndex",
          "type": "uint256"
        }
      ],
      "name": "getRoundOutcomeWinShare",
      "outputs": [
        {
          "name": "",
          "type": "uint256"
        }
      ],
      "payable": false,
      "stateMutability": "view",
      "type": "function"
    },
    {
      "constant": true,
      "inputs": [
        {
          "name": "_host",
          "type": "address"
        }
      ],
      "name": "getHostContext",
      "outputs": [
        {
          "components": [
            {
              "name": "nextRoundNumber",
              "type": "uint256"
            },
            {
              "name": "numRoundsSuccess",
              "type": "uint256"
            },
            {
              "name": "numRoundsCancelled",
              "type": "uint256"
            },
            {
              "name": "totalNumBets",
              "type": "uint256"
            },
            {
              "name": "totalPoolSize",
              "type": "uint256"
            }
          ],
          "name": "",
          "type": "tuple"
        }
      ],
      "payable": false,
      "stateMutability": "view",
      "type": "function"
    }
  ],
  "bytecode": "0x60806040523480156200001157600080fd5b5060405160208062001e9c8339810180604052620000339190810190620000cd565b60008054600160a060020a0319163317808255604051600160a060020a039190911691907f8be0079c531659141344cd1fd0a4f28419497f9722a3daafe3b4186f6b6457e0908290a3600160a060020a03811615156200009257600080fd5b60018054600160a060020a031916600160a060020a039290921691909117905562000122565b6000620000c6825162000115565b9392505050565b600060208284031215620000e057600080fd5b6000620000ee8484620000b8565b949350505050565b6000620001038262000109565b92915050565b600160a060020a031690565b60006200010382620000f6565b611d6a80620001326000396000f3fe60806040526004361061013c576000357c01000000000000000000000000000000000000000000000000000000009004806371d23b7d116100bd578063a1e1f07f11610081578063a1e1f07f14610362578063be1075d414610382578063da6295a4146103a2578063f2fde38b146103c2578063f6734bcd146103e25761013c565b806371d23b7d146102b15780638baf79a4146102de5780638da5cb5b146102fe5780638f32d59b1461032057806397c78536146103425761013c565b80634245ac9d116101045780634245ac9d146101f1578063471990ba1461021e5780634eb7221a1461024f57806358cefa4c1461027157806369a1ea11146102915761013c565b806307be5b6d1461013e5780630d4c09601461015157806313c3ade2146101645780631584108b1461019b57806317b0421a146101bb575b005b61013c61014c3660046117dd565b610412565b61013c61015f36600461185a565b61056f565b34801561017057600080fd5b5061018461017f36600461182a565b61083c565b604051610192929190611b15565b60405180910390f35b3480156101a757600080fd5b5061013c6101b63660046117a3565b6108ec565b3480156101c757600080fd5b506101db6101d63660046117a3565b610a18565b6040516101929a99989796959493929190611bcb565b3480156101fd57600080fd5b5061021161020c3660046117dd565b610b34565b6040516101929190611af9565b34801561022a57600080fd5b5061023e610239366004611785565b610c03565b604051610192959493929190611c60565b34801561025b57600080fd5b50610264610c33565b6040516101929190611b30565b34801561027d57600080fd5b5061021161028c3660046117dd565b610c42565b34801561029d57600080fd5b506102116102ac3660046117dd565b610c7e565b3480156102bd57600080fd5b506102d16102cc366004611785565b610cb5565b6040516101929190611b7f565b6102f16102ec3660046118a5565b610d14565b6040516101929190611b07565b34801561030a57600080fd5b50610313611087565b6040516101929190611add565b34801561032c57600080fd5b50610335611096565b6040516101929190611aeb565b34801561034e57600080fd5b5061013c61035d36600461193e565b6110a8565b34801561036e57600080fd5b5061021161037d3660046117dd565b6111a6565b34801561038e57600080fd5b5061021161039d3660046117dd565b6111e9565b3480156103ae57600080fd5b5061013c6103bd3660046117a3565b611220565b3480156103ce57600080fd5b5061013c6103dd366004611785565b611309565b3480156103ee57600080fd5b506104026103fd3660046117a3565b611399565b6040516101929493929190611b8d565b600061041e8484611469565b90506002600182015460ff16600681111561043557fe5b1461043f57600080fd5b600034118015610453575080600501543410155b151561045e57600080fd5b6009810154821061046e57600080fd5b600481015415806104825750806004015442105b151561048d57600080fd5b6000828152600f8201602090815260408083203384529091529020546104b9903463ffffffff6114f816565b6000838152600f83016020908152604080832033845282528083209390935584825260108401905220546104f3903463ffffffff6114f816565b6000838152601083016020908152604080832093909355601184019052205461052390600163ffffffff6114f816565b6000838152601183016020526040902055600d81015461054a90600163ffffffff6114f816565b600d820155600e810154610564903463ffffffff6114f816565b600e90910155505050565b600061057b3383611469565b90506002600182015460ff16600681111561059257fe5b14806105b057506003600182015460ff1660068111156105ae57fe5b145b15156105bb57600080fd5b600981015483146105cb57600080fd5b600481015442106105db57600080fd5b600e810154600061060460646105f884600163ffffffff61150a16565b9063ffffffff61153516565b9050600061062460646105f886600701548661150a90919063ffffffff16565b905081810183036000805b888110156106bd5760008a8a8381811061064557fe5b905060200201359050806000141561065d57506106b5565b606481111561066b57600080fd5b6000828152600c8901602052604090208190559182019161069760646105f8868463ffffffff61150a16565b600b89018054849081106106a757fe5b600091825260209091200155505b60010161062f565b50606481146106cb57600080fd5b600d86015433600090815260036020819052604090912001546106f39163ffffffff6114f816565b33600090815260036020819052604090912090810191909155600e8701546004909101546107269163ffffffff6114f816565b33600090815260036020526040902060048101919091556001908101546107529163ffffffff6114f816565b336000908152600360208190526040808320600190810194909455928901805460ff19166004179055429089015580549151600160a060020a03909216916108fc87150291879190818181858888f193505050501580156107b7573d6000803e3d6000fd5b5060008311156107f057604051339084156108fc029085906000818181858888f193505050501580156107ee573d6000803e3d6000fd5b505b33600160a060020a03167f4cdf964e6e89934ffc032ff3f5be1525aa747560a07d9e380c8bead358e6febd886040516108299190611b07565b60405180910390a2505050505050505050565b600160a060020a03821660008181526003602090815260408083205481516c01000000000000000000000000860281850152908601603480830191909152825180830390910181526054909101825280519083012093835260028252808320600160e060020a03198516845290915281206001015490918291829060ff1660068111156108c557fe5b146108dc576108d7858560010161083c565b6108df565b80845b92509250505b9250929050565b60006108f88383611469565b90506004600182015460ff16600681111561090f57fe5b1461091957600080fd5b6000805b60098301548110156109d6576000818152600c8401602052604090205480151561094757506109ce565b6000828152600f85016020908152604080832033845282528083205485845260108801909252822054600e87015461098192918591611559565b905060008111156109bb5761099c848263ffffffff6114f816565b6000848152600f87016020908152604080832033845290915281205593505b81606414156109cb5750506109d6565b50505b60010161091d565b50600081116109e457600080fd5b604051339082156108fc029083906000818181858888f19350505050158015610a11573d6000803e3d6000fd5b5050505050565b60008080808080808080808b8b82600160a060020a0383166000908152600260209081526040808320600160e060020a03198616845290915290206001015460ff166006811115610a6557fe5b6040805180820190915260178152600080516020611d1183398151915260208201529110610ab25760405160e560020a62461bcd028152600401610aa99190611b3e565b60405180910390fd5b506000610abf8f8f611469565b600181015490915060ff166006811115610ad557fe5b8160020154826003015483600401548460080154856009016000018054905086600d016000015487600d0160010154886006015489600701549c509c509c509c509c509c509c509c509c509c505050509295989b9194979a5092959850565b6000838382600160a060020a0383166000908152600260209081526040808320600160e060020a03198616845290915290206001015460ff166006811115610b7857fe5b6040805180820190915260178152600080516020611d1183398151915260208201529110610bbc5760405160e560020a62461bcd028152600401610aa99190611b3e565b506000610bc98787611469565b60098101549091508510610bdc57600080fd5b60098101805486908110610bec57fe5b906000526020600020015493505050509392505050565b60036020819052600091825260409091208054600182015460028301549383015460049093015491939092909185565b600154600160a060020a031681565b600080610c4f8585611469565b60098101549091508310610c6257600080fd5b60008381526011909101602052604090205490505b9392505050565b600080610c8b8585611469565b60098101549091508310610c9e57600080fd5b6000928352600c0160205250604090205492915050565b610cbd611639565b50600160a060020a0316600090815260036020818152604092839020835160a08101855281548152600182015492810192909252600281015493820193909352908201546060820152600490910154608082015290565b600083351580610d245750428435115b1515610d2f57600080fd5b603c60208501351015610d4157600080fd5b60028510801590610d535750600a8511155b1515610d5e57600080fd5b606460608501351115610d7057600080fd5b84821115610d7d57600080fd5b6002610d87611669565b60408051606060208a02808301820184529282018a815291928392918c918c91829190860190849080828437600092019190915250505090825250604080516020888102828101820190935288825292830192909189918991829185019084908082843760009201919091525050509152509050610e03611680565b6040805160208181018b8152908b02820183019092529081908a8015610e33578160200160208202803883390190505b5090529050610e40611692565b5060408051808201909152600080825234602083015280610e60336115d2565b9150915061018060405190810160405280838152602001876006811115610e8357fe5b81524260208083018290526000604080850191909152908e013590910160608301528c013560808201523460a082015260c0018b6003602002013581526020018e8152602001868152602001858152602001848152506002600033600160a060020a0316600160a060020a031681526020019081526020016000206000837bffffffffffffffffffffffffffffffffffffffffffffffffffffffff19167bffffffffffffffffffffffffffffffffffffffffffffffffffffffff191681526020019081526020016000206000820151816000015560208201518160010160006101000a81548160ff02191690836006811115610f7b57fe5b021790555060408201516002820155606082015160038201556080820151600482015560a0820151600582015560c0820151600682015560e082015160078201556101008201516008820155610120820151805180516009840191610fe5918391602001906116a9565b506020828101518051610ffe92600185019201906116a9565b50505061014082015180518051600b84019161101f918391602001906116a9565b50505061016091909101518051600d83015560200151600e9091015560405133907f38200ecf62e44ebceaabbd4292688e3e06ac3bdaf612a0287f9d1d7f0e3e5ad09061106d908490611b07565b60405180910390a2955050505050505b9695505050505050565b600054600160a060020a031681565b600054600160a060020a031633145b90565b60006110b43383611469565b905060018082015460ff1660068111156110ca57fe5b14806110e857506002600182015460ff1660068111156110e657fe5b145b15156111095760405160e560020a62461bcd028152600401610aa990611b6f565b336000818152600260208181526040808420600160e060020a03198816855282528084206001908101805460ff1916600517905594845260039091529091200154611153916114f8565b33600081815260036020526040908190206002019290925590517f81a8172348667ad6402f7c3aca080b41512f7d5925c666de439a4473e51fe4b79061119a908590611b07565b60405180910390a25050565b6000806111b38585611469565b600981015490915083106111c657600080fd5b6000928352600f0160209081526040808420338552909152909120549392505050565b6000806111f68585611469565b6009810154909150831061120957600080fd5b600092835260100160205250604090205492915050565b600061122c8383611469565b90506005600182015460ff16600681111561124357fe5b148061126157506006600182015460ff16600681111561125f57fe5b145b15156112825760405160e560020a62461bcd028152600401610aa990611b5f565b6000805b60098301548110156112e5576000818152600f8401602090815260408083203384529091529020546112bf90839063ffffffff6114f816565b6000828152600f8501602090815260408083203384529091528120559150600101611286565b50600081116109e45760405160e560020a62461bcd028152600401610aa990611b4f565b611311611096565b151561131c57600080fd5b600160a060020a038116151561133157600080fd5b60008054604051600160a060020a03808516939216917f8be0079c531659141344cd1fd0a4f28419497f9722a3daafe3b4186f6b6457e091a36000805473ffffffffffffffffffffffffffffffffffffffff1916600160a060020a0392909216919091179055565b6000808080858582600160a060020a0383166000908152600260209081526040808320600160e060020a03198616845290915290206001015460ff1660068111156113e057fe5b6040805180820190915260178152600080516020611d11833981519152602082015291106114245760405160e560020a62461bcd028152600401610aa99190611b3e565b5060006114318989611469565b600181015490915060ff16600681111561144757fe5b6003820154600d830154600e90930154919b909a509198509650945050505050565b600160a060020a0382166000908152600260209081526040808320600160e060020a031985168452909152812081600182015460ff1660068111156114aa57fe5b6040805180820190915260178152600080516020611d11833981519152602082015291106114ee5760405160e560020a62461bcd028152600401610aa99190611b3e565b5090505b92915050565b600082820183811015610c7757600080fd5b600082151561151b575060006114f2565b82820282848281151561152a57fe5b0414610c7757600080fd5b600080821161154357600080fd5b6000828481151561155057fe5b04949350505050565b6000808511801561156a5750600083115b156115c657600061158c68056bc75e2d6310000087028563ffffffff61153516565b90506115be68056bc75e2d631000006105f8836115b2606483898c63ffffffff61150a16565b9063ffffffff61150a16565b9150506115ca565b5060005b949350505050565b6000806000806115e385600061083c565b600160a060020a0387166000908152600360205260409020549193509150611614906001830163ffffffff6114f816565b600160a060020a03959095166000908152600360205260409020859055509293915050565b60a06040519081016040528060008152602001600081526020016000815260200160008152602001600081525090565b604080518082019091526060808252602082015290565b60408051602081019091526060815290565b604080518082019091526000808252602082015290565b8280548282559060005260206000209081019282156116e4579160200282015b828111156116e45782518255916020019190600101906116c9565b506116f09291506116f4565b5090565b6110a591905b808211156116f057600081556001016116fa565b6000610c778235611ca6565b600080601f8301841361172c57600080fd5b50813567ffffffffffffffff81111561174457600080fd5b6020830191508360208202830111156108e557600080fd5b80608081018310156114f257600080fd5b6000610c7782356110a5565b6000610c778235611cb6565b60006020828403121561179757600080fd5b60006115ca848461170e565b600080604083850312156117b657600080fd5b60006117c2858561170e565b92505060206117d385828601611779565b9150509250929050565b6000806000606084860312156117f257600080fd5b60006117fe868661170e565b935050602061180f86828701611779565b92505060406118208682870161176d565b9150509250925092565b6000806040838503121561183d57600080fd5b6000611849858561170e565b92505060206117d38582860161176d565b60008060006040848603121561186f57600080fd5b833567ffffffffffffffff81111561188657600080fd5b6118928682870161171a565b9350935050602061182086828701611779565b60008060008060008060e087890312156118be57600080fd5b60006118ca898961176d565b965050602087013567ffffffffffffffff8111156118e757600080fd5b6118f389828a0161171a565b9550955050604061190689828a0161175c565b93505060c087013567ffffffffffffffff81111561192357600080fd5b61192f89828a0161171a565b92509250509295509295509295565b60006020828403121561195057600080fd5b60006115ca8484611779565b61196581611ca6565b82525050565b61196581611cb1565b611965816110a5565b61196581611cb6565b61196581611ccf565b600061199a82611ca2565b8084526119ae816020860160208601611cda565b6119b781611d06565b9093016020019392505050565b601881527f4e6f20726566756e647320746f20626520636c61696d65640000000000000000602082015260400190565b602881527f526f756e64206973206e6569746865722063616e63656c6c6564206e6f72207460208201527f696d6564206f7574000000000000000000000000000000000000000000000000604082015260600190565b601981527f526f756e642063616e6e6f742062652063616e63656c6c656400000000000000602082015260400190565b805160a0830190611a8b8482611974565b506020820151611a9e6020850182611974565b506040820151611ab16040850182611974565b506060820151611ac46060850182611974565b506080820151611ad76080850182611974565b50505050565b602081016114f2828461195c565b602081016114f2828461196b565b602081016114f28284611974565b602081016114f2828461197d565b60408101611b23828561197d565b610c776020830184611974565b602081016114f28284611986565b60208082528101610c77818461198f565b602080825281016114f2816119c4565b602080825281016114f2816119f4565b602080825281016114f281611a4a565b60a081016114f28284611a7a565b60808101611b9b8287611974565b611ba86020830186611974565b611bb56040830185611974565b611bc26060830184611974565b95945050505050565b6101408101611bda828d611974565b611be7602083018c611974565b611bf4604083018b611974565b611c01606083018a611974565b611c0e6080830189611974565b611c1b60a0830188611974565b611c2860c0830187611974565b611c3560e0830186611974565b611c43610100830185611974565b611c51610120830184611974565b9b9a5050505050505050505050565b60a08101611c6e8288611974565b611c7b6020830187611974565b611c886040830186611974565b611c956060830185611974565b61107d6080830184611974565b5190565b60006114f282611cc3565b151590565b600160e060020a03191690565b600160a060020a031690565b60006114f282611ca6565b60005b83811015611cf5578181015183820152602001611cdd565b83811115611ad75750506000910152565b601f01601f19169056fe484f53545f4f525f524f554e445f4e4f545f464f554e44000000000000000000a265627a7a723058203863630bcfc483cb0f602ef1274ddaadbd8eaec541ecf069f6cc41e76094b5dd6c6578706572696d656e74616cf50037",
  "source": "pragma solidity ^0.5.3;\npragma experimental ABIEncoderV2;\n\nimport './NameRegistry.sol';\nimport './external/Owned.sol';\nimport './external/SafeMath.sol';\n\n\n/**\n * BETL\n * \n * A smart contract to allow hosts to create betting rounds for their audience. A round is\n * represented by a question and an exhaustive set of possible answers or outcomes. Players,\n * which form the audience, participate by placing their bets while the round is open.\n * After a round is decided by the host, players can claim pending payouts. Depending on the\n * round mode, a round can have multiple winning outcomes with different payout allocations.\n *\n * For example: \"Will I rank top5 by end of this competitive season?\" associates a binary\n * round with the outcomes \"Yes\" and \"No\". Both outcomes are mutually exclusive, while the\n * outcome space is exhausted. The payout allocation in percent is denoted as (100,0), where\n * the first number represents the allocation of the winning outcome.\n * \n * In comparison, \"What is my rank by the end of this season?\" likely represents a non-\n * binary round. Considering the outcomes \"1st\", \"2nd\", \"3rd\", and \"4th or lower\", the host\n * can decide payout distributions as (100,0,0,0). This means the winning outcome allocates\n * 100% of the pool. Alternatively, \"close bets\" can be rewarded as well with tiers as\n * (80,20,0,0) or (50,25,15,10).\n * \n * By using a name registry, hosts can register human-readable names with their Ethereum\n * addresses. This allows easier discoverability by players.\n *\n * WARNING: This source code is unaudited an untested\n */\ncontract Betl is Owned {\n  using SafeMath for uint;\n\n  uint private constant FEE_PERCENT = 1;\n  uint private constant MIN_TIMEOUT = 1 minutes;\n  uint private constant MODE_WHATEVER = 0;       // usecase for modes?\n  uint private constant MAX_OUTCOMES = 10;\n\n  enum Status {\n    UNDEFINED, // Round doesn't exist\n    SCHEDULED, // Round exists and is scheduled for the future\n    OPEN,\n    CLOSED,\n    FINISHED,\n    CANCELLED,\n    TIMEOUT\n  }\n\n  // Errors\n  // TODO: Extend, doublecheck rationale\n  string constant HOST_NAME_NOT_FOUND = 'HOST_NAME_NOT_FOUND';\n  string constant HOST_OR_ROUND_NOT_FOUND = 'HOST_OR_ROUND_NOT_FOUND';\n\n  event RoundCreated(address indexed host, bytes4 roundId);\n  event RoundFinished(address indexed host, bytes4 roundId);\n  event RoundCancelled(address indexed host, bytes4 roundId);\n\n  struct Outcomes {\n    bytes32[] outcomes;\n    // Specifies payout distributions per totally or relatively winning outcome\n    uint[] payoutTiers;\n    //bool hasFlexOutcomes;\n  }\n\n  struct Results {\n    uint[] payouts;\n    // outcomeIndex => winShare [0-100]\n    mapping(uint => uint) outcomeWinShares;\n  }\n\n  struct Stats {\n    uint numBets;\n    uint poolSize;\n  }\n\n  struct Round {\n    uint roundNumber;\n    Status status;\n    uint createdAt;\n    uint endedAt;\n    uint timeoutAt;\n    uint minBet;\n    uint hostBonus;\n    uint hostFee;   // in percent\n\n    bytes32 question;\n    Outcomes outcomes;\n    Results results;\n    Stats stats;\n    // outcomeIndex =>      player  => bet\n    mapping(uint => mapping(address => uint)) playerBets;\n    // outcomeIndex => pool size\n    mapping(uint => uint) outcomePools;\n    // outcomeIndex => number of bets\n    mapping(uint => uint) outcomeNumBets;\n  }\n\n  struct HostContext {\n    uint nextRoundNumber; // == numRoundsCreated\n    uint numRoundsSuccess;\n    uint numRoundsCancelled;\n    uint totalNumBets;\n    uint totalPoolSize;\n  }\n\n  NameRegistry public nameRegistry;\n\n  //      host    =>  hash(host,id) => Round\n  mapping(address => mapping(bytes4 => Round)) rounds;\n\n  //      host    => stats\n  mapping(address => HostContext) public hostContext;\n\n  modifier roundExists(address _host, bytes4 _roundId) {\n    require(rounds[_host][_roundId].status > Status.UNDEFINED, HOST_OR_ROUND_NOT_FOUND);\n    _;\n  }\n\n  constructor(NameRegistry _nameRegistry)\n    public\n  {\n    require(_nameRegistry != NameRegistry(0));\n    nameRegistry = _nameRegistry;\n  } \n\n  function getRound(address _host, bytes4 _roundId) private view returns (Round storage) {\n    Round storage r = rounds[_host][_roundId];\n    // verify existance of round without modifier `roundExists` to save gas\n    require(r.status > Status.UNDEFINED, HOST_OR_ROUND_NOT_FOUND);\n\n    return r;\n  }\n\n  // Frontend needs to fetch roundId of created round.\n  function createNextRoundId(address _host, uint _offset) public view returns (bytes4, uint) {\n    bytes4 nextRoundId = bytes4(keccak256(abi.encodePacked(_host, hostContext[_host].nextRoundNumber + _offset)));\n\n    // In case `nextRoundId` exists already (chance is 1:4.3e9), recursively call this function again with offset\n    return rounds[_host][nextRoundId].status == Status.UNDEFINED\n      ? (nextRoundId, _offset)\n      : createNextRoundId(_host, _offset + 1);\n  }\n\n  function createNewRoundIdForHost(address _host) private returns (uint, bytes4) {\n    (bytes4 createdRoundId, uint offset) = createNextRoundId(_host, 0);\n    hostContext[_host].nextRoundNumber = hostContext[_host].nextRoundNumber.add(1 + offset);\n  \n    return (hostContext[_host].nextRoundNumber, createdRoundId);\n  }\n\n  // COSTS: 294518 gas -> @ 5Gwei: 1 dollar\n  function createRound(\n    bytes32 _question,\n    bytes32[] calldata _outcomes,\n    uint[4] calldata _configData, // array of format `[scheduledAt, timeout, minBet, hostFeeInPercent]`\n    uint[] calldata _payoutTiers  // Pre-defined 'round modes' can be offered on the UI-level\n  )\n    external\n    payable\n    returns (bytes4)\n  {\n    require(_configData[0] == 0 || _configData[0] > now);\n    require(_configData[1] >= MIN_TIMEOUT);\n    require(_outcomes.length >= 2 && _outcomes.length <= MAX_OUTCOMES);\n    require(_configData[3] <= 100);\n    require(_payoutTiers.length <= _outcomes.length);\n\n    Status status = Status.OPEN;\n\n    Outcomes memory outcomes = Outcomes({\n      outcomes: _outcomes,\n      payoutTiers: _payoutTiers // in DESC order\n    });\n\n    Results memory results = Results({\n      payouts: new uint[](_outcomes.length)\n    });\n\n    Stats memory stats = Stats({\n      numBets: 0,\n      poolSize: msg.value\n    });\n\n    (uint roundNumber, bytes4 roundId) = createNewRoundIdForHost(msg.sender);\n\n    rounds[msg.sender][roundId] = Round({\n      roundNumber: roundNumber,\n      status: status,\n      createdAt: now,\n      endedAt: 0,\n      timeoutAt: now + _configData[1],\n      minBet: _configData[2],\n      hostBonus: msg.value,\n      hostFee: _configData[3],\n      question: _question,\n      outcomes: outcomes,\n      results: results,\n      stats: stats\n    });\n\n    emit RoundCreated(msg.sender, roundId);\n\n    return roundId;\n  }\n\n  function bet(\n    address _host,\n    bytes4 _roundId,\n    uint _outcomeIndex\n  )\n    external\n    payable\n  {\n    Round storage r = getRound(_host, _roundId);\n    require(r.status == Status.OPEN);\n\n    require(msg.value > 0 && msg.value >= r.minBet);\n    require(_outcomeIndex < r.outcomes.outcomes.length);\n    require(r.timeoutAt == 0 || now < r.timeoutAt); // TODO: refactor to checkTimeout/checkStatus modifier?\n  \n    r.playerBets[_outcomeIndex][msg.sender] = r.playerBets[_outcomeIndex][msg.sender].add(msg.value);\n    r.outcomePools[_outcomeIndex] = r.outcomePools[_outcomeIndex].add(msg.value);\n    r.outcomeNumBets[_outcomeIndex] = r.outcomeNumBets[_outcomeIndex].add(1);\n    r.stats.numBets = r.stats.numBets.add(1);\n    r.stats.poolSize = r.stats.poolSize.add(msg.value);\n  } \n\n  function pickWinnerAndEnd(\n    uint[] calldata _picks,\n    bytes4 _roundId\n  )\n    external\n    payable\n  {\n    Round storage r = getRound(msg.sender, _roundId);\n    require(r.status == Status.OPEN || r.status == Status.CLOSED);\n    require(_picks.length == r.outcomes.outcomes.length);\n    require(now < r.timeoutAt); // TODO: add modifier checkTimeout/checkStatus ?\n\n    uint poolSize = r.stats.poolSize;\n    uint ownerFee = poolSize.mul(FEE_PERCENT).div(100);\n    uint hostFee = poolSize.mul(r.hostFee).div(100);\n    uint payoutPool = poolSize - (ownerFee + hostFee);\n\n    uint allShares;\n\n    for (uint i = 0; i < _picks.length; i++) {\n      uint outcomeShare = _picks[i];\n\n      if(outcomeShare == 0) continue;\n\n      require(outcomeShare <= 100);\n      allShares += outcomeShare;\n\n      // populate lookup to simplify getter function `getRoundOutcomeWinShare`\n      r.results.outcomeWinShares[i] = outcomeShare;\n\n      // Register `outcomeShare` percent of `payoutPool` to payouts of iterated outcome\n      r.results.payouts[i] = payoutPool.mul(outcomeShare).div(100);\n    }\n    require(allShares == 100);\n\n    hostContext[msg.sender].totalNumBets = hostContext[msg.sender].totalNumBets.add(r.stats.numBets);\n    hostContext[msg.sender].totalPoolSize = hostContext[msg.sender].totalPoolSize.add(r.stats.poolSize);\n    hostContext[msg.sender].numRoundsSuccess = hostContext[msg.sender].numRoundsSuccess.add(1);\n    r.status = Status.FINISHED;\n    r.endedAt = now;\n\n    owner.transfer(ownerFee);\n    if (hostFee > 0) {\n      msg.sender.transfer(hostFee);\n    }\n\n    emit RoundFinished(msg.sender, _roundId);\n  }\n\n  function getOutcomeId(Round storage _round, uint _outcomeIndex) private view returns (bytes32) {\n    return keccak256(abi.encodePacked(_round.outcomes.outcomes[_outcomeIndex]));\n  }\n\n  function claimPayout(address _host, bytes4 _roundId) external {\n    Round storage r = getRound(_host, _roundId);\n    require(r.status == Status.FINISHED);\n    \n    uint payout;\n\n    for (uint i = 0; i < r.outcomes.outcomes.length; i++) {\n      uint outcomeShare = r.results.outcomeWinShares[i];\n\n      if (outcomeShare == 0) continue;\n   \n      uint myOutcomePayout = getPayoutForOutcome(\n          r.playerBets[i][msg.sender],\n          outcomeShare,\n          r.outcomePools[i],\n          r.stats.poolSize\n      );\n\n      if (myOutcomePayout > 0) {\n        payout = payout.add(myOutcomePayout);\n\n        // Reset player bets so that they can't be claimed again\n        r.playerBets[i][msg.sender] = 0;\n      }\n\n      // If the outcome was picked as only winner (outcomeShare == 100 (%)) we can\n      // break out of the loop, as we found the player's total payout already\n      if (outcomeShare == 100) {\n        break;\n      }\n    }\n\n    require(payout > 0);\n\n    msg.sender.transfer(payout);\n  }\n\n  function claimRefund(address _host, bytes4 _roundId) external {\n    Round storage r = getRound(_host, _roundId);\n    require(r.status == Status.CANCELLED || r.status == Status.TIMEOUT, \"Round is neither cancelled nor timed out\");\n\n    uint myRefund;\n\n    for(uint i = 0; i < r.outcomes.outcomes.length; i++) {\n      myRefund = myRefund.add(r.playerBets[i][msg.sender]);\n      r.playerBets[i][msg.sender] = 0;\n    }\n\n    require(myRefund > 0, \"No refunds to be claimed\");\n\n    msg.sender.transfer(myRefund);\n  }\n\n  function getPayoutForOutcome(uint _bet, uint _outcomeShare, uint _outcomePool, uint _roundPool) pure private returns (uint) {\n    if (_bet > 0 && _outcomePool > 0) {\n      uint outcomeShare = (_bet*1e20).div(_outcomePool);\n\n      // payout = player's share of the outcome's pool times the outcome's share of the total distribution\n      return _roundPool\n          .mul(_outcomeShare)\n          .div(100)\n          .mul(outcomeShare)\n          .div(1e20);\n    }\n    return 0;\n  }\n\n  function cancelRound(bytes4 _roundId) external {\n    Round storage r = getRound(msg.sender, _roundId);\n    require(r.status == Status.SCHEDULED || r.status == Status.OPEN, \"Round cannot be cancelled\");\n\n    rounds[msg.sender][_roundId].status = Status.CANCELLED;\n    hostContext[msg.sender].numRoundsCancelled = hostContext[msg.sender].numRoundsCancelled.add(1);\n\n    emit RoundCancelled(msg.sender, _roundId);\n  }\n\n\n  ///\n  /// Getters used in UI\n  ///\n\n  function getRoundInfo(\n    address _host,\n    bytes4 _roundId\n  )\n    public\n    view\n    roundExists(_host, _roundId)\n    // TODO: refactor into returning struct with ABIEncoderV2\n    // status, createdAt, endedAt, timeoutAt, question, numOutcomes, numBets, poolSize, hostBonus, hostFee\n    returns (uint, uint, uint, uint, bytes32, uint, uint, uint, uint, uint)\n  {\n    Round storage r = getRound(_host, _roundId);\n   \n    return (\n      uint256(r.status),\n      r.createdAt,\n      r.endedAt,\n      r.timeoutAt,\n      r.question,\n      r.outcomes.outcomes.length,\n      r.stats.numBets,\n      r.stats.poolSize,\n      r.hostBonus,\n      r.hostFee\n    );\n  }\n\n  // Convenience function for the client to only fetch fields that can be\n  // updated in the lifecycle of a Round\n  function getRoundInfoChanges(\n    address _host,\n    bytes4 _roundId\n  )\n    public\n    view\n    roundExists(_host, _roundId)\n    returns (uint, uint, uint, uint)\n  {\n    Round storage r = getRound(_host, _roundId);\n\n    return (\n      uint256(r.status),\n      r.endedAt,\n      r.stats.numBets,\n      r.stats.poolSize\n    );\n  }\n  \n  function getRoundOutcome(address _host, bytes4 _roundId, uint _outcomeIndex) public view roundExists(_host, _roundId) returns (bytes32) {\n    Round storage r = getRound(_host, _roundId);\n    require(_outcomeIndex < r.outcomes.outcomes.length);\n    return r.outcomes.outcomes[_outcomeIndex];\n  }\n  \n  function getRoundOutcomePool(address _host, bytes4 _roundId, uint _outcomeIndex) public view returns (uint) {\n    Round storage r = getRound(_host, _roundId);\n    require(_outcomeIndex < r.outcomes.outcomes.length);\n    return r.outcomePools[_outcomeIndex];\n  }\n  \n  function getRoundOutcomeNumBets(address _host, bytes4 _roundId, uint _outcomeIndex) public view returns (uint) {\n    Round storage r = getRound(_host, _roundId);\n    require(_outcomeIndex < r.outcomes.outcomes.length);\n    return r.outcomeNumBets[_outcomeIndex];\n  }\n  \n  function getRoundOutcomeBet(address _host, bytes4 _roundId, uint _outcomeIndex) public view returns (uint) {\n    Round storage r = getRound(_host, _roundId);\n    require(_outcomeIndex < r.outcomes.outcomes.length);\n    return r.playerBets[_outcomeIndex][msg.sender];\n  }\n  \n  function getRoundOutcomeWinShare(address _host, bytes4 _roundId, uint _outcomeIndex) public view returns (uint) {\n    Round storage r = getRound(_host, _roundId);\n    require(_outcomeIndex < r.outcomes.outcomes.length);\n    return r.results.outcomeWinShares[_outcomeIndex];\n  }\n\n  // TODO: Check if public getter can do this already\n  function getHostContext(address _host) external view returns (HostContext memory) {\n    return hostContext[_host];\n  }\n\n  function ()\n    external\n    payable\n  {\n    // Do not revert to allow for tips in ETH\n  }\n}",
  "sourcePath": "/Users/mo/dev/betl/smart-contract/contracts/Betl.sol",
  "compiler": {
    "name": "solc",
    "version": "0.5.3+commit.10d17f24.Emscripten.clang"
  },
  "schemaVersion": "3.0.1",
  "updatedAt": "2019-02-03T22:10:34.263Z",
  "devdoc": {
    "methods": {
      "isOwner()": {
        "return": "true if `msg.sender` is the owner of the contract."
      },
      "transferOwnership(address)": {
        "details": "Allows the current owner to transfer control of the contract to a newOwner.",
        "params": {
          "_newOwner": "The address to transfer ownership to."
        }
      }
    }
  },
  "userdoc": {
    "methods": {
      "getRoundInfo(address,bytes4)": {
        "notice": " Getters used in UI "
      }
    },
    "notice": "BETL  * A smart contract to allow hosts to create betting rounds for their audience. A round is represented by a question and an exhaustive set of possible answers or outcomes. Players, which form the audience, participate by placing their bets while the round is open. After a round is decided by the host, players can claim pending payouts. Depending on the round mode, a round can have multiple winning outcomes with different payout allocations. * For example: \"Will I rank top5 by end of this competitive season?\" associates a binary round with the outcomes \"Yes\" and \"No\". Both outcomes are mutually exclusive, while the outcome space is exhausted. The payout allocation in percent is denoted as (100,0), where the first number represents the allocation of the winning outcome.  * In comparison, \"What is my rank by the end of this season?\" likely represents a non- binary round. Considering the outcomes \"1st\", \"2nd\", \"3rd\", and \"4th or lower\", the host can decide payout distributions as (100,0,0,0). This means the winning outcome allocates 100% of the pool. Alternatively, \"close bets\" can be rewarded as well with tiers as (80,20,0,0) or (50,25,15,10).  * By using a name registry, hosts can register human-readable names with their Ethereum addresses. This allows easier discoverability by players. * WARNING: This source code is unaudited an untested"
  }
}